S011000044617368626F6172642E737265638B
S11300000C944A000C9467000C9467000C946700ED
S11300100C9467000C9467000C9467000C946700C0
S11300200C9467000C9467000C9467000C946700B0
S11300300C94DC140C9409150C9436150C94EA15E4
S11300400C94C8140C94D2140C945B020C946700A6
S11300500C9467000C9467000C9467000C94670080
S11300600C9467000C9467000C9467000C94670070
S11300700C9463150C9490150C94BD150C94F41504
S11300800C9467000C9467000C9467000C94670050
S11300900C94670011241FBECFEFD8E0DEBFCDBFA4
S11300A014E0A0E0B1E0E6E6FDE202C005900D92A6
S11300B0AC35B107D9F715E0ACE5B4E001C01D9249
S11300C0AA37B107E1F70E9469000C94B1160C94A9
S11300D000000E945414A8950E94CD12FCCF9CB13C
S11300E092959F7090FD0BC0E82FF0E0EE0FFF1F7C
S11300F0EE0FFF1FE351FB4F91E0908309C0E82FFF
S1130100F0E0EE0FFF1FEE0FFF1FE351FB4F1082D5
S11301109CB192959695977090FD0BC0E82FF0E0F6
S1130120EE0FFF1FEE0FFF1FE351FB4F91E0918392
S113013009C0E82FF0E0EE0FFF1FEE0FFF1FE351A1
S1130140FB4F118296B1929596959695937090FD7A
S11301500BC0E82FF0E0EE0FFF1FEE0FFF1FE3517F
S1130160FB4F91E0928309C0E82FF0E0EE0FFF1FF0
S1130170EE0FFF1FE351FB4F128296B196959695B1
S1130180969590FD0BC0E82FF0E0EE0FFF1FEE0FE9
S1130190FF1FE351FB4F81E083830895E82FF0E0D4
S11301A0EE0FFF1FEE0FFF1FE351FB4F1382089565
S11301B06E98769A08956F98779A089524982C9A51
S11301C0089576986E9A089577986F9A08952C9862
S11301D0249A089580910E05882321F010920E052B
S11301E00E947D1180910F05882321F010920F0544
S11301F00E946F118091F704882321F085E00E940A
S1130200E01203C085E00E9418138091F304882350
S113021021F086E00E94E01203C086E00E941813D9
S11302208091F004882321F087E00E94E01203C04B
S113023087E00E9418138091F804882321F088E055
S11302400E94E01203C088E00E9418138091F40415
S1130250882321F089E00E94E01203C089E00E9413
S1130260181310925D048091EF04882319F081E043
S113027080935D048091F704882329F080915D04C4
S1130280826080935D048091F304882329F0809137
S11302905D04846080935D048091F004882329F0D8
S11302A080915D04886080935D048091F4048823C8
S11302B029F080915D04806180935D048091F8044D
S11302C0882329F080915D04806280935D041092FC
S11302D05C048091F104882319F082E080935C042B
S11302E08091F204882329F080915C0481608093DA
S11302F05C048091EE04882329F080915C0484607E
S113030080935C048091ED04882329F080915C043F
S1130310886080935C048091F504882329F080919F
S11303205C04806180935C048091F604882329F046
S113033080915C04806280935C04089585B78F7E0D
S113034085BF8DB18F6B8DB9769A8DB18F678DB95D
S1130350779A84B18F6E84B92C9A6C98749A6D983C
S1130360759A3E98469A3B98439AE4E1F5E0CF01AA
S11303700C9621E02193E817F907E1F70895CF924D
S1130380DF92EF92FF920F931F93CF93DF93C8ED09
S1130390D0E0FE0109950BED10E0F80109950F2E50
S11303A0FEEDEF2EF0E0FF2EF02DF7010995F80198
S11303B00995F70109950E94E1000F2EFFE6CF2E63
S11303C0F0E0DF2EF02D80E090E0F6010995FE01CB
S11303D00995F70109950E94E40081E090E0F60197
S11303E00995FE010995F80109950E94E70082E04C
S11303F090E0F6010995FE010995F8010995F701C8
S11304000995EAEFF4E0ADEEB4E004E115E086E02E
S113041095E0AF01445F5F4F71E09F016081662307
S113042059F46C91613041F4E8016881613081F4E0
S1130430EC017883E8011882E9012881213041F434
S11304402C91222329F4E8012881222309F47883BA
S1130450319611960F5F1F4F0196E417F507E9F6E1
S11304600E94EA00AAEFB4E0EDEEF4E08CE0019023
S11304700D928150E1F7DF91CF911F910F91FF9081
S1130480EF90DF90CF9008952DEE34E0280F311DCA
S1130490F90180810895089A10980895109A089592
S11304A0109808950E944E0283E080935E0484E0D5
S11304B080935F0408951F920F920FB60F92112438
S11304C02F933F934F935F936F937F938F939F9358
S11304D0AF93BF93CF93EF93FF93C091EE00C0FF10
S11304E008C087E00E94B311EEEEF0E080818E7FB9
S11304F08083C6FF08C088E00E94B311EEEEF0E0EE
S113050080818F7B8083C5FF08C089E00E94B3117E
S1130510EBEDF0E080818F778083FF91EF91CF91B5
S1130520BF91AF919F918F917F916F915F914F9107
S11305303F912F910F900FBE0F901F90189585E05B
S11305400E9456061092EE00EBEDF0E08081886B7D
S113055080838FE78093DF008FEF8093DE0010921B
S11305602A0510922C0510922B0510922E0510923C
S11305702D050895FC0170876783178616865383BB
S1130580428326838FEF97E0A0E0B0E082879387D1
S1130590A487B587089590932E0580932D0525E0B3
S11305A0FC01218380912D0590912E050E946B06FC
S11305B008950E94450CEBEDF0E080818068808313
S11305C0089590912A0580912C05981741F1E091A6
S11305D02D05F0912E05309741F08CE081838091B8
S11305E02D0590912E050E946B06E0912C05F0E0FC
S11305F0EE0FFF1FE05EFA4FA081B18182E01196F9
S11306008C93808191810E946B06882321F081E084
S11306100E94A011089581E080932B050895E09134
S11306202D05F0912E05309741F085E0818380916E
S11306302D0590912E050E946B060895CF93DF93AC
S1130640EC01E0912A05F0E0CF01019665E070E04D
S11306500E948A1620912C0530E08217930749F0F6
S1130660EE0FFF1FE05EFA4FD183C08380932A050B
S113067003C084E00E94A01180912B05882311F40B
S11306800E94E102DF91CF910895E0912C05F0E002
S1130690EE0FFF1FE05EFA4F808191810895E09193
S11306A02C05F0E0EE0FFF1FE05EFA4FA081B18150
S11306B08CE011968C93808191810E946B0610923C
S11306C02B0580912C0590E0019665E070E00E9476
S11306D08A1680932C050E94E102089580912B05CF
S11306E08130F9F4E0912C05F0E0EE0FFF1FE05E9D
S11306F0FA4FA081B1818CE011968C938081918115
S11307000E946B0682E00E94A01110922B0580913A
S11307102C0590E0019665E070E00E948A168093B3
S11307202C050895CF93DF93EC018CE08983CE01EF
S11307300E946B06CE010E94450C8130D9F385E0FE
S11307408983CE010E946B06DF91CF91089520E04A
S1130750ADEEB0E08EEE90E0322F3295307F3C93D8
S1130760FC011192E83FF105E1F72F5F2F30A1F76B
S11307700895EDEEF0E0208110828091EF00807CFE
S113078069F081E0ADEEB0E0EFEEF0E0982F9295E5
S1130790907F9C939081907C29F401C080E0209309
S11307A0ED0008958F5F8F3089F72093ED008FEF70
S11307B008958091EF00807C69F09091EE00892F7C
S11307C0807E803241F0803431F0803A21F0892FEC
S11307D08F7108958FEF0895CF93DF93AC018091CB
S11307E0EF0090E08F70907018161906A4F460E082
S11307F0EAEFF0E0CFEED0E08081DA01A60FB11D80
S11308008C936F5F8881262F30E090E08F7090701A
S1130810281739078CF3DF91CF9108952F923F92D7
S11308204F925F926F927F928F929F92AF92BF92FC
S1130830CF92DF92EF92FF920F931F93CF93DF93A8
S113084000D000D000D0CDB7DEB7882309F47CC037
S11308508091E20090E08E7790709595879501964F
S1130860823091055CF08091E20090E08E77907088
S113087095958795282F2F5F298302C081E089836E
S11308808091E30090E08E70907095958795019625
S11308908230910554F08091E30090E08E70907066
S11308A095958795382E339402C0332433948091E0
S11308B0E40090E08E709070959587950196833052
S11308C0910554F08091E40090E08E7090709595BD
S11308D08795782E739403C07724689471F8809177
S11308E0E40090E08077907095958795959587952D
S11308F0959587959595879501968330910584F014
S11309008091E40090E08077907095958795959517
S113091087959595879595958795682E639403C0DB
S11309206624689461F8872D90E0830D911D860DEF
S1130930911D01968830910514F488E090E08A8333
S113094040E02224239410C041E0222466246894C9
S113095061F87724689471F898E09A830F2EF3E095
S11309603F2EF02DA1E0A98320E0ADEEB0E08EEEA5
S113097090E0322F3295307F3C93FC011192E83F96
S1130980F105E1F72F5F2F30A1F7A42E622DDD24AE
S11309908824992470E00F2EF8EDEF2EFF24F02D1B
S11309A051E0E9EDF0E00AED10E020E0C52EB22EB2
S11309B0B2E0BB8388E08E8391E0A91609F057C0AA
S11309C0D7015C930894811C911C89818150880F04
S11309D0A2EEB0E08C93862D869590E001972C01D1
S11309E0440C551C440C551C440C551C440C551CFF
S11309F0440C551C832D90E00197880F991F84297E
S1130A00A3EEB0E08C93862D90E001972C01440C6A
S1130A10551C440C551C440C551C440C551C872D6A
S1130A2090E00197880F991F84298160A4EEB0E0BB
S1130A308C93C401969587959695879596958795F9
S1130A40A5EEB0E08C93ADEEB0E01C92AEEEB0E05B
S1130A501C9280E8AFEEB0E08C938AE0D7018C93CF
S1130A60808182FFFDCF8FEFD8018C93722F4130AC
S1130A70B1F5AEEEB0E08C9190E085FF0EC0AFEE24
S1130A80B0E08C918F738C93D7011C92808182FD8E
S1130A90FDCFD52E622F322FBEC08F71907000977C
S1130AA011F06C2D4B2DD8014C90552445FE0DC0F2
S1130AB0772329F48C9180628C937C2D06C0D80115
S1130AC08C9180628C936C2D4B2DC2018F70907031
S1130AD0009709F09DC0413061F2352F01C0352FD8
S1130AE0613009F078C0832F372D7A2CAD2CD72EA6
S1130AF0782F21103F5F393078F1B7E0B61560F5F3
S1130B008A81893131F08F5F8A832B2C6B80362D5B
S1130B1059C09981903441F09F5F99832B2C6B804D
S1130B20362DAE81AA834EC0A72C7D2DAFEEB0E04A
S1130B308C918F738C93D7011C92808182FDFDCFA1
S1130B40D22E322F222E6624689461F8772468947A
S1130B5071F8B8E0BA8369C0363058F0432E552492
S1130B60862D90E001968415950524F46394362D22
S1130B7001C0632E362C330E30948A81380E832DB7
S1130B8081508830E0F4462C5524832D90E0DC011C
S1130B901196A30FB11DBD83AC83C201880F991FA9
S1130BA0880F991F8A179B0764F0C201880F991F49
S1130BB0840D951DA817B90784F52C2C03C02C2C83
S1130BC001C02C2C613009F494CF872F7D2DDA2CB1
S1130BD0A72C732E382F313009F4EECE8D2D2696A6
S1130BE00FB6F894DEBF0FBECDBFDF91CF911F913A
S1130BF00F91FF90EF90DF90CF90BF90AF909F90B8
S1130C008F907F906F905F904F903F902F900895BA
S1130C10A52E652F352F422F63CF872F7D2DDA2CFC
S1130C20A72C732E382F452F252E622FD4CF8093D7
S1130C30E2006093E3004093E40081E0089591E0D2
S1130C409093D800853031F482E068E045E20E9458
S1130C50170606C01092E2001092E3001092E4001E
S1130C6081E008950F931F93FC018785882391F4F5
S1130C7002851385248535850F2EF2E1000F111F9F
S1130C80221F331FFA95D1F7F02D0F6F1F6F2360CA
S1130C90306E05C00285138524853585306E602F3E
S1130CA0712F822F932F1F910F9108950E941F0679
S1130CB0882349F00E94A703E8EDF0E08081826078
S1130CC0808381E0089580E00895E8EDF0E080817C
S1130CD08D7F808308950F931F93CF93DF9300D06C
S1130CE000D0CDB7DEB78C01DC0111968C91119741
S1130CF08C30B1F419968C911997803669F48C91E3
S1130D008295807F8093ED00EFEEF0E080818F7319
S1130D1080831092EE001C92F801118680E0ACC52D
S1130D200E94B9038F3F09F4A1C590E6D801199632
S1130D309C9319978C938295807F8093ED00EEEEBF
S1130D40F0E01192E83FF105E1F7F8018181863086
S1130D5009F456C2873090F4833009F412C1843008
S1130D6030F4813011F1823009F07CC598C08430B0
S1130D7009F467C1853009F075C5AAC1893009F441
S1130D80BEC38A3038F4873009F48FC2883009F042
S1130D9069C51BC38A3021F08B3009F063C5B1C427
S1130DA08681882309F049C457C4F80187858823BC
S1130DB069F194819295969597708581880F880F33
S1130DC0880F890F8093F30093819295969597707D
S1130DD08481880F880F880F890F8093F200928195
S1130DE09295969597708381880F880F880F890F45
S1130DF08093F1008281880F880F880F8093F00020
S1130E00EFEEF0E080818061808316C09281969538
S1130E109695969583818295880F807E890F80931D
S1130E20F30082818295880F807E8093F200EFEE3A
S1130E30F0E080818F7E8083F8018681882379F0B9
S1130E4080E02AEF30E0F801A781B085A80FB11D3A
S1130E509C91D9019C938F5F96818917A0F3F80127
S1130E608685882331F0E0EFF0E080818460808320
S1130E7005C0E0EFF0E080818B7F8083EFEEF0E04F
S1130E809081D80116968C911697892B8083808146
S1130E908F73808380818064808380E0EDC4F80157
S1130EA08785882369F194819295969597708581B9
S1130EB0880F880F880F890F8093F3009381929590
S1130EC0969597708481880F880F880F890F809377
S1130ED0F20092819295969597708381880F880F7E
S1130EE0880F890F8093F1008281880F880F880F03
S1130EF08093F000EFEEF0E080818061808316C083
S1130F00928196959695969583818295880F807E99
S1130F10890F8093F30082818295880F807E80936D
S1130F20F200EFEEF0E080818F7E8083F80186810D
S1130F30882379F080E02AEF30E0F801A781B085BA
S1130F40A80FB11D9C91D9019C938F5F968189173D
S1130F50A0F3F8011686E0EFF0E080818B7F8083B8
S1130F60EFEEF0E09081D80116968C911697892BBC
S1130F70808380818F73808380818064808380E01C
S1130F807BC4F8018785882369F1948192959695AD
S1130F9097708581880F880F880F890F8093F300DD
S1130FA093819295969597708481880F880F880F06
S1130FB0890F8093F2009281929596959770838120
S1130FC0880F880F880F890F8093F1008281880F22
S1130FD0880F880F8093F000EFEEF0E0808180614D
S1130FE0808316C092819695969596958381829575
S1130FF0880F807E890F8093F30082818295880F09
S1131000807E8093F200EFEEF0E080818F7E80831B
S113101081E0F8018687E0EFF0E0808184608083DE
S1131020EFEEF0E09081D80116968C911697892BFB
S1131030808380818F73808380818064808380E05B
S11310401BC48FEF9FEFDC0189839A83AB83BC833E
S11310509B819295969597708C81880F880F880F45
S1131060890F8093F7009A819295969597708B815A
S1131070880F880F880F890F8093F60099819295C5
S1131080969597708A81880F880F880F890F8093AF
S1131090F5008981880F880F880F24EF30E0F9016B
S11310A08083EFEEF0E09081D80116968C91892B25
S11310B08083D9018C918B7F8C938C918E7F8C93C0
S11310C080818F73808380818068808380E0D4C333
S11310D0F8018785882369F1948192959695977094
S11310E08581880F880F880F890F8093F30093817F
S11310F09295969597708481880F880F880F890F31
S11311008093F20092819295969597708381880FCF
S1131110880F880F890F8093F1008281880F880FD0
S1131120880F8093F000EFEEF0E08081806180838F
S113113016C0928196959695969583818295880F8F
S1131140807E890F8093F30082818295880F807E50
S11311508093F200EFEEF0E080818F7E80838FEF4A
S11311609FEFDC0189839A83AB83BC839B81929537
S1131170969597708C81880F880F880F890F8093BC
S1131180F7009A819295969597708B81880F880FB6
S1131190880F890F8093F6009981929596959770A0
S11311A08A81880F880F880F890F8093F5008981C1
S11311B0880F880F880F44EF50E0FA018083EFEE28
S11311C0F0E09081D80116968C911697892B808334
S11311D01E961C92DA018C9184608C9380EF90E0CF
S11311E0DC012C912B7F2C93DA018C9181608C9300
S11311F080818F73808380818068808380E03CC39A
S11312008FEF9FEFDC0189839A83AB83BC839B813F
S11312109295969597708C81880F880F880F890F07
S11312208093F7009A819295969597708B81880F99
S1131230880F880F890F8093F6009981929596956F
S113124097708A81880F880F880F890F8093F50023
S11312508981880F880F880F44EF50E0FA0180835A
S1131260EFEEF0E09081D80116968C911697892BB9
S1131270808381E01E968C93DA018C9184608C9338
S113128080EF90E0DC012C9124602C9380818F7D91
S11312908083DA018C918E7F8C9380818F7380831D
S11312A080818068808380E0E7C2F8018785882395
S11312B069F194819295969597708581880F880F2E
S11312C0880F890F8093F300938192959695977078
S11312D08481880F880F880F890F8093F200928190
S11312E09295969597708381880F880F880F890F40
S11312F08093F1008281880F880F880F8093F0001B
S1131300EFEEF0E080818061808316C09281969533
S11313109695969583818295880F807E890F809318
S1131320F30082818295880F807E8093F200EFEE35
S1131330F0E080818F7E8083C8010E943206DC0148
S1131340CB0189839A83AB83BC839B8192959695C9
S113135097708C81880F880F880F890F8093F7000E
S11313609A819295969597708B81880F880F880F34
S1131370890F8093F60099819295969597708A814A
S1131380880F880F880F890F8093F5008981880F53
S1131390880F880F24EF30E0F9018083EFEEF0E04E
S11313A09081D80116968C91892B8083D9018C91D8
S11313B08B7F8C938C9181608C9380818F738083DD
S11313C080818068808380E057C2F8018785882304
S11313D069F194819295969597708581880F880F0D
S11313E0880F890F8093F300938192959695977057
S11313F08481880F880F880F890F8093F20092816F
S11314009295969597708381880F880F880F890F1E
S11314108093F1008281880F880F880F8093F000F9
S1131420EFEEF0E080818061808316C09281969512
S11314309695969583818295880F807E890F8093F7
S1131440F30082818295880F807E8093F200EFEE14
S1131450F0E080818F7E8083C8010E943206DC0127
S1131460CB0189839A83AB83BC839B8192959695A8
S113147097708C81880F880F880F890F8093F700ED
S11314809A819295969597708B81880F880F880F13
S1131490890F8093F60099819295969597708A8129
S11314A0880F880F880F890F8093F5008981880F32
S11314B0880F880F44EF50E0FA018083EFEEF0E0EC
S11314C09081D80116968C911697892B80831E964D
S11314D01C92DA018C9184608C9380EF90E0DC01A3
S11314E02C912B7F2C93DA018C9181608C938081D9
S11314F08F73808380818068808380E0BDC1F80120
S11315008785882369F19481929596959770858152
S1131510880F880F880F890F8093F3009381929529
S1131520969597708481880F880F880F890F809310
S1131530F20092819295969597708381880F880F17
S1131540880F890F8093F1008281880F880F880F9C
S11315508093F000EFEEF0E080818061808316C01C
S1131560928196959695969583818295880F807E33
S1131570890F8093F30082818295880F807E809307
S1131580F200EFEEF0E080818F7E8083C8010E943C
S11315903206DC01CB0189839A83AB83BC839B81B4
S11315A09295969597708C81880F880F880F890F74
S11315B08093F7009A819295969597708B81880F06
S11315C0880F880F890F8093F600998192959695DC
S11315D097708A81880F880F880F890F8093F50090
S11315E08981880F880F880F44EF50E0FA018083C7
S11315F0EFEEF0E09081D80116968C911697892B26
S1131600808381E01E968C93DA018C9184608C93A4
S113161080EF90E0DC012C9124602C9380818F7DFD
S11316208083DA018C9181608C9380818F738083B5
S113163080818068808380E01FC180E02AEF30E0F1
S1131640F801A781B085A80FB11D9C91D9019C9385
S11316508F5F96818917A0F38FEF9FEFDC01898359
S11316609A83AB83BC839B819295969597708C816A
S1131670880F880F880F890F8093F7009A819295BD
S1131680969597708B81880F880F880F890F8093A8
S1131690F60099819295969597708A81880F880FA4
S11316A0880F890F8093F5008981880F880F880F30
S11316B044EF50E0FA018083EFEEF0E09081D8012E
S11316C016968C911697892B808381E01E968C93B5
S11316D0DA018C9184608C9380EF90E0DC012C9192
S11316E024602C93808180628083DA018C918E7FC8
S11316F08C9380818F73808380818068808380E075
S1131700BBC0F8018785882369F1948192959695E9
S113171097708581880F880F880F890F8093F30055
S113172093819295969597708481880F880F880F7E
S1131730890F8093F2009281929596959770838198
S1131740880F880F880F890F8093F1008281880F9A
S1131750880F880F8093F000EFEEF0E080818061C5
S1131760808316C0928196959695969583818295ED
S1131770880F807E890F8093F30082818295880F81
S1131780807E8093F200EFEEF0E080818F7E808394
S1131790F8018681882379F080E02AEF30E0F801AF
S11317A0A781B085A80FB11D9C91D9019C938F5F2F
S11317B096818917A0F3C8010E943206DC01CB018F
S11317C089839A83AB83BC839B819295969597700A
S11317D08C81880F880F880F890F8093F7009A8176
S11317E09295969597708B81880F880F880F890F33
S11317F08093F60099819295969597708A81880FC7
S1131800880F880F890F8093F5008981880F880FCE
S1131810880F44EF50E0FA018083EFEEF0E090810E
S1131820D80116968C911697892B808381E01E9699
S11318308C93DA018C9184608C9380EF90E0DC01CE
S11318402C9124602C93808180628083DA018C91B6
S113185081608C9380818F73808380818068808392
S113186080E00AC0F801118680E006C08FE1D8014B
S113187019968C9319978FEF0F900F900F900F90EC
S1131880DF91CF911F910F910895EF92FF921F93D3
S1131890CF93DF93EC018985882309F496C08F31B7
S11318A009F495C08F3F09F494C088818295807FA4
S11318B08093ED000E94D903182F803261F08132A9
S11318C020F4882309F487C076C0803409F468C002
S11318D0803A09F070C00F2EFFEEEF2EFF24F02D9A
S11318E0F70180818F708E838F8198850E94EC032D
S11318F08091F00090E0847090709595879595950F
S113190087958E87F701808184FF2DC081E08F87C2
S1131910E3EFF0E080818695869586958D83A2EF2E
S1131920B0E08C9190819295990F907E86958695E2
S11319308695890F8C83E1EFF0E080819C919295EC
S1131940990F907E869586958695890F8B838091D5
S1131950F00090819295990F907E86958695869554
S1131960890F8A8313C01F86E3EFF0E0808182959C
S1131970869587708B838091F2009081990F990FDF
S1131980990F829586958770890F8A831987EFEE60
S1131990F0E080818F7380831092EE0080E01CC0A1
S11319A080E48987EFEEF0E080818F73808310926A
S11319B0EE0080E011C01987EFEEF0E080818F73B4
S11319C080831092EE0082E007C082E005C082E0CE
S11319D003C082E001C081E0DF91CF911F91FF90AD
S11319E0EF900895FC01362F862F64E60E947E1640
S11319F0482F405D2AE0832F622F0E947E160E94AA
S1131A007E16905D403331F4903311F040E202C011
S1131A1090E240E220E220832183228323832483F3
S1131A2025832683278340879187832F6AE00E943A
S1131A307E16905D928785E2838724872587268793
S1131A402787208B218B228B238B0895CF93FC0136
S1131A50362FC4E6862F6C2F0E947E168E5C808300
S1131A60BEE2B1835AE0832F652F0E947E16392F80
S1131A700E947E16905D9283305D3383A6E5A48335
S1131A8030E235833683842F6C2F0E947E168E5C61
S1131A908783B087842F652F0E947E16492F0E946A
S1131AA07E16905D9187405D4287A3873487358792
S1131AB03687822F6C2F0E947E168E5C8787B08BB0
S1131AC0822F652F0E947E16292F0E947E16905D1C
S1131AD0918B205D228BA38BCF9108951F93CF937D
S1131AE0DF93CDB7DEB764970FB6F894DEBF0FBEB1
S1131AF0CDBF582F192F462FCE010196E0E0F1E01B
S1131B0024E10190DC010D92CD012150D1F7842F05
S1131B106AE00E947E16B82F6BE00E947E16292F81
S1131B2030E01216130644F020E030E0FE01E20F2C
S1131B30F31F35968AE20FC0FE013596BF01690F87
S1131B40711DCB0166E16193E817F907E1F72A30CB
S1131B50310564F306C081932F5F3F4F2A3031056E
S1131B60D4F34456443630F4FE01E20FF31F81E30C
S1131B70868305C0FE01E20FF31F80E28683FE0127
S1131B80E20FF31F8B2F6AE00E947E16905D97830D
S1131B90FE01E20FF31F80E3808785E28187E52F52
S1131BA0F12FDE01119684E10D9001928150E1F74D
S1131BB064960FB6F894DEBF0FBECDBFDF91CF9110
S1131BC01F910895CF93FC01362FC4E6862F6C2F06
S1131BD00E947E16805D80835AE0832F652F0E94C9
S1131BE07E16392F0E947E16905D9183305D32837C
S1131BF0B0EBB383A3E4A48330E235833683842F2C
S1131C006C2F0E947E16805D8783842F652F0E942F
S1131C107E16492F0E947E16905D9087405D418715
S1131C20B287A387348735873687822F6C2F0E942B
S1131C307E16805D8787822F652F0E947E16292F4E
S1131C400E947E16905D908B205D218BB28BA38BBE
S1131C50CF910895FC01462F20E220832183228323
S1131C602383248325832683862F64E60E947E169D
S1131C70805D87833AE0842F632F0E947E16492F6C
S1131C800E947E16905D90878EE28187405D428738
S1131C9086E583872487258726872787208B218BC2
S1131CA0228B238B0895CF93DF93EC01362F67307B
S1131CB009F46EC0683088F4633009F44EC06430AF
S1131CC028F4613079F16230B0F523C0653009F44D
S1131CD04DC0663008F053C037C06C3509F47CC081
S1131CE06D3550F46A3509F465C06B3508F06BC086
S1131CF06B3009F09EC055C06E3509F488C06E354E
S1131D0008F473C06F3509F479C0603609F091C0E6
S1131D1087C0FC01A8E4B4E084E10D9001928150F5
S1131D20E1F7E9C0FC01A4E3B4E084E10D90019281
S1131D308150E1F7E0C0FC01ACE0B4E084E10D9037
S1131D4001928150E1F7D7C0FC01A8EFB3E084E130
S1131D500D9001928150E1F7CEC0FC01A4EEB3E0F6
S1131D6084E10D9001928150E1F7C5C0FC01A0ED22
S1131D70B3E084E10D9001928150E1F7BCC0FC0115
S1131D80ACEBB3E084E10D9001928150E1F7B3C074
S1131D90FC01A8EAB3E084E10D9001928150E1F7DF
S1131DA0AAC0FC01A4E9B3E084E10D900192815042
S1131DB0E1F7A1C0FC01A0E3B3E084E10D9001923E
S1131DC08150E1F798C0FC01ACE1B3E084E10D90EF
S1131DD001928150E1F78FC0FC01A8E0B3E084E1F7
S1131DE00D9001928150E1F786C0FC01A4EFB2E0AE
S1131DF084E10D9001928150E1F77DC0FC01A0EED9
S1131E00B2E084E10D9001928150E1F774C0FC01CD
S1131E10ACECB2E084E10D9001928150E1F76BC02B
S1131E20FC01A8EBB2E084E10D9001928150E1F74E
S1131E3062C0FE01A0E2B4E084E10D900192815001
S1131E40E1F7832F6AE00E947E16282F482F50E086
S1131E50CA01880F991FAC01440F551F440F551F29
S1131E60840F951F8E319105B9F08F31910524F4BB
S1131E708431910559F507C088329105B1F0823358
S1131E80910521F51BC0DE01ECE6F3E084E101904D
S1131E900D928150E1F71AC0DE01E8E5F3E084E138
S1131EA001900D928150E1F711C0DE01E4E4F3E00A
S1131EB084E101900D928150E1F708C0DE01E4E471
S1131EC0F3E084E101900D928150E1F7832F64E601
S1131ED00E947E16805D89834AE0822F642F0E94CF
S1131EE07E16905D9A83832F0E947E16905D9B835D
S1131EF0DF91CF910895832F6AE00E947E16282FE8
S1131F00E5CFFC01E60FF11D405D40830895CF93BA
S1131F10DF93CDB7DEB764970FB6F894DEBF0FBE7C
S1131F20CDBFDE011196E4E1F1E024E101900D92D0
S1131F302150E1F7E82FF92FDE01119684E10D908D
S1131F4001928150E1F764960FB6F894DEBF0FBE9C
S1131F50CDBFDF91CF910895CF92DF92EF92FF92A0
S1131F600F931F93CF93DF93CDB7DEB764970FB66C
S1131F70F894DEBF0FBECDBFF82EE92E9B016A0197
S1131F8004E610E0CB01B8010E948A16462F405D9A
S1131F90EAE0F0E0C901BF010E948A16CB01BF014B
S1131FA00E948A16382F305DC601B8010E948A1635
S1131FB0605D403321F4303321F080E204C0842F8B
S1131FC002C030E280E2603309F460E220E2298357
S1131FD08A833B834C8340EB4D8333E43E832F83DE
S1131FE0288729872A872B872C872D872E876F8719
S1131FF0688BC6016AE070E00E948A16805D898B56
S11320004A8B3B8B2C8BEF2DFE2DDE01119684E148
S11320100D9001928150E1F764960FB6F894DEBFFB
S11320200FBECDBFDF91CF911F910F91FF90EF9025
S1132030DF90CF900895CF93C82F28988AEF0E94FD
S113204093148C2F0E949314289ACF910895CF93C0
S1132050C82F289888EF0E9493148C2F0E94931401
S1132060289ACF910895EF92FF920F931F93CF93E5
S1132070DF93D82FC92FF62EE72E82E00E94271077
S11320800D2F1C2FC0E0D0E0F80181918F010E9438
S11320901B102196C431D105B9F7C4E1D0E084E125
S11320A00E9427102197D9F70F2D1E2DC0E0D0E0F4
S11320B0F80181918F010E941B102196C431D10532
S11320C0B9F7DF91CF911F910F91FF90EF90089591
S11320D0CF93DF93863009F475C0873090F4823053
S11320E009F448C0833030F4882309F1813009F0C1
S11320F0C9C034C0843009F459C0853008F06FC0B9
S113210047C08A3009F49CC08B3038F4883009F415
S113211073C0893008F088C07BC08D3009F49CC03E
S11321208E3009F4A5C08C3009F0ACC00BC0C8E7F0
S1132130D1E0CE010E94870F84EA92E0BE010E94A2
S11321403310A0C0C8E7D1E0CE0170E00E94530E66
S113215080E992E0BE010E94331094C0C8E7D1E048
S1132160CE0170E00E94F20C88E692E0BE010E946B
S1132170331088C0C8E7D1E0CE0170E050E030E011
S11321800E94260D84E592E0BE010E9433107AC0BD
S1132190C8E7D1E0CE0170E050E030E00E94E20DEB
S11321A080E492E0BE010E9433106CC0C8E7D1E025
S11321B0CE0170E00E942A0E8CE292E0BE010E94E1
S11321C0331060C0C8E7D1E0CE0170E050E00E9457
S11321D0AC0F8CED91E0BE010E94331053C0C8E7F0
S11321E0D1E0CE0170E050E00E94AC0F80EF91E0AE
S11321F0BE010E94331046C0C8E7D1E0CE0170E0B2
S11322000E946E0D84E092E0BE010E9433103AC039
S1132210C8E7D1E0CE0170E00E946E0D88E192E043
S1132220BE010E9433102EC0C8E7D1E0CE0170E099
S11322300E946E0D88EC91E0BE010E94331022C012
S1132240C8E7D1E0CE0170E00E946E0D84EB91E00E
S1132250BE010E94331016C0C8E7D1E0CE0170E081
S11322600E94810F8CE891E0BE010E9433100AC0E5
S1132270C8E7D1E0CE010E94870F84E691E0BE0159
S11322800E943310DF91CF910895EF920F938EE166
S11322900E947D148CB58F778CBD8CB580618CBD0C
S11322A01092F904209A289A8CE00E94271088E35F
S11322B00E94271080E060E040E020E000E0EE248F
S11322C00E9468100F91EF900895E82FF92FA7EB63
S11322D0B4E084E10D9001928150E1F7089580917A
S11322E0F9048F5F6BE00E947E169093F9049923A2
S11322F019F481E08093F90408958091F9048230FF
S113230020F48AE08093F904089581508093F904BD
S11323100895CF93DF93682FC8E7D1E0CE010E94E0
S1132320F20C80E591E0BE010E943310DF91CF9161
S1132330089590936104809360040E947416089534
S1132340E0916004F09161049081892B8083089569
S1132350E0916004F0916104108208951092780570
S1132360109279050895CF93DF93E82FC0917805F3
S1132370D0E0CE01019660E170E00E948A1640919F
S1132380790550E08417950731F0C859DA4FE8838E
S11323908093780503C088E00E94A011DF91CF915B
S11323A008958091790590917805981731F0E8E6C1
S11323B0F5E0E80FF11D808108958AE00895EF9219
S11323C00F93CF93DF9380917905E8E6F5E0E80F6A
S11323D0F11D8081863009F44CC0873040F481308F
S11323E081F1813070F0843009F0D2C022C088308D
S11323F009F468C0883008F462C0893009F0C8C0A4
S113240064C082E694E062E774E042E055E028E0CC
S11324100E94BA02CAE7D4E0CE016AE874E041E05F
S113242055E021E00E94BA027894CE010E94CB02CA
S1132430AFC080919E04882309F0AAC00E94AC1406
S1132440A7C080919E04813009F0A2C00E94BF0100
S11324508091F9048093720480915D0480937304E5
S113246080915C048093740482E694E00E941E03CD
S11324708FC080915E048823F9F080915F048330DB
S113248040F40E94500280915F04815080935F0465
S113249003C0815080935F0480915F04882309F016
S11324A077C084E080935F040E944E0280915E04B2
S11324B0815080935E046CC00E94500269C00E94E7
S11324C06E0366C00E944F0363C08AE794E00E94D3
S11324D0D902D0918C04C0918A04C0FF04C080E06A
S11324E00E94E01203C080E00E9418138C2F86958E
S11324F080FF04C08AE00E94E01203C08AE00E94C8
S113250018138C2F8695869580FF04C082E00E9464
S1132510E01203C082E00E9418138C2F86958695E2
S1132520869580FF04C083E00E94E01203C083E02C
S11325300E9418138C2F82958F7080FF04C084E052
S11325400E94E01203C084E00E9418138C2F82952D
S11325508695877080FF02C00E945202C295C6957C
S1132560C695C370C0FF04C081E00E94E01203C09E
S113257081E00E9418138D2F60918D0440918E0488
S113258020918F0400919004E09091040E946810BF
S1132590DF91CF910F91EF900895909178058091FC
S11325A07905981761F00E94DF118091790590E018
S11325B0019660E170E00E948A168093790508957F
S11325C08C30A8F5853091F1863070F4823031F189
S11325D0833028F4882341F1813049F513C08330D6
S11325E009F1843021F51CC0883091F0893028F439
S11325F0863051F08730D9F409C0893059F08A30D7
S1132600B1F40AC05F9A0895119A0895139A08952F
S1132610149A0895A29A0895449A0895409A0895A0
S1132620A19A0895A09A0895419A0895129A089536
S11326308C30A8F5853091F1863070F4823031F118
S1132640833028F4882341F1813049F513C0833065
S113265009F1843021F51CC0883091F0893028F4C8
S1132660863051F08730D9F409C0893059F08A3066
S1132670B1F40AC05F9808951198089513980895C5
S113268014980895A2980895449808954098089538
S1132690A1980895A09808954198089512980895CE
S11326A08C3008F079C0853059F1863098F4823046
S11326B009F44FC0833038F4882309F45DC08130B5
S11326C009F069C018C0833009F450C0843009F09F
S11326D062C045C0883069F1893038F4863009F425
S11326E052C0873009F057C013C08930D1F08A3006
S11326F009F051C026C081E05F994EC080E0089582
S113270092B1969581E0913009F446C080E0089535
S113271092B196959695969581E09130E9F180E095
S1132720089592B192959F7081E09130A9F180E073
S1132730089594B39695969581E0913069F180E07F
S1132740089598B192959F7081E0913029F180E0CD
S1132750089598B181E09130F9F080E0089594B340
S1132760969581E09130C1F080E0089594B381E0C2
S1132770913091F080E0089598B1969581E0913080
S113278059F080E0089592B19695969581E0913044
S113279019F080E0089508950895CF93C82F0E94FA
S11327A05013882321F08C2F0E94181303C08C2F00
S11327B00E94E012CF910895EF92FF920F931F931E
S11327C0CF93DF937C01C0E0D0E001E010E08C2FD8
S11327D098010C2E02C0220F331F0A94E2F72E2117
S11327E03F212115310511F00E94E0122196CB30D2
S11327F0D10569F7DF91CF911F910F91FF90EF9071
S11328000895CF93579A099A0B9A0C9A9A9A3C9ADC
S1132810389A999A989A399A0A9AC0E08C2F0E9409
S11328201813CF5FCC30D1F78FEF9FEF9093A004B4
S113283080939F040E94DC13CF9108950F931F93FC
S1132840CF93DF93C0E0D0E08C2F0E94501390E030
S11328500C2E02C0880F991F0A94E2F7082B192B3B
S11328602196CB30D10581F7802F912FDF91CF9125
S11328701F910F910895089511B814B887B1807607
S113288087B98FEF8AB91DB810BA93B3907E93BB02
S113289082B985B988B99BB19F699BB98EB981BB4F
S11328A084B38F6184BB089510929E040E943C14EB
S11328B00E949F0282E060E00E94FE1583E060E0D7
S11328C00E9403160E9408160E9438160E944B02AA
S11328D00E9458160E9401140E949E010E944511F4
S11328E00E94681680E00E94B3110895529A5A9883
S11328F008955A9A08955A980895209A209A94B15E
S1132900966094B99CB5907C9CBD9CB58F73892BC3
S11329108CBD8DB58DBD8CB580648CBD81E0089572
S11329208DB5807808958EBD0DB407FEFDCF089552
S11329300DB407FEFDCF8EB508950DB407FEFDCF8F
S11329408EBD08951F920F920FB60F9211240F900F
S11329500FBE0F901F901895209192042F5F209323
S11329609204822F66E00E947E16992349F4622F16
S11329708CE390E070E00E948A16CB010E948911DA
S1132980809192048C3318F081E080939E04089522
S11329901F920F920FB60F9211240F900FBE0F903B
S11329A01F9018951F920F920FB60F9211240F903B
S11329B00FBE0F901F9018951F920F920FB60F9293
S11329C011242F933F934F935F936F937F938F9330
S11329D09F93AF93BF93EF93FF93E8E8F0E0808178
S11329E09181805D9A489183808381E00E94B31134
S11329F0FF91EF91BF91AF919F918F917F916F91D3
S1132A005F914F913F912F910F900FBE0F901F90A8
S1132A1018951F920F920FB60F9211242F933F9384
S1132A204F935F936F937F938F939F93AF93BF93D2
S1132A30EF93FF93EAE8F0E080819181805A954119
S1132A409183808382E00E94B311FF91EF91BF9143
S1132A50AF919F918F917F916F915F914F913F9132
S1132A602F910F900FBE0F901F9018951F920F92E9
S1132A700FB60F9211242F933F934F935F936F934D
S1132A807F938F939F93AF93BF93EF93FF93ECE860
S1132A90F0E0808191818856954C9183808383E016
S1132AA00E94B311FF91EF91BF91AF919F918F91CC
S1132AB07F916F915F914F913F912F910F900FBE36
S1132AC00F901F9018951F920F920FB60F9211241A
S1132AD02F933F934F935F936F937F938F939F9322
S1132AE0AF93BF93EF93FF93E8E9F0E08081918186
S1132AF08059964B9183808384E00E94B311FF91A7
S1132B00EF91BF91AF919F918F917F916F915F9161
S1132B104F913F912F910F900FBE0F901F901895DA
S1132B201F920F920FB60F9211242F933F934F933E
S1132B305F936F937F938F939F93AF93BF93EF9321
S1132B40FF93EAE9F0E08081918180529D46918370
S1132B50808385E00E94B311FF91EF91BF91AF9103
S1132B609F918F917F916F915F914F913F912F91A1
S1132B700F900FBE0F901F9018951F920F920FB6D3
S1132B800F9211242F933F934F935F936F937F93EF
S1132B908F939F93AF93BF93EF93FF93ECE9F0E090
S1132BA08081918180599C4E9183808386E00E942C
S1132BB0B311FF91EF91BF91AF919F918F917F914D
S1132BC06F915F914F913F912F910F900FBE0F9096
S1132BD01F9018951F920F920FB60F9211240F9009
S1132BE00FBE0F901F9018951F920F920FB60F9261
S1132BF011240F900FBE0F901F90189580938100A1
S1132C0060936F000895809391006093710008951C
S1132C108091840090918500805D9A48909389000A
S1132C2080938800EFE6F0E08081826080830895DD
S1132C308091840090918500805A954190938B00F7
S1132C4080938A00EFE6F0E08081846080830895B9
S1132C5080918400909185008856954C90938D00C6
S1132C6080938C00EFE6F0E0808188608083089593
S1132C7080919400909195008059964B909399007F
S1132C8080939800E1E7F0E080818260808308957A
S1132C90809194009091950080529D4690939B0062
S1132CA080939A00E1E7F0E0808184608083089556
S1132CB0809194009091950080599C4E90939D0032
S1132CC080939C00E1E7F0E0808188608083089530
S1132CD02BE088E190E00FB6F894A895809360000B
S1132CE00FBE20936000089504B603FE06C084B7A7
S1132CF0877F84BF80E10E94A0110895991B79E029
S1132D0004C0991F961708F0961B881F7A95C9F777
S1132D108095089597FB092E07260AD077FD04D0E5
S1132D200CD006D000201AF4709561957F4F089559
S1132D30F6F7909581959F4F0895AA1BBB1B51E10F
S1132D4007C0AA1FBB1FA617B70710F0A61BB70B17
S1132D50881F991F5A95A9F780959095BC01CD01BC
S1092D600895F894FFCF72
S1132D66202020204142434445464748494A2020E2
S1132D762020202020202020202020202020202049
S1132D86202020202020202030313233343536379D
S1132D9638394142434445464748494A0000000001
S1132DA60000000000000000000000000000000019
S1132DB62020205354415254494E47205550202038
S1132DC62020202020202052454144592020544FC1
S1132DD6204452495645202020202020202020200F
S1132DE62020202020202020202020202020425582
S1132DF654544F4E205052455353454420202020CE
S1132E062020414343454C45524154494F4E204DA1
S1132E164F4445202020544F5251554520205645B5
S1132E2643544F52494E472020205452414354495B
S1132E364F4E20434F4E54524F4C202020204D4F8E
S1132E46544F522054454D502E2052454152202075
S1132E5620204D4F544F522054454D502E2046525B
S1132E664F4E542020204D4F544F5220504F57451B
S1132E76522052454152202020204D4F544F52207B
S1132E86504F5745522046524F4E54202020202062
S1132E964C5620564F4C5441474520202020202094
S1132EA6204D494E202043454C4C54454D5020203E
S1132EB64D4158204D494E202043454C4C564F4CCD
S1132EC654414745204D41582020535441544520F0
S1132ED64F462043484152474520202020202020A9
S1132EE62020204D455353414745202020202000D3
S1132EF6202020202020204552524F5220202020DE
S1132F06202000002020202020414D5A206772698D
S1132F166D73656C2020202023585858204D495342
S1132F2653494E47205348554E5420002358585869
S1132F36204D495353494E47204D432D52202000DE
S1132F4623585858204D495353494E47204D432D35
S1132F564C20200023585858204D495353494E4776
S1132F66204D434D4142200023585858204D495383
S1132F7653494E47204D434D4C564200235858580A
S1132F86204D495353494E47204D434D462020007A
S1132F9623585858204D495353494E47204D434DC5
S1132FA65220200023585858204D434D2045525254
S1132FB64F5220202020200023585858204D4320CB
S1132FC64552524F52202020202020002358585882
S1132FD620424D53204552524F522020202020009B
S1132FE6235858582042414452455155455354207C
S1132FF64944200023585858204252414B452050FA
S11330062E442E20202020002358585820494D4471
S113301646202020202020202020200023585858F5
S113302620494D442020202020202020202020003C
S113303623585858204856444920494E5445525519
S1133046505420002358585820424F5453202020CF
S11330562020202020202000235858582050524554
S113306620424F5453202020202020002358585813
S11330762050524520454E52452020202020200035
S11330862358585820554E4B4E4F574E20455252B2
S11330964F5220002358585820534320444F574E2C
S11330A62020202020202000235858582020204E5D
S10F30B64F4E4520202020202020202008
S9030000FC
