:100000000C944B010C9468010C9468010C946801E9
:100010000C9468010C9468010C9468010C946801BC
:100020000C9468010C9468010C9468010C946801AC
:100030000C9482170C94AF170C94DC170C94901846
:100040000C946E170C9478170C945C030C94680154
:100050000C9468010C9468010C9468010C9468017C
:100060000C9468010C9468010C9468010C9468016C
:100070000C9409180C9436180C9463180C949A1864
:100080000C9468010C9468010C9468010C9468014C
:100090000C946801660F6F0F780F8A0F810F930F12
:1000A0009C0FA50F3E103E103E10AE0F3E103E10AE
:1000B0003E103E103E103E103E103E103E103E10D0
:1000C0003E103E103E103E103E103E103E103E10C0
:1000D0003E103E103E103E103E103E103E103E10B0
:1000E0003E103E103E103E103E103E103E103E10A0
:1000F0003E103E103E103E103E103E103E103E1090
:100100003E103E103E103E103E103E103E103E107F
:100110003E103E103E103E103E103E103E103E106F
:100120003E103E103E103E103E103E103E103E105F
:100130003E103E103E103E103E103E103E103E104F
:100140003E103E103E103E10B70FC00FC90FD20F29
:10015000E40FDB0FED0F3E103E103E103E10F60F89
:10016000FF0F08103E1011101A103E103E103E10E6
:100170003E103E103E103E103E103E103E103E100F
:100180003E103E103E103E103E103E103E103E10FF
:100190003E103E103E103E103E103E103E103E10EF
:1001A0003E103E103E103E103E103E103E103E10DF
:1001B0003E103E103E103E103E103E103E103E10CF
:1001C0003E103E103E103E103E103E103E103E10BF
:1001D0003E103E103E103E103E103E103E103E10AF
:1001E0003E103E103E103E103E103E103E103E109F
:1001F0003E103E103E103E103E103E103E103E108F
:100200003E103E103E103E103E103E103E103E107E
:100210003E103E103E103E103E103E103E103E106E
:100220003E103E103E1023102C1035103A12811251
:100230008D129B12A912C212B512DB12CF12E71255
:10024000F3125B124512161322132D132D132D13C7
:100250002D132D132D132D132D132D132D132D139E
:100260002D132D132D132D132D132D132D132D138E
:100270002D132D132D132D132D132D132D132D137E
:100280002D132D132D132D132D132D132D132D136E
:100290002D13FF120B1311241FBECFEFD8E0DEBFCA
:1002A000CDBF16E0A0E0B1E0E2EBF2E302C00590C2
:1002B0000D92A431B107D9F717E0A4E1B6E001C06F
:1002C0001D92A433B107E1F70E946A010C945719FB
:1002D0000C9400000E94D116A8950E941F15FCCF17
:1002E0009CB192959F7090FD0BC0E82FF0E0EE0F4F
:1002F000FF1FEE0FFF1FEA55F94F91E0908309C0F1
:10030000E82FF0E0EE0FFF1FEE0FFF1FEA55F94F49
:1003100010829CB192959695977090FD0BC0E82F36
:10032000F0E0EE0FFF1FEE0FFF1FEA55F94F91E0CF
:10033000918309C0E82FF0E0EE0FFF1FEE0FFF1FC3
:10034000EA55F94F118296B19295969596959370CC
:1003500090FD0BC0E82FF0E0EE0FFF1FEE0FFF1F28
:10036000EA55F94F91E0928309C0E82FF0E0EE0FD3
:10037000FF1FEE0FFF1FEA55F94F128296B19695B7
:100380009695969590FD0BC0E82FF0E0EE0FFF1FBD
:10039000EE0FFF1FEA55F94F81E083830895E82FA0
:1003A000F0E0EE0FFF1FEE0FFF1FEA55F94F13822B
:1003B00008956E98769A08956F98779A089524987C
:1003C0002C9A089576986E9A089577986F9A089562
:1003D0002C98249A08958091C706882321F01092C2
:1003E000C7060E9481138091C806882321F01092CD
:1003F000C8060E9463138091B006882321F085E02F
:100400000E94401503C085E00E9478158091AC06DB
:10041000882321F086E00E94401503C086E00E94F8
:1004200078158091A906882321F087E00E94401565
:1004300003C087E00E9478158091B106882321F0DF
:1004400088E00E94401503C088E00E9478158091E2
:10045000AD06882321F089E00E94401503C089E0A1
:100460000E947815109215068091A806882319F02D
:1004700081E0809315068091B006882329F0809151
:1004800015068260809315068091AC06882329F0BA
:10049000809115068460809315068091A9068823B3
:1004A00029F0809115068860809315068091AD062D
:1004B000882329F08091150680618093150680912C
:1004C000B106882329F08091150680628093150675
:1004D000109214068091AA06882319F082E0809376
:1004E00014068091AB06882329F080911406816060
:1004F000809314068091A706882329F08091140622
:100500008460809314068091A606882329F0809148
:1005100014068860809314068091AE06882329F023
:10052000809114068061809314068091AF06882321
:1005300029F080911406806280931406089585B78F
:100540008F7E85BF8DB18F6B8DB9769A8DB18F6798
:100550008DB9779A84B18F6E84B92C9A6C98749AFD
:100560006D98759A3E98469A3B98439AEDECF6E062
:10057000CF010C9621E02193E817F907E1F70895E0
:10058000CF92DF92EF92FF920F931F93CF93DF935F
:10059000C9EDD1E0FE0109950CED11E0F8010995D6
:1005A0000F2EFFEDEF2EF1E0FF2EF02DF701099554
:1005B000F8010995F70109950E94E2010F2EF0E775
:1005C000CF2EF1E0DF2EF02D80E090E0F6010995CE
:1005D000FE010995F70109950E94E50181E090E08F
:1005E000F6010995FE010995F80109950E94E801B7
:1005F00082E090E0F6010995FE010995F801099560
:10060000F7010995E3EBF6E0A6EAB6E00DEC16E09B
:100610008FEB96E0AF01445F5F4F71E09F01608117
:10062000662359F46C91613041F4E80168816130CE
:1006300081F4EC017883E8011882E90128812130F6
:1006400041F42C91222329F4E8012881222309F482
:100650007883319611960F5F1F4F0196E417F507C7
:10066000E9F60E94EB01A3EBB6E0E6EAF6E08CE0E7
:1006700001900D928150E1F7DF91CF911F910F9181
:10068000FF90EF90DF90CF90089526EA36E0280F94
:10069000311DF90180810895089A10980895109AE3
:1006A0000895109808950E944F0383E080931606E2
:1006B00084E08093170608951F920F920FB60F9251
:1006C00011242F933F934F935F936F937F938F9357
:1006D0009F93AF93BF93CF93EF93FF93C091EE009F
:1006E000C0FF08C087E00E94C313EEEEF0E08081F7
:1006F0008E7F8083C6FF08C088E00E94C313EEEEA1
:10070000F0E080818F7B8083C5FF08C089E00E9474
:10071000C313EBEDF0E080818F778083FF91EF9141
:10072000CF91BF91AF919F918F917F916F915F9189
:100730004F913F912F910F900FBE0F901F901895E2
:1007400085E00E9457071092EE00EBEDF0E080810B
:10075000886B80838FE78093DF008FEF8093DE00CC
:100760001092E4061092E6061092E5061092E80652
:100770001092E7060895FC01708767831786168636
:100780005383428326838FEF97E0A0E0B0E0828717
:100790009387A487B58708959093E8068093E7062A
:1007A00025E0FC0121838091E7069091E8060E94F4
:1007B0006C0708950E94460DEBEDF0E080818068A3
:1007C000808308959091E4068091E606981741F1A0
:1007D000E091E706F091E806309741F08CE08183E4
:1007E0008091E7069091E8060E946C07E091E6068A
:1007F000F0E0EE0FFF1FE652F94FA081B18182E0D9
:1008000011968C93808191810E946C07882321F03E
:1008100081E00E94B013089581E08093E506089579
:10082000E091E706F091E806309741F085E081839A
:100830008091E7069091E8060E946C070895CF9397
:10084000DF93EC01E091E406F0E0CF01019665E072
:1008500070E00E9430192091E60630E0821793077D
:1008600049F0EE0FFF1FE652F94FD183C08380930A
:10087000E40603C084E00E94B0138091E50688235B
:1008800011F40E94E203DF91CF910895E091E60612
:10089000F0E0EE0FFF1FE652F94F8081918108953D
:1008A000E091E606F0E0EE0FFF1FE652F94FA0815F
:1008B000B1818CE011968C93808191810E946C07AC
:1008C0001092E5068091E60690E0019665E070E002
:1008D0000E9430198093E6060E94E20308958091F9
:1008E000E5068130F9F4E091E606F0E0EE0FFF1F37
:1008F000E652F94FA081B1818CE011968C938081F2
:1009000091810E946C0782E00E94B0131092E5066C
:100910008091E60690E0019665E070E00E94301953
:100920008093E6060895CF93DF93EC018CE08983F2
:10093000CE010E946C07CE010E94460D8130D9F392
:1009400085E08983CE010E946C07DF91CF910895E5
:1009500020E0ADEEB0E08EEE90E0322F3295307FA9
:100960003C93FC011192E83FF105E1F72F5F2F3036
:10097000A1F70895EDEEF0E0208110828091EF0064
:10098000807C69F081E0ADEEB0E0EFEEF0E0982F12
:100990009295907F9C939081907C29F401C080E097
:1009A0002093ED0008958F5F8F3089F72093ED003D
:1009B0008FEF08958091EF00807C69F09091EE00B8
:1009C000892F807E803241F0803431F0803A21F0EE
:1009D000892F8F7108958FEF0895CF93DF93AC0126
:1009E0008091EF0090E08F70907018161906A4F4B3
:1009F00060E0EAEFF0E0CFEED0E08081DA01A60F10
:100A0000B11D8C936F5F8881262F30E090E08F704E
:100A10009070281739078CF3DF91CF9108952F92AA
:100A20003F924F925F926F927F928F929F92AF927E
:100A3000BF92CF92DF92EF92FF920F931F93CF93CB
:100A4000DF9300D000D000D0CDB7DEB7882309F403
:100A50007CC08091E20090E08E77907095958795AC
:100A60000196823091055CF08091E20090E08E77F3
:100A7000907095958795282F2F5F298302C081E07C
:100A800089838091E30090E08E70907095958795B2
:100A900001968230910554F08091E30090E08E70D1
:100AA000907095958795382E339402C033243394F3
:100AB0008091E40090E08E709070959587950196F6
:100AC0008330910554F08091E40090E08E70907036
:100AD00095958795782E739403C07724689471F860
:100AE0008091E40090E0807790709595879595953A
:100AF000879595958795959587950196833091056E
:100B000084F08091E40090E08077907095958795CF
:100B1000959587959595879595958795682E639476
:100B200003C06624689461F8872D90E0830D911DC1
:100B3000860D911D01968830910514F488E090E0AF
:100B40008A8340E02224239410C041E022246624BA
:100B5000689461F87724689471F898E09A830F2E6E
:100B6000F3E03F2EF02DA1E0A98320E0ADEEB0E050
:100B70008EEE90E0322F3295307F3C93FC01119243
:100B8000E83FF105E1F72F5F2F30A1F7A42E622D8A
:100B9000DD248824992470E00F2EF8EDEF2EFF2439
:100BA000F02D51E0E9EDF0E00AED10E020E0C52E77
:100BB000B22EB2E0BB8388E08E8391E0A91609F0E3
:100BC00057C0D7015C930894811C911C8981815086
:100BD000880FA2EEB0E08C93862D869590E0019769
:100BE0002C01440C551C440C551C440C551C440C45
:100BF000551C440C551C832D90E00197880F991FBC
:100C00008429A3EEB0E08C93862D90E001972C010F
:100C1000440C551C440C551C440C551C440C551CD0
:100C2000872D90E00197880F991F84298160A4EE99
:100C3000B0E08C93C4019695879596958795969587
:100C40008795A5EEB0E08C93ADEEB0E01C92AEEED1
:100C5000B0E01C9280E8AFEEB0E08C938AE0D70160
:100C60008C93808182FFFDCF8FEFD8018C93722F00
:100C70004130B1F5AEEEB0E08C9190E085FF0EC052
:100C8000AFEEB0E08C918F738C93D7011C92808172
:100C900082FDFDCFD52E622F322FBEC08F71907096
:100CA000009711F06C2D4B2DD8014C90552445FE2A
:100CB0000DC0772329F48C9180628C937C2D06C023
:100CC000D8018C9180628C936C2D4B2DC2018F705A
:100CD0009070009709F09DC0413061F2352F01C03E
:100CE000352F613009F078C0832F372D7A2CAD2C49
:100CF000D72E782F21103F5F393078F1B7E0B61545
:100D000060F58A81893131F08F5F8A832B2C6B806B
:100D1000362D59C09981903441F09F5F99832B2CD7
:100D20006B80362DAE81AA834EC0A72C7D2DAFEEF1
:100D3000B0E08C918F738C93D7011C92808182FDDF
:100D4000FDCFD22E322F222E6624689461F87724AC
:100D5000689471F8B8E0BA8369C0363058F0432E11
:100D60005524862D90E001968415950524F463940E
:100D7000362D01C0632E362C330E30948A81380E06
:100D8000832D81508830E0F4462C5524832D90E04B
:100D9000DC011196A30FB11DBD83AC83C201880F86
:100DA000991F880F991F8A179B0764F0C201880F4B
:100DB000991F840D951DA817B90784F52C2C03C025
:100DC0002C2C01C02C2C613009F494CF872F7D2D61
:100DD000DA2CA72C732E382F313009F4EECE8D2D5E
:100DE00026960FB6F894DEBF0FBECDBFDF91CF9130
:100DF0001F910F91FF90EF90DF90CF90BF90AF9039
:100E00009F908F907F906F905F904F903F902F902A
:100E10000895A52E652F352F422F63CF872F7D2D67
:100E2000DA2CA72C732E382F452F252E622FD4CFE6
:100E30008093E2006093E3004093E40081E0089532
:100E400091E09093D800853031F482E068E045E28B
:100E50000E94180706C01092E2001092E300109260
:100E6000E40081E008950F931F93FC018785882398
:100E700091F402851385248535850F2EF2E1000F4C
:100E8000111F221F331FFA95D1F7F02D0F6F1F6F1F
:100E90002360306E05C00285138524853585306E4C
:100EA000602F712F822F932F1F910F9108950E9411
:100EB0002007882349F00E94A804E8EDF0E0808133
:100EC0008260808381E0089580E00895E8EDF0E09D
:100ED00080818D7F808308950F931F93CF93DF933D
:100EE00000D000D0CDB7DEB78C01DC0111968C911B
:100EF00011978C30B1F419968C911997803669F45A
:100F00008C918295807F8093ED00EFEEF0E0808100
:100F10008F7380831092EE001C92F801118680E09E
:100F2000ACC50E94BA048F3F09F4A1C590E6D80170
:100F300019969C9319978C938295807F8093ED00EE
:100F4000EEEEF0E01192E83FF105E1F7F801818162
:100F5000863009F456C2873090F4833009F412C108
:100F6000843030F4813011F1823009F07CC598C0B2
:100F7000843009F467C1853009F075C5AAC189308C
:100F800009F4BEC38A3038F4873009F48FC2883040
:100F900009F069C51BC38A3021F08B3009F063C5A5
:100FA000B1C48681882309F049C457C4F8018785F4
:100FB000882369F194819295969597708581880F21
:100FC000880F880F890F8093F300938192959695EF
:100FD00097708481880F880F880F890F8093F200A3
:100FE00092819295969597708381880F880F880FCC
:100FF000890F8093F1008281880F880F880F80937A
:10100000F000EFEEF0E080818061808316C0928175
:1010100096959695969583818295880F807E890F07
:101020008093F30082818295880F807E8093F20006
:10103000EFEEF0E080818F7E8083F8018681882347
:1010400079F080E02AEF30E0F801A781B085A80FA1
:10105000B11D9C91D9019C938F5F96818917A0F354
:10106000F8018685882331F0E0EFF0E0808184602C
:10107000808305C0E0EFF0E080818B7F8083EFEE1E
:10108000F0E09081D80116968C911697892B808379
:1010900080818F73808380818064808380E0EDC451
:1010A000F8018785882369F19481929596959770C8
:1010B0008581880F880F880F890F8093F3009381B3
:1010C0009295969597708481880F880F880F890F65
:1010D0008093F20092819295969597708381880F04
:1010E000880F880F890F8093F1008281880F880F05
:1010F000880F8093F000EFEEF0E0808180618083C4
:1011000016C0928196959695969583818295880FC3
:10111000807E890F8093F30082818295880F807E84
:101120008093F200EFEEF0E080818F7E8083F80103
:101130008681882379F080E02AEF30E0F801A781EA
:10114000B085A80FB11D9C91D9019C938F5F9681AA
:101150008917A0F3F8011686E0EFF0E080818B7F1D
:101160008083EFEEF0E09081D80116968C9116976F
:10117000892B808380818F738083808180648083CA
:1011800080E07BC4F8018785882369F1948192957A
:10119000969597708581880F880F880F890F8093A7
:1011A000F30093819295969597708481880F880FAC
:1011B000880F890F8093F20092819295969597708F
:1011C0008381880F880F880F890F8093F1008281B7
:1011D000880F880F880F8093F000EFEEF0E0808199
:1011E0008061808316C092819695969596958381AD
:1011F0008295880F807E890F8093F300828182958B
:10120000880F807E8093F200EFEEF0E080818F7E89
:10121000808381E0F8018687E0EFF0E080818460E0
:101220008083EFEEF0E09081D80116968C911697AE
:10123000892B808380818F73808380818064808309
:1012400080E01BC48FEF9FEFDC0189839A83AB831F
:10125000BC839B819295969597708C81880F880F9F
:10126000880F890F8093F7009A81929596959770D1
:101270008B81880F880F880F890F8093F6009981E2
:101280009295969597708A81880F880F880F890F9D
:101290008093F5008981880F880F880F24EF30E054
:1012A000F9018083EFEEF0E09081D80116968C91E1
:1012B000892B8083D9018C918B7F8C938C918E7F2D
:1012C0008C9380818F73808380818068808380E0AD
:1012D000D4C3F8018785882369F194819295969506
:1012E00097708581880F880F880F890F8093F3008E
:1012F00093819295969597708481880F880F880FB7
:10130000890F8093F20092819295969597708381D0
:10131000880F880F880F890F8093F1008281880FD2
:10132000880F880F8093F000EFEEF0E080818061FD
:10133000808316C092819695969596958381829525
:10134000880F807E890F8093F30082818295880FB9
:10135000807E8093F200EFEEF0E080818F7E8083CC
:101360008FEF9FEFDC0189839A83AB83BC839B81E2
:101370009295969597708C81880F880F880F890FAA
:101380008093F7009A819295969597708B81880F3C
:10139000880F880F890F8093F60099819295969512
:1013A00097708A81880F880F880F890F8093F500C6
:1013B0008981880F880F880F44EF50E0FA018083FD
:1013C000EFEEF0E09081D80116968C911697892B5C
:1013D00080831E961C92DA018C9184608C9380EF3E
:1013E00090E0DC012C912B7F2C93DA018C918160B1
:1013F0008C9380818F73808380818068808380E07C
:101400003CC38FEF9FEFDC0189839A83AB83BC835E
:101410009B819295969597708C81880F880F880F85
:10142000890F8093F7009A819295969597708B819A
:10143000880F880F880F890F8093F6009981929505
:10144000969597708A81880F880F880F890F8093EF
:10145000F5008981880F880F880F44EF50E0FA016A
:101460008083EFEEF0E09081D80116968C9116976C
:10147000892B808381E01E968C93DA018C918460A5
:101480008C9380EF90E0DC012C9124602C93808180
:101490008F7D8083DA018C918E7F8C9380818F7316
:1014A000808380818068808380E0E7C2F80187853F
:1014B000882369F194819295969597708581880F1C
:1014C000880F880F890F8093F300938192959695EA
:1014D00097708481880F880F880F890F8093F2009E
:1014E00092819295969597708381880F880F880FC7
:1014F000890F8093F1008281880F880F880F809375
:10150000F000EFEEF0E080818061808316C0928170
:1015100096959695969583818295880F807E890F02
:101520008093F30082818295880F807E8093F20001
:10153000EFEEF0E080818F7E8083C8010E94330748
:10154000DC01CB0189839A83AB83BC839B81929519
:10155000969597708C81880F880F880F890F8093DC
:10156000F7009A819295969597708B81880F880FD6
:10157000880F890F8093F6009981929596959770C0
:101580008A81880F880F880F890F8093F5008981E1
:10159000880F880F880F24EF30E0F9018083EFEE89
:1015A000F0E09081D80116968C91892B8083D90127
:1015B0008C918B7F8C938C9181608C9380818F73C5
:1015C000808380818068808380E057C2F8018785AE
:1015D000882369F194819295969597708581880FFB
:1015E000880F880F890F8093F300938192959695C9
:1015F00097708481880F880F880F890F8093F2007D
:1016000092819295969597708381880F880F880FA5
:10161000890F8093F1008281880F880F880F809353
:10162000F000EFEEF0E080818061808316C092814F
:1016300096959695969583818295880F807E890FE1
:101640008093F30082818295880F807E8093F200E0
:10165000EFEEF0E080818F7E8083C8010E94330727
:10166000DC01CB0189839A83AB83BC839B819295F8
:10167000969597708C81880F880F880F890F8093BB
:10168000F7009A819295969597708B81880F880FB5
:10169000880F890F8093F60099819295969597709F
:1016A0008A81880F880F880F890F8093F5008981C0
:1016B000880F880F880F44EF50E0FA018083EFEE27
:1016C000F0E09081D80116968C911697892B808333
:1016D0001E961C92DA018C9184608C9380EF90E0CE
:1016E000DC012C912B7F2C93DA018C9181608C93FF
:1016F00080818F73808380818068808380E0BDC11A
:10170000F8018785882369F1948192959695977061
:101710008581880F880F880F890F8093F30093814C
:101720009295969597708481880F880F880F890FFE
:101730008093F20092819295969597708381880F9D
:10174000880F880F890F8093F1008281880F880F9E
:10175000880F8093F000EFEEF0E08081806180835D
:1017600016C0928196959695969583818295880F5D
:10177000807E890F8093F30082818295880F807E1E
:101780008093F200EFEEF0E080818F7E8083C801CD
:101790000E943307DC01CB0189839A83AB83BC832E
:1017A0009B819295969597708C81880F880F880FF2
:1017B000890F8093F7009A819295969597708B8107
:1017C000880F880F880F890F8093F6009981929572
:1017D000969597708A81880F880F880F890F80935C
:1017E000F5008981880F880F880F44EF50E0FA01D7
:1017F0008083EFEEF0E09081D80116968C911697D9
:10180000892B808381E01E968C93DA018C91846011
:101810008C9380EF90E0DC012C9124602C938081EC
:101820008F7D8083DA018C9181608C9380818F73AE
:10183000808380818068808380E01FC180E02AEF00
:1018400030E0F801A781B085A80FB11D9C91D901A6
:101850009C938F5F96818917A0F38FEF9FEFDC0138
:1018600089839A83AB83BC839B819295969597706D
:101870008C81880F880F880F890F8093F7009A81D9
:101880009295969597708B81880F880F880F890F96
:101890008093F60099819295969597708A81880F2A
:1018A000880F880F890F8093F5008981880F880F32
:1018B000880F44EF50E0FA018083EFEEF0E0908172
:1018C000D80116968C911697892B808381E01E96FD
:1018D0008C93DA018C9184608C9380EF90E0DC0132
:1018E0002C9124602C93808180628083DA018C911A
:1018F0008E7F8C9380818F738083808180688083CA
:1019000080E0BBC0F8018785882369F194819295B6
:10191000969597708581880F880F880F890F80931F
:10192000F30093819295969597708481880F880F24
:10193000880F890F8093F200928192959695977007
:101940008381880F880F880F890F8093F10082812F
:10195000880F880F880F8093F000EFEEF0E0808111
:101960008061808316C09281969596959695838125
:101970008295880F807E890F8093F3008281829503
:10198000880F807E8093F200EFEEF0E080818F7E02
:101990008083F8018681882379F080E02AEF30E0A7
:1019A000F801A781B085A80FB11D9C91D9019C9326
:1019B0008F5F96818917A0F3C8010E943307DC016D
:1019C000CB0189839A83AB83BC839B819295969547
:1019D00097708C81880F880F880F890F8093F7008C
:1019E0009A819295969597708B81880F880F880FB2
:1019F000890F8093F60099819295969597708A81C8
:101A0000880F880F880F890F8093F5008981880FD0
:101A1000880F880F44EF50E0FA018083EFEEF0E08A
:101A20009081D80116968C911697892B808381E03E
:101A30001E968C93DA018C9184608C9380EF90E0F9
:101A4000DC012C9124602C93808180628083DA01F8
:101A50008C9181608C9380818F738083808180687A
:101A6000808380E00AC0F801118680E006C08FE123
:101A7000D80119968C9319978FEF0F900F900F90B4
:101A80000F90DF91CF911F910F910895EF92FF92E8
:101A90001F93CF93DF93EC018985882309F496C0C7
:101AA0008F3109F495C08F3F09F494C088818295E5
:101AB000807F8093ED000E94DA04182F803261F05D
:101AC000813220F4882309F487C076C0803409F479
:101AD00068C0803A09F070C00F2EFFEEEF2EFF2491
:101AE000F02DF70180818F708E838F8198850E9401
:101AF000ED048091F00090E084709070959587954A
:101B0000959587958E87F701808184FF2DC081E0B0
:101B10008F87E3EFF0E080818695869586958D83AB
:101B2000A2EFB0E08C9190819295990F907E86956E
:101B300086958695890F8C83E1EFF0E080819C91FA
:101B40009295990F907E869586958695890F8B83C1
:101B50008091F00090819295990F907E8695869560
:101B60008695890F8A8313C01F86E3EFF0E080819A
:101B70008295869587708B838091F2009081990F72
:101B8000990F990F829586958770890F8A83198797
:101B9000EFEEF0E080818F7380831092EE0080E0A2
:101BA0001CC080E48987EFEEF0E080818F73808332
:101BB0001092EE0080E011C01987EFEEF0E0808116
:101BC0008F7380831092EE0082E007C082E005C030
:101BD00082E003C082E001C081E0DF91CF911F91DC
:101BE000FF90EF900895FC01362F862F64E60E9447
:101BF0002419482F405D2AE0832F622F0E94241968
:101C00000E942419905D403331F4903311F040E28A
:101C100002C090E240E220E22083218322832383DA
:101C2000248325832683278340879187832F6AE037
:101C30000E942419905D928785E2838724872587F7
:101C400026872787208B218B228B238B0895CF9388
:101C5000FC01362FC4E6862F6C2F0E9424198E5C5F
:101C60008083BEE2B1835AE0832F652F0E9424193E
:101C7000392F0E942419905D9283305D3383A6E54D
:101C8000A48330E235833683842F6C2F0E9424197D
:101C90008E5C8783B087842F652F0E942419492F7B
:101CA0000E942419905D9187405D4287A387348705
:101CB00035873687822F6C2F0E9424198E5C878788
:101CC000B08B822F652F0E942419292F0E9424197E
:101CD000905D918B205D228BA38BCF9108951F93F4
:101CE000CF93DF93CDB7DEB764970FB6F894DEBF1E
:101CF0000FBECDBF582F192F462FCE010196E0E021
:101D0000F1E024E10190DC010D92CD012150D1F7E9
:101D1000842F6AE00E942419B82F6BE00E942419D6
:101D2000292F30E01216130644F020E030E0FE01C7
:101D3000E20FF31F35968AE20FC0FE013596BF0110
:101D4000690F711DCB0166E16193E817F907E1F7AF
:101D50002A30310564F306C081932F5F3F4F2A304C
:101D60003105D4F34456443630F4FE01E20FF31F3C
:101D700081E3868305C0FE01E20FF31F80E28683C4
:101D8000FE01E20FF31F8B2F6AE00E942419905D81
:101D90009783FE01E20FF31F80E3808785E281874E
:101DA000E52FF12FDE01119684E10D900192815013
:101DB000E1F764960FB6F894DEBF0FBECDBFDF919A
:101DC000CF911F910895CF93FC01362FC4E6862F43
:101DD0006C2F0E942419805D80835AE0832F652F29
:101DE0000E942419392F0E942419905D9183305D3F
:101DF0003283B0EBB383A3E4A48330E2358336832C
:101E0000842F6C2F0E942419805D8783842F652F77
:101E10000E942419492F0E942419905D9087405DEB
:101E20004187B287A387348735873687822F6C2F07
:101E30000E942419805D8787822F652F0E942419B4
:101E4000292F0E942419905D908B205D218BB28BED
:101E5000A38BCF910895FC01462F20E2208321839C
:101E600022832383248325832683862F64E60E948E
:101E70002419805D87833AE0842F632F0E94241900
:101E8000492F0E942419905D90878EE28187405DE2
:101E9000428786E583872487258726872787208BA7
:101EA000218B228B238B0895CF93DF93EC01362F68
:101EB000E62FF0E0EC3CF10508F0E0C0E65BFF4FF8
:101EC000EE0FFF1F0590F491E02D0994FC01A0E0B6
:101ED000B6E084E10D9001928150E1F731C1FC013F
:101EE000ACEEB5E084E10D9001928150E1F728C19C
:101EF000FC01A4ECB5E084E10D9001928150E1F782
:101F00001FC1FC01A0EBB5E084E10D90019281506E
:101F1000E1F716C1FC01ACE9B5E084E10D90019256
:101F20008150E1F70DC1FC01A8E8B5E084E10D9016
:101F300001928150E1F704C1FC01A4E7B5E084E11E
:101F40000D9001928150E1F7FBC0FC01A0E6B5E0E5
:101F500084E10D9001928150E1F7F2C0FC01ACE404
:101F6000B5E084E10D9001928150E1F7E9C0FC01F8
:101F7000A8EEB4E084E10D9001928150E1F7E0C059
:101F8000FC01A4EDB4E084E10D9001928150E1F7F1
:101F9000D7C0FC01A0ECB4E084E10D900192815027
:101FA000E1F7CEC0FC01ACEAB4E084E10D9001920F
:101FB0008150E1F7C5C0FC01A8E9B4E084E10D90CF
:101FC00001928150E1F7BCC0FC01A4E8B4E084E1D7
:101FD0000D9001928150E1F7B3C0FC01A0E7B4E09D
:101FE00084E10D9001928150E1F7AAC0FC01ACE5BB
:101FF000B4E084E10D9001928150E1F7A1C0FC01B1
:10200000A8E4B4E084E10D9001928150E1F798C01A
:10201000FC01A0E2B4E084E10D9001928150E1F76F
:102020008FC0FC01A0E2B4E084E10D9001928150E8
:10203000E1F786C0FC01A8EFB3E084E10D900192C6
:102040008150E1F77DC0FC01A4EEB3E084E10D9086
:1020500001928150E1F774C0FC01A0EDB3E084E18E
:102060000D9001928150E1F76BC0FC01A8EAB3E04A
:1020700084E10D9001928150E1F762C0FE01A8ED6C
:10208000B5E084E10D9001928150E1F7832F6AE081
:102090000E942419282F482F50E0CA01880F991F49
:1020A000AC01440F551F440F551F840F951F8E31EF
:1020B0009105B9F08F31910524F48431910559F5DA
:1020C00007C088329105B1F08233910521F51BC01C
:1020D000DE01E4E2F5E084E101900D928150E1F748
:1020E0001AC0DE01E0E1F5E084E101900D9281503B
:1020F000E1F711C0DE01ECEFF4E084E101900D9214
:102100008150E1F708C0DE01ECEFF4E084E10190DA
:102110000D928150E1F7832F64E60E942419805DBF
:1021200089834AE0822F642F0E942419905D9A834C
:10213000832F0E942419905D9B83DF91CF91089596
:10214000832F6AE00E942419282FE5CFFC01E60FB7
:10215000F11D405D40830895CF93DF93CDB7DEB787
:1021600064970FB6F894DEBF0FBECDBFDE011196A7
:10217000E4E1F1E024E101900D922150E1F7E82F34
:10218000F92FDE01119684E10D9001928150E1F763
:1021900064960FB6F894DEBF0FBECDBFDF91CF912E
:1021A0000895623021F1633030F4662361F06130CC
:1021B00009F044C012C0643071F1643010F1653030
:1021C00009F03CC032C0E82FF92FA4EBB1E084E164
:1021D0000D9001928150E1F70895E82FF92FA0EAC0
:1021E000B1E084E10D9001928150E1F70895E82F6C
:1021F000F92FA8ECB1E084E10D9001928150E1F754
:102200000895E82FF92FA8E7B1E084E10D9001923D
:102210008150E1F70895E82FF92FA4E6B1E084E1B9
:102220000D9001928150E1F70895E82FF92FACE865
:10223000B1E084E10D9001928150E1F708950F9390
:102240001F93CF93DF93CDB7DEB764970FB6F894A3
:10225000DEBF0FBECDBF8C01653688F544E6461B58
:102260009E012F5F3F4FA8E2B1E084E10D90F9019C
:1022700001929F018150D1F79801DE01119684E10E
:102280000D90F90101929F018150D1F72AE0862F2C
:10229000622F0E942419392F0E942419892F805DF2
:1022A000F8018183305D3283842F0E942419392FF5
:1022B0000E942419892F805D808B305D318B64965C
:1022C0000FB6F894DEBF0FBECDBFDF91CF911F9147
:1022D0000F910895CF92DF92EF92FF920F931F9389
:1022E000CF93DF93CDB7DEB764970FB6F894DEBF18
:1022F0000FBECDBFF82EE92E9B016A0104E610E067
:10230000CB01B8010E943019462F405DEAE0F0E0B1
:10231000C901BF010E943019CB01BF010E943019D1
:10232000382F305DC601B8010E943019605D40331E
:1023300021F4303321F080E204C0842F02C030E267
:1023400080E2603309F460E220E229838A833B83E0
:102350004C8340EB4D8333E43E832F8328872987CA
:102360002A872B872C872D872E876F87688BC6013E
:102370006AE070E00E943019805D898B4A8B3B8B4C
:102380002C8BEF2DFE2DDE01119684E10D90019234
:102390008150E1F764960FB6F894DEBF0FBECDBF53
:1023A000DF91CF911F910F91FF90EF90DF90CF9031
:1023B0000895CF93C82F28988AEF0E9410178C2F6A
:1023C0000E941017289ACF910895CF93C82F28986C
:1023D00088EF0E9410178C2F0E941017289ACF9117
:1023E0000895EF92FF920F931F93CF93DF93D82F0F
:1023F000C92FF62EE72E82E00E94E5110D2F1C2F2B
:10240000C0E0D0E0F80181918F010E94D91121969E
:10241000C431D105B9F7C4E1D0E084E10E94E511EF
:102420002197D9F70F2D1E2DC0E0D0E0F801819142
:102430008F010E94D9112196C431D105B9F7DF91DE
:10244000CF911F910F91FF90EF900895CF920F932E
:102450001F93CF93DF93C62FE82FF0E0E533F1050C
:1024600008F0FBC0EA5EFE4FEE0FFF1F0590F491EF
:10247000E02D0994CCE2D2E0CE010E94AC1084E9B8
:1024800093E0BE010E94F111E8C08CE292E06C2D55
:1024900070E00E94540FC83C38F08CE693E06CE288
:1024A00072E00E94F111D9C080E893E06CE272E022
:1024B0000E94F111D2C0623061F06330B9F0613036
:1024C00009F0CBC080E992E06CE772E00E94F11164
:1024D000C4C0CCE2D2E0CE0162E070E00E946F0E98
:1024E00088E692E0BE010E94F111B7C0CCE2D2E0D2
:1024F000CE010E94AC1084E592E0BE010E94F11171
:10250000ACC00CE212E0C80170E00E94F30D88E557
:1025100093E0B8010E94F111A0C00CE212E0C801E2
:1025200070E050E030E00E94270E84E493E0B801B0
:102530000E94F11192C00CE212E0C80170E050E07C
:1025400030E00E94E30E80E393E0B8010E94F111B5
:1025500084C00CE212E0C80170E00E942B0F8CE1F5
:1025600093E0B8010E94F11178C00CE212E0C801BA
:1025700070E050E00E946A118CEC92E0B8010E9479
:10258000F1116BC00CE212E0C80170E050E00E9453
:102590006A1180EE92E0B8010E94F1115EC00CE277
:1025A00012E0C80170E00E946F0E84EF92E0B80163
:1025B0000E94F11152C00CE212E0C80170E00E94CA
:1025C0006F0E88E093E0B8010E94F11146C00CE262
:1025D00012E0C80170E00E946F0E88EB92E0B80133
:1025E0000E94F1113AC00CE212E0C80170E00E94B2
:1025F0006F0E84EA92E0B8010E94F1112EC00CE245
:1026000012E0C80170E00E94A61080E492E0B801D8
:102610000E94F11122C0CCE2D2E0CE010E94AC10A7
:1026200088E192E0BE010E94F11117C00CE212E0B5
:10263000C80170E00E94D1108CED91E0B8010E94B9
:10264000F1110BC00CE212E0C80170E00E941F11F2
:1026500080EF91E0B8010E94F111DF91CF911F91BD
:102660000F91CF900895CF92EF920F938EE10E9439
:10267000FA168CB58F778CBD8CB580618CBD1092AD
:10268000B206209A289A8CE00E94E51188E30E9405
:10269000E51180E060E040E020E000E0EE24CC24A2
:1026A0000E9426128FEF80936F060F91EF90CF90CC
:1026B0000895E82FF92FA0E7B6E084E10D9001928C
:1026C0008150E1F708958091B2068C3051F49091D9
:1026D0006F069F3F31F09093B2068FEF80936F06A5
:1026E00003C08F5F8093B2068091B2066FE00E94B4
:1026F00024199093B206992319F481E08093B206CD
:1027000008958091B206823020F48EE08093B20664
:1027100008958C3051F490916F069F3F31F0909363
:10272000B2068FEF80936F06089581508093B206B2
:102730000895CF93DF93682FCCE2D2E0CE010E94C0
:10274000F30D84E092E0BE010E94F111DF91CF9180
:10275000089590931906809318060E941A190895F7
:10276000E0911806F09119069081892B80830895D5
:10277000E0911806F0911906108208951092320720
:10278000109233070895CF93DF93E82FC09132075B
:10279000D0E0CE01019660E170E00E9430194091D6
:1027A000330750E08417950731F0CE5DD84FE883AA
:1027B0008093320703C088E00E94B013DF91CF916D
:1027C00008958091330790913207981731F0E2E233
:1027D000F7E0E80FF11D808108958AE00895CF9217
:1027E000EF920F931F93CF93DF9380913307E2E231
:1027F000F7E0E80FF11D8081863009F44CC0873086
:1028000040F4813081F1813070F0843009F010C1E2
:1028100022C0883009F46DC0883008F467C0893060
:1028200009F006C169C08AE196E06AE276E042E01A
:1028300055E028E00E94BB03C2E3D6E0CE0162E48B
:1028400076E041E055E021E00E94BB037894CE01A0
:102850000E94CC03EDC080915606882309F0E8C0A1
:102860000E942917E5C080915606813009F0E0C02A
:102870000E94C0028091B20680932A0680911506BC
:1028800080932B068091140680932C068AE196E0B3
:102890000E941F04CDC080915606813009F0C8C047
:1028A000809116068823F9F080911706833040F452
:1028B0000E9451038091170681508093170603C030
:1028C00081508093170680911706882309F0B0C0C5
:1028D00084E0809317060E944F0380911606815072
:1028E00080931606A5C00E945103A2C00E946F04E7
:1028F0009FC00E9450049CC080915606813009F010
:1029000097C082E396E00E94DA03D0914406E2E4A5
:10291000F6E01081C18110FF04C080E00E944015E4
:1029200003C080E00E947815812F869580FF04C047
:102930008AE00E94401503C08AE00E947815812F2A
:102940008695869580FF04C082E00E94401503C0F2
:1029500082E00E947815812F86958695869580FF66
:1029600004C083E00E94401503C083E00E947815F4
:10297000812F82958F7080FF04C084E00E944015F3
:1029800003C084E00E947815812F82958695877018
:1029900080FF02C00E94530312951695169513707E
:1029A00010FF04C081E00E94401503C081E00E9436
:1029B000781521E08091D9068C1709F420E081E098
:1029C000CC2309F480E0282330E081E090E0CF3F81
:1029D00011F480E090E0822393230097B9F0C09334
:1029E000D9068091B20680936F068CE08093B20680
:1029F00060914506409146062091470600914806A1
:102A0000E0904906CC2E0E94261212C08091B20698
:102A1000D81771F48D2F609145064091460620919C
:102A2000470600914806E0904906CC2E0E942612E7
:102A3000DF91CF911F910F91EF90CF9008959091DA
:102A4000320780913307981761F00E94EF1380914D
:102A5000330790E0019660E170E00E9430198093A6
:102A600033070895579A099A0B9A0C9A9A9A3C9AA6
:102A7000389A999A989A399A0A9A0E94B0150895A4
:102A80008C30A8F5853091F1863070F4823031F1C8
:102A9000833028F4882341F1813049F513C0833015
:102AA00009F1843021F51CC0883091F0893028F478
:102AB000863051F08730D9F409C0893059F08A3016
:102AC000B1F40AC05F9A0895119A0895139A08956F
:102AD000149A0895A29A0895449A0895409A0895E0
:102AE000A19A0895A09A0895419A0895129A089576
:102AF0008C30A8F5853091F1863070F4823031F158
:102B0000833028F4882341F1813049F513C08330A4
:102B100009F1843021F51CC0883091F0893028F407
:102B2000863051F08730D9F409C0893059F08A30A5
:102B3000B1F40AC05F980895119808951398089504
:102B400014980895A2980895449808954098089577
:102B5000A1980895A098089541980895129808950D
:102B6000CF93C0E08C2F0E947815CF5FCC30D1F787
:102B7000CF9108958C3008F079C0853059F18630B6
:102B800098F4823009F44FC0833038F4882309F474
:102B90005DC0813009F069C018C0833009F450C0AD
:102BA000843009F062C045C0883069F1893038F45A
:102BB000863009F452C0873009F057C013C08930FD
:102BC000D1F08A3009F051C026C081E05F994EC033
:102BD00080E0089592B1969581E0913009F446C065
:102BE00080E0089592B196959695969581E0913002
:102BF000E9F180E0089592B192959F7081E0913063
:102C0000A9F180E0089594B39695969581E091306E
:102C100069F180E0089598B192959F7081E09130BC
:102C200029F180E0089598B181E09130F9F080E0D9
:102C3000089594B3969581E09130C1F080E00895B5
:102C400094B381E0913091F080E0089598B1969529
:102C500081E0913059F080E0089592B19695969573
:102C600081E0913019F080E0089508950895CF93A0
:102C7000C82F0E94BA15882321F08C2F0E94781546
:102C800003C08C2F0E944015CF910895EF92FF92C0
:102C90000F931F93CF93DF937C01C0E0D0E001E05E
:102CA00010E08C2F98010C2E02C0220F331F0A94C3
:102CB000E2F72E213F212115310511F00E94401528
:102CC0002196CB30D10569F7DF91CF911F910F91FC
:102CD000FF90EF9008950F931F93CF93DF93C0E081
:102CE000D0E08C2F0E94BA1590E00C2E02C0880F05
:102CF000991F0A94E2F7082B192B2196CB30D105A6
:102D000081F7802F912FDF91CF911F910F9108951F
:102D1000CF93C82F833110F40E94B015C43130F026
:102D200082E00E94401589E00E944015C83230F0D0
:102D30008AE00E94401588E00E944015CC3330F0B4
:102D400080E00E94401587E00E944015C03530F0B9
:102D500083E00E94401586E00E944015C43630F0A2
:102D600084E00E94401585E00E944015CF910895AF
:102D7000089511B814B887B1807687B98FEF8AB9F2
:102D80001DB810BA93B3907E93BB82B985B988B948
:102D90009BB19F699BB98EB981BB84B38F6184BBA2
:102DA0000895109256060E94B9160E94A00382E070
:102DB00060E00E94A41883E060E00E94A9180E94CD
:102DC000AE180E94DE180E944C030E94FE180E945A
:102DD00032150E949F020E9433130E940E1980E058
:102DE0000E94C3130895529A5A9808955A9A0895C2
:102DF0005A980895209A209A94B1966094B99CB5F7
:102E0000907C9CBD9CB58F73892B8CBD8DB58DBD81
:102E10008CB580648CBD81E008958DB5807808956F
:102E20008EBD0DB407FEFDCF08950DB407FEFDCF96
:102E30008EB508950DB407FEFDCF8EBD08951F9287
:102E40000F920FB60F9211240F900FBE0F901F908C
:102E50001895CF92EF920F93CF9320914A062F5F50
:102E600020934A06822F66E00E9424199923E9F4F0
:102E7000C6E0822F0E942419880F982F990F990F6E
:102E8000890F0E94991380914A066C2F0E94241981
:102E9000282F30E0220F331FC901880F991F880F98
:102EA000991F820F931F0E94881680914A068C33C7
:102EB00080F081E0809356061092B20680E060E0D8
:102EC00040E020E000E0EE24CC240E9426120E9484
:102ED000B015CF910F91EF90CF9008951F920F9260
:102EE0000FB60F9211240F900FBE0F901F901895E0
:102EF0001F920F920FB60F9211240F900FBE0F90DA
:102F00001F9018951F920F920FB60F9211242F93B6
:102F10003F934F935F936F937F938F939F93AF9361
:102F2000BF93EF93FF93E8E8F0E080819181805DAB
:102F30009A489183808381E00E94C313FF91EF91AF
:102F4000BF91AF919F918F917F916F915F914F91C1
:102F50003F912F910F900FBE0F901F9018951F92C9
:102F60000F920FB60F9211242F933F934F935F93BD
:102F70006F937F938F939F93AF93BF93EF93FF9341
:102F8000EAE8F0E080819181805A954191838083C5
:102F900082E00E94C313FF91EF91BF91AF919F9187
:102FA0008F917F916F915F914F913F912F910F90F2
:102FB0000FBE0F901F9018951F920F920FB60F9291
:102FC00011242F933F934F935F936F937F938F932E
:102FD0009F93AF93BF93EF93FF93ECE8F0E0808172
:102FE00091818856954C9183808383E00E94C3131E
:102FF000FF91EF91BF91AF919F918F917F916F91D1
:103000005F914F913F912F910F900FBE0F901F90A6
:1030100018951F920F920FB60F9211242F933F9382
:103020004F935F936F937F938F939F93AF93BF93D0
:10303000EF93FF93E8E9F0E0808191818059964B0E
:103040009183808384E00E94C313FF91EF91BF912D
:10305000AF919F918F917F916F915F914F913F9130
:103060002F910F900FBE0F901F9018951F920F92E7
:103070000FB60F9211242F933F934F935F936F934B
:103080007F938F939F93AF93BF93EF93FF93EAE95F
:10309000F0E08081918180529D469183808385E01C
:1030A0000E94C313FF91EF91BF91AF919F918F91B8
:1030B0007F916F915F914F913F912F910F900FBE34
:1030C0000F901F9018951F920F920FB60F92112418
:1030D0002F933F934F935F936F937F938F939F9320
:1030E000AF93BF93EF93FF93ECE9F0E08081918180
:1030F00080599C4E9183808386E00E94C313FF9188
:10310000EF91BF91AF919F918F917F916F915F915F
:103110004F913F912F910F900FBE0F901F901895D8
:103120001F920F920FB60F9211240F900FBE0F90A7
:103130001F9018951F920F920FB60F9211240F90A7
:103140000FBE0F901F9018958093810060936F00C1
:103150000895809391006093710008958091840098
:1031600090918500805D9A489093890080938800B3
:10317000EFE6F0E080818260808308958091840092
:1031800090918500805A954190938B0080938A009E
:10319000EFE6F0E080818460808308958091840070
:1031A000909185008856954C90938D0080938C006B
:1031B000EFE6F0E08081886080830895809194003C
:1031C000909195008059964B909399008093980028
:1031D000E1E7F0E08081826080830895809194002F
:1031E0009091950080529D4690939B0080939A0009
:1031F000E1E7F0E08081846080830895809194000D
:103200009091950080599C4E90939D0080939C00D6
:10321000E1E7F0E080818860808308952BE088E119
:1032200090E00FB6F894A895809360000FBE2093AD
:103230006000089504B603FE06C084B7877F84BF8C
:1032400080E10E94B0130895991B79E004C0991F92
:10325000961708F0961B881F7A95C9F780950895F0
:1032600097FB092E07260AD077FD04D00CD006D094
:1032700000201AF4709561957F4F0895F6F79095A8
:1032800081959F4F0895AA1BBB1B51E107C0AA1F40
:10329000BB1FA617B70710F0A61BB70B881F991FF7
:1032A0005A95A9F780959095BC01CD010895F894A1
:0232B000FFCF4E
:1032B200202020204142434445464748494A202095
:1032C20020202020202020202020202020202020FC
:1032D2002020202020202020206162252020202064
:1032E200202020202020202063642520303132330A
:1032F2003435363738394142434445464748494ACE
:1033020000000000000000000000000000000000BB
:1033120000000000202020203E5052494E434553D9
:103322005320504541434820202020203E444F4E08
:103332004B45592D4B4F4E47202020202020202046
:103342003E424F575345522020202020202020204B
:10335200202020203E4C5549474920202020202073
:1033620020202020202020203E4D4152494F202065
:103372002020202020202020202020203E594F5392
:103382004849202020202020202020202053454C66
:1033920045435420594F555220504C4159455220D3
:1033A2004C204252414B452042414C414E43452024
:1033B200202020523C3C2020205354415254494E5C
:1033C2004720555020203E3E20202052454144595E
:1033D2002020544F204452495645202020202020AE
:1033E20020202020202020202020202020202020DB
:1033F2002020425554544F4E205052455353454479
:103402002020202020203C3C474F2120474F2120D4
:10341200474F213E3E20202020414343454C455208
:103422004154494F4E2052454144592020204E4F8D
:10343200524D414C20445249564520202020202004
:103442002020414343454C45524154494F4E204D63
:103452004F4445202020544F525155452020564577
:1034620043544F52494E472020205452414354491D
:103472004F4E20434F4E54524F4C202020204D4F50
:10348200544F522054454D502E2052454152202037
:1034920020204D4F544F522054454D502E2046521D
:1034A2004F4E542020204D4F544F5220504F5745DD
:1034B200522052454152202020204D4F544F52203D
:1034C200504F5745522046524F4E54202020202024
:1034D2004C5620564F4C5441474520202020202056
:1034E200204D494E202043454C4C54454D50202000
:1034F2004D4158204D494E202043454C4C564F4C8F
:1035020054414745204D41582020535441544520B1
:103512004F4620434841524745202020202020206A
:103522002020204D45535341474520202020200094
:10353200202020202020204552524F52202020209F
:10354200202000002020202020414D5A206772694F
:103552006D73656C20202020235858582020204D60
:1035620043204641494C20202020202023585858EF
:103572002020205052452043485247204641494C82
:10358200235858582020204D53204F50454E20207C
:103592002020202023585858202020454E524520D4
:1035A2004641494C202020202358585820202052A0
:1035B20045414459203220445249564523585858CF
:1035C2002020205052454348415247454420202064
:1035D20023585858202020505245434841524745CD
:1035E2004420202023585858202020505245434838
:1035F200415247494E472020235858582020204303
:103602004845434B204D5320202020202358585812
:103612002020205354415254494E472054532020D5
:1036220023585858204D495353494E472053485523
:103632004E54200023585858204D495353494E4761
:10364200204D432D5220200023585858204D4953D5
:1036520053494E47204D432D4C20200023585858A3
:10366200204D495353494E47204D434D414220007E
:1036720023585858204D495353494E47204D434DE6
:103682004C56420023585858204D495353494E47EF
:10369200204D434D4620200023585858204D495371
:1036A20053494E47204D434D52202000235858582D
:1036B200204D434D204552524F52202020202000C1
:1036C20023585858204D43204552524F5220202013
:1036D200202020002358585820424D532045525252
:1036E2004F52202020202000235858582042414485
:1036F20052455155455354204944200023585858A7
:10370200204252414B4520502E442E2020202000A2
:103712002358585820494D4446202020202020205C
:10372200202020002358585820494D442020202092
:10373200202020202020200023585858204856447A
:103742004920494E54455255505420002358585848
:1037520020424F54532020202020202020202000CF
:10376200235858582050524520424F54532020206D
:1037720020202000235858582050524520454E52B0
:1037820045202020202020002358585820554E4BF9
:103792004E4F574E204552524F52200023585858F0
:1037A20020534320444F574E202020202020200029
:1037B200235858582020204E4F4E452020202020AC
:0437C2002020202083
:00000001FF
