:100000000C947F010C949C010C949C010C949C0119
:100010000C949C010C949C010C949C010C949C01EC
:100020000C949C010C949C010C949C010C949C01DC
:100030000C9417190C9444190C9471190C94251AEA
:100040000C949C010C94F1180C94B9030C949C0131
:100050000C949C010C949C010C949C010C949C01AC
:100060000C949C010C949C010C949C010C949C019C
:100070000C949E190C94CB190C94F8190C942F1A0B
:100080000C949C010C949C010C949C010C949C017C
:100090000C949C01B30FBC0FC50FD70FCE0FE00F10
:1000A000E90FF20FFB0F3F1104103F113F113F11F9
:1000B0003F113F113F113F113F113F113F110D10F3
:1000C00016101F10281031103A1043103F113F1125
:1000D0003F113F113F113F113F113F113F113F11A0
:1000E0003F113F113F113F113F113F113F113F1190
:1000F0003F113F113F113F113F113F113F113F1180
:100100003F113F113F113F113F113F113F113F116F
:100110003F113F113F113F113F113F113F113F115F
:100120003F113F113F113F113F113F113F113F114F
:100130003F113F113F114C1055103F113F113F111E
:100140003F113F113F113F115E1067107010791081
:1001500082108B1094109D10A610AF103F11B81094
:10016000C110CA10D310DC10E510EE10F7103F11CB
:100170003F113F113F113F113F113F113F113F11FF
:100180003F113F113F113F113F113F113F113F11EF
:100190003F113F113F113F113F113F113F113F11DF
:1001A0003F113F113F113F113F113F113F113F11CF
:1001B0003F113F113F113F113F113F113F113F11BF
:1001C0003F113F113F113F113F113F113F113F11AF
:1001D0003F113F113F113F113F113F113F113F119F
:1001E0003F113F113F113F113F113F113F113F118F
:1001F0003F113F113F113F113F113F113F113F117F
:100200003F113F113F113F113F113F113F113F116E
:100210003F113F113F113F113F113F113F113F115E
:100220003F113F113F110011091112111B1124112F
:100230002D113F113F113F113F113F113F113F1150
:100240003F113F113F113F113F113F113F113F112E
:100250003F113F113F113F113F113F113F113F111E
:100260003F113F113F113F113F113F113F113F110E
:100270003F113F113F113F113F113F113F113F11FE
:100280003F113F113F113F113F113F113F113F11EE
:100290003F113611B013F8130414121420142C1447
:1002A0003914521446145E146A14D213BB13891401
:1002B0009514A114AD14AD14AD14AD14AD14AD145A
:1002C000AD14AD14AD14AD14AD14AD14AD14AD1426
:1002D000AD14AD14AD14AD14AD14AD14AD14AD1416
:1002E000AD14AD14AD14AD14AD14AD14AD14AD1406
:1002F000AD14AD14AD14AD14AD14761482141124E4
:100300001FBECFEFD8E0DEBFCDBF17E0A0E0B1E069
:10031000E8EFF5E302C005900D92AC37B107D9F7CD
:1003200018E0ACE7B7E001C01D92A33AB107E1F7CE
:100330000E949E010C94FA1A0C9400000E944F181F
:10034000A8950E949D16FCCF9CB192959F7090FD40
:100350000BC0E82FF0E0EE0FFF1FEE0FFF1FE15F75
:10036000F74F91E0908309C0E82FF0E0EE0FFF1FF8
:10037000EE0FFF1FE15FF74F10829CB192959695AB
:10038000977090FD0BC0E82FF0E0EE0FFF1FEE0F0F
:10039000FF1FE15FF74F91E0918309C0E82FF0E084
:1003A000EE0FFF1FEE0FFF1FE15FF74F118296B1B7
:1003B000929596959695937090FD0BC0E82FF0E07E
:1003C000EE0FFF1FEE0FFF1FE15FF74F91E09283EB
:1003D00009C0E82FF0E0EE0FFF1FEE0FFF1FE15FF7
:1003E000F74F128296B196959695969590FD0BC013
:1003F000E82FF0E0EE0FFF1FEE0FFF1FE15FF74F5A
:1004000081E083830895E82FF0E0EE0FFF1FEE0FE9
:10041000FF1FE15FF74F138208956E98769A089553
:100420006F98779A089524982C9A089576986E9AE2
:10043000089577986F9A08952C98249A089580913A
:100440003108882321F0109231080E94FD14809118
:100450003008882321F0109230080E94E114809126
:100460001508882321F086E00E94BE1603C086E0AE
:100470000E94F61680911208882321F085E00E94E0
:10048000BE1603C085E00E94F616809119088823E5
:1004900021F087E00E94BE1603C087E00E94F61696
:1004A00080911A08882321F089E00E94BE1603C0BB
:1004B00089E00E94F61680911608882321F088E0D2
:1004C0000E94BE1603C088E00E94F61680911408B0
:1004D000882319F00E94791802C00E947B1810929C
:1004E0007D0780911108882319F081E080937D07B2
:1004F00080911508882329F080917D078260809380
:100500007D0780911208882329F080917D078460FF
:1005100080937D0780911908882329F080917D07B9
:10052000886080937D0780911608882329F0809148
:100530007D07806180937D0780911A08882329F0C8
:1005400080917D07806280937D0710927C07809167
:100550000F08882319F081E080937C0780911008B0
:10056000882329F080917C07826080937C078091AA
:100570001408882329F080917C07886080937C0789
:1005800080911308882329F080917C0784608093F0
:100590007C0780911808882329F080917C0780616E
:1005A00080937C0780911708882329F080917C072D
:1005B000806280937C07089585B78F7E85BF8DB15B
:1005C0008F6B8DB9769A8DB18F678DB9779A84B11B
:1005D0008F6E84B92C9A6C98749A6D98759A3E981F
:1005E000469A3B98439AE6E3F8E0CF010C9621E067
:1005F0002193E817F907E1F70895CF92DF92EF9280
:10060000FF920F931F93CF93DF93CDE0D2E0FE01D3
:10061000099500E112E0F80109950F2EF3E1EF2EA4
:10062000F2E0FF2EF02DF7010995F8010995F70189
:1006300009950E9416020F2EF4EACF2EF1E0DF2E6C
:10064000F02D80E090E0F6010995FE010995F70193
:1006500009950E94190281E090E0F6010995FE01DA
:100660000995F80109950E941C0282E090E0F601CC
:100670000995FE010995F8010995F7010995ECE145
:10068000F8E0AFE0B8E006E318E088E298E0AF01F8
:10069000445F5F4F71E09F016081662359F46C9164
:1006A000613041F4E8016881613081F4EC017883C4
:1006B000E8011882E9012881213041F42C9122239C
:1006C00029F4E8012881222309F4788331961196D0
:1006D0000F5F1F4F0196E417F507E9F60E941F020E
:1006E000ACE1B8E0EFE0F8E08CE001900D928150D1
:1006F000E1F7DF91CF911F910F91FF90EF90DF9085
:10070000CF9008952FE038E0280F311DF901808146
:100710000895089A10980895109A089510980895C9
:100720000E948C0382E180937E0784E080937F07A0
:100730000895E0915508F0E0EE0FFF1FED5BF74FD5
:10074000A081B18182E011968C93808191810E9479
:10075000CA07882331F01092540881E00E942C15BA
:100760000895EBEDF0E08081886080830E94401A5C
:1007700008951F920F920FB60F9211242F933F935B
:100780004F935F936F937F938F939F93AF93BF9399
:10079000EF93FF938091EE0086FF09C089E00E94ED
:1007A0003F15EEEEF0E080818F7B808315C085FFE2
:1007B00009C08AE00E943F15EBEDF0E080818F7761
:1007C00080830AC01092EE00EBEDF0E08081877F1D
:1007D000808387E00E943F15FF91EF91BF91AF9119
:1007E0009F918F917F916F915F914F913F912F9149
:1007F0000F900FBE0F901F90189585E00E94B507CF
:100800001092EE0080EB8093DB008FE78093DF0097
:100810008FEF8093DE0010925308109255081092CB
:10082000540810925708109256080895FC017087DA
:100830006783178616865383428326838FEF97E05C
:10084000A0E0B0E082879387A487B587089590934E
:1008500057088093560825E0FC01218380915608B3
:10086000909157080E94CA0708950E94A40DEBEDCD
:10087000F0E080818068808380915408823029F480
:1008800081E0809354080E94990308959091530841
:1008900080915508981769F18091560890915708F2
:1008A0000097C9F0EBEDF0E080818F7D8083E091CF
:1008B0005608F09157088CE08183809156089091FA
:1008C00057080E94CA0780915608909157080E94C5
:1008D000A40D8130C1F38091DB00882334F481E0E2
:1008E000809354080E949903089582E080935408ED
:1008F0000895E0915608F0915708309769F085E027
:10090000818380915608909157080E94CA07EBEDA9
:10091000F0E08081806280830895CF93DF93EC01C3
:10092000E0915308F0E0CF01019668E070E00E948A
:10093000D31A2091550830E08217930749F0EE0F43
:10094000FF1FED5BF74FD183C0838093530803C033
:1009500084E00E942C1580915408882311F40E9491
:100960004604DF91CF910895E0915508F0E0EE0F35
:10097000FF1FED5BF74F8081918108950E94451A1A
:10098000E0915508F0E0EE0FFF1FED5BF74FA081FF
:10099000B1818CE011968C93808191810E94CA076D
:1009A000109254088091550890E0019668E070E03C
:1009B0000E94D31A809355080E944604089580919E
:1009C00054088150823008F50E94451AE09155087C
:1009D000F0E0EE0FFF1FED5BF74FA081B1818CE0DF
:1009E00011968C93808191810E94CA0782E00E94B7
:1009F0002C15109254088091550890E0019668E0FB
:100A000070E00E94D31A80935508089520E0ADEE5F
:100A1000B0E08EEE90E0322F3295307F3C93FC01B7
:100A20001192E83FF105E1F72F5F2F30A1F708950C
:100A3000EDEEF0E0208110828091EF00807C69F083
:100A400081E0ADEEB0E0EFEEF0E0982F9295907F70
:100A50009C939081907C29F401C080E02093ED006C
:100A600008958F5F8F3089F72093ED008FEF089501
:100A70008091EF00807C69F09091EE00892F807E5C
:100A8000803241F0803431F0803A21F0892F8F712B
:100A900008958FEF0895CF93DF93AC018091EF001D
:100AA00090E08F70907018161906A4F460E0EAEFD9
:100AB000F0E0CFEED0E08081DA01A60FB11D8C937B
:100AC0006F5F8881262F30E090E08F70907028173C
:100AD00039078CF3DF91CF9108952F923F924F9277
:100AE0005F926F927F928F929F92AF92BF92CF92BE
:100AF000DF92EF92FF920F931F93CF93DF9300D07B
:100B000000D000D0CDB7DEB7882309F47CC0809137
:100B1000E20090E08E7790709595879501968230EF
:100B200091055CF08091E20090E08E779070959551
:100B30008795282F2F5F298302C081E089838091C8
:100B4000E30090E08E7090709595879501968230C5
:100B5000910554F08091E30090E08E70907095952F
:100B60008795382E339402C0332433948091E40067
:100B700090E08E70907095958795019683309105E1
:100B800054F08091E40090E08E7090709595879578
:100B9000782E739403C07724689471F88091E400F0
:100BA00090E0807790709595879595958795959528
:100BB00087959595879501968330910584F080916E
:100BC000E40090E08077907095958795959587954E
:100BD0009595879595958795682E639403C06624AF
:100BE000689461F8872D90E0830D911D860D911D0D
:100BF00001968830910514F488E090E08A8340E003
:100C00002224239410C041E022246624689461F8D1
:100C10007724689471F898E09A830F2EF3E03F2EC2
:100C2000F02DA1E0A98320E0ADEEB0E08EEE90E0E3
:100C3000322F3295307F3C93FC011192E83FF10551
:100C4000E1F72F5F2F30A1F7A42E622DDD24882439
:100C5000992470E00F2EF8EDEF2EFF24F02D51E0D7
:100C6000E9EDF0E00AED10E020E0C52EB22EB2E092
:100C7000BB8388E08E8391E0A91609F057C0D701A5
:100C80005C930894811C911C89818150880FA2EE8D
:100C9000B0E08C93862D869590E001972C01440C52
:100CA000551C440C551C440C551C440C551C440C40
:100CB000551C832D90E00197880F991F8429A3EE7E
:100CC000B0E08C93862D90E001972C01440C551CCC
:100CD000440C551C440C551C440C551C872D90E0AD
:100CE0000197880F991F84298160A4EEB0E08C934E
:100CF000C401969587959695879596958795A5EEC7
:100D0000B0E08C93ADEEB0E01C92AEEEB0E01C9281
:100D100080E8AFEEB0E08C938AE0D7018C938081BD
:100D200082FFFDCF8FEFD8018C93722F4130B1F548
:100D3000AEEEB0E08C9190E085FF0EC0AFEEB0E07B
:100D40008C918F738C93D7011C92808182FDFDCF93
:100D5000D52E622F322FBEC08F719070009711F088
:100D60006C2D4B2DD8014C90552445FE0DC077239A
:100D700029F48C9180628C937C2D06C0D8018C91D3
:100D800080628C936C2D4B2DC2018F7090700097F8
:100D900009F09DC0413061F2352F01C0352F61301F
:100DA00009F078C0832F372D7A2CAD2CD72E782FD1
:100DB00021103F5F393078F1B7E0B61560F58A81D0
:100DC000893131F08F5F8A832B2C6B80362D59C08F
:100DD0009981903441F09F5F99832B2C6B80362D45
:100DE000AE81AA834EC0A72C7D2DAFEEB0E08C91D2
:100DF0008F738C93D7011C92808182FDFDCFD22E00
:100E0000322F222E6624689461F87724689471F852
:100E1000B8E0BA8369C0363058F0432E5524862D89
:100E200090E001968415950524F46394362D01C055
:100E3000632E362C330E30948A81380E832D8150E8
:100E40008830E0F4462C5524832D90E0DC01119687
:100E5000A30FB11DBD83AC83C201880F991F880FFA
:100E6000991F8A179B0764F0C201880F991F840D90
:100E7000951DA817B90784F52C2C03C02C2C01C094
:100E80002C2C613009F494CF872F7D2DDA2CA72CE0
:100E9000732E382F313009F4EECE8D2D26960FB6F5
:100EA000F894DEBF0FBECDBFDF91CF911F910F91A0
:100EB000FF90EF90DF90CF90BF90AF909F908F907A
:100EC0007F906F905F904F903F902F900895A52E48
:100ED000652F352F422F63CF872F7D2DDA2CA72C3E
:100EE000732E382F452F252E622FD4CF8093E2000A
:100EF0006093E3004093E40081E0089591E09093D3
:100F0000D800853031F482E068E045E20E9476073F
:100F100006C01092E2001092E3001092E40081E01B
:100F200008950F931F93FC018785882391F4028510
:100F30001385248535850F2EF2E1000F111F221F26
:100F4000331FFA95D1F7F02D0F6F1F6F2360306EAE
:100F500005C00285138524853585306E602F712F7D
:100F6000822F932F1F910F9108950E947E0788234F
:100F700049F00E940605E8EDF0E080818260808300
:100F800081E0089580E00895E8EDF0E080818D7FB4
:100F9000808308950F931F93CF93DF9300D000D0E9
:100FA000CDB7DEB78C01DC0111968C9111978C3096
:100FB000B1F419968C911997803669F48C918295C9
:100FC000807F8093ED00EFEEF0E080818F7380836F
:100FD0001092EE001C92F801118680E0ACC50E94D0
:100FE00018058F3F09F4A1C590E6D80119969C9386
:100FF00019978C938295807F8093ED00EEEEF0E060
:101000001192E83FF105E1F7F8018181863009F49A
:1010100056C2873090F4833009F412C1843030F422
:10102000813011F1823009F07CC598C0843009F418
:1010300067C1853009F075C5AAC1893009F4BEC3FE
:101040008A3038F4873009F48FC2883009F069C5D6
:101050001BC38A3021F08B3009F063C5B1C486818F
:10106000882309F049C457C4F8018785882369F1AA
:1010700094819295969597708581880F880F880F37
:10108000890F8093F3009381929596959770848150
:10109000880F880F880F890F8093F20092819295B4
:1010A000969597708381880F880F880F890F80939A
:1010B000F1008281880F880F880F8093F000EFEE97
:1010C000F0E080818061808316C09281969596952C
:1010D000969583818295880F807E890F8093F30097
:1010E00082818295880F807E8093F200EFEEF0E09F
:1010F00080818F7E8083F8018681882379F080E06B
:101100002AEF30E0F801A781B085A80FB11D9C91AE
:10111000D9019C938F5F96818917A0F3F80186858A
:10112000882331F0E0EFF0E080818460808305C0A7
:10113000E0EFF0E080818B7F8083EFEEF0E0908144
:10114000D80116968C911697892B808380818F7396
:10115000808380818064808380E0EDC4F80187858E
:10116000882369F194819295969597708581880F6F
:10117000880F880F890F8093F3009381929596953D
:1011800097708481880F880F880F890F8093F200F1
:1011900092819295969597708381880F880F880F1A
:1011A000890F8093F1008281880F880F880F8093C8
:1011B000F000EFEEF0E080818061808316C09281C4
:1011C00096959695969583818295880F807E890F56
:1011D0008093F30082818295880F807E8093F20055
:1011E000EFEEF0E080818F7E8083F8018681882396
:1011F00079F080E02AEF30E0F801A781B085A80FF0
:10120000B11D9C91D9019C938F5F96818917A0F3A2
:10121000F8011686E0EFF0E080818B7F8083EFEEAF
:10122000F0E09081D80116968C911697892B8083D7
:1012300080818F73808380818064808380E07BC421
:10124000F8018785882369F1948192959695977026
:101250008581880F880F880F890F8093F300938111
:101260009295969597708481880F880F880F890FC3
:101270008093F20092819295969597708381880F62
:10128000880F880F890F8093F1008281880F880F63
:10129000880F8093F000EFEEF0E080818061808322
:1012A00016C0928196959695969583818295880F22
:1012B000807E890F8093F30082818295880F807EE3
:1012C0008093F200EFEEF0E080818F7E808381E0FA
:1012D000F8018687E0EFF0E0808184608083EFEEA4
:1012E000F0E09081D80116968C911697892B808317
:1012F00080818F73808380818064808380E01BC4C1
:101300008FEF9FEFDC0189839A83AB83BC839B8142
:101310009295969597708C81880F880F880F890F0A
:101320008093F7009A819295969597708B81880F9C
:10133000880F880F890F8093F60099819295969572
:1013400097708A81880F880F880F890F8093F50026
:101350008981880F880F880F24EF30E0F90180839E
:10136000EFEEF0E09081D80116968C91892B808366
:10137000D9018C918B7F8C938C918E7F8C93808103
:101380008F73808380818068808380E0D4C3F8017C
:101390008785882369F194819295969597708581C8
:1013A000880F880F880F890F8093F300938192959F
:1013B000969597708481880F880F880F890F809386
:1013C000F20092819295969597708381880F880F8D
:1013D000880F890F8093F1008281880F880F880F12
:1013E0008093F000EFEEF0E080818061808316C092
:1013F000928196959695969583818295880F807EA9
:10140000890F8093F30082818295880F807E80937C
:10141000F200EFEEF0E080818F7E80838FEF9FEF10
:10142000DC0189839A83AB83BC839B8192959695DB
:1014300097708C81880F880F880F890F8093F70031
:101440009A819295969597708B81880F880F880F57
:10145000890F8093F60099819295969597708A816D
:10146000880F880F880F890F8093F5008981880F76
:10147000880F880F44EF50E0FA018083EFEEF0E030
:101480009081D80116968C911697892B80831E9691
:101490001C92DA018C9184608C9380EF90E0DC01E7
:1014A0002C912B7F2C93DA018C9181608C9380811D
:1014B0008F73808380818068808380E03CC38FEF5E
:1014C0009FEFDC0189839A83AB83BC839B819295D8
:1014D000969597708C81880F880F880F890F80935D
:1014E000F7009A819295969597708B81880F880F57
:1014F000880F890F8093F600998192959695977041
:101500008A81880F880F880F890F8093F500898161
:10151000880F880F880F44EF50E0FA018083EFEEC8
:10152000F0E09081D80116968C911697892B8083D4
:1015300081E01E968C93DA018C9184608C9380EF0D
:1015400090E0DC012C9124602C9380818F7D80833E
:10155000DA018C918E7F8C9380818F738083808160
:101560008068808380E0E7C2F8018785882369F17D
:1015700094819295969597708581880F880F880F32
:10158000890F8093F300938192959695977084814B
:10159000880F880F880F890F8093F20092819295AF
:1015A000969597708381880F880F880F890F809395
:1015B000F1008281880F880F880F8093F000EFEE92
:1015C000F0E080818061808316C092819695969527
:1015D000969583818295880F807E890F8093F30092
:1015E00082818295880F807E8093F200EFEEF0E09A
:1015F00080818F7E8083C8010E949107DC01CB012E
:1016000089839A83AB83BC839B81929596959770CF
:101610008C81880F880F880F890F8093F7009A813B
:101620009295969597708B81880F880F880F890FF8
:101630008093F60099819295969597708A81880F8C
:10164000880F880F890F8093F5008981880F880F94
:10165000880F24EF30E0F9018083EFEEF0E0908115
:10166000D80116968C91892B8083D9018C918B7F20
:101670008C938C9181608C9380818F738083808127
:101680008068808380E057C2F8018785882369F1EC
:1016900094819295969597708581880F880F880F11
:1016A000890F8093F300938192959695977084812A
:1016B000880F880F880F890F8093F200928192958E
:1016C000969597708381880F880F880F890F809374
:1016D000F1008281880F880F880F8093F000EFEE71
:1016E000F0E080818061808316C092819695969506
:1016F000969583818295880F807E890F8093F30071
:1017000082818295880F807E8093F200EFEEF0E078
:1017100080818F7E8083C8010E949107DC01CB010C
:1017200089839A83AB83BC839B81929596959770AE
:101730008C81880F880F880F890F8093F7009A811A
:101740009295969597708B81880F880F880F890FD7
:101750008093F60099819295969597708A81880F6B
:10176000880F880F890F8093F5008981880F880F73
:10177000880F44EF50E0FA018083EFEEF0E09081B3
:10178000D80116968C911697892B80831E961C92F1
:10179000DA018C9184608C9380EF90E0DC012C91D5
:1017A0002B7F2C93DA018C9181608C9380818F73D5
:1017B000808380818068808380E0BDC1F801878557
:1017C000882369F194819295969597708581880F09
:1017D000880F880F890F8093F300938192959695D7
:1017E00097708481880F880F880F890F8093F2008B
:1017F00092819295969597708381880F880F880FB4
:10180000890F8093F1008281880F880F880F809361
:10181000F000EFEEF0E080818061808316C092815D
:1018200096959695969583818295880F807E890FEF
:101830008093F30082818295880F807E8093F200EE
:10184000EFEEF0E080818F7E8083C8010E949107D7
:10185000DC01CB0189839A83AB83BC839B81929506
:10186000969597708C81880F880F880F890F8093C9
:10187000F7009A819295969597708B81880F880FC3
:10188000880F890F8093F6009981929596959770AD
:101890008A81880F880F880F890F8093F5008981CE
:1018A000880F880F880F44EF50E0FA018083EFEE35
:1018B000F0E09081D80116968C911697892B808341
:1018C00081E01E968C93DA018C9184608C9380EF7A
:1018D00090E0DC012C9124602C9380818F7D8083AB
:1018E000DA018C9181608C9380818F7380838081F9
:1018F0008068808380E01FC180E02AEF30E0F8013B
:10190000A781B085A80FB11D9C91D9019C938F5FD1
:1019100096818917A0F38FEF9FEFDC0189839A836B
:10192000AB83BC839B819295969597708C81880F31
:10193000880F880F890F8093F7009A81929596956A
:1019400097708B81880F880F880F890F8093F6001E
:1019500099819295969597708A81880F880F880F44
:10196000890F8093F5008981880F880F880F44EFD5
:1019700050E0FA018083EFEEF0E09081D8011696F6
:101980008C911697892B808381E01E968C93DA01C7
:101990008C9184608C9380EF90E0DC012C9124602A
:1019A0002C93808180628083DA018C918E7F8C936E
:1019B00080818F73808380818068808380E0BBC05A
:1019C000F8018785882369F194819295969597709F
:1019D0008581880F880F880F890F8093F30093818A
:1019E0009295969597708481880F880F880F890F3C
:1019F0008093F20092819295969597708381880FDB
:101A0000880F880F890F8093F1008281880F880FDB
:101A1000880F8093F000EFEEF0E08081806180839A
:101A200016C0928196959695969583818295880F9A
:101A3000807E890F8093F30082818295880F807E5B
:101A40008093F200EFEEF0E080818F7E8083F801DA
:101A50008681882379F080E02AEF30E0F801A781C1
:101A6000B085A80FB11D9C91D9019C938F5F968181
:101A70008917A0F3C8010E949107DC01CB0189837B
:101A80009A83AB83BC839B819295969597708C814A
:101A9000880F880F880F890F8093F7009A8192959D
:101AA000969597708B81880F880F880F890F809388
:101AB000F60099819295969597708A81880F880F84
:101AC000880F890F8093F5008981880F880F880F10
:101AD00044EF50E0FA018083EFEEF0E09081D8010E
:101AE00016968C911697892B808381E01E968C9395
:101AF000DA018C9184608C9380EF90E0DC012C9172
:101B000024602C93808180628083DA018C918160D3
:101B10008C9380818F73808380818068808380E054
:101B20000AC0F801118680E006C08FE1D80119963D
:101B30008C9319978FEF0F900F900F900F90DF916C
:101B4000CF911F910F910895EF92FF921F93CF9322
:101B5000DF93EC018985882309F496C08F3109F45D
:101B600095C08F3F09F494C088818295807F8093CF
:101B7000ED000E943805182F803261F0813220F488
:101B8000882309F487C076C0803409F468C0803A9D
:101B900009F070C00F2EFFEEEF2EFF24F02DF7019D
:101BA00080818F708E838F8198850E944B058091F4
:101BB000F00090E084709070959587959595879545
:101BC0008E87F701808184FF2DC081E08F87E3EF4E
:101BD000F0E080818695869586958D83A2EFB0E0B2
:101BE0008C9190819295990F907E86958695869599
:101BF000890F8C83E1EFF0E080819C919295990FA1
:101C0000907E869586958695890F8B838091F000CE
:101C100090819295990F907E869586958695890FED
:101C20008A8313C01F86E3EFF0E08081829586955A
:101C300087708B838091F2009081990F990F990F93
:101C4000829586958770890F8A831987EFEEF0E079
:101C500080818F7380831092EE0080E01CC080E44E
:101C60008987EFEEF0E080818F7380831092EE0021
:101C700080E011C01987EFEEF0E080818F738083E0
:101C80001092EE0082E007C082E005C082E003C04F
:101C900082E001C081E0DF91CF911F91FF90EF9032
:101CA0000895FC01362F862F64E60E94C71A482F3C
:101CB000405D2AE0832F622F0E94C71A0E94C71A34
:101CC000905D403331F4903311F040E202C090E275
:101CD00040E220E2208321832283238324832583FF
:101CE0002683278340879187832F6AE00E94C71A43
:101CF000905D928785E283872487258726872787BB
:101D0000208B218B228B238B0895CF93FC01362FC0
:101D1000C4E6862F6C2F0E94C71A8E5C8083BEE2B9
:101D2000B1835AE0832F652F0E94C71A392F0E9472
:101D3000C71A905D9283305D3383A6E5A48330E2B9
:101D400035833683842F6C2F0E94C71A8E5C87835D
:101D5000B087842F652F0E94C71A492F0E94C71A87
:101D6000905D9187405D4287A387348735873687AA
:101D7000822F6C2F0E94C71A8E5C8787B08B822FB0
:101D8000652F0E94C71A292F0E94C71A905D918B58
:101D9000205D228BA38BCF9108951F93CF93DF9368
:101DA000CDB7DEB764970FB6F894DEBF0FBECDBFD8
:101DB000582F192F462FCE010196E0E0F1E024E1E3
:101DC0000190DC010D92CD012150D1F7842F6AE002
:101DD0000E94C71AB82F6BE00E94C71A292F30E063
:101DE0001216130644F020E030E0FE01E20FF31F6C
:101DF00035968AE20FC0FE013596BF01690F711D4D
:101E0000CB0166E16193E817F907E1F72A30310564
:101E100064F306C081932F5F3F4F2A303105D4F31E
:101E20004456443630F4FE01E20FF31F81E386830B
:101E300005C0FE01E20FF31F80E28683FE01E20F80
:101E4000F31F8B2F6AE00E94C71A905D9783FE01F3
:101E5000E20FF31F80E3808785E28187E52FF12F72
:101E6000DE01119684E10D9001928150E1F76496B4
:101E70000FB6F894DEBF0FBECDBFDF91CF911F919B
:101E80000895FC01862F30E230835AE0652F0E94CE
:101E9000C71AA92F0E94C71A905D9183A05DA283E3
:101EA000B0EBB383A3E4A483358336833783842FD5
:101EB0000E94C71A492F0E94C71A905D9087405D03
:101EC0004187B287A3873487358736873787822F44
:101ED0000E94C71A292F0E94C71A905D908B205D1F
:101EE000218BB28BA38B0895FC01462F20E2208327
:101EF000218322832383248325832683862F64E6FC
:101F00000E94C71A805D87833AE0842F632F0E9466
:101F1000C71A492F0E94C71A905D90878EE2818769
:101F2000405D428786E58387248725872687278724
:101F3000208B218B228B238B08951F93CF93DF93CC
:101F4000EC01362F3A503A3018F0362F10E001C02D
:101F500011E0E32FF0E0E65BFF4FEE0FFF1F05906F
:101F6000F491E02D0994FE01A8E6B7E084E10D901C
:101F700001928150E1F78BC1FE01A4E5B7E084E155
:101F80000D9001928150E1F782C1FE01ACE2B7E011
:101F900084E10D9001928150E1F779C1FE01A8E141
:101FA000B7E084E10D9001928150E1F770C1FE012C
:101FB000A4E0B7E084E10D9001928150E1F767C1A0
:101FC000FE01A8E7B6E084E10D9001928150E1F7AF
:101FD0005EC1FE01A0EFB6E084E10D900192815058
:101FE000E1F755C1FE01ACEDB6E084E10D90019240
:101FF0008150E1F74CC1FE01A8ECB6E084E10D9000
:1020000001928150E1F743C1FE01A4EBB6E084E107
:102010000D9001928150E1F73AC1FE01A0E0B6E0D7
:1020200084E10D9001928150E1F731C1FE01ACEEE7
:10203000B5E084E10D9001928150E1F728C1FE01E5
:10204000A8EDB5E084E10D9001928150E1F71FC148
:10205000FE01A4ECB5E084E10D9001928150E1F71E
:1020600016C1FE01ACE3B6E084E10D90019281500F
:10207000E1F70DC1FE01A8E2B6E084E10D90019206
:102080008150E1F704C1FE01A4E1B6E084E10D90C6
:1020900001928150E1F7FBC0FE01A0EBB5E084E1C5
:1020A0000D9001928150E1F7F2C0FE01ACE9B5E07C
:1020B00084E10D9001928150E1F7E9C0FE01A8E8AA
:1020C000B5E084E10D9001928150E1F7E0C0FE019E
:1020D000A4E7B5E084E10D9001928150E1F7D7C00B
:1020E000FE01A0E6B5E084E10D9001928150E1F798
:1020F000CEC0FE01ACE4B5E084E10D9001928150C8
:10210000E1F7C5C0FE01A8E3B5E084E10D900192BE
:102110008150E1F7BCC0FE01A4E2B5E084E10D907E
:1021200001928150E1F7B3C0FE01A0E1B5E084E186
:102130000D9001928150E1F7AAC0FE01A8EEB4E033
:1021400084E10D9001928150E1F7A1C0FE01A4ED60
:10215000B4E084E10D9001928150E1F798C0FE0156
:10216000ACEFB4E084E10D9001928150E1F78FC0B3
:10217000FE01A0ECB4E084E10D9001928150E1F702
:1021800086C0FE01ACEAB4E084E10D90019281507A
:10219000E1F77DC0FE01A8E9B4E084E10D90019271
:1021A0008150E1F774C0FE01A4E8B4E084E10D9031
:1021B00001928150E1F76BC0FE01A0E7B4E084E139
:1021C0000D9001928150E1F762C0FE01ACE5B4E0F0
:1021D00084E10D9001928150E1F759C0FE01A8E41D
:1021E000B4E084E10D9001928150E1F750C0FE010E
:1021F000A4E3B4E084E10D9001928150E1F747C07F
:10220000FE01A0E2B4E084E10D9001928150E1F77B
:102210003EC0FE01ACE0B4E084E10D90019281503B
:10222000E1F735C0FE01A8EFB3E084E10D90019223
:102230008150E1F72CC0FE01A4EEB3E084E10D90E3
:1022400001928150E1F723C0FE01ACEBB3E084E1E1
:102250000D9001928150E1F71AC0FE01A8EAB3E0A7
:1022600084E10D9001928150E1F711C0FE01A0EDD3
:10227000B3E084E10D9001928150E1F708C0FE01C6
:10228000A0E4B7E084E10D9001928150E1F71123C1
:1022900011F08BE28B8B832F8851863040F4DE0166
:1022A000ECE8F6E084E101900D928150E1F7832F94
:1022B0006AE00E94C71A282F482F50E0CA01880FF1
:1022C000991FAC01440F551F440F551F840F951FD4
:1022D0008832910579F082339105A9F08E3191050C
:1022E000D1F4DE01E4E6F6E084E101900D92815044
:1022F000E1F711C0DE01E0E5F6E084E101900D9226
:102300008150E1F708C0DE01E0E5F6E084E10190EC
:102310000D928150E1F7832F64E60E94C71A805D19
:102320008983112319F081E38A8306C0822F6AE032
:102330000E94C71A905D9A83832F6AE00E94C71A91
:10234000905D9B83DF91CF911F910895FC01E60F73
:10235000F11D405D40830895CF93DF93CDB7DEB785
:1023600064970FB6F894DEBF0FBECDBFDE011196A5
:10237000E4E1F1E024E101900D922150E1F7E82F32
:10238000F92FDE01119684E10D9001928150E1F761
:1023900064960FB6F894DEBF0FBECDBFDF91CF912C
:1023A0000895623021F1633030F4662361F06130CA
:1023B00009F044C012C0643071F1643010F165302E
:1023C00009F03CC032C0E82FF92FACE8B1E084E15D
:1023D0000D9001928150E1F70895E82FF92FA8E7B9
:1023E000B1E084E10D9001928150E1F70895E82F6A
:1023F000F92FA0EAB1E084E10D9001928150E1F75C
:102400000895E82FF92FA0E5B1E084E10D90019245
:102410008150E1F70895E82FF92FACE3B1E084E1B2
:102420000D9001928150E1F70895E82FF92FA4E66D
:10243000B1E084E10D9001928150E1F708950F938E
:102440001F93CF93DF93CDB7DEB764970FB6F894A1
:10245000DEBF0FBECDBF8C01653688F544E6461B56
:102460009E012F5F3F4FA8E2B1E084E10D90F9019A
:1024700001929F018150D1F79801DE01119684E10C
:102480000D90F90101929F018150D1F72AE0862F2A
:10249000622F0E94C71A392F0E94C71A892F805DA8
:1024A000F8018183305D3283842F0E94C71A392F4F
:1024B0000E94C71A892F805D808B305D318B6496B6
:1024C0000FB6F894DEBF0FBECDBFDF91CF911F9145
:1024D0000F910895CF92DF92EF92FF920F931F9387
:1024E000CF93DF93CDB7DEB764970FB6F894DEBF16
:1024F0000FBECDBFF82EE92EFB016A0104E610E005
:10250000CB01B8010E94D31A462F405D2AE030E08B
:10251000CF01B9010E94D31ACB01B9010E94D31A8D
:10252000282F205DC601B8010E94D31A162F105D16
:10253000403331F4203311F040E202C020E240E2A7
:10254000103309F410E200E209834A832B832AE066
:1025500030E0CF01B9010E94D31A805D8C83E0EB9B
:10256000ED8343E44E830F83088709870A870B872F
:102570000C870D870E871F87188BC601B9010E9433
:10258000D31A805D898BEA8B4B8B0C8BEF2DFE2D44
:10259000DE01119684E10D9001928150E1F764967D
:1025A0000FB6F894DEBF0FBECDBFDF91CF911F9164
:1025B0000F91FF90EF90DF90CF900895CF92DF9230
:1025C000EF92FF920F931F93CF93DF93CDB7DEB7B8
:1025D00064970FB6F894DEBF0FBECDBFF82EE92E7C
:1025E000FB016A0104E610E0CB01B8010E94D31A96
:1025F000462F405D2AE030E0CF01B9010E94D31A96
:10260000CB01B9010E94D31A282F205DC601B80161
:102610000E94D31A162F105D403331F4203311F08D
:1026200040E202C020E240E2103309F410E200E28E
:1026300009834A832B832AE030E0CF01B9010E944D
:10264000D31A805D8C83E0EBED8343E44E830F83EC
:10265000088709870A870B870C870D870E871F87D6
:10266000188BC601B9010E94D31A805D898BEA8B51
:102670004B8B0C8BEF2DFE2DDE01119684E10D901E
:1026800001928150E1F764960FB6F894DEBF0FBE59
:10269000CDBFDF91CF911F910F91FF90EF90DF9011
:1026A000CF900895CF93C82F15988AEF0E94931862
:1026B0008C2F0E949318159ACF910895CF93C82F0D
:1026C000159888EF0E9493188C2F0E949318159AE2
:1026D000CF910895EF92FF920F931F93CF93DF93C3
:1026E000D82FC92FF62EE72E82E00E945E130D2F01
:1026F0001C2FC0E0D0E0F80181918F010E9452139D
:102700002196C431D105B9F7C4E1D0E084E10E943B
:102710005E132197D9F70F2D1E2DC0E0D0E0F801F0
:1027200081918F010E9452132196C431D105B9F7CE
:10273000DF91CF911F910F91FF90EF900895CF926D
:10274000CF93DF93E82FF0E0E533F10508F005C102
:10275000E65BFE4FEE0FFF1F0590F491E02D09940C
:10276000CCE2D2E0CE010E94AC1184E993E0BE013C
:102770000E946A13F2C08CE292E06C2D70E00E941D
:102780009D0F83E68C1538F48CE693E06CE272E0E2
:102790000E946A13E2C080E893E06CE272E00E945B
:1027A0006A13DBC0623061F06330B9F0613009F068
:1027B000D4C080E992E06CE772E00E946A13CDC059
:1027C000CCE2D2E0CE0162E070E00E94CD0E88E65D
:1027D00092E0BE010E946A13C0C0CCE2D2E0CE01FA
:1027E0000E94AC1184E592E0BE010E946A13B5C05C
:1027F000CCE2D2E0CE0170E00E94510E88E593E079
:10280000BE010E946A13A9C0CCE2D2E0CE0170E002
:1028100050E030E00E94850E84E493E0BE010E9407
:102820006A139BC0CCE2D2E0CE0170E050E030E011
:102830000E94410F80E393E0BE010E946A138DC0A5
:10284000CCE2D2E0CE0170E00E94740F8CE193E004
:10285000BE010E946A1381C0CCE2D2E0CE0170E0DA
:1028600050E00E94DE128CEC92E0BE010E946A13DE
:1028700074C0CCE2D2E0CE0170E050E00E94DE12E3
:1028800080EE92E0BE010E946A1367C0CCE2D2E003
:10289000CE0170E00E94CD0E84EF92E0BE010E9456
:1028A0006A135BC0CCE2D2E0CE0170E00E94CD0E94
:1028B00088E093E0BE010E946A134FC0CCE2D2E0F0
:1028C000CE0170E00E94CD0E88EB92E0BE010E9426
:1028D0006A1343C0CCE2D2E0CE0170E00E94CD0E7C
:1028E00084EA92E0BE010E946A1337C0CCE2D2E0D3
:1028F000CE0170E00E94A61180E492E0BE010E9429
:102900006A132BC088E192E064E072E00E946A13CF
:1029100024C0CCE2D2E0CE0170E00E94D11184EB61
:1029200091E0BE010E946A1318C0CCE2D2E0CE0151
:1029300070E00E941F128CED91E0BE010E946A13AC
:102940000CC0CCE2D2E0CE0170E050E00E946A12EE
:1029500088EC91E0BE010E946A13DF91CF91CF9085
:102960000895CF92EF920F938EE10E947D188CB55F
:102970008F778CBD8CB580618CBD10921B080D9A31
:10298000159A8CE00E945E1388E30E945E1380E03B
:1029900060E040E020E000E0EE24CC240E949F13A1
:1029A0008FEF8093D8070F91EF90CF900895E82F85
:1029B000F92FA9EDB7E084E10D9001928150E1F784
:1029C000089580911B088C3051F49091D8079F3F57
:1029D00031F090931B088FEF8093D80703C08F5F6F
:1029E00080931B0880911B088F7080931B0888239D
:1029F00019F481E080931B08089580911B088230B0
:102A000020F48FE080931B0808958C3051F490914E
:102A1000D8079F3F31F090931B088FEF8093D80722
:102A20000895815080931B080895CF93DF93682FFA
:102A3000CCE2D2E0CE010E94510E80EF91E0BE01C7
:102A40000E946A13DF91CF9108959093810780933C
:102A500080070E94BD1A0895E0918007F0918107D8
:102A60009081892B80830895E0918007F091810700
:102A7000108208951092A1081092A2080895CF9391
:102A8000DF93E82FC091A108D0E0CE01019660E16C
:102A900070E00E94D31A4091A20850E08417950775
:102AA00031F0CF56D74FE8838093A10803C080E16F
:102AB0000E942C15DF91CF9108958091A2089091EA
:102AC000A108981731F0E1E9F8E0E80FF11D8081E5
:102AD00008958BE00895CF92EF920F93CF93DF93F9
:102AE0008091A208E1E9F8E0E80FF11D80818630CD
:102AF00009F44FC0873040F4813099F1813088F07B
:102B0000843009F014C125C0883009F470C08830C1
:102B100008F46AC0893009F470C08A3009F007C12E
:102B20006FC082E897E062E977E042E055E028E094
:102B30000E941604CAE9D7E0CE016AEA77E041E0D4
:102B400055E021E00E9416047894CE010E942704EB
:102B5000EEC08091BF07882309F0E9C00E94AC183D
:102B6000E6C08091BF07813009F0E1C00E94FD02FC
:102B700080911B088093920780917D078093930733
:102B800080917C078093940782E897E00E948D04EF
:102B9000CEC08091BF07813009F0C9C080917E0707
:102BA0008823F9F080917F07833040F40E948E03E0
:102BB00080917F07815080937F0703C0815080936D
:102BC0007F0780917F07882309F0B1C084E080935C
:102BD0007F070E948C0380917E07815080937E073F
:102BE000A6C00E948E03A3C00E94DF04A0C00E9462
:102BF000DF0488E00E942C159AC00E94BE0497C092
:102C00008091BF07813009F092C08AE997E00E9465
:102C10003504D091AC07EAEAF7E0C081C180C0FF7B
:102C200004C080E00E94BE1603C080E00E94F61639
:102C30008C2F869580FF04C08AE00E94BE1603C0D8
:102C40008AE00E94F6168C2F8695869580FF04C038
:102C500082E00E94BE1603C082E00E94F6168C2F0E
:102C600086958695869580FF04C083E00E94BE16F7
:102C700003C083E00E94F6168C2F82958F7080FF30
:102C800004C084E00E94BE1603C084E00E94F616D1
:102C90008C2F82958695877080FF07C080917E0774
:102CA000882309F044C00E949003C295C695C6953A
:102CB000C370C0FF04C081E00E94BE1603C081E063
:102CC0000E94F61681E0909142089C1509F480E07C
:102CD0008823E1F081E0CC2009F480E08823B1F082
:102CE000C092420880911B088093D8078CE08093A3
:102CF0001B086091AD074091AE072091AF0700918E
:102D0000B007E090B1070E949F1311C080911B088B
:102D1000D81769F48D2F6091AD074091AE072091CF
:102D2000AF070091B007E090B1070E949F13DF91B9
:102D3000CF910F91EF90CF9008959091A10880913D
:102D4000A208981761F00E946B158091A20890E08C
:102D5000019660E170E00E94D31A8093A208089562
:102D6000579A099A0B9A0C9A9A9A3C9A389A999A75
:102D7000989A399A0A9A0E942E1708958C30A8F5CD
:102D8000853091F1863070F4823031F1833028F44F
:102D9000882341F1813049F513C0833009F1843033
:102DA00021F51CC0883091F0893028F4863051F02C
:102DB0008730D9F409C0893059F08A30B1F40AC09B
:102DC0005F9A0895119A0895139A0895149A089590
:102DD000A29A0895449A0895409A0895A19A089550
:102DE000A09A0895419A0895129A08958C30A8F5F2
:102DF000853091F1863070F4823031F1833028F4DF
:102E0000882341F1813049F513C0833009F18430C2
:102E100021F51CC0883091F0893028F4863051F0BB
:102E20008730D9F409C0893059F08A30B1F40AC02A
:102E30005F98089511980895139808951498089527
:102E4000A29808954498089540980895A1980895E7
:102E5000A09808954198089512980895CF93C0E0DE
:102E60008C2F0E94F616CF5FCC30D1F7CF9108950A
:102E70008C3008F079C0853059F1863098F4823072
:102E800009F44FC0833038F4882309F45DC08130E1
:102E900009F069C018C0833009F450C0843009F0CB
:102EA00062C045C0883069F1893038F4863009F451
:102EB00052C0873009F057C013C08930D1F08A3032
:102EC00009F051C026C081E05F994EC080E00895AE
:102ED00092B1969581E0913009F446C080E0089562
:102EE00092B196959695969581E09130E9F180E0C2
:102EF000089592B192959F7081E09130A9F180E0A0
:102F0000089594B39695969581E0913069F180E0AB
:102F1000089598B192959F7081E0913029F180E0F9
:102F2000089598B181E09130F9F080E0089594B36C
:102F3000969581E09130C1F080E0089594B381E0EE
:102F4000913091F080E0089598B1969581E09130AC
:102F500059F080E0089592B19695969581E0913070
:102F600019F080E0089508950895CF93C82F0E9426
:102F70003817882321F08C2F0E94F61603C08C2F5F
:102F80000E94BE16CF910895EF92FF920F931F9368
:102F9000CF93DF937C01C0E0D0E001E010E08C2F04
:102FA00098010C2E02C0220F331F0A94E2F72E2143
:102FB0003F212115310511F00E94BE162196CB301C
:102FC000D10569F7DF91CF911F910F91FF90EF909D
:102FD00008950F931F93CF93DF93C0E0D0E08C2F21
:102FE0000E94381790E00C2E02C0880F991F0A9497
:102FF000E2F7082B192B2196CB30D10581F7802FD2
:10300000912FDF91CF911F910F910895CF93C82FEA
:10301000833110F40E942E17C43130F082E00E94F8
:10302000BE1688E00E94BE16C83230F08AE00E94C8
:10303000BE1689E00E94BE16CC3330F080E00E94BC
:10304000BE1687E00E94BE16C03530F083E00E94B5
:10305000BE1685E00E94BE16C43630F084E00E94A1
:10306000BE1686E00E94BE16CF910895089511B84D
:1030700014B887B1807687B98FEF8AB91DB810BAB6
:1030800093B3907E93BB82B985B988B99BB19F6990
:103090009BB98EB981BB84B38F6184BB08951092B4
:1030A000BF070E94371884E00E94391A0E94FD036E
:1030B00082E060E00E94471A83E060E00E944C1AC0
:1030C0000E94511A0E94811A0E9489030E94A11A2B
:1030D0000E94B0160E94DC020E94B1140E94761871
:1030E0000E94B11A80E00E943F150895529A5A98A2
:1030F00008955A9A08955A980895209A209A94B15A
:10310000966094B99CB5907C9CBD9CB58F73892BBF
:103110008CBD8DB58DBD8CB580648CBD81E008956E
:103120008DB5807808958EBD0DB407FEFDCF08954E
:103130000DB407FEFDCF8EB508950DB407FEFDCF8B
:103140008EBD08951F920F920FB60F9211240F900B
:103150000FBE0F901F901895CF92EF920F93CF93C1
:103160002091B2072F5F2093B207822F66E00E9462
:10317000C71A9923E9F4C6E0822F0E94C71A880F64
:10318000982F990F990F890F0E9415158091B207FA
:103190006C2F0E94C71A282F30E0220F331FC9015D
:1031A000880F991F880F991F820F931F0E9406187E
:1031B0008091B207813480F081E08093BF07109244
:1031C0001B0880E060E040E020E000E0EE24CC243A
:1031D0000E949F130E942E17CF910F91EF90CF90D6
:1031E00008951F920F920FB60F9211242F933F93C1
:1031F0004F935F936F937F938F939F93AF93BF93FF
:10320000EF93FF9388E00E943F1514BCFF91EF916C
:10321000BF91AF919F918F917F916F915F914F91EE
:103220003F912F910F900FBE0F901F9018951F92F6
:103230000F920FB60F9211242F933F934F935F93EA
:103240006F937F938F939F93AF93BF93EF93FF936E
:10325000E8E8F0E080819181805D9A4891838083E5
:1032600081E00E943F15FF91EF91BF91AF919F9137
:103270008F917F916F915F914F913F912F910F901F
:103280000FBE0F901F9018951F920F920FB60F92BE
:1032900011242F933F934F935F936F937F938F935B
:1032A0009F93AF93BF93EF93FF93EAE8F0E08081A1
:1032B0009181805A95419183808382E00E943F15DD
:1032C000FF91EF91BF91AF919F918F917F916F91FE
:1032D0005F914F913F912F910F900FBE0F901F90D4
:1032E00018951F920F920FB60F9211242F933F93B0
:1032F0004F935F936F937F938F939F93AF93BF93FE
:10330000EF93FF93ECE8F0E0808191818856954C33
:103310009183808383E00E943F15FF91EF91BF91DD
:10332000AF919F918F917F916F915F914F913F915D
:103330002F910F900FBE0F901F9018951F920F9214
:103340000FB60F9211242F933F934F935F936F9378
:103350007F938F939F93AF93BF93EF93FF93E8E98E
:10336000F0E0808191818059964B9183808384E045
:103370000E943F15FF91EF91BF91AF919F918F9167
:103380007F916F915F914F913F912F910F900FBE61
:103390000F901F9018951F920F920FB60F92112445
:1033A0002F933F934F935F936F937F938F939F934D
:1033B000AF93BF93EF93FF93EAE9F0E080819181AF
:1033C00080529D469183808385E00E943F15FF9146
:1033D000EF91BF91AF919F918F917F916F915F918D
:1033E0004F913F912F910F900FBE0F901F90189506
:1033F0001F920F920FB60F9211242F933F934F936A
:103400005F936F937F938F939F93AF93BF93EF934C
:10341000FF93ECE9F0E08081918180599C4E91838B
:10342000808386E00E943F15FF91EF91BF91AF919D
:103430009F918F917F916F915F914F913F912F91CC
:103440000F900FBE0F901F9018951F920F920FB6FE
:103450000F9211240F900FBE0F901F9018951F927E
:103460000F920FB60F9211240F900FBE0F901F9066
:1034700018958093B30714BC81E080936E00089583
:1034800016BC8091B30784BD089514BC0895809341
:10349000810060936F0008958093910060937100A4
:1034A00008958091840090918500805D9A48909362
:1034B000890080938800EFE6F0E08081826080835D
:1034C00008958091840090918500805A9541909351
:1034D0008B0080938A00EFE6F0E080818460808337
:1034E000089580918400909185008856954C909322
:1034F0008D0080938C00EFE6F0E08081886080830F
:10350000089580919400909195008059964B9093E6
:10351000990080939800E1E7F0E0808182608083E9
:103520000895809194009091950080529D469093CB
:103530009B0080939A00E1E7F0E0808184608083C3
:103540000895809194009091950080599C4E90939D
:103550009D0080939C00E1E7F0E08081886080839B
:1035600008952BE088E190E00FB6F894A895809339
:1035700060000FBE20936000089504B603FE06C0ED
:1035800084B7877F84BF80E20E942C150895991B21
:1035900079E004C0991F961708F0961B881F7A954A
:1035A000C9F78095089597FB092E07260AD077FD65
:1035B00004D00CD006D000201AF4709561957F4F8E
:1035C0000895F6F7909581959F4F0895AA1BBB1B10
:1035D00051E107C0AA1FBB1FA617B70710F0A61B13
:1035E000B70B881F991F5A95A9F780959095BC0134
:0835F000CD010895F894FFCF0E
:1035F800202020204142434445464748494A20204C
:1036080020202020202020202020202020202020B2
:10361800202020202020202020616225202020201A
:103628002020202020202020636425202020202006
:103638003E5052494E43455353205045414348203C
:10364800202020203E444F4E4B45592D4B4F4E478E
:1036580020202020202020203E424F575345522032
:103668002020202020202020202020203E4C5549AA
:1036780047492020202020202020202020202020F2
:103688003E4D4152494F202020202020202020203C
:10369800202020203E594F53484920202020202018
:1036A800202020202053454C45435420594F555243
:1036B80020504C41594552204D415820494E5645BD
:1036C8005254455254454D50204156454C20425283
:1036D800414B452042414C414E4345202020205239
:1036E8003C3C2020205354415254494E47205550C9
:1036F80020203E3E202020202020202044524956D1
:103708004520202020202020202020202020524535
:103718004144592020544F202020202020202020C0
:103728002020202020202020202020202020202091
:103738002020425554544F4E20505245535345442F
:103748002020202020203C3C474F2120474F21208B
:10375800474F213E3E20202020414343454C4552BF
:103768004154494F4E2052454144592020204E4F44
:10377800524D414C204452495645202020202020BB
:103788002020414343454C45524154494F4E204D1A
:103798004F4445202020544F52515545202056452E
:1037A80043544F52494E47202020545241435449D4
:1037B8004F4E20434F4E54524F4C202020204D4F07
:1037C800544F522054454D502E20524541522020EE
:1037D80020204D4F544F522054454D502E204652D4
:1037E8004F4E542020204D4F544F5220504F574594
:1037F800522052454152202020204D4F544F5220F4
:10380800504F5745522046524F4E542020202020DA
:103818004C5620564F4C544147452020202020200C
:10382800204D494E202043454C4C54454D502020B6
:103838004D4158204D494E202043454C4C564F4C45
:1038480054414745204D4158202053544154452068
:103858004F46204348415247452020202020202021
:103868002020204D4553534147452020202020004B
:10387800202020202020204552524F522020202056
:10388800202000002020202020414D5A2067726906
:103898006D73656C20202020235858582020204C18
:1038A8005620435249544943414C202023585858E4
:1038B8002020204C56204C4F57202020202020200C
:1038C80023585858202020424F4F5420555020202C
:1038D80020202020235858582020204D432046419E
:1038E800494C2020202020202358585820202050A0
:1038F80052452043485247204641494C235858587E
:103908002020204D53204F50454E2020202020209D
:1039180023585858202020454E5245204641494CAE
:1039280020202020235858582020505245434841F1
:103938005247454F4E4C5920235858582020204D67
:10394800414E55414C204D432020202023585858A3
:10395800202020524541445920322044524956459E
:103968002358585820205354415254494E47204D0B
:10397800432020202358585820202050524543489F
:103988004152474544202020235858582020205091
:1039980052454348415247494E47202023585858DA
:1039A800202020434845434B204D532020202020F1
:1039B800235858582020205354415254494E4720E8
:1039C8005453202023585858204149526E204D45C1
:1039D8004C54444F574E20002358585820414952C0
:1039E80070204D454C54444F574E2000235858588A
:1039F80020414952726F7220546572726F722000B2
:103A080023585858204D495353494E472053485539
:103A18004E54200023585858204D495353494E4777
:103A2800204D432D5220200023585858204D4953EB
:103A380053494E47204D432D4C20200023585858B9
:103A4800204D495353494E47204D434D4142200094
:103A580023585858204D495353494E47204D434DFC
:103A68004C56420023585858204D495353494E4705
:103A7800204D434D4620200023585858204D495387
:103A880053494E47204D434D522020002358585843
:103A98002042524B46524345204641494C20200083
:103AA80023585858205448524F5454454C204641A6
:103AB800494C200023585858204449534348415200
:103AC80047452054454D50002358585820424D53DF
:103AD800204F56455254454D5020200023585858E1
:103AE80020424D53204F564552435552524E540092
:103AF8002358585820424D5320554E444552564F4E
:103B08004C542E00235858582044434C494E4B20BF
:103B1800564F4C54204C4F5723585858205348550B
:103B28004E5420564F4C542E204C4F57235858581B
:103B380020544F5420564F4C54414745204C4F5722
:103B480023585858204D434D204552524F5220205B
:103B58002020200023585858204D43204552524FCA
:103B680052202020202020002358585820424D530E
:103B78002052454C415920202020200023585858D5
:103B880020424D53204552524F52202020202000E1
:103B980023585858204241445245515545535420C2
:103BA8004944200023585858204252414B45205040
:103BB8002E442E20202020002358585820494D44B8
:103BC800462020202020202020202000235858583C
:103BD80020494D4420202020202020202020200083
:103BE800235858582048564420494E5445524C4F63
:103BF800434B20002358585820424F54532020202C
:103C0800202020202020200023585858205052459A
:103C180020424F5453202020202020002358585859
:103C28002050524520454E5245202020202020007B
:103C38002358585820554E4B4E4F574E20455252F8
:103C48004F5220002358585820534320444F574E72
:103C58002020202020202000235858582020204EA3
:0C3C68004F4E452020202020202020204E
:00000001FF
