:100000000C944A000C946A000C946A000C946A00E8
:100010000C946A000C946A000C946A000C946A00B8
:100020000C946A000C946A000C946A000C946A00A8
:100030000C94DB0E0C940C0F0C943D0F0C940110DF
:100040000C94C70E0C94D10E0C9423010C946A00EE
:100050000C946A000C946A000C946A000C946A0078
:100060000C946A000C946A000C946A000C946A0068
:100070000C946E0F0C949F0F0C94D00F0C940B10DB
:100080000C946A000C946A000C946A000C946A0048
:100090000C946A0011241FBECFEFD0E1DEBFCDBFAC
:1000A00011E0A0E0B1E0E6E6F1E200E00BBF02C043
:1000B00007900D92A03FB107D9F71BBE12E0A0EF49
:1000C000B1E001C01D92AE3CB107E1F70E946C00A7
:1000D0000C94B1100C9400000E94360E0E94BD0CCE
:1000E000FDCF90E0880F991F880F991F61E070E0A5
:1000F0008230910514F460E070E040914702509125
:100100004802462B572B9C012F5F3F4F61E070E068
:10011000FB0102C0EE0FFF1F2A95E2F74E2B5F2B6B
:100120009C012E5F3F4FFB0102C0EE0FFF1F2A957F
:10013000E2F79F01242B352B039602C0660F771F31
:100140008A95E2F7262B372B3093480220934702FB
:100150000895109246021092450285B7807E85BFB1
:100160006E9A769A6F9A779A249A2C9A8DB1807E9D
:100170008DB9749A8DB1807C8DB9759A87B180786C
:1001800087B9469A87B1807F87B9439A0895CF93FC
:10019000DF938EB180788EB9C1E7D0E080E090E047
:1001A000FE010995769A8EB11EB881E090E0FE01BD
:1001B0000995779A85B1807E85B982E090E0FE014D
:1001C00009952C9A8091470290914802209145020E
:1001D00030914602822393239093480280934702F2
:1001E000DF91CF9108952091470230914802A901F3
:1001F00002C0569547958A95E2F7CA018170089525
:10020000109A0895109A089510980895CF93C82FC2
:100210000E9402018C2F90E044E650E0849F900100
:10022000859F300D949F300D11241216130634F45F
:1002300080E090E0019682179307E1F70E940401A5
:10024000CF91089508951F920F920FB60F920BB69B
:100250000F9211242F933F934F935F936F937F934C
:100260008F939F93AF93BF93CF93EF93FF93C091DF
:10027000EE00C0FF08C087E00E94380CEEEEF0E010
:1002800080818E7F8083C6FF08C088E00E94380C82
:10029000EEEEF0E080818F7B8083C5FF08C089E0AF
:1002A0000E94380CEBEDF0E080818F778083FF9126
:1002B000EF91CF91BF91AF919F918F917F916F916E
:1002C0005F914F913F912F910F900BBE0F900FBEFA
:1002D0000F901F90189585E00E9422051092EE0065
:1002E000EBEDF0E08081886B80838FE78093DF0007
:1002F0008FEF8093DE0010925302109255021092FD
:10030000540210925702109256020895FC01708711
:100310006783178616865383428326838FEF97E081
:10032000A0E0B0E082879387A487B5870895909373
:1003300057028093560225E0FC01218380915602EA
:10034000909157020E94370508950E94110BEBED22
:10035000F0E08081806880830895909153028091BD
:100360005502981741F1E0915602F09157023097EB
:1003700041F08CE0818380915602909157020E9457
:100380003705E0915502F0E0EE0FFF1FE75BFD4FF0
:10039000A081B18182E011968C93808191810E942D
:1003A0003705882321F081E00E94250C089581E023
:1003B000809354020895E0915602F09157023097CD
:1003C00041F085E0818380915602909157020E940E
:1003D00037050895CF93DF93EC01E0915302F0E0ED
:1003E000CF01019665E070E00E948A1020915502CD
:1003F00030E08217930749F0EE0FFF1FE75BFD4FD8
:10040000D183C0838093530203C084E00E94250CF3
:1004100080915402882311F40E94AD01DF91CF91A5
:100420000895E0915502F0E0EE0FFF1FE75BFD4FEE
:10043000808191810895E0915502F0E0EE0FFF1F59
:10044000E75BFD4FA081B1818CE011968C93808198
:1004500091810E943705109254028091550290E0DC
:10046000019665E070E00E948A10809355020E9418
:10047000AD010895809154028130F9F4E091550264
:10048000F0E0EE0FFF1FE75BFD4FA081B1818CE034
:1004900011968C93808191810E94370582E00E94A1
:1004A000250C109254028091550290E0019665E06F
:1004B00070E00E948A10809355020895CF93DF93D5
:1004C000EC018CE08983CE010E943705CE010E94A9
:1004D000110B8130D9F385E08983CE010E94370565
:1004E000DF91CF91089520E0ADEEB0E08EEE90E088
:1004F000322F3295307F3C93FC011192E83FF10599
:10050000E1F72F5F2F30A1F70895EDEEF0E02081A5
:1005100010828091EF00807C69F081E0ADEEB0E068
:10052000EFEEF0E0982F9295907F9C939081907CD5
:1005300029F401C080E02093ED0008958F5F8F3093
:1005400089F72093ED008FEF08958091EF00807C74
:1005500069F09091EE00892F807E803241F08034E6
:1005600031F0803A21F0892F8F7108958FEF08952F
:10057000CF93DF93AC018091EF0090E08F7090708B
:1005800018161906A4F460E0EAEFF0E0CFEED0E030
:100590008081DA01A60FB11D8C936F5F8881262FB1
:1005A00030E090E08F709070281739078CF3DF915E
:1005B000CF9108952F923F924F925F926F927F92C8
:1005C0008F929F92AF92BF92CF92DF92EF92FF9263
:1005D0000F931F93CF93DF9300D000D000D0CDB7FF
:1005E000DEB7882309F47CC08091E20090E08E772A
:1005F0009070959587950196823091055CF0809179
:10060000E20090E08E77907095958795282F2F5F68
:10061000298302C081E089838091E30090E08E709D
:1006200090709595879501968230910554F0809150
:10063000E30090E08E70907095958795382E3394F6
:1006400002C0332433948091E40090E08E70907067
:100650009595879501968330910554F08091E4003B
:1006600090E08E70907095958795782E739403C066
:100670007724689471F88091E40090E0807790701E
:100680009595879595958795959587959595879552
:1006900001968330910584F08091E40090E08077AA
:1006A000907095958795959587959595879595954E
:1006B0008795682E639403C06624689461F8872D3B
:1006C00090E0830D911D860D911D01968830910556
:1006D00014F488E090E08A8340E02224239410C040
:1006E00041E022246624689461F87724689471F8C4
:1006F00098E09A830F2EF3E03F2EF02DA1E0A9831E
:1007000020E0ADEEB0E08EEE90E0322F3295307FFB
:100710003C93FC011192E83FF105E1F72F5F2F3088
:10072000A1F7A42E622DDD248824992470E00F2ED9
:10073000F8EDEF2EFF24F02D51E0E9EDF0E00AEDA9
:1007400010E020E0C52EB22EB2E0BB8388E08E839D
:1007500091E0A91609F057C0D7015C930894811C59
:10076000911C89818150880FA2EEB0E08C93862D78
:10077000869590E001972C01440C551C440C551CA7
:10078000440C551C440C551C440C551C832D90E006
:100790000197880F991F8429A3EEB0E08C93862DD2
:1007A00090E001972C01440C551C440C551C440C42
:1007B000551C440C551C872D90E00197880F991FFC
:1007C00084298160A4EEB0E08C93C401969587954E
:1007D0009695879596958795A5EEB0E08C93ADEEAE
:1007E000B0E01C92AEEEB0E01C9280E8AFEEB0E05C
:1007F0008C938AE0D7018C93808182FFFDCF8FEFAD
:10080000D8018C93722F4130B1F5AEEEB0E08C91EF
:1008100090E085FF0EC0AFEEB0E08C918F738C93AB
:10082000D7011C92808182FDFDCFD52E622F322F01
:10083000BEC08F719070009711F06C2D4B2DD801B8
:100840004C90552445FE0DC0772329F48C9180628D
:100850008C937C2D06C0D8018C9180628C936C2D7A
:100860004B2DC2018F709070009709F09DC04130F0
:1008700061F2352F01C0352F613009F078C0832F28
:10088000372D7A2CAD2CD72E782F21103F5F3930A1
:1008900078F1B7E0B61560F58A81893131F08F5F64
:1008A0008A832B2C6B80362D59C09981903441F06E
:1008B0009F5F99832B2C6B80362DAE81AA834EC00F
:1008C000A72C7D2DAFEEB0E08C918F738C93D70168
:1008D0001C92808182FDFDCFD22E322F222E6624E3
:1008E000689461F87724689471F8B8E0BA8369C0B5
:1008F000363058F0432E5524862D90E0019684150D
:10090000950524F46394362D01C0632E362C330EE6
:1009100030948A81380E832D81508830E0F4462C43
:100920005524832D90E0DC011196A30FB11DBD83EA
:10093000AC83C201880F991F880F991F8A179B07E4
:1009400064F0C201880F991F840D951DA817B9077F
:1009500084F52C2C03C02C2C01C02C2C613009F404
:1009600094CF872F7D2DDA2CA72C732E382F313082
:1009700009F4EECE8D2D26960FB6F894DEBF0FBE8D
:10098000CDBFDF91CF911F910F91FF90EF90DF903E
:10099000CF90BF90AF909F908F907F906F905F901F
:1009A0004F903F902F900895A52E652F352F422F01
:1009B00063CF872F7D2DDA2CA72C732E382F452F50
:1009C000252E622FD4CF8093E2006093E300409302
:1009D000E40081E0089591E09093D800853031F4EF
:1009E00082E068E045E20E94E30406C01092E20063
:1009F0001092E3001092E40081E008950F931F939A
:100A0000FC018785882391F402851385248535852B
:100A10000F2EF2E1000F111F221F331FFA95D1F79D
:100A2000F02D0F6F1F6F2360306E05C00285138598
:100A300024853585306E602F712F822F932F1F9163
:100A40000F9108950E94EB04882349F00E947302DD
:100A5000E8EDF0E080818260808381E0089580E0AD
:100A60000895E8EDF0E080818D7F808308950F93F5
:100A70001F93CF93DF9300D000D0CDB7DEB78C01AA
:100A8000DC0111968C9111978C30B1F419968C91F0
:100A90001997803669F48C918295807F8093ED0060
:100AA000EFEEF0E080818F7380831092EE001C9255
:100AB000F801118680E0ACC50E9485028F3F09F4E1
:100AC000A1C590E6D80119969C9319978C938295AD
:100AD000807F8093ED00EEEEF0E01192E83FF105AB
:100AE000E1F7F8018181863009F456C2873090F42D
:100AF000833009F412C1843030F4813011F1823036
:100B000009F07CC598C0843009F467C1853009F0CC
:100B100075C5AAC1893009F4BEC38A3038F487305C
:100B200009F48FC2883009F069C51BC38A3021F0EF
:100B30008B3009F063C5B1C48681882309F049C4AC
:100B400057C4F8018785882369F194819295969519
:100B500097708581880F880F880F890F8093F30025
:100B600093819295969597708481880F880F880F4E
:100B7000890F8093F2009281929596959770838168
:100B8000880F880F880F890F8093F1008281880F6A
:100B9000880F880F8093F000EFEEF0E08081806195
:100BA000808316C0928196959695969583818295BD
:100BB000880F807E890F8093F30082818295880F51
:100BC000807E8093F200EFEEF0E080818F7E808364
:100BD000F8018681882379F080E02AEF30E0F8017F
:100BE000A781B085A80FB11D9C91D9019C938F5FFF
:100BF00096818917A0F3F8018685882331F0E0EF0C
:100C0000F0E080818460808305C0E0EFF0E08081C7
:100C10008B7F8083EFEEF0E09081D80116968C9167
:100C20001697892B808380818F7380838081806475
:100C3000808380E0EDC4F8018785882369F1948181
:100C40009295969597708581880F880F880F890FE8
:100C50008093F30093819295969597708481880F85
:100C6000880F880F890F8093F20092819295969554
:100C700097708381880F880F880F890F8093F10008
:100C80008281880F880F880F8093F000EFEEF0E0EC
:100C900080818061808316C0928196959695969505
:100CA00083818295880F807E890F8093F3008281F3
:100CB0008295880F807E8093F200EFEEF0E08081D5
:100CC0008F7E8083F8018681882379F080E02AEF87
:100CD00030E0F801A781B085A80FB11D9C91D90122
:100CE0009C938F5F96818917A0F3F8011686E0EF39
:100CF000F0E080818B7F8083EFEEF0E09081D8017F
:100D000016968C911697892B808380818F738083B0
:100D100080818064808380E07BC4F801878588239C
:100D200069F194819295969597708581880F880FC7
:100D3000880F890F8093F300938192959695977011
:100D40008481880F880F880F890F8093F200928129
:100D50009295969597708381880F880F880F890FD9
:100D60008093F1008281880F880F880F8093F000B4
:100D7000EFEEF0E080818061808316C092819695CD
:100D80009695969583818295880F807E890F8093B2
:100D9000F30082818295880F807E8093F200EFEECF
:100DA000F0E080818F7E808381E0F8018687E0EF2C
:100DB000F0E0808184608083EFEEF0E09081D801E4
:100DC00016968C911697892B808380818F738083F0
:100DD00080818064808380E01BC48FEF9FEFDC0103
:100DE00089839A83AB83BC839B81929596959770F8
:100DF0008C81880F880F880F890F8093F7009A8164
:100E00009295969597708B81880F880F880F890F20
:100E10008093F60099819295969597708A81880FB4
:100E2000880F880F890F8093F5008981880F880FBC
:100E3000880F24EF30E0F9018083EFEEF0E090813D
:100E4000D80116968C91892B8083D9018C918B7F48
:100E50008C938C918E7F8C9380818F738083808123
:100E60008068808380E0D4C3F8018785882369F196
:100E700094819295969597708581880F880F880F39
:100E8000890F8093F3009381929596959770848152
:100E9000880F880F880F890F8093F20092819295B6
:100EA000969597708381880F880F880F890F80939C
:100EB000F1008281880F880F880F8093F000EFEE99
:100EC000F0E080818061808316C09281969596952E
:100ED000969583818295880F807E890F8093F30099
:100EE00082818295880F807E8093F200EFEEF0E0A1
:100EF00080818F7E80838FEF9FEFDC0189839A83CF
:100F0000AB83BC839B819295969597708C81880F5B
:100F1000880F880F890F8093F7009A819295969594
:100F200097708B81880F880F880F890F8093F60048
:100F300099819295969597708A81880F880F880F6E
:100F4000890F8093F5008981880F880F880F44EFFF
:100F500050E0FA018083EFEEF0E09081D801169620
:100F60008C911697892B80831E961C92DA018C91A6
:100F700084608C9380EF90E0DC012C912B7F2C938C
:100F8000DA018C9181608C9380818F738083808162
:100F90008068808380E03CC38FEF9FEFDC01898312
:100FA0009A83AB83BC839B819295969597708C8135
:100FB000880F880F880F890F8093F7009A81929588
:100FC000969597708B81880F880F880F890F809373
:100FD000F60099819295969597708A81880F880F6F
:100FE000880F890F8093F5008981880F880F880FFB
:100FF00044EF50E0FA018083EFEEF0E09081D801F9
:1010000016968C911697892B808381E01E968C937F
:10101000DA018C9184608C9380EF90E0DC012C915C
:1010200024602C9380818F7D8083DA018C918E7F68
:101030008C9380818F73808380818068808380E03F
:10104000E7C2F8018785882369F194819295969586
:1010500097708581880F880F880F890F8093F30020
:1010600093819295969597708481880F880F880F49
:10107000890F8093F2009281929596959770838163
:10108000880F880F880F890F8093F1008281880F65
:10109000880F880F8093F000EFEEF0E08081806190
:1010A000808316C0928196959695969583818295B8
:1010B000880F807E890F8093F30082818295880F4C
:1010C000807E8093F200EFEEF0E080818F7E80835F
:1010D000C8010E94FE04DC01CB0189839A83AB83A3
:1010E000BC839B819295969597708C81880F880F11
:1010F000880F890F8093F7009A8192959695977043
:101100008B81880F880F880F890F8093F600998153
:101110009295969597708A81880F880F880F890F0E
:101120008093F5008981880F880F880F24EF30E0C5
:10113000F9018083EFEEF0E09081D80116968C9152
:10114000892B8083D9018C918B7F8C938C918160CA
:101150008C9380818F73808380818068808380E01E
:1011600057C2F8018785882369F1948192959695F5
:1011700097708581880F880F880F890F8093F300FF
:1011800093819295969597708481880F880F880F28
:10119000890F8093F2009281929596959770838142
:1011A000880F880F880F890F8093F1008281880F44
:1011B000880F880F8093F000EFEEF0E0808180616F
:1011C000808316C092819695969596958381829597
:1011D000880F807E890F8093F30082818295880F2B
:1011E000807E8093F200EFEEF0E080818F7E80833E
:1011F000C8010E94FE04DC01CB0189839A83AB8382
:10120000BC839B819295969597708C81880F880FEF
:10121000880F890F8093F7009A8192959695977021
:101220008B81880F880F880F890F8093F600998132
:101230009295969597708A81880F880F880F890FED
:101240008093F5008981880F880F880F44EF50E064
:10125000FA018083EFEEF0E09081D80116968C9130
:101260001697892B80831E961C92DA018C918460DC
:101270008C9380EF90E0DC012C912B7F2C93DA0192
:101280008C9181608C9380818F7380838081806852
:10129000808380E0BDC1F8018785882369F194814E
:1012A0009295969597708581880F880F880F890F82
:1012B0008093F30093819295969597708481880F1F
:1012C000880F880F890F8093F200928192959695EE
:1012D00097708381880F880F880F890F8093F100A2
:1012E0008281880F880F880F8093F000EFEEF0E086
:1012F00080818061808316C092819695969596959F
:1013000083818295880F807E890F8093F30082818C
:101310008295880F807E8093F200EFEEF0E080816E
:101320008F7E8083C8010E94FE04DC01CB0189838B
:101330009A83AB83BC839B819295969597708C81A1
:10134000880F880F880F890F8093F7009A819295F4
:10135000969597708B81880F880F880F890F8093DF
:10136000F60099819295969597708A81880F880FDB
:10137000880F890F8093F5008981880F880F880F67
:1013800044EF50E0FA018083EFEEF0E09081D80165
:1013900016968C911697892B808381E01E968C93EC
:1013A000DA018C9184608C9380EF90E0DC012C91C9
:1013B00024602C9380818F7D8083DA018C91816001
:1013C0008C9380818F73808380818068808380E0AC
:1013D0001FC180E02AEF30E0F801A781B085A80F97
:1013E000B11D9C91D9019C938F5F96818917A0F3C1
:1013F0008FEF9FEFDC0189839A83AB83BC839B8152
:101400009295969597708C81880F880F880F890F19
:101410008093F7009A819295969597708B81880FAB
:10142000880F880F890F8093F60099819295969581
:1014300097708A81880F880F880F890F8093F50035
:101440008981880F880F880F44EF50E0FA0180836C
:10145000EFEEF0E09081D80116968C911697892BCB
:10146000808381E01E968C93DA018C9184608C934A
:1014700080EF90E0DC012C9124602C9380818062CD
:101480008083DA018C918E7F8C9380818F7380832F
:1014900080818068808380E0BBC0F80187858823D5
:1014A00069F194819295969597708581880F880F40
:1014B000880F890F8093F30093819295969597708A
:1014C0008481880F880F880F890F8093F2009281A2
:1014D0009295969597708381880F880F880F890F52
:1014E0008093F1008281880F880F880F8093F0002D
:1014F000EFEEF0E080818061808316C09281969546
:101500009695969583818295880F807E890F80932A
:10151000F30082818295880F807E8093F200EFEE47
:10152000F0E080818F7E8083F8018681882379F0C6
:1015300080E02AEF30E0F801A781B085A80FB11D47
:101540009C91D9019C938F5F96818917A0F3C80164
:101550000E94FE04DC01CB0189839A83AB83BC83A8
:101560009B819295969597708C81880F880F880F34
:10157000890F8093F7009A819295969597708B8149
:10158000880F880F880F890F8093F60099819295B4
:10159000969597708A81880F880F880F890F80939E
:1015A000F5008981880F880F880F44EF50E0FA0119
:1015B0008083EFEEF0E09081D80116968C9116971B
:1015C000892B808381E01E968C93DA018C91846054
:1015D0008C9380EF90E0DC012C9124602C9380812F
:1015E00080628083DA018C9181608C9380818F731B
:1015F000808380818068808380E00AC0F801118642
:1016000080E006C08FE1D80119968C9319978FEF6F
:101610000F900F900F900F90DF91CF911F910F912E
:101620000895EF92FF921F93CF93DF93EC0189858A
:10163000882309F496C08F3109F495C08F3F09F4CF
:1016400094C088818295807F8093ED000E94A502DE
:10165000182F803261F0813220F4882309F487C08A
:1016600076C0803409F468C0803A09F070C00F2E4B
:10167000FFEEEF2EFF24F02DF70180818F708E8317
:101680008F8198850E94B8028091F00090E084706C
:10169000907095958795959587958E87F7018081B0
:1016A00084FF2DC081E08F87E3EFF0E08081869595
:1016B000869586958D83A2EFB0E08C91908192956E
:1016C000990F907E869586958695890F8C83E1EF9C
:1016D000F0E080819C919295990F907E86958695F9
:1016E0008695890F8B838091F00090819295990F58
:1016F000907E869586958695890F8A8313C01F866E
:10170000E3EFF0E080818295869587708B838091EE
:10171000F2009081990F990F990F829586958770A5
:10172000890F8A831987EFEEF0E080818F738083C1
:101730001092EE0080E01CC080E48987EFEEF0E0BC
:1017400080818F7380831092EE0080E011C0198732
:10175000EFEEF0E080818F7380831092EE0082E0E4
:1017600007C082E005C082E003C082E001C081E0E2
:10177000DF91CF911F91FF90EF900895682F8AEF2E
:101780000E94860E0895682F88EF0E94860E0895A5
:101790000F931F93CF93DF93D82FC92F82E00E941E
:1017A000C30B0D2F1C2FC0E0D0E0F80181918F01F9
:1017B0000E94BE0B2196C431D105B9F7DF91CF91BC
:1017C0001F910F9108958AE10E94540E1092BB025E
:1017D00008958091BB02882319F0813051F405C02F
:1017E0008CED91E00E94C80B089588EC91E00E9476
:1017F000C80B0895E82FF92FA1E9B2E084E10D901C
:1018000001928150E1F708950895089570E0161649
:1018100017061CF060E070E009C080E090E00196DF
:1018200086179707E4F36A3071052CF46F5F7F4FDA
:101830006A307105DCF30895089508959093F101DD
:101840008093F0010E9480100895E091F001F091E2
:10185000F1019081892B80830895E091F001F0914E
:10186000F101108208951092CC021092CD020895D9
:10187000CF93DF93E82FC091CC02D0E0CE01019648
:1018800060E170E00E948A104091CD0250E0841720
:10189000950731F0C454DD4FE8838093CC0203C038
:1018A00088E00E94250CDF91CF9108958091CD02B0
:1018B0009091CC02981731F0ECEBF2E0E80FF11DBB
:1018C000808108958AE00895CF93DF938091CD02BF
:1018D000ECEBF2E0E80FF11D8081843041F18530BE
:1018E00030F4882359F0813009F044C036C0883084
:1018F000D1F18930D9F18730E9F532C082EF91E03A
:1019000062E072E042E055E028E00E948601CAE011
:10191000D2E0CE016AE172E041E055E021E00E94B0
:1019200086017894CE010E949701539A23C08BB10F
:1019300086958695869580FF02C05B9801C05B9A6C
:1019400082EF91E00E94EA0180912D0290912E0297
:101950000E94BE0D0E94E90B0DC00E94C7000AC084
:101960000E943A0207C00E941B0204C08AE092E073
:101970000E94A501DF91CF9108959091CC028091B2
:10198000CD02981761F00E94640C8091CD0290E026
:10199000019660E170E00E948A108093CD02089564
:1019A0008C3070F5843039F1853048F48130F9F0AD
:1019B000813098F08230E9F0833011F51EC0883014
:1019C00091F0893028F4853051F08730C9F409C08E
:1019D000893059F08A30A1F412C0419A0895119AC1
:1019E0000895139A0895149A0895129A0895A49A3E
:1019F0000895409A0895A19A0895A09A08955F9A2B
:101A000008958C30E8F5843099F1853048F48130C0
:101A100049F1813098F0823049F1833089F52CC04A
:101A20008830C1F0893028F4853061F0873041F585
:101A30000DC0893099F08A3019F520C088B18C7FAB
:101A400088B9089582B18C7F82B9089582B1807F70
:101A500082B9089582B1807E82B9089582B1887F6B
:101A600082B9089584B3807E84BB08954098089518
:101A700084B38C7F84BB0895A09808958BB11BB864
:101A800008958C3008F06AC0843009F454C0853061
:101A900060F4813009F441C08130B8F0823009F43B
:101AA00044C0833009F059C04DC0883031F18930CD
:101AB00030F4853091F0873009F04FC015C089307F
:101AC00021F18A3009F049C043C098B1969581E070
:101AD000913009F443C080E0089592B1969581E079
:101AE0009130E1F180E0089592B1969596959695A2
:101AF00081E0913099F180E0089592B192959F70C4
:101B000081E0913059F180E0089592B196959695D3
:101B100081E0913019F180E0089594B392959F701F
:101B200081E09130D9F080E0089598B181E0913062
:101B3000A9F080E0089594B3969581E0913071F01A
:101B400080E0089594B381E0913041F080E0089501
:101B500081E05F9903C080E0089508950895CF93D0
:101B6000C82F0E94410D882321F08C2F0E94010D67
:101B700003C08C2F0E94D00CCF910895EF92FF925A
:101B80000F931F93CF93DF937C01C0E0D0E001E07F
:101B900010E08C2F98010C2E02C0220F331F0A94E4
:101BA000E2F72E213F212115310511F00E94D00CC2
:101BB0002196CB30D10569F7DF91CF911F910F911D
:101BC000FF90EF900895399A099A0B9A0C9A0A9A05
:101BD0009C9A389A999A989A579A419A119A139A74
:101BE000149A129AA49A409AA19AA09A5F9A8FEF97
:101BF0009FEF90932E0280932D020E94BE0D0895B8
:101C00000F931F93CF93DF93C0E0D0E08C2F0E94FF
:101C1000410D90E00C2E02C0880F991F0A94E2F744
:101C2000082B192B2196CB30D10581F7802F912FCE
:101C3000DF91CF911F910F910895089511B814B8B5
:101C400087B1807687B98FEF8AB91DB810BA93B380
:101C5000907E93BB82B985B988B99BB19F699BB9C6
:101C60008EB981BB84B38F6184BB08950E941E0E20
:101C70000E946B0181E060E00E94151083E060E04B
:101C80000E941A100E941F100E944F100E94000113
:101C90000E94E30D0E94A9000E94E30B0E947F10A6
:101CA00080E00E94380C0895F89491E090935802D7
:101CB0001092B9027894209A209A94B1966094B9BF
:101CC0009CB5907C9CBD9CB58F73892B8CBD8DB5CC
:101CD0008DBD8CB580648CBD81E48EBD82E48EBDEB
:101CE00083E48EBD81E008958DB5807808958EBD22
:101CF0000DB407FEFDCF08950DB407FEFDCF8EB5E0
:101D000008950DB407FEFDCF8EBD08959091B902E0
:101D1000913051F4F8946093B9021092580278947B
:101D2000289A0E94810E0895FFCF1F920F920FB63E
:101D30000F920BB60F9211242F933F934F935F9303
:101D40006F937F938F939F93AF93BF93EF93FF9383
:101D500080915802813039F48091B9020E94810E3D
:101D6000F894789401C02898FF91EF91BF91AF91BA
:101D70009F918F917F916F915F914F913F912F91A3
:101D80000F900BBE0F900FBE0F901F9018951F92D3
:101D90000F920FB60F9211240F900FBE0F901F904D
:101DA00018951F920F920FB60F9211240F900FBE2D
:101DB0000F901F9018951F920F920FB60F920BB6AF
:101DC0000F9211242F933F934F935F936F937F93C1
:101DD0008F939F93AF93BF93EF93FF93E8E8F0E067
:101DE00080819181805A964F9183808381E00E9407
:101DF000380CFF91EF91BF91AF919F918F917F919F
:101E00006F915F914F913F912F910F900BBE0F906B
:101E10000FBE0F901F9018951F920F920FB60F9242
:101E20000BB60F9211242F933F934F935F936F93B1
:101E30007F938F939F93AF93BF93EF93FF93EAE8C2
:101E4000F0E0808191818052914D9183808382E086
:101E50000E94380CFF91EF91BF91AF919F918F91AC
:101E60007F916F915F914F913F912F910F900BBE9A
:101E70000F900FBE0F901F9018951F920F920FB6E4
:101E80000F920BB60F9211242F933F934F935F93B2
:101E90006F937F938F939F93AF93BF93EF93FF9332
:101EA000ECE8F0E0808191818054924A91838083B4
:101EB00083E00E94380CFF91EF91BF91AF919F9109
:101EC0008F917F916F915F914F913F912F910F90E3
:101ED0000BBE0F900FBE0F901F9018951F920F9280
:101EE0000FB60F920BB60F9211242F933F934F937F
:101EF0005F936F937F938F939F93AF93BF93EF9372
:101F0000FF93E8E9F0E0808191818059964B9183BD
:101F1000808384E00E94380CFF91EF91BF91AF91D4
:101F20009F918F917F916F915F914F913F912F91F1
:101F30000F900BBE0F900FBE0F901F9018951F9221
:101F40000F920FB60F920BB60F9211242F933F935F
:101F50004F935F936F937F938F939F93AF93BF93B1
:101F6000EF93FF93EAE9F0E08081918180529D46F2
:101F70009183808385E00E94380CFF91EF91BF919F
:101F8000AF919F918F917F916F915F914F913F9111
:101F90002F910F900BBE0F900FBE0F901F901895B2
:101FA0001F920F920FB60F920BB60F9211242F9320
:101FB0003F934F935F936F937F938F939F93AF93D1
:101FC000BF93EF93FF93ECE9F0E080819181885615
:101FD00098449183808386E00E94380CFF91EF91B2
:101FE000BF91AF919F918F917F916F915F914F9131
:101FF0003F912F910F900BBE0F900FBE0F901F902F
:1020000018951F920F920FB60F9211240F900FBECA
:102010000F901F9018951F920F920FB60F921124D8
:102020000F900FBE0F901F901895809381006093C2
:102030006F000895809391006093710008958091DE
:10204000840090918500805A964F909389008093E8
:102050008800EFE6F0E080818260808308958091BF
:102060008400909185008052914D90938B008093D5
:102070008A00EFE6F0E0808184608083089580919B
:102080008400909185008054924A90938D008093B3
:102090008C00EFE6F0E08081886080830895809175
:1020A0009400909195008059964B9093990080935D
:1020B0009800E1E7F0E0808182608083089580915C
:1020C00094009091950080529D4690939B00809340
:1020D0009A00E1E7F0E08081846080830895809138
:1020E0009400909195008856984490939D00809319
:1020F0009C00E1E7F0E08081886080830895089586
:1021000004B603FE06C084B7877F84BF80E10E94C7
:10211000250C089597FB092E07260AD077FD04D0D9
:102120000CD006D000201AF4709561957F4F089569
:10213000F6F7909581959F4F0895AA1BBB1B51E11F
:1021400007C0AA1FBB1FA617B70710F0A61BB70B27
:10215000881F991F5A95A9F780959095BC01CD01CC
:062160000895F894FFCF82
:1021660030313233343536373839414243444546C7
:102176004748494A00000000000000000000000037
:102186000000000000000000202020202020202049
:1021960020202020202020202020202020204143F5
:1021A60043454C45524154494F4E204D4F444520DE
:1021B6002020544F525155452020564543544F52E6
:1021C600494E472020204D4F544F5220504F5745DF
:1021D600522052454152202020204D4F544F52202C
:1021E600504F5745522046524F4E542020204D49BD
:1021F6004E2043454C4C74454D5020204D415820AF
:1022060020204D494E2043454C4C564F4C54414797
:10221600454D415820205354415445204F462043B4
:10222600484152474520202020202020202045528A
:1022360052524F52202020202020200020202020F3
:102246002020414D5A206772696D73656C202020ED
:00000001FF
