S011000044617368626F6172642E737265638B
S11300000C947F010C949C010C949C010C949C0115
S11300100C949C010C949C010C949C010C949C01E8
S11300200C949C010C949C010C949C010C949C01D8
S11300300C9466180C9493180C94C0180C947419AE
S11300400C949C010C9440180C94B9030C949C01DE
S11300500C949C010C949C010C949C010C949C01A8
S11300600C949C010C949C010C949C010C949C0198
S11300700C94ED180C941A190C9447190C947E19CD
S11300800C949C010C949C010C949C010C949C0178
S11300900C949C01B30FBC0FC50FD70FCE0FE00F0C
S11300A0E90FF20FFB0F12110410121112111211A9
S11300B012111211121112111211121112110D102A
S11300C016101F10281012111211121112111211F0
S11300D01211121112111211121112111211121104
S11300E012111211121112111211121112111211F4
S11300F012111211121112111211121112111211E4
S113010012111211121112111211121112111211D3
S113011012111211121112111211121112111211C3
S113012012111211121112111211121112111211B3
S113013012111211121131103A101211121112115E
S1130140121112111211121143104C1055105E109D
S113015067107010791082108B10941012119D107A
S1130160A610AF10B810C110CA10D310DC101211B1
S11301701211121112111211121112111211121163
S11301801211121112111211121112111211121153
S11301901211121112111211121112111211121143
S11301A01211121112111211121112111211121133
S11301B01211121112111211121112111211121123
S11301C01211121112111211121112111211121113
S11301D01211121112111211121112111211121103
S11301E012111211121112111211121112111211F3
S11301F012111211121112111211121112111211E3
S113020012111211121112111211121112111211D2
S113021012111211121112111211121112111211C2
S1130220121112111211E510EE10F7100011121133
S113023012111211121112111211121112111211A2
S11302401211121112111211121112111211121192
S11302501211121112111211121112111211121182
S11302601211121112111211121112111211121172
S11302701211121112111211121112111211121162
S11302801211121112111211121112111211121152
S1130290121109110A1352135E136C137A13931378
S11302A08613AC13A013B813C4132C131513E31340
S11302B0EF13FA13FA13FA13FA13FA13FA13FA13DD
S11302C0FA13FA13FA13FA13FA13FA13FA13FA13C2
S11302D0FA13FA13FA13FA13FA13FA13FA13FA13B2
S11302E0FA13FA13FA13FA13FA13FA13FA13FA13A2
S11302F0FA13FA13FA13FA13FA13D013DC131124B2
S11303001FBECFEFD8E0DEBFCDBF17E0A0E0B1E065
S1130310E6E9F4E302C005900D92A430B107D9F7E1
S113032018E0A4E0B7E001C01D92AB32B107E1F7D9
S11303300E949E010C94491A0C9400000E949E177E
S1130340A8950E94EC15FCCF9CB192959F7090FDEE
S11303500BC0E82FF0E0EE0FFF1FEE0FFF1FE95672
S1130360F84F91E0908309C0E82FF0E0EE0FFF1FF3
S1130370EE0FFF1FE956F84F10829CB192959695A7
S1130380977090FD0BC0E82FF0E0EE0FFF1FEE0F0B
S1130390FF1FE956F84F91E0918309C0E82FF0E080
S11303A0EE0FFF1FEE0FFF1FE956F84F118296B1B3
S11303B0929596959695937090FD0BC0E82FF0E07A
S11303C0EE0FFF1FEE0FFF1FE956F84F91E09283E7
S11303D009C0E82FF0E0EE0FFF1FEE0FFF1FE956F4
S11303E0F84F128296B196959695969590FD0BC00E
S11303F0E82FF0E0EE0FFF1FEE0FFF1FE956F84F56
S113040081E083830895E82FF0E0EE0FFF1FEE0FE5
S1130410FF1FE956F84F138208956E98769A08954F
S11304206F98779A089524982C9A089576986E9ADE
S1130430089577986F9A08952C98249A0895809136
S1130440B907882321F01092B9070E944C148091B7
S1130450B807882321F01092B8070E942E148091C7
S1130460A107882321F085E00E940D1603C085E0D2
S11304700E94451680919D07882321F086E00E9402
S11304800D1603C086E00E94451680919A078823C2
S113049021F087E00E940D1603C087E00E944516F4
S11304A08091A207882321F088E00E940D1603C0E2
S11304B088E00E94451680919E07882321F089E0F8
S11304C00E940D1603C089E00E944516809198078A
S11304D0882319F00E94C81702C00E94CA171092FC
S11304E0050780919907882319F081E08093050717
S11304F08091A107882329F0809105078260809369
S1130500050780919D07882329F080910507846061
S11305108093050780919A07882329F08091050725
S113052088608093050780919E07882329F0809135
S113053005078061809305078091A207882329F02D
S113054080910507806280930507109204078091CB
S11305509B07882319F081E08093040780919C070E
S1130560882329F080910407826080930407809196
S11305709807882329F080910407886080930407F2
S113058080919707882329F08091040784608093E1
S113059004078091A007882329F0809104078061D3
S11305A08093040780919F07882329F08091040792
S11305B0806280930407089585B78F7E85BF8DB1CF
S11305C08F6B8DB9769A8DB18F678DB9779A84B117
S11305D08F6E84B92C9A6C98749A6D98759A3E981B
S11305E0469A3B98439AEEEBF7E0CF010C9621E054
S11305F02193E817F907E1F70895CF92DF92EF927C
S1130600FF920F931F93CF93DF93CDE0D2E0FE01CF
S1130610099500E112E0F80109950F2EF3E1EF2EA0
S1130620F2E0FF2EF02DF7010995F8010995F70185
S113063009950E9416020F2EF4EACF2EF1E0DF2E68
S1130640F02D80E090E0F6010995FE010995F7018F
S113065009950E94190281E090E0F6010995FE01D6
S11306600995F80109950E941C0282E090E0F601C8
S11306700995FE010995F8010995F7010995E4EA40
S1130680F7E0A7E9B7E00EEB17E080EB97E0AF01E6
S1130690445F5F4F71E09F016081662359F46C9160
S11306A0613041F4E8016881613081F4EC017883C0
S11306B0E8011882E9012881213041F42C91222398
S11306C029F4E8012881222309F4788331961196CC
S11306D00F5F1F4F0196E417F507E9F60E941F020A
S11306E0A4EAB7E0E7E9F7E08CE001900D928150CD
S11306F0E1F7DF91CF911F910F91FF90EF90DF9081
S1130700CF90089527E937E0280F311DF901808142
S11307100895089A10980895109A089510980895C5
S11307200E948C0386E08093060784E08093070789
S11307300895E091DD07F0E0EE0FFF1FE553F84F59
S1130740A081B18182E011968C93808191810E9475
S1130750CA07882331F01092DC0781E00E947B14E1
S11307600895EBEDF0E08081886080830E948F190A
S113077008951F920F920FB60F9211242F933F9357
S11307804F935F936F937F938F939F93AF93BF9395
S1130790EF93FF938091EE0086FF09C089E00E94E9
S11307A08E14EEEEF0E080818F7B808315C085FF90
S11307B009C08AE00E948E14EBEDF0E080818F770F
S11307C080830AC01092EE00EBEDF0E08081877F19
S11307D0808387E00E948E14FF91EF91BF91AF91C7
S11307E09F918F917F916F915F914F913F912F9145
S11307F00F900FBE0F901F90189585E00E94B507CB
S11308001092EE0080EB8093DB008FE78093DF0093
S11308108FEF8093DE001092DB071092DD071092B9
S1130820DC071092DF071092DE070895FC01708741
S11308306783178616865383428326838FEF97E058
S1130840A0E0B0E082879387A487B587089590934A
S1130850DF078093DE0725E0FC0121838091DE071A
S11308609091DF070E94CA0708950E94A40DEBED42
S1130870F0E08081806880838091DC07823029F4F5
S113088081E08093DC070E94990308959091DB072F
S11308908091DD07981769F18091DE079091DF0759
S11308A00097C9F0EBEDF0E080818F7D8083E091CB
S11308B0DE07F091DF078CE081838091DE07909161
S11308C0DF070E94CA078091DE079091DF070E942C
S11308D0A40D8130C1F38091DB00882334F481E0DE
S11308E08093DC070E949903089582E08093DC07DB
S11308F00895E091DE07F091DF07309769F085E015
S113090081838091DE079091DF070E94CA07EBED97
S1130910F0E08081806280830895CF93DF93EC01BF
S1130920E091DB07F0E0CF01019668E070E00E94FF
S1130930221A2091DD0730E08217930749F0EE0F69
S1130940FF1FE553F84FD183C0838093DB0703C0B7
S113095084E00E947B148091DC07882311F40E94B8
S11309604604DF91CF910895E091DD07F0E0EE0FAA
S1130970FF1FE553F84F8081918108950E949419D7
S1130980E091DD07F0E0EE0FFF1FE553F84FA08183
S1130990B1818CE011968C93808191810E94CA0769
S11309A01092DC078091DD0790E0019668E070E02A
S11309B00E94221A8093DD070E94460408958091C4
S11309C0DC078150823008F50E949419E091DD071C
S11309D0F0E0EE0FFF1FE553F84FA081B1818CE0EA
S11309E011968C93808191810E94CA0782E00E94B3
S11309F07B141092DC078091DD0790E0019668E09B
S1130A0070E00E94221A8093DD07089520E0ADEE85
S1130A10B0E08EEE90E0322F3295307F3C93FC01B3
S1130A201192E83FF105E1F72F5F2F30A1F7089508
S1130A30EDEEF0E0208110828091EF00807C69F07F
S1130A4081E0ADEEB0E0EFEEF0E0982F9295907F6C
S1130A509C939081907C29F401C080E02093ED0068
S1130A6008958F5F8F3089F72093ED008FEF0895FD
S1130A708091EF00807C69F09091EE00892F807E58
S1130A80803241F0803431F0803A21F0892F8F7127
S1130A9008958FEF0895CF93DF93AC018091EF0019
S1130AA090E08F70907018161906A4F460E0EAEFD5
S1130AB0F0E0CFEED0E08081DA01A60FB11D8C9377
S1130AC06F5F8881262F30E090E08F709070281738
S1130AD039078CF3DF91CF9108952F923F924F9273
S1130AE05F926F927F928F929F92AF92BF92CF92BA
S1130AF0DF92EF92FF920F931F93CF93DF9300D077
S1130B0000D000D0CDB7DEB7882309F47CC0809133
S1130B10E20090E08E7790709595879501968230EB
S1130B2091055CF08091E20090E08E77907095954D
S1130B308795282F2F5F298302C081E089838091C4
S1130B40E30090E08E7090709595879501968230C1
S1130B50910554F08091E30090E08E70907095952B
S1130B608795382E339402C0332433948091E40063
S1130B7090E08E70907095958795019683309105DD
S1130B8054F08091E40090E08E7090709595879574
S1130B90782E739403C07724689471F88091E400EC
S1130BA090E0807790709595879595958795959524
S1130BB087959595879501968330910584F080916A
S1130BC0E40090E08077907095958795959587954A
S1130BD09595879595958795682E639403C06624AB
S1130BE0689461F8872D90E0830D911D860D911D09
S1130BF001968830910514F488E090E08A8340E0FF
S1130C002224239410C041E022246624689461F8CD
S1130C107724689471F898E09A830F2EF3E03F2EBE
S1130C20F02DA1E0A98320E0ADEEB0E08EEE90E0DF
S1130C30322F3295307F3C93FC011192E83FF1054D
S1130C40E1F72F5F2F30A1F7A42E622DDD24882435
S1130C50992470E00F2EF8EDEF2EFF24F02D51E0D3
S1130C60E9EDF0E00AED10E020E0C52EB22EB2E08E
S1130C70BB8388E08E8391E0A91609F057C0D701A1
S1130C805C930894811C911C89818150880FA2EE89
S1130C90B0E08C93862D869590E001972C01440C4E
S1130CA0551C440C551C440C551C440C551C440C3C
S1130CB0551C832D90E00197880F991F8429A3EE7A
S1130CC0B0E08C93862D90E001972C01440C551CC8
S1130CD0440C551C440C551C440C551C872D90E0A9
S1130CE00197880F991F84298160A4EEB0E08C934A
S1130CF0C401969587959695879596958795A5EEC3
S1130D00B0E08C93ADEEB0E01C92AEEEB0E01C927D
S1130D1080E8AFEEB0E08C938AE0D7018C938081B9
S1130D2082FFFDCF8FEFD8018C93722F4130B1F544
S1130D30AEEEB0E08C9190E085FF0EC0AFEEB0E077
S1130D408C918F738C93D7011C92808182FDFDCF8F
S1130D50D52E622F322FBEC08F719070009711F084
S1130D606C2D4B2DD8014C90552445FE0DC0772396
S1130D7029F48C9180628C937C2D06C0D8018C91CF
S1130D8080628C936C2D4B2DC2018F7090700097F4
S1130D9009F09DC0413061F2352F01C0352F61301B
S1130DA009F078C0832F372D7A2CAD2CD72E782FCD
S1130DB021103F5F393078F1B7E0B61560F58A81CC
S1130DC0893131F08F5F8A832B2C6B80362D59C08B
S1130DD09981903441F09F5F99832B2C6B80362D41
S1130DE0AE81AA834EC0A72C7D2DAFEEB0E08C91CE
S1130DF08F738C93D7011C92808182FDFDCFD22EFC
S1130E00322F222E6624689461F87724689471F84E
S1130E10B8E0BA8369C0363058F0432E5524862D85
S1130E2090E001968415950524F46394362D01C051
S1130E30632E362C330E30948A81380E832D8150E4
S1130E408830E0F4462C5524832D90E0DC01119683
S1130E50A30FB11DBD83AC83C201880F991F880FF6
S1130E60991F8A179B0764F0C201880F991F840D8C
S1130E70951DA817B90784F52C2C03C02C2C01C090
S1130E802C2C613009F494CF872F7D2DDA2CA72CDC
S1130E90732E382F313009F4EECE8D2D26960FB6F1
S1130EA0F894DEBF0FBECDBFDF91CF911F910F919C
S1130EB0FF90EF90DF90CF90BF90AF909F908F9076
S1130EC07F906F905F904F903F902F900895A52E44
S1130ED0652F352F422F63CF872F7D2DDA2CA72C3A
S1130EE0732E382F452F252E622FD4CF8093E20006
S1130EF06093E3004093E40081E0089591E09093CF
S1130F00D800853031F482E068E045E20E9476073B
S1130F1006C01092E2001092E3001092E40081E017
S1130F2008950F931F93FC018785882391F402850C
S1130F301385248535850F2EF2E1000F111F221F22
S1130F40331FFA95D1F7F02D0F6F1F6F2360306EAA
S1130F5005C00285138524853585306E602F712F79
S1130F60822F932F1F910F9108950E947E0788234B
S1130F7049F00E940605E8EDF0E0808182608083FC
S1130F8081E0089580E00895E8EDF0E080818D7FB0
S1130F90808308950F931F93CF93DF9300D000D0E5
S1130FA0CDB7DEB78C01DC0111968C9111978C3092
S1130FB0B1F419968C911997803669F48C918295C5
S1130FC0807F8093ED00EFEEF0E080818F7380836B
S1130FD01092EE001C92F801118680E0ACC50E94CC
S1130FE018058F3F09F4A1C590E6D80119969C9382
S1130FF019978C938295807F8093ED00EEEEF0E05C
S11310001192E83FF105E1F7F8018181863009F496
S113101056C2873090F4833009F412C1843030F41E
S1131020813011F1823009F07CC598C0843009F414
S113103067C1853009F075C5AAC1893009F4BEC3FA
S11310408A3038F4873009F48FC2883009F069C5D2
S11310501BC38A3021F08B3009F063C5B1C486818B
S1131060882309F049C457C4F8018785882369F1A6
S113107094819295969597708581880F880F880F33
S1131080890F8093F300938192959695977084814C
S1131090880F880F880F890F8093F20092819295B0
S11310A0969597708381880F880F880F890F809396
S11310B0F1008281880F880F880F8093F000EFEE93
S11310C0F0E080818061808316C092819695969528
S11310D0969583818295880F807E890F8093F30093
S11310E082818295880F807E8093F200EFEEF0E09B
S11310F080818F7E8083F8018681882379F080E067
S11311002AEF30E0F801A781B085A80FB11D9C91AA
S1131110D9019C938F5F96818917A0F3F801868586
S1131120882331F0E0EFF0E080818460808305C0A3
S1131130E0EFF0E080818B7F8083EFEEF0E0908140
S1131140D80116968C911697892B808380818F7392
S1131150808380818064808380E0EDC4F80187858A
S1131160882369F194819295969597708581880F6B
S1131170880F880F890F8093F30093819295969539
S113118097708481880F880F880F890F8093F200ED
S113119092819295969597708381880F880F880F16
S11311A0890F8093F1008281880F880F880F8093C4
S11311B0F000EFEEF0E080818061808316C09281C0
S11311C096959695969583818295880F807E890F52
S11311D08093F30082818295880F807E8093F20051
S11311E0EFEEF0E080818F7E8083F8018681882392
S11311F079F080E02AEF30E0F801A781B085A80FEC
S1131200B11D9C91D9019C938F5F96818917A0F39E
S1131210F8011686E0EFF0E080818B7F8083EFEEAB
S1131220F0E09081D80116968C911697892B8083D3
S113123080818F73808380818064808380E07BC41D
S1131240F8018785882369F1948192959695977022
S11312508581880F880F880F890F8093F30093810D
S11312609295969597708481880F880F880F890FBF
S11312708093F20092819295969597708381880F5E
S1131280880F880F890F8093F1008281880F880F5F
S1131290880F8093F000EFEEF0E08081806180831E
S11312A016C0928196959695969583818295880F1E
S11312B0807E890F8093F30082818295880F807EDF
S11312C08093F200EFEEF0E080818F7E808381E0F6
S11312D0F8018687E0EFF0E0808184608083EFEEA0
S11312E0F0E09081D80116968C911697892B808313
S11312F080818F73808380818064808380E01BC4BD
S11313008FEF9FEFDC0189839A83AB83BC839B813E
S11313109295969597708C81880F880F880F890F06
S11313208093F7009A819295969597708B81880F98
S1131330880F880F890F8093F6009981929596956E
S113134097708A81880F880F880F890F8093F50022
S11313508981880F880F880F24EF30E0F90180839A
S1131360EFEEF0E09081D80116968C91892B808362
S1131370D9018C918B7F8C938C918E7F8C938081FF
S11313808F73808380818068808380E0D4C3F80178
S11313908785882369F194819295969597708581C4
S11313A0880F880F880F890F8093F300938192959B
S11313B0969597708481880F880F880F890F809382
S11313C0F20092819295969597708381880F880F89
S11313D0880F890F8093F1008281880F880F880F0E
S11313E08093F000EFEEF0E080818061808316C08E
S11313F0928196959695969583818295880F807EA5
S1131400890F8093F30082818295880F807E809378
S1131410F200EFEEF0E080818F7E80838FEF9FEF0C
S1131420DC0189839A83AB83BC839B8192959695D7
S113143097708C81880F880F880F890F8093F7002D
S11314409A819295969597708B81880F880F880F53
S1131450890F8093F60099819295969597708A8169
S1131460880F880F880F890F8093F5008981880F72
S1131470880F880F44EF50E0FA018083EFEEF0E02C
S11314809081D80116968C911697892B80831E968D
S11314901C92DA018C9184608C9380EF90E0DC01E3
S11314A02C912B7F2C93DA018C9181608C93808119
S11314B08F73808380818068808380E03CC38FEF5A
S11314C09FEFDC0189839A83AB83BC839B819295D4
S11314D0969597708C81880F880F880F890F809359
S11314E0F7009A819295969597708B81880F880F53
S11314F0880F890F8093F60099819295969597703D
S11315008A81880F880F880F890F8093F50089815D
S1131510880F880F880F44EF50E0FA018083EFEEC4
S1131520F0E09081D80116968C911697892B8083D0
S113153081E01E968C93DA018C9184608C9380EF09
S113154090E0DC012C9124602C9380818F7D80833A
S1131550DA018C918E7F8C9380818F73808380815C
S11315608068808380E0E7C2F8018785882369F179
S113157094819295969597708581880F880F880F2E
S1131580890F8093F3009381929596959770848147
S1131590880F880F880F890F8093F20092819295AB
S11315A0969597708381880F880F880F890F809391
S11315B0F1008281880F880F880F8093F000EFEE8E
S11315C0F0E080818061808316C092819695969523
S11315D0969583818295880F807E890F8093F3008E
S11315E082818295880F807E8093F200EFEEF0E096
S11315F080818F7E8083C8010E949107DC01CB012A
S113160089839A83AB83BC839B81929596959770CB
S11316108C81880F880F880F890F8093F7009A8137
S11316209295969597708B81880F880F880F890FF4
S11316308093F60099819295969597708A81880F88
S1131640880F880F890F8093F5008981880F880F90
S1131650880F24EF30E0F9018083EFEEF0E0908111
S1131660D80116968C91892B8083D9018C918B7F1C
S11316708C938C9181608C9380818F738083808123
S11316808068808380E057C2F8018785882369F1E8
S113169094819295969597708581880F880F880F0D
S11316A0890F8093F3009381929596959770848126
S11316B0880F880F880F890F8093F200928192958A
S11316C0969597708381880F880F880F890F809370
S11316D0F1008281880F880F880F8093F000EFEE6D
S11316E0F0E080818061808316C092819695969502
S11316F0969583818295880F807E890F8093F3006D
S113170082818295880F807E8093F200EFEEF0E074
S113171080818F7E8083C8010E949107DC01CB0108
S113172089839A83AB83BC839B81929596959770AA
S11317308C81880F880F880F890F8093F7009A8116
S11317409295969597708B81880F880F880F890FD3
S11317508093F60099819295969597708A81880F67
S1131760880F880F890F8093F5008981880F880F6F
S1131770880F44EF50E0FA018083EFEEF0E09081AF
S1131780D80116968C911697892B80831E961C92ED
S1131790DA018C9184608C9380EF90E0DC012C91D1
S11317A02B7F2C93DA018C9181608C9380818F73D1
S11317B0808380818068808380E0BDC1F801878553
S11317C0882369F194819295969597708581880F05
S11317D0880F880F890F8093F300938192959695D3
S11317E097708481880F880F880F890F8093F20087
S11317F092819295969597708381880F880F880FB0
S1131800890F8093F1008281880F880F880F80935D
S1131810F000EFEEF0E080818061808316C0928159
S113182096959695969583818295880F807E890FEB
S11318308093F30082818295880F807E8093F200EA
S1131840EFEEF0E080818F7E8083C8010E949107D3
S1131850DC01CB0189839A83AB83BC839B81929502
S1131860969597708C81880F880F880F890F8093C5
S1131870F7009A819295969597708B81880F880FBF
S1131880880F890F8093F6009981929596959770A9
S11318908A81880F880F880F890F8093F5008981CA
S11318A0880F880F880F44EF50E0FA018083EFEE31
S11318B0F0E09081D80116968C911697892B80833D
S11318C081E01E968C93DA018C9184608C9380EF76
S11318D090E0DC012C9124602C9380818F7D8083A7
S11318E0DA018C9181608C9380818F7380838081F5
S11318F08068808380E01FC180E02AEF30E0F80137
S1131900A781B085A80FB11D9C91D9019C938F5FCD
S113191096818917A0F38FEF9FEFDC0189839A8367
S1131920AB83BC839B819295969597708C81880F2D
S1131930880F880F890F8093F7009A819295969566
S113194097708B81880F880F880F890F8093F6001A
S113195099819295969597708A81880F880F880F40
S1131960890F8093F5008981880F880F880F44EFD1
S113197050E0FA018083EFEEF0E09081D8011696F2
S11319808C911697892B808381E01E968C93DA01C3
S11319908C9184608C9380EF90E0DC012C91246026
S11319A02C93808180628083DA018C918E7F8C936A
S11319B080818F73808380818068808380E0BBC056
S11319C0F8018785882369F194819295969597709B
S11319D08581880F880F880F890F8093F300938186
S11319E09295969597708481880F880F880F890F38
S11319F08093F20092819295969597708381880FD7
S1131A00880F880F890F8093F1008281880F880FD7
S1131A10880F8093F000EFEEF0E080818061808396
S1131A2016C0928196959695969583818295880F96
S1131A30807E890F8093F30082818295880F807E57
S1131A408093F200EFEEF0E080818F7E8083F801D6
S1131A508681882379F080E02AEF30E0F801A781BD
S1131A60B085A80FB11D9C91D9019C938F5F96817D
S1131A708917A0F3C8010E949107DC01CB01898377
S1131A809A83AB83BC839B819295969597708C8146
S1131A90880F880F880F890F8093F7009A81929599
S1131AA0969597708B81880F880F880F890F809384
S1131AB0F60099819295969597708A81880F880F80
S1131AC0880F890F8093F5008981880F880F880F0C
S1131AD044EF50E0FA018083EFEEF0E09081D8010A
S1131AE016968C911697892B808381E01E968C9391
S1131AF0DA018C9184608C9380EF90E0DC012C916E
S1131B0024602C93808180628083DA018C918160CF
S1131B108C9380818F73808380818068808380E050
S1131B200AC0F801118680E006C08FE1D801199639
S1131B308C9319978FEF0F900F900F900F90DF9168
S1131B40CF911F910F910895EF92FF921F93CF931E
S1131B50DF93EC018985882309F496C08F3109F459
S1131B6095C08F3F09F494C088818295807F8093CB
S1131B70ED000E943805182F803261F0813220F484
S1131B80882309F487C076C0803409F468C0803A99
S1131B9009F070C00F2EFFEEEF2EFF24F02DF70199
S1131BA080818F708E838F8198850E944B058091F0
S1131BB0F00090E084709070959587959595879541
S1131BC08E87F701808184FF2DC081E08F87E3EF4A
S1131BD0F0E080818695869586958D83A2EFB0E0AE
S1131BE08C9190819295990F907E86958695869595
S1131BF0890F8C83E1EFF0E080819C919295990F9D
S1131C00907E869586958695890F8B838091F000CA
S1131C1090819295990F907E869586958695890FE9
S1131C208A8313C01F86E3EFF0E080818295869556
S1131C3087708B838091F2009081990F990F990F8F
S1131C40829586958770890F8A831987EFEEF0E075
S1131C5080818F7380831092EE0080E01CC080E44A
S1131C608987EFEEF0E080818F7380831092EE001D
S1131C7080E011C01987EFEEF0E080818F738083DC
S1131C801092EE0082E007C082E005C082E003C04B
S1131C9082E001C081E0DF91CF911F91FF90EF902E
S1131CA00895FC01362F862F64E60E94161A482FE9
S1131CB0405D2AE0832F622F0E94161A0E94161A92
S1131CC0905D403331F4903311F040E202C090E271
S1131CD040E220E2208321832283238324832583FB
S1131CE02683278340879187832F6AE00E94161AF0
S1131CF0905D928785E283872487258726872787B7
S1131D00208B218B228B238B0895CF93FC01362FBC
S1131D10C4E6862F6C2F0E94161A8E5C8083BEE266
S1131D20B1835AE0832F652F0E94161A392F0E941F
S1131D30161A905D9283305D3383A6E5A48330E266
S1131D4035833683842F6C2F0E94161A8E5C87830A
S1131D50B087842F652F0E94161A492F0E94161AE5
S1131D60905D9187405D4287A387348735873687A6
S1131D70822F6C2F0E94161A8E5C8787B08B822F5D
S1131D80652F0E94161A292F0E94161A905D918BB6
S1131D90205D228BA38BCF9108951F93CF93DF9364
S1131DA0CDB7DEB764970FB6F894DEBF0FBECDBFD4
S1131DB0582F192F462FCE010196E0E0F1E024E1DF
S1131DC00190DC010D92CD012150D1F7842F6AE0FE
S1131DD00E94161AB82F6BE00E94161A292F30E0C1
S1131DE01216130644F020E030E0FE01E20FF31F68
S1131DF035968AE20FC0FE013596BF01690F711D49
S1131E00CB0166E16193E817F907E1F72A30310560
S1131E1064F306C081932F5F3F4F2A303105D4F31A
S1131E204456443630F4FE01E20FF31F81E3868307
S1131E3005C0FE01E20FF31F80E28683FE01E20F7C
S1131E40F31F8B2F6AE00E94161A905D9783FE01A0
S1131E50E20FF31F80E3808785E28187E52FF12F6E
S1131E60DE01119684E10D9001928150E1F76496B0
S1131E700FB6F894DEBF0FBECDBFDF91CF911F9197
S1131E800895FC01862F30E230835AE0652F0E94CA
S1131E90161AA92F0E94161A905D9183A05DA28341
S1131EA0B0EBB383A3E4A483358336833783842FD1
S1131EB00E94161A492F0E94161A905D9087405D61
S1131EC04187B287A3873487358736873787822F40
S1131ED00E94161A292F0E94161A905D908B205D7D
S1131EE0218BB28BA38B0895FC01462F20E2208323
S1131EF0218322832383248325832683862F64E6F8
S1131F000E94161A805D87833AE0842F632F0E9413
S1131F10161A492F0E94161A905D90878EE28187C7
S1131F20405D428786E58387248725872687278720
S1131F30208B218B228B238B08951F93CF93DF93C8
S1131F40EC01362F3A503A3018F0362F10E001C029
S1131F5011E0E32FF0E0E65BFF4FEE0FFF1F05906B
S1131F60F491E02D0994FE01A0EFB6E084E10D9018
S1131F7001928150E1F75EC1FE01ACEDB6E084E16F
S1131F800D9001928150E1F755C1FE01A4EBB6E03A
S1131F9084E10D9001928150E1F74CC1FE01A0EA69
S1131FA0B6E084E10D9001928150E1F743C1FE0156
S1131FB0ACE8B6E084E10D9001928150E1F73AC1BA
S1131FC0FE01A0E0B6E084E10D9001928150E1F7BA
S1131FD031C1FE01A8E7B6E084E10D900192815081
S1131FE0E1F728C1FE01A4E6B6E084E10D90019278
S1131FF08150E1F71FC1FE01A0E5B6E084E10D9038
S113200001928150E1F716C1FE01ACE3B6E084E130
S11320100D9001928150E1F70DC1FE01A4ECB5E0F1
S113202084E10D9001928150E1F704C1FE01A0EB1F
S1132030B5E084E10D9001928150E1F7FBC0FE010F
S1132040ACE9B5E084E10D9001928150E1F7F2C072
S1132050FE01A8E8B5E084E10D9001928150E1F71A
S1132060E9C0FE01A4E7B5E084E10D90019281503E
S1132070E1F7E0C0FE01A0E6B5E084E10D90019235
S11320808150E1F7D7C0FE01ACE4B5E084E10D90E6
S113209001928150E1F7CEC0FE01A8E3B5E084E1EE
S11320A00D9001928150E1F7C5C0FE01A4E2B5E0B4
S11320B084E10D9001928150E1F7BCC0FE01A0E1E2
S11320C0B5E084E10D9001928150E1F7B3C0FE01C7
S11320D0ACEFB4E084E10D9001928150E1F7AAC025
S11320E0FE01A8EEB4E084E10D9001928150E1F785
S11320F0A1C0FE01A4EDB4E084E10D9001928150F1
S1132100E1F798C0FE01ACEAB4E084E10D900192DD
S11321108150E1F78FC0FE01A8E9B4E084E10D909D
S113212001928150E1F786C0FE01A0ECB4E084E1A5
S11321300D9001928150E1F77DC0FE01A4E8B4E066
S113214084E10D9001928150E1F774C0FE01A0E793
S1132150B4E084E10D9001928150E1F76BC0FE017F
S1132160ACE5B4E084E10D9001928150E1F762C0E6
S1132170FE01A8E4B4E084E10D9001928150E1F7FE
S113218059C0FE01A8E4B4E084E10D9001928150AD
S1132190E1F750C0FE01A0E2B4E084E10D900192A9
S11321A08150E1F747C0FE01ACE0B4E084E10D905A
S11321B001928150E1F73EC0FE01A8EFB3E084E153
S11321C00D9001928150E1F735C0FE01A4EEB3E019
S11321D084E10D9001928150E1F72CC0FE01A0ED45
S11321E0B3E084E10D9001928150E1F723C0FE0138
S11321F0ACEBB3E084E10D9001928150E1F71AC099
S1132200FE01A8EAB3E084E10D9001928150E1F768
S113221011C0FE01A4E9B3E084E10D900192815064
S1132220E1F708C0FE01A8ECB6E084E10D9001924C
S11322308150E1F7112311F08BE28B8B832F8851AE
S1132240863040F4DE01E4E1F6E084E101900D9291
S11322508150E1F7832F6AE00E94161A282F482F35
S113226050E0CA01880F991FAC01440F551F440F59
S1132270551F840F951F8832910579F0823391059B
S1132280A9F08E319105D1F4DE01ECEEF5E084E1A4
S113229001900D928150E1F711C0DE01E8EDF5E007
S11322A084E101900D928150E1F708C0DE01E8ED70
S11322B0F5E084E101900D928150E1F7832F64E60B
S11322C00E94161A805D8983112319F081E38A83A1
S11322D006C0822F6AE00E94161A905D9A83832FAB
S11322E06AE00E94161A905D9B83DF91CF911F9143
S11322F00895FC01E60FF11D405D40830895CF93DE
S1132300DF93CDB7DEB764970FB6F894DEBF0FBE88
S1132310CDBFDE011196E4E1F1E024E101900D92DC
S11323202150E1F7E82FF92FDE01119684E10D9099
S113233001928150E1F764960FB6F894DEBF0FBEA8
S1132340CDBFDF91CF910895623021F1633030F435
S1132350662361F0613009F044C012C0643071F149
S1132360643010F1653009F03CC032C0E82FF92F19
S1132370ACE8B1E084E10D9001928150E1F7089559
S1132380E82FF92FA8E7B1E084E10D900192815084
S1132390E1F70895E82FF92FA0EAB1E084E10D9068
S11323A001928150E1F70895E82FF92FA0E5B1E0FB
S11323B084E10D9001928150E1F70895E82FF92FFF
S11323C0ACE3B1E084E10D9001928150E1F708950E
S11323D0E82FF92FA4E6B1E084E10D900192815039
S11323E0E1F708950F931F93CF93DF93CDB7DEB733
S11323F064970FB6F894DEBF0FBECDBF8C0165366F
S113240088F544E6461B9E012F5F3F4FA8E2B1E0EA
S113241084E10D90F90101929F018150D1F7980157
S1132420DE01119684E10D90F90101929F01815022
S1132430D1F72AE0862F622F0E94161A392F0E94A4
S1132440161A892F805DF8018183305D3283842FD1
S11324500E94161A392F0E94161A892F805D808BCC
S1132460305D318B64960FB6F894DEBF0FBECDBFDE
S1132470DF91CF911F910F910895CF92DF92EF9248
S1132480FF920F931F93CF93DF93CDB7DEB764977B
S11324900FB6F894DEBF0FBECDBFF82EE92E9B0118
S11324A06A0104E610E0CB01B8010E94221A462F0B
S11324B0405DEAE0F0E0C901BF010E94221ACB01AD
S11324C0BF010E94221A382F305DC601B8010E9454
S11324D0221A605D403321F4303321F080E204C0DD
S11324E0842F02C030E280E2603309F460E220E22B
S11324F029838A833B834C8340EB4D8333E43E83BF
S11325002F83288729872A872B872C872D872E8737
S11325106F87688BC6016AE070E00E94221A805DB2
S1132520898B4A8B3B8B2C8BEF2DFE2DDE01119674
S113253084E10D9001928150E1F764960FB6F8940E
S1132540DEBF0FBECDBFDF91CF911F910F91FF90E2
S1132550EF90DF90CF900895CF93C82F28988AEFFB
S11325600E94E2178C2F0E94E217289ACF910895B7
S1132570CF93C82F289888EF0E94E2178C2F0E94CF
S1132580E217289ACF910895EF92FF920F931F9329
S1132590CF93DF93D82FC92FF62EE72E82E00E9427
S11325A0B8120D2F1C2FC0E0D0E0F80181918F01EB
S11325B00E94AC122196C431D105B9F7C4E1D0E030
S11325C084E10E94B8122197D9F70F2D1E2DC0E087
S11325D0D0E0F80181918F010E94AC122196C431A0
S11325E0D105B9F7DF91CF911F910F91FF90EF9033
S11325F00895CF92CF93DF93E82FF0E0E533F10510
S113260008F0F8C0E65BFE4FEE0FFF1F0590F49153
S1132610E02D0994C8E1D2E0CE010E947F1180E848
S113262093E0BE010E94C412E5C088E192E06C2DE3
S113263070E00E949D0F83E68C1538F488E593E0E2
S113264068E172E00E94C412D5C08CE693E068E1B0
S113265072E00E94C412CEC0623061F06330B9F0FF
S1132660613009F0C7C08CE792E068E672E00E942E
S1132670C412C0C0C8E1D2E0CE0162E070E00E94A2
S1132680CD0E84E592E0BE010E94C412B3C0C8E13D
S1132690D2E0CE010E947F1180E492E0BE010E944C
S11326A0C412A8C0C8E1D2E0CE0170E00E94510E6D
S11326B084E493E0BE010E94C4129CC0C8E1D2E04D
S11326C0CE0170E050E030E00E94850E80E393E09C
S11326D0BE010E94C4128EC0C8E1D2E0CE0170E0F7
S11326E050E030E00E94410F8CE193E0BE010E9473
S11326F0C41280C0C8E1D2E0CE0170E00E94740F21
S113270088E093E0BE010E94C41274C0C8E1D2E024
S1132710CE0170E050E00E943D1288EB92E0BE01D1
S11327200E94C41267C0C8E1D2E0CE0170E050E05C
S11327300E943D128CEC92E0BE010E94C4125AC069
S1132740C8E1D2E0CE0170E00E94CD0E80EE92E0AE
S1132750BE010E94C4124EC0C8E1D2E0CE0170E0B6
S11327600E94CD0E84EF92E0BE010E94C41242C0CA
S1132770C8E1D2E0CE0170E00E94CD0E84EA92E07E
S1132780BE010E94C41236C0C8E1D2E0CE0170E09E
S11327900E94CD0E80E992E0BE010E94C4122AC0BC
S11327A0C8E1D2E0CE0170E00E9479118CE292E09F
S11327B0BE010E94C4121EC084E092E060EF71E08A
S11327C00E94C41217C0C8E1D2E0CE0170E00E949A
S11327D0A41184EB91E0BE010E94C4120BC0C8E1B5
S11327E0D2E0CE0170E00E94F21188EC91E0BE01CB
S11327F00E94C412DF91CF91CF900895CF92EF92AF
S11328000F938EE10E94CC178CB58F778CBD8CB55D
S113281080618CBD1092A307209A289A8CE00E94B4
S1132820B81288E30E94B81280E060E040E020E043
S113283000E0EE24CC240E94F9128FEF809360070D
S11328400F91EF90CF900895E82FF92FA1E6B7E00C
S113285084E10D9001928150E1F708958091A307DE
S11328608C3051F4909160079F3F31F09093A3070F
S11328708FEF8093600703C08F5F8093A3078091DD
S1132880A3076FE00E94161A9093A307992319F4E3
S113289081E08093A30708958091A307823020F4F8
S11328A08EE08093A30708958C3051F490916007D3
S11328B09F3F31F09093A3078FEF809360070895B3
S11328C081508093A3070895CF93DF93682FC8E1C5
S11328D0D2E0CE010E94510E8CED91E0BE010E9427
S11328E0C412DF91CF91089590930907809308074C
S11328F00E940C1A0895E0910807F091090790814D
S1132900892B80830895E0910807F09109071082CC
S113291008951092290810922A080895CF93DF93FE
S1132920E82FC0912908D0E0CE01019660E170E063
S11329300E94221A40912A0850E08417950731F02A
S1132940C75ED74FE8838093290803C080E10E94C3
S11329507B14DF91CF91089580912A0890912908E2
S1132960981731F0E9E1F8E0E80FF11D808108954E
S11329708BE00895CF92EF920F93CF93DF938091E2
S11329802A08E9E1F8E0E80FF11D8081863009F4B6
S11329904FC0873040F4813099F1813088F0843021
S11329A009F014C125C0883009F470C0883008F4D7
S11329B06AC0893009F470C08A3009F007C16FC059
S11329C08AE097E06AE177E042E055E028E00E947F
S11329D01604C2E2D7E0CE0162E377E041E055E0BD
S11329E021E00E9416047894CE010E942704EEC0D0
S11329F080914707882309F0E9C00E94FB17E6C0CD
S1132A0080914707813009F0E1C00E94FD02809166
S1132A10A30780931A078091050780931B07809171
S1132A20040780931C078AE097E00E948D04CEC0BF
S1132A3080914707813009F0C9C080910607882337
S1132A40F9F080910707833040F40E948E0380914F
S1132A50070781508093070703C0815080930707BD
S1132A6080910707882309F0B1C084E080930707A9
S1132A700E948C0380910607815080930607A6C0AC
S1132A800E948E03A3C00E94DF04A0C00E94DF0442
S1132A9088E00E947B149AC00E94BE0497C0809173
S1132AA04707813009F092C082E297E00E94350422
S1132AB0D0913407E2E3F7E0C081C180C0FF04C0D5
S1132AC080E00E940D1603C080E00E9445168C2F02
S1132AD0869580FF04C08AE00E940D1603C08AE038
S1132AE00E9445168C2F8695869580FF04C082E04F
S1132AF00E940D1603C082E00E9445168C2F869515
S1132B008695869580FF04C083E00E940D1603C05D
S1132B1083E00E9445168C2F82958F7080FF04C03D
S1132B2084E00E940D1603C084E00E9445168C2F99
S1132B3082958695877080FF07C080910607882359
S1132B4009F044C00E949003C295C695C695C3700F
S1132B50C0FF04C081E00E940D1603C081E00E9402
S1132B60451681E09091CA079C1509F480E08823FA
S1132B70E1F081E0CC2009F480E08823B1F0C09238
S1132B80CA078091A307809360078CE08093A30712
S1132B906091350740913607209137070091380737
S1132BA0E09039070E94F91211C08091A307D81749
S1132BB069F48D2F609135074091360720913707CE
S1132BC000913807E09039070E94F912DF91CF9104
S1132BD00F91EF90CF9008959091290880912A0841
S1132BE0981761F00E94BA1480912A0890E0019627
S1132BF060E170E00E94221A80932A080895579A8F
S1132C00099A0B9A0C9A9A9A3C9A389A999A989A91
S1132C10399A0A9A0E947D1608958C30A8F5853059
S1132C2091F1863070F4823031F1833028F48823B6
S1132C3041F1813049F513C0833009F1843021F525
S1132C401CC0883091F0893028F4863051F08730E8
S1132C50D9F409C0893059F08A30B1F40AC05F9AB6
S1132C600895119A0895139A0895149A0895A29AAA
S1132C700895449A0895409A0895A19A0895A09AAF
S1132C800895419A0895129A08958C30A8F58530D4
S1132C9091F1863070F4823031F1833028F4882346
S1132CA041F1813049F513C0833009F1843021F5B5
S1132CB01CC0883091F0893028F4863051F0873078
S1132CC0D9F409C0893059F08A30B1F40AC05F9848
S1132CD00895119808951398089514980895A29842
S1132CE008954498089540980895A1980895A09847
S1132CF008954198089512980895CF93C0E08C2FB9
S1132D000E944516CF5FCC30D1F7CF9108958C3017
S1132D1008F079C0853059F1863098F4823009F48E
S1132D204FC0833038F4882309F45DC0813009F042
S1132D3069C018C0833009F450C0843009F062C0FF
S1132D4045C0883069F1893038F4863009F452C0BE
S1132D50873009F057C013C08930D1F08A3009F0A8
S1132D6051C026C081E05F994EC080E0089592B1C1
S1132D70969581E0913009F446C080E0089592B1BF
S1132D8096959695969581E09130E9F180E00895C5
S1132D9092B192959F7081E09130A9F180E00895FD
S1132DA094B39695969581E0913069F180E0089509
S1132DB098B192959F7081E0913029F180E0089557
S1132DC098B181E09130F9F080E0089594B396953C
S1132DD081E09130C1F080E0089594B381E09130B6
S1132DE091F080E0089598B1969581E0913059F082
S1132DF080E0089592B19695969581E0913019F00E
S1132E0080E0089508950895CF93C82F0E948716EF
S1132E10882321F08C2F0E94451603C08C2F0E941A
S1132E200D16CF910895EF92FF920F931F93CF93B6
S1132E30DF937C01C0E0D0E001E010E08C2F98012A
S1132E400C2E02C0220F331F0A94E2F72E213F21D9
S1132E502115310511F00E940D162196CB30D105B4
S1132E6069F7DF91CF911F910F91FF90EF90089533
S1132E700F931F93CF93DF93C0E0D0E08C2F0E9479
S1132E80871690E00C2E02C0880F991F0A94E2F76F
S1132E90082B192B2196CB30D10581F7802F912F48
S1132EA0DF91CF911F910F910895CF93C82F833154
S1132EB010F40E947D16C43130F082E00E940D1699
S1132EC089E00E940D16C83230F08AE00E940D1687
S1132ED088E00E940D16CC3330F080E00E940D167D
S1132EE087E00E940D16C03530F083E00E940D1675
S1132EF086E00E940D16C43630F084E00E940D1660
S1132F0085E00E940D16CF910895089511B814B864
S1132F1087B1807687B98FEF8AB91DB810BA93B399
S1132F20907E93BB82B985B988B99BB19F699BB9DF
S1132F308EB981BB84B38F6184BB08951092470717
S1132F400E94861784E00E9488190E94FD0382E093
S1132F5060E00E94961983E060E00E949B190E9441
S1132F60A0190E94D0190E9489030E94F0190E949E
S1132F70FF150E94DC020E94FE130E94C5170E94E6
S1132F80001A80E00E948E140895529A5A98089567
S1132F905A9A08955A980895209A209A94B196605E
S1132FA094B99CB5907C9CBD9CB58F73892B8CBDCA
S1132FB08DB58DBD8CB580648CBD81E008958DB5D3
S1132FC0807808958EBD0DB407FEFDCF08950DB42D
S1132FD007FEFDCF8EB508950DB407FEFDCF8EBD5F
S1132FE008951F920F920FB60F9211240F900FBEE7
S1132FF00F901F901895CF92EF920F93CF9320913B
S11330003A072F5F20933A07822F66E00E94161A30
S11330109923E9F4C6E0822F0E94161A880F982F8C
S1133020990F990F890F0E94641480913A076C2FAD
S11330300E94161A282F30E0220F331FC901880F6F
S1133040991F880F991F820F931F0E945517809113
S11330503A07813480F081E0809347071092A307F8
S113306080E060E040E020E000E0EE24CC240E9418
S1133070F9120E947D16CF910F91EF90CF90089591
S11330801F920F920FB60F9211242F933F934F93D9
S11330905F936F937F938F939F93AF93BF93EF93BC
S11330A0FF9388E00E948E1414BCFF91EF91BF91AE
S11330B0AF919F918F917F916F915F914F913F91CC
S11330C02F910F900FBE0F901F9018951F920F9283
S11330D00FB60F9211242F933F934F935F936F93E7
S11330E07F938F939F93AF93BF93EF93FF93E8E8FE
S11330F0F0E080819181805D9A489183808381E0B2
S11331000E948E14FF91EF91BF91AF919F918F9187
S11331107F916F915F914F913F912F910F900FBECF
S11331200F901F9018951F920F920FB60F921124B3
S11331302F933F934F935F936F937F938F939F93BB
S1133140AF93BF93EF93FF93EAE8F0E0808191811E
S1133150805A95419183808382E00E948E14FF916E
S1133160EF91BF91AF919F918F917F916F915F91FB
S11331704F913F912F910F900FBE0F901F90189574
S11331801F920F920FB60F9211242F933F934F93D8
S11331905F936F937F938F939F93AF93BF93EF93BB
S11331A0FF93ECE8F0E0808191818856954C9183FF
S11331B0808383E00E948E14FF91EF91BF91AF91C1
S11331C09F918F917F916F915F914F913F912F913B
S11331D00F900FBE0F901F9018951F920F920FB66D
S11331E00F9211242F933F934F935F936F937F9389
S11331F08F939F93AF93BF93EF93FF93E8E9F0E02E
S1133200808191818059964B9183808384E00E94D0
S11332108E14FF91EF91BF91AF919F918F917F9108
S11332206F915F914F913F912F910F900FBE0F902F
S11332301F9018951F920F920FB60F9211242F937F
S11332403F934F935F936F937F938F939F93AF932A
S1133250BF93EF93FF93EAE9F0E08081918180527C
S11332609D469183808385E00E948E14FF91EF91A7
S1133270BF91AF919F918F917F916F915F914F918A
S11332803F912F910F900FBE0F901F9018951F9292
S11332900F920FB60F9211242F933F934F935F9386
S11332A06F937F938F939F93AF93BF93EF93FF930A
S11332B0ECE9F0E08081918180599C4E9183808378
S11332C086E00E948E14FF91EF91BF91AF919F9180
S11332D08F917F916F915F914F913F912F910F90BB
S11332E00FBE0F901F9018951F920F920FB60F925A
S11332F011240F900FBE0F901F9018951F920F92DC
S11333000FB60F9211240F900FBE0F901F901895B7
S113331080933B0714BC81E080936E00089516BC33
S113332080913B0784BD089514BC08958093810067
S113333060936F00089580939100609371000895E5
S11333408091840090918500805D9A4890938900D3
S113335080938800EFE6F0E08081826080830895A6
S11333608091840090918500805A954190938B00C0
S113337080938A00EFE6F0E0808184608083089582
S113338080918400909185008856954C90938D008F
S113339080938C00EFE6F0E080818860808308955C
S11333A080919400909195008059964B9093990048
S11333B080939800E1E7F0E0808182608083089543
S11333C0809194009091950080529D4690939B002B
S11333D080939A00E1E7F0E080818460808308951F
S11333E0809194009091950080599C4E90939D00FB
S11333F080939C00E1E7F0E08081886080830895F9
S11334002BE088E190E00FB6F894A89580936000D3
S11334100FBE20936000089504B603FE06C084B76F
S1133420877F84BF80E20E947B140895991B79E012
S113343004C0991F961708F0961B881F7A95C9F740
S11334408095089597FB092E07260AD077FD04D0AE
S11334500CD006D000201AF4709561957F4F089522
S1133460F6F7909581959F4F0895AA1BBB1B51E1D8
S113347007C0AA1FBB1FA617B70710F0A61BB70BE0
S1133480881F991F5A95A9F780959095BC01CD0185
S10934900895F894FFCF3B
S1133496202020204142434445464748494A2020AB
S11334A62020202020202020202020202020202012
S11334B6202020202020202020616225202020207A
S11334C62020202020202020636425202020202066
S11334D63E5052494E43455353205045414348209C
S11334E6202020203E444F4E4B45592D4B4F4E47EE
S11334F620202020202020203E424F575345522092
S11335062020202020202020202020203E4C554909
S11335164749202020202020202020202020202051
S11335263E4D4152494F202020202020202020209B
S1133536202020203E594F53484920202020202077
S1133546202020202053454C45435420594F5552A2
S113355620504C41594552204C204252414B452063
S113356642414C414E434520202020523C3C2020E1
S1133576205354415254494E4720555020203E3E34
S11335862020202020202020445249564520202057
S1133596202020202020202020205245414459204C
S11335A620544F20202020202020202020202020AE
S11335B620202020202020202020202020204255AA
S11335C654544F4E205052455353454420202020F6
S11335D620203C3C474F2120474F2120474F213E86
S11335E63E20202020414343454C45524154494FF7
S11335F64E2052454144592020204E4F524D414CB5
S11336062044524956452020202020202020414392
S113361643454C45524154494F4E204D4F44452055
S11336262020544F525155452020564543544F525D
S1133636494E472020205452414354494F4E20437B
S11336464F4E54524F4C202020204D4F544F522061
S113365654454D502E2052454152202020204D4F96
S1133666544F522054454D502E2046524F4E54200E
S113367620204D4F544F5220504F5745522052450B
S11336864152202020204D4F544F5220504F574531
S1133696522046524F4E5420202020204C5620566D
S11336A64F4C54414745202020202020204D494E90
S11336B6202043454C4C54454D5020204D41582024
S11336C64D494E202043454C4C564F4C544147459A
S11336D6204D415820205354415445204F46204301
S11336E64841524745202020202020202020204DDC
S11336F645535341474520202020200020202020E8
S11337062020204552524F52202020202020000005
S11337162020202020414D5A206772696D73656C04
S11337262020202023585858202020424F4F542030
S11337365550202020202020235858582020204D42
S113374643204641494C2020202020202358585805
S11337562020205052452043485247204641494C98
S1133766235858582020204D53204F50454E202092
S11337762020202023585858202020454E524520EA
S11337864641494C20202020235858582020505286
S1133796454348415247454F4E4C592023585858A3
S11337A62020204D414E55414C204D4320202020C1
S11337B62358585820202052454144592032204449
S11337C652495645235858582020205052454348BC
S11337D64152474544202020235858582020205041
S11337E652454348415247454420202023585858BF
S11337F62020205052454348415247494E472020F5
S113380623585858202020434845434B204D5320E5
S11338162020202023585858202020535441525405
S1133826494E472054532020235858582041495282
S11338366E204D454C54444F574E2000235858583B
S11338462041495270204D454C54444F574E200058
S11338562358585820414952726F72205465727227
S11338666F72200023585858204D495353494E47E8
S1133876205348554E54200023585858204D495338
S113388653494E47204D432D522020002358585863
S1133896204D495353494E47204D432D4C2020007B
S11338A623585858204D495353494E47204D434DAC
S11338B64142200023585858204D495353494E47F6
S11338C6204D434D4C56420023585858204D4953D9
S11338D653494E47204D434D4620200023585858FF
S11338E6204D495353494E47204D434D5220200005
S11338F6235858582042524B465243452046414984
S11339064C20200023585858205448524F545445AC
S11339164C204641494C20002358585820444953CA
S11339264348415247452054454D50002358585862
S113393620424D53204F56455254454D50202000A9
S11339462358585820424D53204F564552435552FA
S1133956524E54002358585820424D5320554E4435
S11339664552564F4C542E0023585858204D434D1B
S1133976204552524F5220202020200023585858C8
S1133986204D43204552524F522020202020200013
S11339962358585820424D532052454C4159202013
S11339A6202020002358585820424D532045525277
S11339B64F522020202020002358585820424144AA
S11339C652455155455354204944200023585858CC
S11339D6204252414B4520502E442E2020202000C8
S11339E62358585820494D44462020202020202082
S11339F6202020002358585820494D4420202020B8
S1133A06202020202020200023585858204856449F
S1133A1620494E5445524C4F434B20002358585886
S1133A2620424F54532020202020202020202000F4
S1133A36235858582050524520424F545320202092
S1133A4620202000235858582050524520454E52D5
S1133A5645202020202020002358585820554E4B1E
S1133A664E4F574E204552524F5220002358585815
S1133A7620534320444F574E20202020202020004E
S1133A86235858582020204E4F4E452020202020D1
S1073A9620202020A8
S9030000FC
