:100000000C947F010C949C010C949C010C949C0119
:100010000C949C010C949C010C949C010C949C01EC
:100020000C949C010C949C010C949C010C949C01DC
:100030000C94EC190C94191A0C94461A0C94FA1A94
:100040000C949C010C94C6190C94C4030C949C0150
:100050000C949C010C949C010C949C010C949C01AC
:100060000C949C010C949C010C949C010C949C019C
:100070000C94731A0C94A01A0C94CD1A0C94041BB3
:100080000C949C010C949C010C949C010C949C017C
:100090000C949C01DE0FE70FF00F0210F90F0B100C
:1000A00014101D1026106A112F106A116A116A119E
:1000B0006A116A116A116A116A116A116A1138109B
:1000C00041104A1053105C1065106E106A116A11CD
:1000D0006A116A116A116A116A116A116A116A1148
:1000E0006A116A116A116A116A116A116A116A1138
:1000F0006A116A116A116A116A116A116A116A1128
:100100006A116A116A116A116A116A116A116A1117
:100110006A116A116A116A116A116A116A116A1107
:100120006A116A116A116A116A116A116A116A11F7
:100130006A116A116A11771080106A116A116A11C6
:100140006A116A116A116A11891092109B10A41029
:10015000AD10B610BF10C810D110DA106A11E3103C
:10016000EC10F510FE1007111011191122116A116F
:100170006A116A116A116A116A116A116A116A11A7
:100180006A116A116A116A116A116A116A116A1197
:100190006A116A116A116A116A116A116A116A1187
:1001A0006A116A116A116A116A116A116A116A1177
:1001B0006A116A116A116A116A116A116A116A1167
:1001C0006A116A116A116A116A116A116A116A1157
:1001D0006A116A116A116A116A116A116A116A1147
:1001E0006A116A116A116A116A116A116A116A1137
:1001F0006A116A116A116A116A116A116A116A1127
:100200006A116A116A116A116A116A116A116A1116
:100210006A116A116A116A116A116A116A116A1106
:100220006A116A116A112B1134113D1146114F11D7
:1002300058116A116A116A116A116A116A116A11F8
:100240006A116A116A116A116A116A116A116A11D6
:100250006A116A116A116A116A116A116A116A11C6
:100260006A116A116A116A116A116A116A116A11B6
:100270006A116A116A116A116A116A116A116A11A6
:100280006A116A116A116A116A116A116A116A1196
:100290006A116111FB1343146414721480148C14DA
:1002A0009914B214A614BE14CA141D140614E91429
:1002B000F5140015001500150015001500150015A2
:1002C0000015001500150015001500150015001586
:1002D0000015001500150015001500150015001576
:1002E0000015001500150015001500150015001566
:1002F00000150015001500150015D614E214112480
:100300001FBECFEFD8E0DEBFCDBF17E0A0E0B1E069
:10031000E2EAF7E302C005900D92A039B107D9F7E0
:1003200018E0A0E9B7E001C01D92AD3BB107E1F7CD
:100330000E949E010C94CF1B0C9400000E94241973
:10034000A8950E947217FCCF9CB192959F7090FD6A
:100350000BC0E82FF0E0EE0FFF1FEE0FFF1FE75D71
:10036000F74F91E0908309C0E82FF0E0EE0FFF1FF8
:10037000EE0FFF1FE75DF74F10829CB192959695A7
:10038000977090FD0BC0E82FF0E0EE0FFF1FEE0F0F
:10039000FF1FE75DF74F91E0918309C0E82FF0E080
:1003A000EE0FFF1FEE0FFF1FE75DF74F118296B1B3
:1003B000929596959695937090FD0BC0E82FF0E07E
:1003C000EE0FFF1FEE0FFF1FE75DF74F91E09283E7
:1003D00009C0E82FF0E0EE0FFF1FEE0FFF1FE75DF3
:1003E000F74F128296B196959695969590FD0BC013
:1003F000E82FF0E0EE0FFF1FEE0FFF1FE75DF74F56
:1004000081E083830895E82FF0E0EE0FFF1FEE0FE9
:10041000FF1FE75DF74F138208956E98769A08954F
:100420006F98779A089524982C9A089576986E9AE2
:10043000089577986F9A08952C98249A089580913A
:100440004B08882321F010924B080E948D15809153
:100450004A08882321F010924A080E946F15809163
:100460003108882339F080913208882319F081E01F
:100470008093350880912F08882321F085E00E9421
:10048000931703C085E00E94CB1780912C08882326
:1004900021F087E00E94931703C087E00E94CB17EA
:1004A00080913308882321F086E00E94931703C0CF
:1004B00086E00E94CB1780913408882321F089E0E0
:1004C0000E94931703C089E00E94CB1780913008E7
:1004D000882321F088E00E94931703C088E00E94DF
:1004E000CB1780912E08882319F00E944E1902C064
:1004F0000E9450191092910780912B08882319F0BF
:1005000081E08093910780912F08882329F08091C2
:10051000910782608093910780912C08882329F0AD
:10052000809191078460809391078091330888239C
:1005300029F080919107886080939107809130081D
:10054000882329F0809191078061809391078091A1
:100550003408882329F08091910780628093910765
:100560001092900780912908882319F081E08093E8
:10057000900780912A08882329F080919007826053
:100580008093900780912E08882329F0809190070E
:1005900088608093900780912D08882329F08091AE
:1005A000900784608093900780913208882329F017
:1005B0008091900780618093900780913108882313
:1005C00029F080919007806280939007089585B705
:1005D0008F7E85BF8DB18F6B8DB9769A8DB18F6708
:1005E0008DB9779A84B18F6E84B92C9A6C98749A6D
:1005F0006D98759A3E98469A3B98439AE0E5F8E0E4
:10060000CF010C9621E02193E817F907E1F708954F
:10061000CF92DF92EF92FF920F931F93CF93DF93CE
:10062000CDE0D2E0FE01099500E112E0F801099564
:100630000F2EF3E1EF2EF2E0FF2EF02DF7010995DA
:10064000F8010995F70109950E9416020F2EF4EAA8
:10065000CF2EF1E0DF2EF02D80E090E0F60109953D
:10066000FE010995F70109950E94190281E090E0C9
:10067000F6010995FE010995F80109950E941C02F1
:1006800082E090E0F6010995FE010995F8010995CF
:10069000F7010995E6E3F8E0A9E2B8E000E518E023
:1006A00082E498E0AF01445F5F4F71E09F01608199
:1006B000662359F46C91613041F4E801688161303E
:1006C00081F4EC017883E8011882E9012881213066
:1006D00041F42C91222329F4E8012881222309F4F2
:1006E0007883319611960F5F1F4F0196E417F50737
:1006F000E9F60E941F02A6E3B8E0E9E2F8E08CE028
:1007000001900D928150E1F7DF91CF911F910F91F0
:10071000FF90EF90DF90CF90089529E238E0280F06
:10072000311DF90180810895089A10980895109A52
:100730000895109808950E94970382E1809392078C
:1007400084E0809393070895E0916F08F0E0EE0F46
:10075000FF1FE35AF74FA081B18182E011968C937D
:10076000808191810E94D507882331F010926E0814
:1007700081E00E9401160895EBEDF0E08081886031
:1007800080830E94151B08951F920F920FB60F923F
:1007900011242F933F934F935F936F937F938F9386
:1007A0009F93AF93BF93EF93FF938091EE0086FFEB
:1007B00009C089E00E941416EEEEF0E080818F7B84
:1007C000808315C085FF09C08AE00E941416EBEDF6
:1007D000F0E080818F7780830AC01092EE00EBED0D
:1007E000F0E08081877F808387E00E941416FF916C
:1007F000EF91BF91AF919F918F917F916F915F9199
:100800004F913F912F910F900FBE0F901F90189511
:1008100085E00E94C0071092EE0080EB8093DB0021
:100820008FE78093DF008FEF8093DE0010926D08DA
:1008300010926F0810926E08109271081092700852
:100840000895FC0170876783178616865383428359
:1008500026838FEF97E0A0E0B0E082879387A4879C
:10086000B5870895909371088093700825E0FC0186
:10087000218380917008909171080E94D507089596
:100880000E94AF0DEBEDF0E0808180688083809165
:100890006E08823029F481E080936E080E94A403E0
:1008A000089590916D0880916F08981769F1809173
:1008B0007008909171080097C9F0EBEDF0E080812D
:1008C0008F7D8083E0917008F09171088CE08183C6
:1008D00080917008909171080E94D50780917008EE
:1008E000909171080E94AF0D8130C1F38091DB00BF
:1008F000882334F481E080936E080E94A403089555
:1009000082E080936E080895E0917008F09171087C
:10091000309769F085E0818380917008909171082B
:100920000E94D507EBEDF0E080818062808308951E
:10093000CF93DF93EC01E0916D08F0E0CF010196D9
:1009400068E070E00E94A81B20916F0830E08217D9
:10095000930749F0EE0FFF1FE35AF74FD183C0838F
:1009600080936D0803C084E00E94011680916E0898
:10097000882311F40E945104DF91CF910895E091F2
:100980006F08F0E0EE0FFF1FE35AF74F808191816F
:1009900008950E941A1BE0916F08F0E0EE0FFF1F10
:1009A000E35AF74FA081B1818CE011968C9380813E
:1009B00091810E94D50710926E0880916F0890E097
:1009C000019668E070E00E94A81B80936F080E9467
:1009D0005104089580916E088150823008F50E947C
:1009E0001A1BE0916F08F0E0EE0FFF1FE35AF74F7C
:1009F000A081B1818CE011968C93808191810E94BD
:100A0000D50782E00E94011610926E0880916F084F
:100A100090E0019668E070E00E94A81B80936F0848
:100A2000089520E0ADEEB0E08EEE90E0322F3295EA
:100A3000307F3C93FC011192E83FF105E1F72F5F15
:100A40002F30A1F70895EDEEF0E020811082809123
:100A5000EF00807C69F081E0ADEEB0E0EFEEF0E019
:100A6000982F9295907F9C939081907C29F401C05F
:100A700080E02093ED0008958F5F8F3089F72093F9
:100A8000ED008FEF08958091EF00807C69F09091E8
:100A9000EE00892F807E803241F0803431F0803A40
:100AA00021F0892F8F7108958FEF0895CF93DF93F1
:100AB000AC018091EF0090E08F70907018161906CD
:100AC000A4F460E0EAEFF0E0CFEED0E08081DA015C
:100AD000A60FB11D8C936F5F8881262F30E090E0C8
:100AE0008F709070281739078CF3DF91CF9108959C
:100AF0002F923F924F925F926F927F928F929F922E
:100B0000AF92BF92CF92DF92EF92FF920F931F931B
:100B1000CF93DF9300D000D000D0CDB7DEB78823CD
:100B200009F47CC08091E20090E08E7790709595FA
:100B300087950196823091055CF08091E20090E00B
:100B40008E77907095958795282F2F5F298302C007
:100B500081E089838091E30090E08E70907095959C
:100B6000879501968230910554F08091E30090E0E2
:100B70008E70907095958795382E339402C03324EB
:100B800033948091E40090E08E70907095958795F5
:100B900001968330910554F08091E40090E08E70CE
:100BA000907095958795782E739403C077246894F8
:100BB00071F88091E40090E080779070959587952A
:100BC0009595879595958795959587950196833009
:100BD000910584F08091E40090E080779070959585
:100BE0008795959587959595879595958795682E81
:100BF000639403C06624689461F8872D90E0830DA8
:100C0000911D860D911D01968830910514F488E0A0
:100C100090E08A8340E02224239410C041E0222403
:100C20006624689461F87724689471F898E09A8350
:100C30000F2EF3E03F2EF02DA1E0A98320E0ADEED2
:100C4000B0E08EEE90E0322F3295307F3C93FC0185
:100C50001192E83FF105E1F72F5F2F30A1F7A42EA5
:100C6000622DDD248824992470E00F2EF8EDEF2EFC
:100C7000FF24F02D51E0E9EDF0E00AED10E020E076
:100C8000C52EB22EB2E0BB8388E08E8391E0A91618
:100C900009F057C0D7015C930894811C911C89818D
:100CA0008150880FA2EEB0E08C93862D869590E05F
:100CB00001972C01440C551C440C551C440C551C2C
:100CC000440C551C440C551C832D90E00197880F53
:100CD000991F8429A3EEB0E08C93862D90E00197B4
:100CE0002C01440C551C440C551C440C551C440C44
:100CF000551C872D90E00197880F991F84298160EA
:100D0000A4EEB0E08C93C40196958795969587954F
:100D100096958795A5EEB0E08C93ADEEB0E01C9271
:100D2000AEEEB0E01C9280E8AFEEB0E08C938AE0CB
:100D3000D7018C93808182FFFDCF8FEFD8018C93F8
:100D4000722F4130B1F5AEEEB0E08C9190E085FFAE
:100D50000EC0AFEEB0E08C918F738C93D7011C92D4
:100D6000808182FDFDCFD52E622F322FBEC08F71C4
:100D70009070009711F06C2D4B2DD8014C9055249C
:100D800045FE0DC0772329F48C9180628C937C2DD5
:100D900006C0D8018C9180628C936C2D4B2DC201C2
:100DA0008F709070009709F09DC0413061F2352F2F
:100DB00001C0352F613009F078C0832F372D7A2C90
:100DC000AD2CD72E782F21103F5F393078F1B7E066
:100DD000B61560F58A81893131F08F5F8A832B2CBB
:100DE0006B80362D59C09981903441F09F5F998373
:100DF0002B2C6B80362DAE81AA834EC0A72C7D2D67
:100E0000AFEEB0E08C918F738C93D7011C928081F0
:100E100082FDFDCFD22E322F222E6624689461F8F7
:100E20007724689471F8B8E0BA8369C0363058F016
:100E3000432E5524862D90E001968415950524F4C3
:100E40006394362D01C0632E362C330E30948A8184
:100E5000380E832D81508830E0F4462C5524832DA4
:100E600090E0DC011196A30FB11DBD83AC83C201DC
:100E7000880F991F880F991F8A179B0764F0C2017A
:100E8000880F991F840D951DA817B90784F52C2C80
:100E900003C02C2C01C02C2C613009F494CF872F77
:100EA0007D2DDA2CA72C732E382F313009F4EECE9D
:100EB0008D2D26960FB6F894DEBF0FBECDBFDF9105
:100EC000CF911F910F91FF90EF90DF90CF90BF9047
:100ED000AF909F908F907F906F905F904F903F90DA
:100EE0002F900895A52E652F352F422F63CF872F82
:100EF0007D2DDA2CA72C732E382F452F252E622F0F
:100F0000D4CF8093E2006093E3004093E40081E05B
:100F1000089591E09093D800853031F482E068E044
:100F200045E20E94810706C01092E2001092E300A1
:100F30001092E40081E008950F931F93FC018785D0
:100F4000882391F402851385248535850F2EF2E1DF
:100F5000000F111F221F331FFA95D1F7F02D0F6FCD
:100F60001F6F2360306E05C002851385248535858B
:100F7000306E602F712F822F932F1F910F91089544
:100F80000E948907882349F00E941105E8EDF0E0EE
:100F900080818260808381E0089580E00895E8ED9B
:100FA000F0E080818D7F808308950F931F93CF930E
:100FB000DF9300D000D0CDB7DEB78C01DC011196F5
:100FC0008C9111978C30B1F419968C9119978036C9
:100FD00069F48C918295807F8093ED00EFEEF0E0D4
:100FE00080818F7380831092EE001C92F80111862D
:100FF00080E0ACC50E9423058F3F09F4A1C590E6AF
:10100000D80119969C9319978C938295807F809331
:10101000ED00EEEEF0E01192E83FF105E1F7F801A6
:101020008181863009F456C2873090F4833009F408
:1010300012C1843030F4813011F1823009F07CC566
:1010400098C0843009F467C1853009F075C5AAC11C
:10105000893009F4BEC38A3038F4873009F48FC26E
:10106000883009F069C51BC38A3021F08B3009F044
:1010700063C5B1C48681882309F049C457C4F80107
:101080008785882369F194819295969597708581DB
:10109000880F880F880F890F8093F30093819295B2
:1010A000969597708481880F880F880F890F809399
:1010B000F20092819295969597708381880F880FA0
:1010C000880F890F8093F1008281880F880F880F25
:1010D0008093F000EFEEF0E080818061808316C0A5
:1010E000928196959695969583818295880F807EBC
:1010F000890F8093F30082818295880F807E809390
:10110000F200EFEEF0E080818F7E8083F80186812F
:10111000882379F080E02AEF30E0F801A781B085DC
:10112000A80FB11D9C91D9019C938F5F968189175F
:10113000A0F3F8018685882331F0E0EFF0E08081AC
:101140008460808305C0E0EFF0E080818B7F808346
:10115000EFEEF0E09081D80116968C911697892BCE
:10116000808380818F73808380818064808380E02E
:10117000EDC4F8018785882369F19481929596954D
:1011800097708581880F880F880F890F8093F300EF
:1011900093819295969597708481880F880F880F18
:1011A000890F8093F2009281929596959770838132
:1011B000880F880F880F890F8093F1008281880F34
:1011C000880F880F8093F000EFEEF0E0808180615F
:1011D000808316C092819695969596958381829587
:1011E000880F807E890F8093F30082818295880F1B
:1011F000807E8093F200EFEEF0E080818F7E80832E
:10120000F8018681882379F080E02AEF30E0F80148
:10121000A781B085A80FB11D9C91D9019C938F5FC8
:1012200096818917A0F3F8011686E0EFF0E080813F
:101230008B7F8083EFEEF0E09081D80116968C9141
:101240001697892B808380818F738083808180644F
:10125000808380E07BC4F8018785882369F19481CD
:101260009295969597708581880F880F880F890FC2
:101270008093F30093819295969597708481880F5F
:10128000880F880F890F8093F2009281929596952E
:1012900097708381880F880F880F890F8093F100E2
:1012A0008281880F880F880F8093F000EFEEF0E0C6
:1012B00080818061808316C09281969596959695DF
:1012C00083818295880F807E890F8093F3008281CD
:1012D0008295880F807E8093F200EFEEF0E08081AF
:1012E0008F7E808381E0F8018687E0EFF0E08081E7
:1012F00084608083EFEEF0E09081D80116968C91A7
:101300001697892B808380818F738083808180648E
:10131000808380E01BC48FEF9FEFDC0189839A8379
:10132000AB83BC839B819295969597708C81880F37
:10133000880F880F890F8093F7009A819295969570
:1013400097708B81880F880F880F890F8093F60024
:1013500099819295969597708A81880F880F880F4A
:10136000890F8093F5008981880F880F880F24EFFB
:1013700030E0F9018083EFEEF0E09081D80116961D
:101380008C91892B8083D9018C918B7F8C938C914C
:101390008E7F8C9380818F7380838081806880832F
:1013A00080E0D4C3F8018785882369F19481929500
:1013B000969597708581880F880F880F890F809385
:1013C000F30093819295969597708481880F880F8A
:1013D000880F890F8093F20092819295969597706D
:1013E0008381880F880F880F890F8093F100828195
:1013F000880F880F880F8093F000EFEEF0E0808177
:101400008061808316C0928196959695969583818A
:101410008295880F807E890F8093F3008281829568
:10142000880F807E8093F200EFEEF0E080818F7E67
:1014300080838FEF9FEFDC0189839A83AB83BC832A
:101440009B819295969597708C81880F880F880F55
:10145000890F8093F7009A819295969597708B816A
:10146000880F880F880F890F8093F60099819295D5
:10147000969597708A81880F880F880F890F8093BF
:10148000F5008981880F880F880F44EF50E0FA013A
:101490008083EFEEF0E09081D80116968C9116973C
:1014A000892B80831E961C92DA018C9184608C9328
:1014B00080EF90E0DC012C912B7F2C93DA018C9152
:1014C00081608C9380818F7380838081806880832A
:1014D00080E03CC38FEF9FEFDC0189839A83AB836D
:1014E000BC839B819295969597708C81880F880F0D
:1014F000880F890F8093F7009A819295969597703F
:101500008B81880F880F880F890F8093F60099814F
:101510009295969597708A81880F880F880F890F0A
:101520008093F5008981880F880F880F44EF50E081
:10153000FA018083EFEEF0E09081D80116968C914D
:101540001697892B808381E01E968C93DA018C910B
:1015500084608C9380EF90E0DC012C9124602C93CC
:1015600080818F7D8083DA018C918E7F8C93808146
:101570008F73808380818068808380E0E7C2F80178
:101580008785882369F194819295969597708581D6
:10159000880F880F880F890F8093F30093819295AD
:1015A000969597708481880F880F880F890F809394
:1015B000F20092819295969597708381880F880F9B
:1015C000880F890F8093F1008281880F880F880F20
:1015D0008093F000EFEEF0E080818061808316C0A0
:1015E000928196959695969583818295880F807EB7
:1015F000890F8093F30082818295880F807E80938B
:10160000F200EFEEF0E080818F7E8083C8010E94BF
:101610009C07DC01CB0189839A83AB83BC839B81CC
:101620009295969597708C81880F880F880F890FF7
:101630008093F7009A819295969597708B81880F89
:10164000880F880F890F8093F6009981929596955F
:1016500097708A81880F880F880F890F8093F50013
:101660008981880F880F880F24EF30E0F90180838B
:10167000EFEEF0E09081D80116968C91892B808353
:10168000D9018C918B7F8C938C9181608C9380811C
:101690008F73808380818068808380E057C2F801E7
:1016A0008785882369F194819295969597708581B5
:1016B000880F880F880F890F8093F300938192958C
:1016C000969597708481880F880F880F890F809373
:1016D000F20092819295969597708381880F880F7A
:1016E000880F890F8093F1008281880F880F880FFF
:1016F0008093F000EFEEF0E080818061808316C07F
:10170000928196959695969583818295880F807E95
:10171000890F8093F30082818295880F807E809369
:10172000F200EFEEF0E080818F7E8083C8010E949E
:101730009C07DC01CB0189839A83AB83BC839B81AB
:101740009295969597708C81880F880F880F890FD6
:101750008093F7009A819295969597708B81880F68
:10176000880F880F890F8093F6009981929596953E
:1017700097708A81880F880F880F890F8093F500F2
:101780008981880F880F880F44EF50E0FA01808329
:10179000EFEEF0E09081D80116968C911697892B88
:1017A00080831E961C92DA018C9184608C9380EF6A
:1017B00090E0DC012C912B7F2C93DA018C918160DD
:1017C0008C9380818F73808380818068808380E0A8
:1017D000BDC1F8018785882369F19481929596951A
:1017E00097708581880F880F880F890F8093F30089
:1017F00093819295969597708481880F880F880FB2
:10180000890F8093F20092819295969597708381CB
:10181000880F880F880F890F8093F1008281880FCD
:10182000880F880F8093F000EFEEF0E080818061F8
:10183000808316C092819695969596958381829520
:10184000880F807E890F8093F30082818295880FB4
:10185000807E8093F200EFEEF0E080818F7E8083C7
:10186000C8010E949C07DC01CB0189839A83AB836A
:10187000BC839B819295969597708C81880F880F79
:10188000880F890F8093F7009A81929596959770AB
:101890008B81880F880F880F890F8093F6009981BC
:1018A0009295969597708A81880F880F880F890F77
:1018B0008093F5008981880F880F880F44EF50E0EE
:1018C000FA018083EFEEF0E09081D80116968C91BA
:1018D0001697892B808381E01E968C93DA018C9178
:1018E00084608C9380EF90E0DC012C9124602C9339
:1018F00080818F7D8083DA018C9181608C938081DF
:101900008F73808380818068808380E01FC180E046
:101910002AEF30E0F801A781B085A80FB11D9C9196
:10192000D9019C938F5F96818917A0F38FEF9FEF6A
:10193000DC0189839A83AB83BC839B8192959695C6
:1019400097708C81880F880F880F890F8093F7001C
:101950009A819295969597708B81880F880F880F42
:10196000890F8093F60099819295969597708A8158
:10197000880F880F880F890F8093F5008981880F61
:10198000880F880F44EF50E0FA018083EFEEF0E01B
:101990009081D80116968C911697892B808381E0CF
:1019A0001E968C93DA018C9184608C9380EF90E08A
:1019B000DC012C9124602C93808180628083DA0189
:1019C0008C918E7F8C9380818F73808380818068DF
:1019D000808380E0BBC0F8018785882369F194810A
:1019E0009295969597708581880F880F880F890F3B
:1019F0008093F30093819295969597708481880FD8
:101A0000880F880F890F8093F200928192959695A6
:101A100097708381880F880F880F890F8093F1005A
:101A20008281880F880F880F8093F000EFEEF0E03E
:101A300080818061808316C0928196959695969557
:101A400083818295880F807E890F8093F300828145
:101A50008295880F807E8093F200EFEEF0E0808127
:101A60008F7E8083F8018681882379F080E02AEFD9
:101A700030E0F801A781B085A80FB11D9C91D90174
:101A80009C938F5F96818917A0F3C8010E949C07E1
:101A9000DC01CB0189839A83AB83BC839B819295C4
:101AA000969597708C81880F880F880F890F809387
:101AB000F7009A819295969597708B81880F880F81
:101AC000880F890F8093F60099819295969597706B
:101AD0008A81880F880F880F890F8093F50089818C
:101AE000880F880F880F44EF50E0FA018083EFEEF3
:101AF000F0E09081D80116968C911697892B8083FF
:101B000081E01E968C93DA018C9184608C9380EF37
:101B100090E0DC012C9124602C9380818062808392
:101B2000DA018C9181608C9380818F7380838081B6
:101B30008068808380E00AC0F801118680E006C0DA
:101B40008FE1D80119968C9319978FEF0F900F9012
:101B50000F900F90DF91CF911F910F910895EF9209
:101B6000FF921F93CF93DF93EC018985882309F4BB
:101B700096C08F3109F495C08F3F09F494C08881D5
:101B80008295807F8093ED000E944305182F80325C
:101B900061F0813220F4882309F487C076C0803454
:101BA00009F468C0803A09F070C00F2EFFEEEF2EE6
:101BB000FF24F02DF70180818F708E838F819885AF
:101BC0000E9456058091F00090E084709070959589
:101BD0008795959587958E87F701808184FF2DC025
:101BE00081E08F87E3EFF0E080818695869586958A
:101BF0008D83A2EFB0E08C9190819295990F907EA9
:101C0000869586958695890F8C83E1EFF0E080813B
:101C10009C919295990F907E869586958695890FD1
:101C20008B838091F00090819295990F907E86959C
:101C300086958695890F8A8313C01F86E3EFF0E0AF
:101C400080818295869587708B838091F200908148
:101C5000990F990F990F829586958770890F8A83BE
:101C60001987EFEEF0E080818F7380831092EE0091
:101C700080E01CC080E48987EFEEF0E080818F7304
:101C800080831092EE0080E011C01987EFEEF0E043
:101C900080818F7380831092EE0082E007C082E023
:101CA00005C082E003C082E001C081E0DF91CF91F6
:101CB0001F91FF90EF900895CF93FC01362FC4E65B
:101CC000862F6C2F0E949C1B8E5C8083BEE2B183AA
:101CD0005AE0832F652F0E949C1B392F0E949C1B6A
:101CE000905D9283305D3383A6E5A48330E2358333
:101CF0003683842F6C2F0E949C1B8E5C8783B08759
:101D0000842F652F0E949C1B492F0E949C1B905D75
:101D10009187405D4287A387348735873687822F36
:101D20006C2F0E949C1B8E5C8787B08B822F652F47
:101D30000E949C1B292F0E949C1B905D918B205D13
:101D4000228BA38BCF9108951F93CF93DF93CDB7B1
:101D5000DEB764970FB6F894DEBF0FBECDBF582F25
:101D6000192F462FCE010196E0E0F1E024E1019029
:101D7000DC010D92CD012150D1F7842F6AE00E9441
:101D80009C1BB82F6BE00E949C1B292F30E0121681
:101D9000130644F020E030E0FE01E20FF31F359619
:101DA0008AE20FC0FE013596BF01690F711DCB019C
:101DB00066E16193E817F907E1F72A30310564F32A
:101DC00006C081932F5F3F4F2A303105D4F344562C
:101DD000443630F4FE01E20FF31F81E3868305C031
:101DE000FE01E20FF31F80E28683FE01E20FF31F84
:101DF0008B2F6AE00E949C1B905D9783FE01E20F8F
:101E0000F31F80E3808785E28187E52FF12FDE01D4
:101E1000119684E10D9001928150E1F764960FB61E
:101E2000F894DEBF0FBECDBFDF91CF911F91089513
:101E3000FC01862F30E230835AE0652F0E949C1B04
:101E4000A92F0E949C1B905D9183A05DA283B0EBA3
:101E5000B383A3E4A483358336833783842F0E941E
:101E60009C1B492F0E949C1B905D9087405D418781
:101E7000B287A3873487358736873787822F0E94BA
:101E80009C1B292F0E949C1B905D908B205D218BB9
:101E9000B28BA38B0895FC01462F20E2208321837F
:101EA00022832383248325832683862F64E60E944E
:101EB0009C1B805D87833AE0842F632F0E949C1BCC
:101EC000492F0E949C1B905D90878EE28187405D28
:101ED000428786E583872487258726872787208B67
:101EE000218B228B238B0895CF93FC01262F54E660
:101EF000862F652F0E949C1BA82FA05D3AE0822FA1
:101F0000632F0E949C1B0E949C1BB92FB05D842FE5
:101F1000652F0E949C1B582F505D842F632F0E94B9
:101F20009C1B0E949C1BC92FC05DA03331F4B033B1
:101F300011F0A0E202C0B0E2A0E2503331F4C033AD
:101F400011F050E202C0C0E250E230E23083A183DF
:101F5000B283BAE0822F6B2F0E949C1B905D93830B
:101F6000A0EBA48323E4258336833783308731872E
:101F700032873387348735875687C787842F0E94F7
:101F80009C1B905D908BA18B228B338BCF910895FE
:101F90001F93CF93DF93EC01362F3A503A3018F06D
:101FA000362F10E001C011E0E32FF0E0E65BFF4FB9
:101FB000EE0FFF1F0590F491E02D0994FE01ACE7B0
:101FC000B7E084E10D9001928150E1F78BC1FE01F1
:101FD000A8E6B7E084E10D9001928150E1F782C15B
:101FE000FE01A0E4B7E084E10D9001928150E1F799
:101FF00079C1FE01ACE2B7E084E10D90019281501D
:10200000E1F770C1FE01A8E1B7E084E10D90019213
:102010008150E1F767C1FE01ACE8B6E084E10D90C4
:1020200001928150E1F75EC1FE01A4E0B7E084E1D6
:102030000D9001928150E1F755C1FE01A0EFB6E08D
:1020400084E10D9001928150E1F74CC1FE01ACEDAD
:10205000B6E084E10D9001928150E1F743C1FE01A9
:10206000A8ECB6E084E10D9001928150E1F73AC10D
:10207000FE01A4E1B6E084E10D9001928150E1F708
:1020800031C1FE01A0E0B6E084E10D9001928150E3
:10209000E1F728C1FE01ACEEB5E084E10D900192BC
:1020A0008150E1F71FC1FE01A8EDB5E084E10D907C
:1020B00001928150E1F716C1FE01A0E5B6E084E18E
:1020C0000D9001928150E1F70DC1FE01ACE3B6E045
:1020D00084E10D9001928150E1F704C1FE01A8E274
:1020E000B6E084E10D9001928150E1F7FBC0FE0162
:1020F000A4ECB5E084E10D9001928150E1F7F2C0CB
:10210000FE01A0EBB5E084E10D9001928150E1F772
:10211000E9C0FE01ACE9B5E084E10D900192815087
:10212000E1F7E0C0FE01A8E8B5E084E10D9001927E
:102130008150E1F7D7C0FE01A4E7B5E084E10D903E
:1021400001928150E1F7CEC0FE01A0E6B5E084E146
:102150000D9001928150E1F7C5C0FE01ACE4B5E0FD
:1021600084E10D9001928150E1F7BCC0FE01A8E32B
:10217000B5E084E10D9001928150E1F7B3C0FE011A
:10218000A4E2B5E084E10D9001928150E1F7AAC08C
:10219000FE01ACEFB4E084E10D9001928150E1F7D3
:1021A000A1C0FE01A8EEB4E084E10D90019281503F
:1021B000E1F798C0FE01A0E1B5E084E10D90019245
:1021C0008150E1F78FC0FE01A4EDB4E084E10D90F1
:1021D00001928150E1F786C0FE01A0ECB4E084E1F9
:1021E0000D9001928150E1F77DC0FE01ACEAB4E0B0
:1021F00084E10D9001928150E1F774C0FE01A8E9DD
:10220000B4E084E10D9001928150E1F76BC0FE01D2
:10221000A4E8B4E084E10D9001928150E1F762C03E
:10222000FE01A0E7B4E084E10D9001928150E1F756
:1022300059C0FE01ACE5B4E084E10D9001928150FB
:10224000E1F750C0FE01A8E4B4E084E10D900192F2
:102250008150E1F747C0FE01A4E3B4E084E10D90B2
:1022600001928150E1F73EC0FE01A0E2B4E084E1BA
:102270000D9001928150E1F735C0FE01ACE0B4E071
:1022800084E10D9001928150E1F72CC0FE01A8EF8E
:10229000B3E084E10D9001928150E1F723C0FE018B
:1022A000A0EDB3E084E10D9001928150E1F71AC0F6
:1022B000FE01ACEBB3E084E10D9001928150E1F7B7
:1022C00011C0FE01A4EEB3E084E10D9001928150B3
:1022D000E1F708C0FE01A4E5B7E084E10D900192AA
:1022E0008150E1F7112311F08BE28B8B832F885102
:1022F000863040F4DE01E0EAF6E084E101900D92E0
:102300008150E1F7832F6AE00E949C1B282F482F01
:1023100050E0CA01880F991FAC01440F551F440FAC
:10232000551F840F951F8832910579F082339105EE
:10233000A9F08E319105D1F4DE01E8E7F6E084E101
:1023400001900D928150E1F711C0DE01E4E6F6E064
:1023500084E101900D928150E1F708C0DE01E4E6CE
:10236000F6E084E101900D928150E1F7832F64E65D
:102370000E949C1B805D8983112319F081E38A836D
:1023800006C0822F6AE00E949C1B905D9A83832F77
:102390006AE00E949C1B905D9B83DF91CF911F910F
:1023A0000895FC01E60FF11D405D40830895CF9331
:1023B000DF93CDB7DEB764970FB6F894DEBF0FBEDC
:1023C000CDBFDE011196E4E1F1E024E101900D9230
:1023D0002150E1F7E82FF92FDE01119684E10D90ED
:1023E00001928150E1F764960FB6F894DEBF0FBEFC
:1023F000CDBFDF91CF910895623021F1633030F489
:10240000662361F0613009F044C012C0643071F19C
:10241000643010F1653009F03CC032C0E82FF92F6C
:10242000ACE8B1E084E10D9001928150E1F70895AC
:10243000E82FF92FA8E7B1E084E10D9001928150D7
:10244000E1F70895E82FF92FA0EAB1E084E10D90BB
:1024500001928150E1F70895E82FF92FA0E5B1E04E
:1024600084E10D9001928150E1F70895E82FF92F52
:10247000ACE3B1E084E10D9001928150E1F7089561
:10248000E82FF92FA4E6B1E084E10D90019281508C
:10249000E1F708950F931F93CF93DF93CDB7DEB786
:1024A00064970FB6F894DEBF0FBECDBF8C016536C2
:1024B00088F544E6461B9E012F5F3F4FA8E2B1E03E
:1024C00084E10D90F90101929F018150D1F79801AB
:1024D000DE01119684E10D90F90101929F01815076
:1024E000D1F72AE0862F622F0E949C1B392F0E9471
:1024F0009C1B892F805DF8018183305D3283842F9E
:102500000E949C1B392F0E949C1B892F805D808B11
:10251000305D318B64960FB6F894DEBF0FBECDBF31
:10252000DF91CF911F910F910895CF92DF92FF928B
:102530000F931F93CF93DF93CDB7DEB764970FB69A
:10254000F894DEBF0FBECDBF6C01309197070091AC
:10255000980710919907832F64E60E949C1B482FCF
:10256000405D2AE0832F622F0E949C1B392F0E941E
:102570009C1B592F505D0F2EF0E3FF2EF02DF30E14
:10258000403331F4503311F040E202C050E240E2F7
:102590009E012F5F3F4F84E1D9011D928A95E9F793
:1025A000D60184E1F90101909F010D928150D1F78C
:1025B00086E5D6018C93A4E6802F6A2F0E949C1B8F
:1025C0008E5CF60181833EE232832AE0802F622F07
:1025D0000E949C1BB92F0E949C1B905D9383B05D51
:1025E000B4838FE28583812F6A2F0E949C1B8E5CAF
:1025F00086833783812F622F0E949C1B392F0E9474
:102600009C1B905D9087305D318780E2828783E5F7
:1026100083878FE4848783E485878AE38687478777
:10262000508BF18A85E2828B64960FB6F894DEBFF8
:102630000FBECDBFDF91CF911F910F91FF90DF9023
:10264000CF9008951F93CF93DF93FC01409194079F
:10265000A091950750919607842F64E60E949C1BD9
:10266000282F205D3AE0842F632F0E949C1B192F96
:102670000E949C1BB92FB05D105D203331F4B03344
:1026800011F020E202C0B0E220E28A2F64E60E944C
:102690009C1B382F305D4AE08A2F642F0E949C1BC0
:1026A000D92F0E949C1BA92FA05DD05D303331F43F
:1026B000A03311F030E202C0A0E230E2852F64E6E0
:1026C0000E949C1BC82FC05D4AE0852F642F0E948A
:1026D0009C1B592F0E949C1B905D505D203331F450
:1026E000B03311F020E202C0B0E220E281E4808346
:1026F0004AE341832283B383148380E28583868304
:102700002DE4278340873187A287D38784878587F5
:1027100029E426874787C08B918B528B838BDF916F
:10272000CF911F910895CF93C82F15988AEF0E94DB
:1027300068198C2F0E946819159ACF910895CF932C
:10274000C82F159888EF0E9468198C2F0E9468196D
:10275000159ACF910895EF92FF920F931F93CF9305
:10276000DF93D82FC92FF62EE72E82E00E949F1309
:102770000D2F1C2FC0E0D0E0F80181918F010E9445
:1027800093132196C431D105B9F7C4E1D0E084E1B7
:102790000E949F132197D9F70F2D1E2DC0E0D0E086
:1027A000F80181918F010E9493132196C431D105C4
:1027B000B9F7DF91CF911F910F91FF90EF9008959E
:1027C000AF92BF92CF92DF92EF92FF920F931F933F
:1027D000CF93DF93C62FE42EF22EE82FF0E0E533FF
:1027E000F10508F00DC1E65BFE4FEE0FFF1F0590EF
:1027F000F491E02D0994C0E4D2E0CE010E94D711FB
:1028000088EA93E0BE010E94AB13FAC080E492E034
:102810006C2D70E00E94C80F83E68C1538F480E8B8
:1028200093E060E472E00E94AB13EAC084E993E0B5
:1028300060E472E00E94AB13E3C0623061F0633089
:10284000B9F0613009F0DCC084EA92E060E972E03E
:102850000E94AB13D5C0C0E4D2E0CE01642F70E07B
:102860000E94A40E8CE792E0BE010E94AB13C8C088
:10287000C0E4D2E0CE010E94D71188E692E0BE010A
:102880000E94AB13BDC00F2EF0E4CF2EF2E0DF2E7E
:10289000F02DC60170E050E030E010E00E9495128B
:1028A0000F2EFCE2AF2EF2E0BF2EF02DC5016C2FF3
:1028B00070E04E2D50E02F2D30E00E942213C60113
:1028C000B5010E94AB139CC000E412E0C80170E0A7
:1028D00050E030E00E945C0E88E593E0B8010E9471
:1028E000AB138EC000E412E0C80170E050E030E0AD
:1028F0000E94180F84E493E0B8010E94AB1380C0DB
:1029000000E412E0C80170E00E944B0F80E393E006
:10291000B8010E94AB1374C000E412E0C80170E07B
:1029200050E00E94740F80EE92E0B8010E94AB1359
:1029300067C000E412E0C80170E050E00E94740F2C
:1029400084EF92E0B8010E94AB135AC000E412E099
:10295000C80170E00E94A40E88E093E0B8010E94D4
:10296000AB134EC000E412E0C80170E00E94A40E58
:102970008CE193E0B8010E94AB1342C000E412E086
:10298000C80170E00E94A40E8CEC92E0B8010E9495
:10299000AB1336C000E412E0C80170E00E94A40E40
:1029A00088EB92E0B8010E94AB132AC000E412E069
:1029B000C80170E00E94D11184E592E0B8010E9444
:1029C000AB131EC088E192E064E072E00E94AB139A
:1029D00017C000E412E0C80170E00E94FC1184EB13
:1029E00091E0B8010E94AB130BC000E412E0C801F3
:1029F00070E00E944A128CED91E0B8010E94AB1386
:102A0000DF91CF911F910F91FF90EF90DF90CF90CA
:102A1000BF90AF900895CF92EF920F938EE10E94F6
:102A200052198CB58F778CBD8CB580618CBD10929E
:102A300035080D9A159A8CE00E949F1388E30E9436
:102A40009F1380E060E040E020E000E0EE24CC2432
:102A50000E94E0138FEF8093F2070F91EF90CF90D9
:102A60000895E82FF92FA3EFB7E084E10D900192CC
:102A70008150E1F70895FC01362F862F64E60E940D
:102A80009C1B482F405D2AE0832F622F0E949C1BD5
:102A90000E949C1B905D403331F4903311F040E272
:102AA00002C090E240E220E220832183228323833C
:102AB000248325832683278340879187832F6AE099
:102AC0000E949C1B905D928785E2838724872587DF
:102AD00026872787208B218B228B238B089580913B
:102AE00035088C3051F49091F2079F3F31F090936C
:102AF00035088FEF8093F20703C08F5F809335080E
:102B0000809135086FE00E949C1B909335089923B3
:102B100019F481E08093350808958091350882305A
:102B200020F48EE08093350808958C3051F4909114
:102B3000F2079F3F31F0909335088FEF8093F207B3
:102B400008958150809335080895CF93DF93682FBF
:102B5000C0E4D2E0CE010E943B1580EF91E0BE01BF
:102B60000E94AB13DF91CF910895FC01262F34E62C
:102B7000862F632F0E949C1BA82FA05D5AE0822FF6
:102B8000652F0E949C1B0E949C1BB92FB05D842F57
:102B9000632F0E949C1B582F505DA03331F4B0333B
:102BA00011F0A0E202C0B0E2A0E2503309F450E21A
:102BB00030E23083A183B283BAE0822F6B2F0E9470
:102BC0009C1B905D9383A0EBA48323E42583368331
:102BD0003783308731873287338734873587568705
:102BE0005787842F0E949C1B905D908BA18B228B1A
:102BF000338B089590939B0780939A070E94921BB2
:102C00000895E0919A07F0919B079081892B80832A
:102C10000895E0919A07F0919B0710820895109211
:102C2000BB081092BC080895CF93DF93E82FC091A2
:102C3000BB08D0E0CE01019660E170E00E94A81BC5
:102C40004091BC0850E08417950731F0C555D74F27
:102C5000E8838093BB0803C080E10E940116DF91E6
:102C6000CF9108958091BC089091BB08981731F0DE
:102C7000EBEAF8E0E80FF11D808108958BE00895FC
:102C8000CF92EF920F93CF93DF938091BC08EBEA42
:102C9000F8E0E80FF11D8081863009F44FC08730DD
:102CA00040F4813099F1813088F0843009F014C10A
:102CB00025C0883009F470C0883008F46AC08930B3
:102CC00009F470C08A3009F007C16FC08CE997E041
:102CD0006CEA77E042E055E028E00E942104C4EB72
:102CE000D7E0CE0164EC77E041E055E021E00E94BE
:102CF00021047894CE010E943204EEC08091D9075D
:102D0000882309F0E9C00E948119E6C08091D907A3
:102D1000813009F0E1C00E9408038091350880935A
:102D2000AC07809191078093AD07809190078093C5
:102D3000AE078CE997E00E949804CEC08091D90735
:102D4000813009F0C9C0809192078823F9F0809101
:102D50009307833040F40E94990380919307815038
:102D60008093930703C081508093930780919307CA
:102D7000882309F0B1C084E0809393070E949703F1
:102D800080919207815080939207A6C00E94990378
:102D9000A3C00E94EA04A0C00E94EA0488E00E9446
:102DA00001169AC00E94C90497C08091D90781304A
:102DB00009F092C084EB97E00E944004D091C607CE
:102DC000E4ECF7E0C081C180C0FF04C080E00E9455
:102DD000931703C080E00E94CB178C2F869580FF4D
:102DE00004C08AE00E94931703C08AE00E94CB17B8
:102DF0008C2F8695869580FF04C082E00E949317F1
:102E000003C082E00E94CB178C2F8695869586950D
:102E100080FF04C083E00E94931703C083E00E94F8
:102E2000CB178C2F82958F7080FF04C084E00E94A6
:102E3000931703C084E00E94CB178C2F8295869550
:102E4000877080FF07C080919207882309F044C0F3
:102E50000E949B03C295C695C695C370C0FF04C06F
:102E600081E00E94931703C081E00E94CB1781E0AC
:102E700090915C089C1509F480E08823E1F081E0E2
:102E8000CC2009F480E08823B1F0C0925C088091E6
:102E900035088093F2078CE0809335086091C7076E
:102EA0004091C8072091C9070091CA07E090CB075D
:102EB0000E94E01311C080913508D81769F48D2F56
:102EC0006091C7074091C8072091C9070091CA07C0
:102ED000E090CB070E94E013DF91CF910F91EF902C
:102EE000CF9008959091BB088091BC08981761F02D
:102EF0000E9440168091BC0890E0019660E170E06D
:102F00000E94A81B8093BC080895579A099A0B9AAF
:102F10000C9A9A9A3C9A389A999A989A399A0A9A53
:102F20000E94031808958C30A8F5853091F1863001
:102F300070F4823031F1833028F4882341F18130FC
:102F400049F513C0833009F1843021F51CC0883065
:102F500091F0893028F4863051F08730D9F409C0D7
:102F6000893059F08A30B1F40AC05F9A0895119AF5
:102F70000895139A0895149A0895A29A0895449A68
:102F80000895409A0895A19A0895A09A0895419AA3
:102F90000895129A08958C30A8F5853091F1863005
:102FA00070F4823031F1833028F4882341F181308C
:102FB00049F513C0833009F1843021F51CC08830F5
:102FC00091F0893028F4863051F08730D9F409C067
:102FD000893059F08A30B1F40AC05F980895119889
:102FE00008951398089514980895A2980895449800
:102FF000089540980895A1980895A098089541983B
:10300000089512980895CF93C0E08C2F0E94CB179B
:10301000CF5FCC30D1F7CF9108958C3008F079C0D4
:10302000853059F1863098F4823009F44FC08330EE
:1030300038F4882309F45DC0813009F069C018C0F4
:10304000833009F450C0843009F062C045C0883034
:1030500069F1893038F4863009F452C0873009F0BC
:1030600057C013C08930D1F08A3009F051C026C052
:1030700081E05F994EC080E0089592B1969581E01D
:10308000913009F446C080E0089592B196959695E6
:10309000969581E09130E9F180E0089592B19295A2
:1030A0009F7081E09130A9F180E0089594B39695E6
:1030B000969581E0913069F180E0089598B19295FC
:1030C0009F7081E0913029F180E0089598B181E00E
:1030D0009130F9F080E0089594B3969581E09130B5
:1030E000C1F080E0089594B381E0913091F080E0E8
:1030F000089598B1969581E0913059F080E0089557
:1031000092B19695969581E0913019F080E00895FE
:1031100008950895CF93C82F0E940D18882321F099
:103120008C2F0E94CB1703C08C2F0E949317CF9136
:103130000895EF92FF920F931F93CF93DF937C013B
:10314000C0E0D0E001E010E08C2F98010C2E02C00E
:10315000220F331F0A94E2F72E213F21211531055A
:1031600011F00E9493172196CB30D10569F7DF91BA
:10317000CF911F910F91FF90EF9008950F931F93A0
:10318000CF93DF93C0E0D0E08C2F0E940D1890E029
:103190000C2E02C0880F991F0A94E2F7082B192BF6
:1031A0002196CB30D10581F7802F912FDF91CF91E0
:1031B0001F910F910895CF93C82F833110F40E946F
:1031C0000318C43130F082E00E94931788E00E9417
:1031D0009317C83230F08AE00E94931789E00E946A
:1031E0009317CC3330F080E00E94931787E00E9461
:1031F0009317C03530F083E00E94931785E00E945A
:103200009317C43630F084E00E94931786E00E9442
:103210009317CF910895089511B814B887B18076A7
:1032200087B98FEF8AB91DB810BA93B3907E93BB5C
:1032300082B985B988B99BB19F699BB98EB981BBA9
:1032400084B38F6184BB08951092D9070E940C1932
:1032500084E00E940E1B0E94080482E060E00E944D
:103260001C1B83E060E00E94211B0E94261B0E9421
:10327000561B0E9494030E94761B0E9485170E9491
:10328000E7020E940B150E944B190E94861B80E0EA
:103290000E9414160895529A5A9808955A9A0895B9
:1032A0005A980895209A209A94B1966094B99CB542
:1032B000907C9CBD9CB58F73892B8CBD8DB58DBDCD
:1032C0008CB580648CBD81E008958DB580780895BB
:1032D0008EBD0DB407FEFDCF08950DB407FEFDCFE2
:1032E0008EB508950DB407FEFDCF8EBD08951F92D3
:1032F0000F920FB60F9211240F900FBE0F901F90D8
:103300001895CF92EF920F93CF932091CC072F5F18
:103310002093CC07822F66E00E949C1B9923E9F43E
:10332000C6E0822F0E949C1B880F982F990F990F3F
:10333000890F0E94A5158091CC076C2F0E949C1BC1
:10334000282F30E0220F331FC901880F991F880FE3
:10335000991F820F931F0E94DB188091CC07813444
:1033600080F081E08093D9071092350880E060E01A
:1033700040E020E000E0EE24CC240E94E0130E9414
:103380000318CF910F91EF90CF9008951F920F9255
:103390000FB60F9211242F933F934F935F936F9328
:1033A0007F938F939F93AF93BF93EF93FF9388E0A7
:1033B0000E94141614BCFF91EF91BF91AF919F91A1
:1033C0008F917F916F915F914F913F912F910F90CE
:1033D0000FBE0F901F9018951F920F920FB60F926D
:1033E00011242F933F934F935F936F937F938F930A
:1033F0009F93AF93BF93EF93FF93E8E8F0E0808152
:103400009181805D9A489183808381E00E941416A7
:10341000FF91EF91BF91AF919F918F917F916F91AC
:103420005F914F913F912F910F900FBE0F901F9082
:1034300018951F920F920FB60F9211242F933F935E
:103440004F935F936F937F938F939F93AF93BF93AC
:10345000EF93FF93EAE8F0E080819181805A9541F3
:103460009183808382E00E941416FF91EF91BF91B7
:10347000AF919F918F917F916F915F914F913F910C
:103480002F910F900FBE0F901F9018951F920F92C3
:103490000FB60F9211242F933F934F935F936F9327
:1034A0007F938F939F93AF93BF93EF93FF93ECE83A
:1034B000F0E0808191818856954C9183808383E0F0
:1034C0000E941416FF91EF91BF91AF919F918F9140
:1034D0007F916F915F914F913F912F910F900FBE10
:1034E0000F901F9018951F920F920FB60F921124F4
:1034F0002F933F934F935F936F937F938F939F93FC
:10350000AF93BF93EF93FF93E8E9F0E0808191815F
:103510008059964B9183808384E00E941416FF911A
:10352000EF91BF91AF919F918F917F916F915F913B
:103530004F913F912F910F900FBE0F901F901895B4
:103540001F920F920FB60F9211242F933F934F9318
:103550005F936F937F938F939F93AF93BF93EF93FB
:10356000FF93EAE9F0E08081918180529D4691834A
:10357000808385E00E941416FF91EF91BF91AF9177
:103580009F918F917F916F915F914F913F912F917B
:103590000F900FBE0F901F9018951F920F920FB6AD
:1035A0000F9211242F933F934F935F936F937F93C9
:1035B0008F939F93AF93BF93EF93FF93ECE9F0E06A
:1035C0008081918180599C4E9183808386E00E9406
:1035D0001416FF91EF91BF91AF919F918F917F91C1
:1035E0006F915F914F913F912F910F900FBE0F9070
:1035F0001F9018951F920F920FB60F9211240F90E3
:103600000FBE0F901F9018951F920F920FB60F923A
:1036100011240F900FBE0F901F9018958093CD0727
:1036200014BC81E080936E00089516BC8091CD0794
:1036300084BD089514BC08958093810060936F0049
:1036400008958093910060937100089580918400A3
:1036500090918500805D9A489093890080938800BE
:10366000EFE6F0E08081826080830895809184009D
:1036700090918500805A954190938B0080938A00A9
:10368000EFE6F0E08081846080830895809184007B
:10369000909185008856954C90938D0080938C0076
:1036A000EFE6F0E080818860808308958091940047
:1036B000909195008059964B909399008093980033
:1036C000E1E7F0E08081826080830895809194003A
:1036D0009091950080529D4690939B0080939A0014
:1036E000E1E7F0E080818460808308958091940018
:1036F0009091950080599C4E90939D0080939C00E2
:10370000E1E7F0E080818860808308952BE088E124
:1037100090E00FB6F894A895809360000FBE2093B8
:103720006000089504B603FE06C084B7877F84BF97
:1037300080E20E9401160895991B79E004C0991F48
:10374000961708F0961B881F7A95C9F780950895FB
:1037500097FB092E07260AD077FD04D00CD006D09F
:1037600000201AF4709561957F4F0895F6F79095B3
:1037700081959F4F0895AA1BBB1B51E107C0AA1F4B
:10378000BB1FA617B70710F0A61BB70B881F991F02
:103790005A95A9F780959095BC01CD010895F894AC
:0237A000FFCF59
:1037A200202020204142434445464748494A2020A0
:1037B2002020202020202020202020202020202007
:1037C200202020202020202020616225202020206F
:1037D200202020202020202063642520202020205B
:1037E2003E5052494E434553532050454143482091
:1037F200202020203E444F4E4B45592D4B4F4E47E3
:1038020020202020202020203E424F575345522086
:103812002020202020202020202020203E4C5549FE
:103822004749202020202020202020202020202046
:103832003E4D4152494F2020202020202020202090
:10384200202020203E594F5348492020202020206C
:10385200202020202053454C45435420594F555297
:1038620020504C41594552204D415820494E564511
:103872005254455254454D50204156454C204252D7
:10388200414B452042414C414E434520202020528D
:103892003C3C2020205354415254494E472055501D
:1038A20020203E3E20202020202020204452495625
:1038B200452020202020202020202020202052458A
:1038C2004144592020544F20202020202020202015
:1038D20020202020202020202020202020202020E6
:1038E20020202020202020202020202020202020D6
:1038F200202020202020425554544F4E2050524523
:10390200535345442020202020203C3C474F212077
:10391200474F2120474F213E3E2020202041434354
:10392200454C45524154494F4E205245414459203D
:1039320020204E4F524D414C2044524956452020A2
:10394200202020202020414343454C4552415449E8
:103952004F4E204D4F4445202020544F5251554543
:103962002020564543544F52494E4720202054525E
:10397200414354494F4E20434F4E54524F4C202006
:1039820020204D4F544F522054454D502E20524529
:103992004152202020204D4F544F522054454D502B
:1039A2002E2046524F4E542020204D4F544F52202D
:1039B200544F5251554520524541522020204D4FDF
:1039C200544F5220544F525155452046524F4E5457
:1039D200202020204C5620564F4C54414745202051
:1039E20020202020204D494E202043454C4C544558
:1039F2004D5020204D4158204D494E202043454CEA
:103A02004C564F4C54414745204D41582020535469
:103A1200415445204F4620434841524745202020EB
:103A2200202020202020204D45535341474520206F
:103A320020202000202020202020204552524F52BA
:103A420020202020202000002020202020414D5A2C
:103A5200206772696D73656C2020202023585858A6
:103A62002020204C5620435249544943414C2020A7
:103A7200235858582020204C56204C4F57202020A5
:103A82002020202023585858202020424F4F5420D5
:103A92005550202020202020235858582020204DE7
:103AA20043204641494C20202020202023585858AA
:103AB2002020205052452043485247204641494C3D
:103AC200235858582020204D53204F50454E202037
:103AD2002020202023585858202020454E5245208F
:103AE2004641494C2020202023585858202050522B
:103AF200454348415247454F4E4C59202358585848
:103B02002020204D414E55414C204D432020202065
:103B120023585858202020524541445920322044ED
:103B2200524956452358585820205354415254491B
:103B32004E47204D43202020235858582020205003
:103B42005245434841524745442020202358585863
:103B52002020205052454348415247494E47202099
:103B620023585858202020434845434B204D53208A
:103B720020202020235858582020205354415254AA
:103B8200494E472054532020235858582041495227
:103B92006E204D454C54444F574E200023585858E0
:103BA2002041495270204D454C54444F574E2000FD
:103BB2002358585820414952726F722054657272CC
:103BC2006F72200023585858204D495353494E478D
:103BD200205348554E54200023585858204D4953DD
:103BE20053494E47204D432D522020002358585808
:103BF200204D495353494E47204D432D4C20200020
:103C020023585858204D495353494E47204D434D50
:103C12004142200023585858204D495353494E479A
:103C2200204D434D4C56420023585858204D49537D
:103C320053494E47204D434D4620200023585858A3
:103C4200204D495353494E47204D434D52202000A9
:103C5200235858582042524B465243452046414928
:103C62004C20200023585858205448524F54544551
:103C72004C204641494C200023585858204449536F
:103C82004348415247452054454D50002358585807
:103C920020424D53204F56455254454D502020004E
:103CA2002358585820424D53204F5645524355529F
:103CB200524E54002358585820424D5320554E44DA
:103CC2004552564F4C542E00235858582044434CCA
:103CD200494E4B20564F4C54204C4F57235858585E
:103CE200205348554E5420564F4C542E204C4F577B
:103CF2002358585820544F5420564F4C544147454E
:103D0200204C4F5723585858204D434D204552526E
:103D12004F5220202020200023585858204D432065
:103D22004552524F5220202020202000235858581C
:103D320020424D532052454C415920202020200042
:103D42002358585820424D53204552524F5220205A
:103D520020202000235858582042414452455155B2
:103D62004553542049442000235858582042524178
:103D72004B4520502E442E202020200023585858F6
:103D820020494D44462020202020202020202000B1
:103D92002358585820494D442020202020202020FC
:103DA20020202000235858582048564420494E5479
:103DB20045524C4F434B20002358585820424F54F1
:103DC2005320202020202020202020002358585833
:103DD2002050524520424F545320202020202000C2
:103DE200235858582050524520454E5245202020F5
:103DF200202020002358585820554E4B4E4F574EE6
:103E0200204552524F5220002358585820534320E5
:103E1200444F574E2020202020202000235858585D
:103E22002020204E4F4E45202020202020202020E0
:00000001FF
