:100000000C944A000C946A000C946A000C946A00E8
:100010000C946A000C946A000C946A000C946A00B8
:100020000C946A000C946A000C946A000C946A00A8
:100030000C946C0D0C949D0D0C94CE0D0C94920EA2
:100040000C94390D0C94430D0C94A7000C946A0089
:100050000C946A000C946A000C946A000C946A0078
:100060000C946A000C946A000C946A000C946A0068
:100070000C94FF0D0C94300E0C94610E0C949C0E9D
:100080000C946A000C946A000C946A000C946A0048
:100090000C946A0011241FBECFEFD0E1DEBFCDBFAC
:1000A00011E0A0E0B1E0E0E2FFE100E00BBF02C040
:1000B00007900D92A431B107D9F71BBE11E0A4E15E
:1000C000B1E001C01D92A23EB107E1F70E946C00B1
:1000D0000C948E0F0C94000081E090E00090690178
:1000E00002C0880F991F0A94E2F790918101892B31
:1000F000809381010E94110D0E948A0BFDCF109206
:100100008601109285010895089A0895109A08951D
:1001100010980895CF93C82F0E9486008C2F90E0EE
:1001200044E650E0849F9001859F300D949F300DF0
:1001300011241216130634F480E090E00196821721
:100140009307E1F70E948800CF91089508951F92C8
:100150000F920FB60F920BB60F9211242F933F936D
:100160004F935F936F937F938F939F93AF93BF93BF
:10017000CF93EF93FF93C091EE00C0FF08C089E0DA
:100180000E945E0BEEEEF0E080818E7F8083C6FFE2
:1001900008C08AE00E945E0BEEEEF0E080818F7B6B
:1001A0008083C5FF08C08BE00E945E0BEBEDF0E0A2
:1001B00080818F778083FF91EF91CF91BF91AF9135
:1001C0009F918F917F916F915F914F913F912F916F
:1001D0000F900BBE0F900FBE0F901F90189585E0EB
:1001E0000E94A6041092EE00EBEDF0E08081886B97
:1001F00080838FE78093DF008FEF8093DE00109283
:100200009201109294011092930110929601109213
:1002100095010895FC0170876783178616865383BE
:10022000428326838FEF97E0A0E0B0E08287938738
:10023000A487B5870895909396018093950125E052
:10024000FC01218380919501909196010E94BB044D
:1002500008950E94950AEBEDF0E08081806880832C
:1002600008959091920180919401981741F1E09145
:100270009501F0919601309741F08CE08183809157
:100280009501909196010E94BB04E0919401F0E0E9
:10029000EE0FFF1FE857FE4FA081B18182E011965B
:1002A0008C93808191810E94BB04882321F081E09E
:1002B0000E944B0B089581E0809393010895E09193
:1002C0009501F0919601309741F085E0818380910E
:1002D0009501909196010E94BB040895CF93DF93FE
:1002E000EC01E0919201F0E0CF01019665E070E051
:1002F0000E94670F2091940130E08217930749F024
:10030000EE0FFF1FE857FE4FD183C0838093920109
:1003100003C084E00E944B0B80919301882311F469
:100320000E943101DF91CF910895E0919401F0E0B6
:10033000EE0FFF1FE857FE4F808191810895E091F5
:100340009401F0E0EE0FFF1FE857FE4FA081B1814E
:100350008CE011968C93808191810E94BB04109255
:1003600093018091940190E0019665E070E00E9415
:10037000670F809394010E94310108958091930149
:100380008130F9F4E0919401F0E0EE0FFF1FE8579F
:10039000FE4FA081B1818CE011968C938081918178
:1003A0000E94BB0482E00E944B0B1092930180914B
:1003B000940190E0019665E070E00E94670F8093E1
:1003C00094010895CF93DF93EC018CE08983CE01F3
:1003D0000E94BB04CE010E94950A8130D9F385E0CA
:1003E0008983CE010E94BB04DF91CF91089520E064
:1003F000ADEEB0E08EEE90E0322F3295307F3C9340
:10040000FC011192E83FF105E1F72F5F2F30A1F7D2
:100410000895EDEEF0E0208110828091EF00807C65
:1004200069F081E0ADEEB0E0EFEEF0E0982F92954C
:10043000907F9C939081907C29F401C080E0209370
:10044000ED0008958F5F8F3089F72093ED008FEFD7
:1004500008958091EF00807C69F09091EE00892FE3
:10046000807E803241F0803431F0803A21F0892F53
:100470008F7108958FEF0895CF93DF93AC01809132
:10048000EF0090E08F70907018161906A4F460E0E9
:10049000EAEFF0E0CFEED0E08081DA01A60FB11DE7
:1004A0008C936F5F8881262F30E090E08F70907082
:1004B000281739078CF3DF91CF9108952F923F923F
:1004C0004F925F926F927F928F929F92AF92BF9264
:1004D000CF92DF92EF92FF920F931F93CF93DF9310
:1004E00000D000D000D0CDB7DEB7882309F47CC09F
:1004F0008091E20090E08E779070959587950196B7
:10050000823091055CF08091E20090E08E779070EF
:1005100095958795282F2F5F298302C081E08983D5
:100520008091E30090E08E7090709595879501968C
:100530008230910554F08091E30090E08E709070CD
:1005400095958795382E339402C033243394809147
:10055000E40090E08E7090709595879501968330B9
:10056000910554F08091E40090E08E709070959524
:100570008795782E739403C07724689471F88091DE
:10058000E40090E080779070959587959595879594
:10059000959587959595879501968330910584F07B
:1005A0008091E40090E0807790709595879595957F
:1005B00087959595879595958795682E639403C043
:1005C0006624689461F8872D90E0830D911D860D57
:1005D000911D01968830910514F488E090E08A839B
:1005E00040E02224239410C041E022246624689431
:1005F00061F87724689471F898E09A830F2EF3E0FD
:100600003F2EF02DA1E0A98320E0ADEEB0E08EEE0C
:1006100090E0322F3295307F3C93FC011192E83FFD
:10062000F105E1F72F5F2F30A1F7A42E622DDD2415
:100630008824992470E00F2EF8EDEF2EFF24F02D82
:1006400051E0E9EDF0E00AED10E020E0C52EB22E19
:10065000B2E0BB8388E08E8391E0A91609F057C011
:10066000D7015C930894811C911C89818150880F6B
:10067000A2EEB0E08C93862D869590E001972C0138
:10068000440C551C440C551C440C551C440C551C66
:10069000440C551C832D90E00197880F991F8429E5
:1006A000A3EEB0E08C93862D90E001972C01440CD2
:1006B000551C440C551C440C551C440C551C872DD2
:1006C00090E00197880F991F84298160A4EEB0E023
:1006D0008C93C40196958795969587959695879561
:1006E000A5EEB0E08C93ADEEB0E01C92AEEEB0E0C3
:1006F0001C9280E8AFEEB0E08C938AE0D7018C9337
:10070000808182FFFDCF8FEFD8018C93722F413013
:10071000B1F5AEEEB0E08C9190E085FF0EC0AFEE8B
:10072000B0E08C918F738C93D7011C92808182FDF5
:10073000FDCFD52E622F322FBEC08F7190700097E3
:1007400011F06C2D4B2DD8014C90552445FE0DC059
:10075000772329F48C9180628C937C2D06C0D8017C
:100760008C9180628C936C2D4B2DC2018F70907098
:10077000009709F09DC0413061F2352F01C0352F3F
:10078000613009F078C0832F372D7A2CAD2CD72E0D
:10079000782F21103F5F393078F1B7E0B61560F55A
:1007A0008A81893131F08F5F8A832B2C6B80362DC3
:1007B00059C09981903441F09F5F99832B2C6B80B5
:1007C000362DAE81AA834EC0A72C7D2DAFEEB0E0B2
:1007D0008C918F738C93D7011C92808182FDFDCF09
:1007E000D22E322F222E6624689461F877246894E2
:1007F00071F8B8E0BA8369C0363058F0432E5524FA
:10080000862D90E001968415950524F46394362D89
:1008100001C0632E362C330E30948A81380E832D1E
:1008200081508830E0F4462C5524832D90E0DC0183
:100830001196A30FB11DBD83AC83C201880F991F10
:10084000880F991F8A179B0764F0C201880F991FB0
:10085000840D951DA817B90784F52C2C03C02C2CEA
:1008600001C02C2C613009F494CF872F7D2DDA2C18
:10087000A72C732E382F313009F4EECE8D2D26960D
:100880000FB6F894DEBF0FBECDBFDF91CF911F91A1
:100890000F91FF90EF90DF90CF90BF90AF909F901F
:1008A0008F907F906F905F904F903F902F90089522
:1008B000A52E652F352F422F63CF872F7D2DDA2C64
:1008C000A72C732E382F452F252E622FD4CF80933F
:1008D000E2006093E3004093E40081E0089591E03A
:1008E0009093D800853031F482E068E045E20E94C0
:1008F000670406C01092E2001092E3001092E40038
:1009000081E008950F931F93FC018785882391F45C
:1009100002851385248535850F2EF2E1000F111F06
:10092000221F331FFA95D1F7F02D0F6F1F6F236031
:10093000306E05C00285138524853585306E602FA5
:10094000712F822F932F1F910F9108950E946F0492
:10095000882349F00E94F701E8EDF0E08081826091
:10096000808381E0089580E00895E8EDF0E08081E3
:100970008D7F808308950F931F93CF93DF9300D0D3
:1009800000D0CDB7DEB78C01DC0111968C911197A8
:100990008C30B1F419968C911997803669F48C914A
:1009A0008295807F8093ED00EFEEF0E080818F7381
:1009B00080831092EE001C92F801118680E0ACC595
:1009C0000E9409028F3F09F4A1C590E6D80119964B
:1009D0009C9319978C938295807F8093ED00EEEE27
:1009E000F0E01192E83FF105E1F7F80181818630EE
:1009F00009F456C2873090F4833009F412C1843070
:100A000030F4813011F1823009F07CC598C0843017
:100A100009F467C1853009F075C5AAC1893009F4A8
:100A2000BEC38A3038F4873009F48FC2883009F0A9
:100A300069C51BC38A3021F08B3009F063C5B1C48E
:100A40008681882309F049C457C4F8018785882323
:100A500069F194819295969597708581880F880F9A
:100A6000880F890F8093F3009381929596959770E4
:100A70008481880F880F880F890F8093F2009281FC
:100A80009295969597708381880F880F880F890FAC
:100A90008093F1008281880F880F880F8093F00087
:100AA000EFEEF0E080818061808316C092819695A0
:100AB0009695969583818295880F807E890F809385
:100AC000F30082818295880F807E8093F200EFEEA2
:100AD000F0E080818F7E8083F8018681882379F021
:100AE00080E02AEF30E0F801A781B085A80FB11DA2
:100AF0009C91D9019C938F5F96818917A0F3F8018F
:100B00008685882331F0E0EFF0E080818460808387
:100B100005C0E0EFF0E080818B7F8083EFEEF0E0B6
:100B20009081D80116968C911697892B80838081AD
:100B30008F73808380818064808380E0EDC4F801BE
:100B40008785882369F19481929596959770858120
:100B5000880F880F880F890F8093F30093819295F7
:100B6000969597708481880F880F880F890F8093DE
:100B7000F20092819295969597708381880F880FE5
:100B8000880F890F8093F1008281880F880F880F6A
:100B90008093F000EFEEF0E080818061808316C0EA
:100BA000928196959695969583818295880F807E01
:100BB000890F8093F30082818295880F807E8093D5
:100BC000F200EFEEF0E080818F7E8083F801868175
:100BD000882379F080E02AEF30E0F801A781B08522
:100BE000A80FB11D9C91D9019C938F5F96818917A5
:100BF000A0F3F8011686E0EFF0E080818B7F808320
:100C0000EFEEF0E09081D80116968C911697892B23
:100C1000808380818F73808380818064808380E083
:100C20007BC4F8018785882369F194819295969514
:100C300097708581880F880F880F890F8093F30044
:100C400093819295969597708481880F880F880F6D
:100C5000890F8093F2009281929596959770838187
:100C6000880F880F880F890F8093F1008281880F89
:100C7000880F880F8093F000EFEEF0E080818061B4
:100C8000808316C0928196959695969583818295DC
:100C9000880F807E890F8093F30082818295880F70
:100CA000807E8093F200EFEEF0E080818F7E808383
:100CB00081E0F8018687E0EFF0E080818460808346
:100CC000EFEEF0E09081D80116968C911697892B63
:100CD000808380818F73808380818064808380E0C3
:100CE0001BC48FEF9FEFDC0189839A83AB83BC83A6
:100CF0009B819295969597708C81880F880F880FAD
:100D0000890F8093F7009A819295969597708B81C1
:100D1000880F880F880F890F8093F600998192952C
:100D2000969597708A81880F880F880F890F809316
:100D3000F5008981880F880F880F24EF30E0F901D2
:100D40008083EFEEF0E09081D80116968C91892B8C
:100D50008083D9018C918B7F8C938C918E7F8C9327
:100D600080818F73808380818068808380E0D4C39A
:100D7000F8018785882369F19481929596959770FB
:100D80008581880F880F880F890F8093F3009381E6
:100D90009295969597708481880F880F880F890F98
:100DA0008093F20092819295969597708381880F37
:100DB000880F880F890F8093F1008281880F880F38
:100DC000880F8093F000EFEEF0E0808180618083F7
:100DD00016C0928196959695969583818295880FF7
:100DE000807E890F8093F30082818295880F807EB8
:100DF0008093F200EFEEF0E080818F7E80838FEFB2
:100E00009FEFDC0189839A83AB83BC839B8192959E
:100E1000969597708C81880F880F880F890F809323
:100E2000F7009A819295969597708B81880F880F1D
:100E3000880F890F8093F600998192959695977007
:100E40008A81880F880F880F890F8093F500898128
:100E5000880F880F880F44EF50E0FA018083EFEE8F
:100E6000F0E09081D80116968C911697892B80839B
:100E70001E961C92DA018C9184608C9380EF90E036
:100E8000DC012C912B7F2C93DA018C9181608C9367
:100E900080818F73808380818068808380E03CC301
:100EA0008FEF9FEFDC0189839A83AB83BC839B81A7
:100EB0009295969597708C81880F880F880F890F6F
:100EC0008093F7009A819295969597708B81880F01
:100ED000880F880F890F8093F600998192959695D7
:100EE00097708A81880F880F880F890F8093F5008B
:100EF0008981880F880F880F44EF50E0FA018083C2
:100F0000EFEEF0E09081D80116968C911697892B20
:100F1000808381E01E968C93DA018C9184608C939F
:100F200080EF90E0DC012C9124602C9380818F7DF8
:100F30008083DA018C918E7F8C9380818F73808384
:100F400080818068808380E0E7C2F80187858823FC
:100F500069F194819295969597708581880F880F95
:100F6000880F890F8093F3009381929596959770DF
:100F70008481880F880F880F890F8093F2009281F7
:100F80009295969597708381880F880F880F890FA7
:100F90008093F1008281880F880F880F8093F00082
:100FA000EFEEF0E080818061808316C0928196959B
:100FB0009695969583818295880F807E890F809380
:100FC000F30082818295880F807E8093F200EFEE9D
:100FD000F0E080818F7E8083C8010E948204DC0162
:100FE000CB0189839A83AB83BC839B819295969531
:100FF00097708C81880F880F880F890F8093F70076
:101000009A819295969597708B81880F880F880F9B
:10101000890F8093F60099819295969597708A81B1
:10102000880F880F880F890F8093F5008981880FBA
:10103000880F880F24EF30E0F9018083EFEEF0E0B5
:101040009081D80116968C91892B8083D9018C913F
:101050008B7F8C938C9181608C9380818F73808344
:1010600080818068808380E057C2F801878588236B
:1010700069F194819295969597708581880F880F74
:10108000880F890F8093F3009381929596959770BE
:101090008481880F880F880F890F8093F2009281D6
:1010A0009295969597708381880F880F880F890F86
:1010B0008093F1008281880F880F880F8093F00061
:1010C000EFEEF0E080818061808316C0928196957A
:1010D0009695969583818295880F807E890F80935F
:1010E000F30082818295880F807E8093F200EFEE7C
:1010F000F0E080818F7E8083C8010E948204DC0141
:10110000CB0189839A83AB83BC839B81929596950F
:1011100097708C81880F880F880F890F8093F70054
:101120009A819295969597708B81880F880F880F7A
:10113000890F8093F60099819295969597708A8190
:10114000880F880F880F890F8093F5008981880F99
:10115000880F880F44EF50E0FA018083EFEEF0E053
:101160009081D80116968C911697892B80831E96B4
:101170001C92DA018C9184608C9380EF90E0DC010A
:101180002C912B7F2C93DA018C9181608C93808140
:101190008F73808380818068808380E0BDC1F80187
:1011A0008785882369F194819295969597708581BA
:1011B000880F880F880F890F8093F3009381929591
:1011C000969597708481880F880F880F890F809378
:1011D000F20092819295969597708381880F880F7F
:1011E000880F890F8093F1008281880F880F880F04
:1011F0008093F000EFEEF0E080818061808316C084
:10120000928196959695969583818295880F807E9A
:10121000890F8093F30082818295880F807E80936E
:10122000F200EFEEF0E080818F7E8083C8010E94A3
:101230008204DC01CB0189839A83AB83BC839B81CD
:101240009295969597708C81880F880F880F890FDB
:101250008093F7009A819295969597708B81880F6D
:10126000880F880F890F8093F60099819295969543
:1012700097708A81880F880F880F890F8093F500F7
:101280008981880F880F880F44EF50E0FA0180832E
:10129000EFEEF0E09081D80116968C911697892B8D
:1012A000808381E01E968C93DA018C9184608C930C
:1012B00080EF90E0DC012C9124602C9380818F7D65
:1012C0008083DA018C9181608C9380818F7380831D
:1012D00080818068808380E01FC180E02AEF30E059
:1012E000F801A781B085A80FB11D9C91D9019C93ED
:1012F0008F5F96818917A0F38FEF9FEFDC018983C1
:101300009A83AB83BC839B819295969597708C81D1
:10131000880F880F880F890F8093F7009A81929524
:10132000969597708B81880F880F880F890F80930F
:10133000F60099819295969597708A81880F880F0B
:10134000880F890F8093F5008981880F880F880F97
:1013500044EF50E0FA018083EFEEF0E09081D80195
:1013600016968C911697892B808381E01E968C931C
:10137000DA018C9184608C9380EF90E0DC012C91F9
:1013800024602C93808180628083DA018C918E7F2F
:101390008C9380818F73808380818068808380E0DC
:1013A000BBC0F8018785882369F194819295969551
:1013B00097708581880F880F880F890F8093F300BD
:1013C00093819295969597708481880F880F880FE6
:1013D000890F8093F2009281929596959770838100
:1013E000880F880F880F890F8093F1008281880F02
:1013F000880F880F8093F000EFEEF0E0808180612D
:10140000808316C092819695969596958381829554
:10141000880F807E890F8093F30082818295880FE8
:10142000807E8093F200EFEEF0E080818F7E8083FB
:10143000F8018681882379F080E02AEF30E0F80116
:10144000A781B085A80FB11D9C91D9019C938F5F96
:1014500096818917A0F3C8010E948204DC01CB01A8
:1014600089839A83AB83BC839B8192959695977071
:101470008C81880F880F880F890F8093F7009A81DD
:101480009295969597708B81880F880F880F890F9A
:101490008093F60099819295969597708A81880F2E
:1014A000880F880F890F8093F5008981880F880F36
:1014B000880F44EF50E0FA018083EFEEF0E0908176
:1014C000D80116968C911697892B808381E01E9601
:1014D0008C93DA018C9184608C9380EF90E0DC0136
:1014E0002C9124602C93808180628083DA018C911E
:1014F00081608C9380818F738083808180688083FA
:1015000080E00AC0F801118680E006C08FE1D801B2
:1015100019968C9319978FEF0F900F900F900F9053
:10152000DF91CF911F910F910895EF92FF921F933A
:10153000CF93DF93EC018985882309F496C08F311E
:1015400009F495C08F3F09F494C088818295807F0B
:101550008093ED000E942902182F803261F08132C1
:1015600020F4882309F487C076C0803409F468C069
:10157000803A09F070C00F2EFFEEEF2EFF24F02D01
:10158000F70180818F708E838F8198850E943C0245
:101590008091F00090E08470907095958795959576
:1015A00087958E87F701808184FF2DC081E08F872A
:1015B000E3EFF0E080818695869586958D83A2EF96
:1015C000B0E08C9190819295990F907E869586954A
:1015D0008695890F8C83E1EFF0E080819C91929554
:1015E000990F907E869586958695890F8B8380913D
:1015F000F00090819295990F907E869586958695BC
:10160000890F8A8313C01F86E3EFF0E08081829503
:10161000869587708B838091F2009081990F990F46
:10162000990F829586958770890F8A831987EFEEC7
:10163000F0E080818F7380831092EE0080E01CC008
:1016400080E48987EFEEF0E080818F7380831092D1
:10165000EE0080E011C01987EFEEF0E080818F731B
:1016600080831092EE0082E007C082E005C082E035
:1016700003C082E001C081E0DF91CF911F91FF9014
:10168000EF900895089508959093150180931401A3
:101690000E945D0F0895E0911401F0911501908171
:1016A000892B80830895E0911401F0911501108237
:1016B00008951092E0011092E1010895CF93DF9315
:1016C000E82FC091E001D0E0CE01019660E170E02A
:1016D0000E94670F4091E10150E08417950731F0B7
:1016E000C053DE4FE8838093E00103C088E00E948E
:1016F0004B0BDF91CF9108958091E1019091E00132
:10170000981731F0E0EDF1E0E80FF11D80810895C8
:101710008CE00895CF93DF938091E1019091E001F7
:10172000981709F47FC0E0EDF1E0E80FF11D80812A
:10173000893009F45BC08A3040F4813089F181300E
:1017400070F0833009F064C030C08B3009F45CC0A5
:101750008B3008F44EC08D3009F05AC047C086E186
:1017600091E066E271E043E055E022E00E940A0168
:101770008EE291E06EE371E044E055E022E00E94E9
:101780000A01C6E4D1E0CE0166E571E041E055E032
:1017900021E00E940A017894CE010E941B0138C00A
:1017A0008EE291E00E946E0133C0C1E0D0E0CE0134
:1017B0000090690102C0880F991F0A94E2F7909186
:1017C0007601892B8093760186E191E00E946E017B
:1017D0000090690102C0CC0FDD1F0A94E2F7C095AA
:1017E00080917601C823C093760112C00E94BE0189
:1017F0000FC00E94950121E08E32920711F40E94E1
:10180000530B0E949F0104C086E491E00E942901CD
:101810008091E10190E0019660E170E00E94670F25
:101820008093E101DF91CF9108958C3090F490E0A6
:10183000FC01E159FE4FDC01AE59BE4F81E090E062
:101840000C9002C0880F991F0A94E2F79081892BAF
:101850008083089590E0FC01E159FE4FDC01AE5910
:10186000BE4F81E090E00C9002C0880F991F0A944F
:10187000E2F780959081892380830895EF92FF920B
:101880000F931F93CF93DF937C01C0E0D0E001E082
:1018900010E08C2F98010C2E02C0220F331F0A94E7
:1018A000E2F72E213F212115310511F00E94150C80
:1018B0002196CB30D10569F7DF91CF911F910F9120
:1018C000FF90EF900895CF93DF9322E631E041E05F
:1018D000409362014093670192E09093680163E056
:1018E0006093690184E080936A0190936B01809317
:1018F000630110926401109266011092650157E035
:1019000050936C0140937A0140937F019093800142
:1019100060938101809382019093830180937B0186
:1019200010927C0110927E0110927D0150938401EF
:1019300040936F0140937401909375016093760119
:1019400080937701909378018093700110927101D8
:10195000109273011092720150937901F901AAE774
:10196000B1E0CFE6D1E0255F3F4F41E050E0CA0152
:10197000019002C0880F991F0A94E2F79C91982B5E
:101980009D939881892B8993E217F30781F78FEF55
:101990009FEF90936E0180936D010E943E0CDF914A
:1019A000CF910895282F30E0F901EE59FE4F81E0E4
:1019B00090E0008002C0880F991F0A94E2F7215935
:1019C0003E4FF9019081892308950F931F93CF9380
:1019D000DF93C0E0D0E08C2F0E94D20C90E00C2E60
:1019E00002C0880F991F0A94E2F7082B192B219641
:1019F000CB30D10581F7802F912FDF91CF911F91AF
:101A00000F910895CF93C82F0E94D20C882321F004
:101A10008C2F0E942A0C03C08C2F0E94150CCF9192
:101A2000089511B814B887B1807687B98FEF8AB955
:101A30001DB810BA93B3907E93BB82B985B988B9AB
:101A40009BB19F699BB98EB981BB84B38F6184BB05
:101A50000E94EF0082E060E00E94A60E0E94B00E9D
:101A60000E94D00E0E94510F80E00E945E0B0895EC
:101A700008951F920F920FB60F9211240F900FBE70
:101A80000F901F9018951F920F920FB60F920BB6E2
:101A90000F9211242F933F934F935F936F937F93F4
:101AA0008F939F93AF93BF93EF93FF9387E00E9431
:101AB0005E0BFF91EF91BF91AF919F918F917F91BD
:101AC0006F915F914F913F912F910F900BBE0F90AF
:101AD0000FBE0F901F9018951F920F920FB60F9286
:101AE0000BB60F9211242F933F934F935F936F93F5
:101AF0007F938F939F93AF93BF93EF93FF93E8E808
:101B0000F0E080819181845B924E9183808381E0BB
:101B10000E945E0BFF91EF91BF91AF919F918F91CA
:101B20007F916F915F914F913F912F910F900BBEDD
:101B30000F900FBE0F901F9018951F920F920FB627
:101B40000F920BB60F9211242F933F934F935F93F5
:101B50006F937F938F939F93AF93BF93EF93FF9375
:101B6000EAE8F0E0808191818856954C91838083EA
:101B700082E00E945E0BFF91EF91BF91AF919F9128
:101B80008F917F916F915F914F913F912F910F9026
:101B90000BBE0F900FBE0F901F9018951F920F92C3
:101BA0000FB60F920BB60F9211242F933F934F93C2
:101BB0005F936F937F938F939F93AF93BF93EF93B5
:101BC000FF93ECE8F0E080819181805D9A489183F9
:101BD000808383E00E945E0BFF91EF91BF91AF91F4
:101BE0009F918F917F916F915F914F913F912F9135
:101BF0000F900BBE0F900FBE0F901F9018951F9265
:101C00000F920FB60F920BB60F9211242F933F93A2
:101C10004F935F936F937F938F939F93AF93BF93F4
:101C2000EF93FF93E8E9F0E080819181825C964B2D
:101C30009183808384E00E945E0BFF91EF91BF91BE
:101C4000AF919F918F917F916F915F914F913F9154
:101C50002F910F900BBE0F900FBE0F901F901895F5
:101C60001F920F920FB60F920BB60F9211242F9363
:101C70003F934F935F936F937F938F939F93AF9314
:101C8000BF93EF93FF93EAE9F0E08081918184585C
:101C90009D469183808385E00E945E0BFF91EF91CA
:101CA000BF91AF919F918F917F916F915F914F9174
:101CB0003F912F910F900BBE0F900FBE0F901F9072
:101CC00018951F920F920FB60F920BB60F92112418
:101CD0002F933F934F935F936F937F938F939F9334
:101CE000AF93BF93EF93FF93ECE9F0E08081918194
:101CF000805E98449183808386E00E945E0BFF9112
:101D0000EF91BF91AF919F918F917F916F915F9173
:101D10004F913F912F910F900BBE0F900FBE0F90E0
:101D20001F9018951F920F920FB60F9211240F90CB
:101D30000FBE0F901F9018951F920F920FB60F9223
:101D400011240F900FBE0F901F9018958093810063
:101D500060936F00089580939100609371000895DF
:101D60008091840090918500845B924E90938900CD
:101D700080938800EFE6F0E08081826080830895A0
:101D800080918400909185008856954C90938B00AB
:101D900080938A00EFE6F0E080818460808308957C
:101DA0008091840090918500805D9A4890938D0089
:101DB00080938C00EFE6F0E0808188608083089556
:101DC0008091940090919500825C964B909399003D
:101DD00080939800E1E7F0E080818260808308953D
:101DE000809194009091950084589D4690939B001B
:101DF00080939A00E1E7F0E0808184608083089519
:101E00008091940090919500805E984490939D00FD
:101E100080939C00E1E7F0E08081886080830895F2
:101E20008FEF90E090935F0180935E018FEF87BD0D
:101E30008AE784BDEEE6F0E08081816080830895CA
:101E4000682F70E040915E0150915F01CB01841BCF
:101E5000950B9C0112F42D5F3F4F359527953595D5
:101E60002795240F351F30935F0120935E019C015D
:101E7000992314F42F5F3F4F35952795620F731FF9
:101E800070936101609360016F3F710521F01CF058
:101E90008FEF87BD0895772314F417BC089567BDAD
:101EA00008952BE088E190E00FB6F894A895809310
:101EB00060000FBE20936000089504B603FE06C0C4
:101EC00084B7877F84BF80E10E944B0B089597FB06
:101ED000092E07260AD077FD04D00CD006D00020AA
:101EE0001AF4709561957F4F0895F6F79095819556
:101EF0009F4F0895AA1BBB1B51E107C0AA1FBB1F20
:101F0000A617B70710F0A61BB70B881F991F5A9585
:101F1000A9F780959095BC01CD010895F894FFCF65
:101F2000303132333435363738394142434445460F
:041F30004748494A8B
:00000001FF
