S011000044617368626F6172642E737265638B
S11300000C9416010C9433010C9433010C943301B9
S11300100C9433010C9433010C9433010C9433018C
S11300200C9433010C9433010C9433010C9433017C
S11300300C9410170C943D170C946A170C941E180A
S11300400C94FC160C9406170C9427030C9433019F
S11300500C9433010C9433010C9433010C9433014C
S11300600C9433010C9433010C9433010C9433013C
S11300700C9497170C94C4170C94F1170C9428182B
S11300800C9433010C9433010C9433010C9433011C
S11300900C943301310F3A0F430F550F4C0F5E0F81
S11300A0670F700F091009100910790F0910091052
S11300B00910091009100910091009100910091074
S11300C00910091009100910091009100910091064
S11300D00910091009100910091009100910091054
S11300E00910091009100910091009100910091044
S11300F00910091009100910091009100910091034
S11301000910091009100910091009100910091023
S11301100910091009100910091009100910091013
S11301200910091009100910091009100910091003
S113013009100910091009100910091009100910F3
S11301400910091009100910820F8B0F940F9D0FCD
S1130150AF0FA60FB80F0910091009100910C10F2D
S1130160CA0FD30F0910DC0FE50F0910091009108D
S113017009100910091009100910091009100910B3
S113018009100910091009100910091009100910A3
S11301900910091009100910091009100910091093
S11301A00910091009100910091009100910091083
S11301B00910091009100910091009100910091073
S11301C00910091009100910091009100910091063
S11301D00910091009100910091009100910091053
S11301E00910091009100910091009100910091043
S11301F00910091009100910091009100910091033
S11302000910091009100910091009100910091022
S11302100910091009100910091009100910091012
S1130220091009100910EE0FF70F001011241FBE5A
S1130230CFEFD8E0DEBFCDBF15E0A0E0B1E0EEEC3B
S1130240F1E302C005900D92AC3EB107D9F717E077
S1130250ACEEB5E001C01D92AC30B107E1F70E94ED
S113026035010C94E5180C9400000E946116A895C1
S11302700E94AF14FCCF9CB192959F7090FD0BC06F
S1130280E82FF0E0EE0FFF1FEE0FFF1FE258F94FCB
S113029091E0908309C0E82FF0E0EE0FFF1FEE0F0E
S11302A0FF1FE258F94F10829CB192959695977072
S11302B090FD0BC0E82FF0E0EE0FFF1FEE0FFF1FC5
S11302C0E258F94F91E0918309C0E82FF0E0EE0F76
S11302D0FF1FEE0FFF1FE258F94F118296B192955E
S11302E096959695937090FD0BC0E82FF0E0EE0F75
S11302F0FF1FEE0FFF1FE258F94F91E0928309C0F0
S1130300E82FF0E0EE0FFF1FEE0FFF1FE258F94F4A
S1130310128296B196959695969590FD0BC0E82F0E
S1130320F0E0EE0FFF1FEE0FFF1FE258F94F81E0E0
S113033083830895E82FF0E0EE0FFF1FEE0FFF1FF9
S1130340E258F94F138208956E98769A08956F983B
S1130350779A089524982C9A089576986E9A089519
S113036077986F9A08952C98249A089580919F06FF
S1130370882321F010929F060E9480118091A0068C
S1130380882321F01092A0060E94621180918806B1
S1130390882321F085E00E94D01403C085E00E94E8
S11303A0081580918406882321F086E00E94D014E9
S11303B003C086E00E94081580918106882321F0FD
S11303C087E00E94D01403C087E00E940815809142
S11303D08906882321F088E00E94D01403C088E0B5
S11303E00E94081580918506882321F089E00E94E7
S11303F0D01403C089E00E9408151092ED05809185
S11304008006882319F081E08093ED0580918806A9
S1130410882329F08091ED0582608093ED05809119
S11304208406882329F08091ED0584608093ED058E
S113043080918106882329F08091ED05886080935E
S1130440ED0580918506882329F08091ED05806172
S11304508093ED0580918906882329F08091ED052C
S113046080628093ED051092EC05809182068823CA
S113047019F082E08093EC0580918306882329F0AB
S11304808091EC0581608093EC0580917F06882340
S113049029F08091EC0584608093EC0580917E06C0
S11304A0882329F08091EC0588608093EC05809185
S11304B08606882329F08091EC0580618093EC0501
S11304C080918706882329F08091EC0580628093CF
S11304D0EC05089585B78F7E85BF8DB18F6B8DB97F
S11304E0769A8DB18F678DB9779A84B18F6E84B9FE
S11304F02C9A6C98749A6D98759A3E98469A3B9883
S1130500439AE5EAF6E0CF010C9621E02193E8173F
S1130510F907E1F70895CF92DF92EF92FF920F93DC
S11305201F93CF93DF93C4EAD1E0FE01099507EA54
S113053011E0F80109950F2EFAEAEF2EF1E0FF2EF3
S1130540F02DF7010995F8010995F70109950E9425
S1130550AD010F2EFBE3CF2EF1E0DF2EF02D80E076
S113056090E0F6010995FE010995F70109950E94AD
S1130570B00181E090E0F6010995FE010995F801CA
S113058009950E94B30182E090E0F6010995FE010D
S11305900995F8010995F7010995EBE8F6E0AEE74E
S11305A0B6E005EA16E087E996E0AF01445F5F4FE5
S11305B071E09F016081662359F46C91613041F4CC
S11305C0E8016881613081F4EC017883E8011882E4
S11305D0E9012881213041F42C91222329F4E801F6
S11305E02881222309F47883319611960F5F1F4FD7
S11305F00196E417F507E9F60E94B601ABE8B6E008
S1130600EEE7F6E08CE001900D928150E1F7DF9186
S1130610CF911F910F91FF90EF90DF90CF900895AD
S11306202EE736E0280F311DF90180810895089ADC
S113063010980895109A0895109808950E941A0326
S113064083E08093EE0584E08093EF0508951F9284
S11306500F920FB60F9211242F933F934F935F93F2
S11306606F937F938F939F93AF93BF93CF93EF93A6
S1130670FF93C091EE00C0FF08C087E00E945F13A3
S1130680EEEEF0E080818E7F8083C6FF08C088E0B4
S11306900E945F13EEEEF0E080818F7B8083C5FFC4
S11306A008C089E00E945F13EBEDF0E080818F7752
S11306B08083FF91EF91CF91BF91AF919F918F91E3
S11306C07F916F915F914F913F912F910F900FBE4A
S11306D00F901F90189585E00E9422071092EE005B
S11306E0EBEDF0E08081886B80838FE78093DF00FF
S11306F08FEF8093DE001092BC061092BE0610921B
S1130700BD061092C0061092BF060895FC017087C2
S11307106783178616865383428326838FEF97E079
S1130720A0E0B0E082879387A487B587089590936B
S1130730C0068093BF0625E0FC0121838091BF069B
S11307409091C0060E94370708950E94110DEBEDA9
S1130750F0E080818068808308959091BC06809148
S1130760BE06981741F1E091BF06F091C00630979C
S113077041F08CE081838091BF069091C0060E9475
S11307803707E091BE06F0E0EE0FFF1FEE54F94F7D
S1130790A081B18182E011968C93808191810E9425
S11307A03707882321F081E00E944C13089581E0EB
S11307B08093BD060895E091BF06F091C00630977E
S11307C041F085E081838091BF069091C0060E942C
S11307D037070895CF93DF93EC01E091BC06F0E076
S11307E0CF01019665E070E00E94BE182091BE061C
S11307F030E08217930749F0EE0FFF1FEE54F94FD4
S1130800D183C0838093BC0603C084E00E944C1350
S11308108091BD06882311F40E94AD03DF91CF912E
S11308200895E091BE06F0E0EE0FFF1FEE54F94F7D
S1130830808191810895E091BE06F0E0EE0FFF1FE4
S1130840EE54F94FA081B1818CE011968C93808194
S113085091810E9437071092BD068091BE0690E0F8
S1130860019665E070E00E94BE188093BE060E9467
S1130870AD0308958091BD068130F9F4E091BE0680
S1130880F0E0EE0FFF1FEE54F94FA081B1818CE030
S113089011968C93808191810E94370782E00E9497
S11308A04C131092BD068091BE0690E0019665E05F
S11308B070E00E94BE188093BE060895CF93DF9324
S11308C0EC018CE08983CE010E943707CE010E949F
S11308D0110D8130D9F385E08983CE010E94370759
S11308E0DF91CF91089520E0ADEEB0E08EEE90E080
S11308F0322F3295307F3C93FC011192E83FF10591
S1130900E1F72F5F2F30A1F70895EDEEF0E020819D
S113091010828091EF00807C69F081E0ADEEB0E060
S1130920EFEEF0E0982F9295907F9C939081907CCD
S113093029F401C080E02093ED0008958F5F8F308B
S113094089F72093ED008FEF08958091EF00807C6C
S113095069F09091EE00892F807E803241F08034DE
S113096031F0803A21F0892F8F7108958FEF089527
S1130970CF93DF93AC018091EF0090E08F70907083
S113098018161906A4F460E0EAEFF0E0CFEED0E028
S11309908081DA01A60FB11D8C936F5F8881262FA9
S11309A030E090E08F709070281739078CF3DF9156
S11309B0CF9108952F923F924F925F926F927F92C0
S11309C08F929F92AF92BF92CF92DF92EF92FF925B
S11309D00F931F93CF93DF9300D000D000D0CDB7F7
S11309E0DEB7882309F47CC08091E20090E08E7722
S11309F09070959587950196823091055CF0809171
S1130A00E20090E08E77907095958795282F2F5F60
S1130A10298302C081E089838091E30090E08E7095
S1130A2090709595879501968230910554F0809148
S1130A30E30090E08E70907095958795382E3394EE
S1130A4002C0332433948091E40090E08E7090705F
S1130A509595879501968330910554F08091E40033
S1130A6090E08E70907095958795782E739403C05E
S1130A707724689471F88091E40090E08077907016
S1130A80959587959595879595958795959587954A
S1130A9001968330910584F08091E40090E08077A2
S1130AA09070959587959595879595958795959546
S1130AB08795682E639403C06624689461F8872D33
S1130AC090E0830D911D860D911D0196883091054E
S1130AD014F488E090E08A8340E02224239410C038
S1130AE041E022246624689461F87724689471F8BC
S1130AF098E09A830F2EF3E03F2EF02DA1E0A98316
S1130B0020E0ADEEB0E08EEE90E0322F3295307FF3
S1130B103C93FC011192E83FF105E1F72F5F2F3080
S1130B20A1F7A42E622DDD248824992470E00F2ED1
S1130B30F8EDEF2EFF24F02D51E0E9EDF0E00AEDA1
S1130B4010E020E0C52EB22EB2E0BB8388E08E8395
S1130B5091E0A91609F057C0D7015C930894811C51
S1130B60911C89818150880FA2EEB0E08C93862D70
S1130B70869590E001972C01440C551C440C551C9F
S1130B80440C551C440C551C440C551C832D90E0FE
S1130B900197880F991F8429A3EEB0E08C93862DCA
S1130BA090E001972C01440C551C440C551C440C3A
S1130BB0551C440C551C872D90E00197880F991FF4
S1130BC084298160A4EEB0E08C93C4019695879546
S1130BD09695879596958795A5EEB0E08C93ADEEA6
S1130BE0B0E01C92AEEEB0E01C9280E8AFEEB0E054
S1130BF08C938AE0D7018C93808182FFFDCF8FEFA5
S1130C00D8018C93722F4130B1F5AEEEB0E08C91E7
S1130C1090E085FF0EC0AFEEB0E08C918F738C93A3
S1130C20D7011C92808182FDFDCFD52E622F322FF9
S1130C30BEC08F719070009711F06C2D4B2DD801B0
S1130C404C90552445FE0DC0772329F48C91806285
S1130C508C937C2D06C0D8018C9180628C936C2D72
S1130C604B2DC2018F709070009709F09DC04130E8
S1130C7061F2352F01C0352F613009F078C0832F20
S1130C80372D7A2CAD2CD72E782F21103F5F393099
S1130C9078F1B7E0B61560F58A81893131F08F5F5C
S1130CA08A832B2C6B80362D59C09981903441F066
S1130CB09F5F99832B2C6B80362DAE81AA834EC007
S1130CC0A72C7D2DAFEEB0E08C918F738C93D70160
S1130CD01C92808182FDFDCFD22E322F222E6624DB
S1130CE0689461F87724689471F8B8E0BA8369C0AD
S1130CF0363058F0432E5524862D90E00196841505
S1130D00950524F46394362D01C0632E362C330EDE
S1130D1030948A81380E832D81508830E0F4462C3B
S1130D205524832D90E0DC011196A30FB11DBD83E2
S1130D30AC83C201880F991F880F991F8A179B07DC
S1130D4064F0C201880F991F840D951DA817B90777
S1130D5084F52C2C03C02C2C01C02C2C613009F4FC
S1130D6094CF872F7D2DDA2CA72C732E382F31307A
S1130D7009F4EECE8D2D26960FB6F894DEBF0FBE85
S1130D80CDBFDF91CF911F910F91FF90EF90DF9036
S1130D90CF90BF90AF909F908F907F906F905F9017
S1130DA04F903F902F900895A52E652F352F422FF9
S1130DB063CF872F7D2DDA2CA72C732E382F452F48
S1130DC0252E622FD4CF8093E2006093E3004093FA
S1130DD0E40081E0089591E09093D800853031F4E7
S1130DE082E068E045E20E94E30606C01092E20059
S1130DF01092E3001092E40081E008950F931F9392
S1130E00FC018785882391F4028513852485358523
S1130E100F2EF2E1000F111F221F331FFA95D1F795
S1130E20F02D0F6F1F6F2360306E05C00285138590
S1130E3024853585306E602F712F822F932F1F915B
S1130E400F9108950E94EB06882349F00E947304D1
S1130E50E8EDF0E080818260808381E0089580E0A5
S1130E600895E8EDF0E080818D7F808308950F93ED
S1130E701F93CF93DF9300D000D0CDB7DEB78C01A2
S1130E80DC0111968C9111978C30B1F419968C91E8
S1130E901997803669F48C918295807F8093ED0058
S1130EA0EFEEF0E080818F7380831092EE001C924D
S1130EB0F801118680E0ACC50E9485048F3F09F4D7
S1130EC0A1C590E6D80119969C9319978C938295A5
S1130ED0807F8093ED00EEEEF0E01192E83FF105A3
S1130EE0E1F7F8018181863009F456C2873090F425
S1130EF0833009F412C1843030F4813011F182302E
S1130F0009F07CC598C0843009F467C1853009F0C4
S1130F1075C5AAC1893009F4BEC38A3038F4873054
S1130F2009F48FC2883009F069C51BC38A3021F0E7
S1130F308B3009F063C5B1C48681882309F049C4A4
S1130F4057C4F8018785882369F194819295969511
S1130F5097708581880F880F880F890F8093F3001D
S1130F6093819295969597708481880F880F880F46
S1130F70890F8093F2009281929596959770838160
S1130F80880F880F880F890F8093F1008281880F62
S1130F90880F880F8093F000EFEEF0E0808180618D
S1130FA0808316C0928196959695969583818295B5
S1130FB0880F807E890F8093F30082818295880F49
S1130FC0807E8093F200EFEEF0E080818F7E80835C
S1130FD0F8018681882379F080E02AEF30E0F80177
S1130FE0A781B085A80FB11D9C91D9019C938F5FF7
S1130FF096818917A0F3F8018685882331F0E0EF04
S1131000F0E080818460808305C0E0EFF0E08081BF
S11310108B7F8083EFEEF0E09081D80116968C915F
S11310201697892B808380818F738083808180646D
S1131030808380E0EDC4F8018785882369F1948179
S11310409295969597708581880F880F880F890FE0
S11310508093F30093819295969597708481880F7D
S1131060880F880F890F8093F2009281929596954C
S113107097708381880F880F880F890F8093F10000
S11310808281880F880F880F8093F000EFEEF0E0E4
S113109080818061808316C09281969596959695FD
S11310A083818295880F807E890F8093F3008281EB
S11310B08295880F807E8093F200EFEEF0E08081CD
S11310C08F7E8083F8018681882379F080E02AEF7F
S11310D030E0F801A781B085A80FB11D9C91D9011A
S11310E09C938F5F96818917A0F3F8011686E0EF31
S11310F0F0E080818B7F8083EFEEF0E09081D80177
S113110016968C911697892B808380818F738083A8
S113111080818064808380E07BC4F8018785882394
S113112069F194819295969597708581880F880FBF
S1131130880F890F8093F300938192959695977009
S11311408481880F880F880F890F8093F200928121
S11311509295969597708381880F880F880F890FD1
S11311608093F1008281880F880F880F8093F000AC
S1131170EFEEF0E080818061808316C092819695C5
S11311809695969583818295880F807E890F8093AA
S1131190F30082818295880F807E8093F200EFEEC7
S11311A0F0E080818F7E808381E0F8018687E0EF24
S11311B0F0E0808184608083EFEEF0E09081D801DC
S11311C016968C911697892B808380818F738083E8
S11311D080818064808380E01BC48FEF9FEFDC01FB
S11311E089839A83AB83BC839B81929596959770F0
S11311F08C81880F880F880F890F8093F7009A815C
S11312009295969597708B81880F880F880F890F18
S11312108093F60099819295969597708A81880FAC
S1131220880F880F890F8093F5008981880F880FB4
S1131230880F24EF30E0F9018083EFEEF0E0908135
S1131240D80116968C91892B8083D9018C918B7F40
S11312508C938C918E7F8C9380818F73808380811B
S11312608068808380E0D4C3F8018785882369F18E
S113127094819295969597708581880F880F880F31
S1131280890F8093F300938192959695977084814A
S1131290880F880F880F890F8093F20092819295AE
S11312A0969597708381880F880F880F890F809394
S11312B0F1008281880F880F880F8093F000EFEE91
S11312C0F0E080818061808316C092819695969526
S11312D0969583818295880F807E890F8093F30091
S11312E082818295880F807E8093F200EFEEF0E099
S11312F080818F7E80838FEF9FEFDC0189839A83C7
S1131300AB83BC839B819295969597708C81880F53
S1131310880F880F890F8093F7009A81929596958C
S113132097708B81880F880F880F890F8093F60040
S113133099819295969597708A81880F880F880F66
S1131340890F8093F5008981880F880F880F44EFF7
S113135050E0FA018083EFEEF0E09081D801169618
S11313608C911697892B80831E961C92DA018C919E
S113137084608C9380EF90E0DC012C912B7F2C9384
S1131380DA018C9181608C9380818F73808380815A
S11313908068808380E03CC38FEF9FEFDC0189830A
S11313A09A83AB83BC839B819295969597708C812D
S11313B0880F880F880F890F8093F7009A81929580
S11313C0969597708B81880F880F880F890F80936B
S11313D0F60099819295969597708A81880F880F67
S11313E0880F890F8093F5008981880F880F880FF3
S11313F044EF50E0FA018083EFEEF0E09081D801F1
S113140016968C911697892B808381E01E968C9377
S1131410DA018C9184608C9380EF90E0DC012C9154
S113142024602C9380818F7D8083DA018C918E7F60
S11314308C9380818F73808380818068808380E037
S1131440E7C2F8018785882369F19481929596957E
S113145097708581880F880F880F890F8093F30018
S113146093819295969597708481880F880F880F41
S1131470890F8093F200928192959695977083815B
S1131480880F880F880F890F8093F1008281880F5D
S1131490880F880F8093F000EFEEF0E08081806188
S11314A0808316C0928196959695969583818295B0
S11314B0880F807E890F8093F30082818295880F44
S11314C0807E8093F200EFEEF0E080818F7E808357
S11314D0C8010E94FE06DC01CB0189839A83AB8399
S11314E0BC839B819295969597708C81880F880F09
S11314F0880F890F8093F7009A819295969597703B
S11315008B81880F880F880F890F8093F60099814B
S11315109295969597708A81880F880F880F890F06
S11315208093F5008981880F880F880F24EF30E0BD
S1131530F9018083EFEEF0E09081D80116968C914A
S1131540892B8083D9018C918B7F8C938C918160C2
S11315508C9380818F73808380818068808380E016
S113156057C2F8018785882369F1948192959695ED
S113157097708581880F880F880F890F8093F300F7
S113158093819295969597708481880F880F880F20
S1131590890F8093F200928192959695977083813A
S11315A0880F880F880F890F8093F1008281880F3C
S11315B0880F880F8093F000EFEEF0E08081806167
S11315C0808316C09281969596959695838182958F
S11315D0880F807E890F8093F30082818295880F23
S11315E0807E8093F200EFEEF0E080818F7E808336
S11315F0C8010E94FE06DC01CB0189839A83AB8378
S1131600BC839B819295969597708C81880F880FE7
S1131610880F890F8093F7009A8192959695977019
S11316208B81880F880F880F890F8093F60099812A
S11316309295969597708A81880F880F880F890FE5
S11316408093F5008981880F880F880F44EF50E05C
S1131650FA018083EFEEF0E09081D80116968C9128
S11316601697892B80831E961C92DA018C918460D4
S11316708C9380EF90E0DC012C912B7F2C93DA018A
S11316808C9181608C9380818F738083808180684A
S1131690808380E0BDC1F8018785882369F1948146
S11316A09295969597708581880F880F880F890F7A
S11316B08093F30093819295969597708481880F17
S11316C0880F880F890F8093F200928192959695E6
S11316D097708381880F880F880F890F8093F1009A
S11316E08281880F880F880F8093F000EFEEF0E07E
S11316F080818061808316C0928196959695969597
S113170083818295880F807E890F8093F300828184
S11317108295880F807E8093F200EFEEF0E0808166
S11317208F7E8083C8010E94FE06DC01CB01898381
S11317309A83AB83BC839B819295969597708C8199
S1131740880F880F880F890F8093F7009A819295EC
S1131750969597708B81880F880F880F890F8093D7
S1131760F60099819295969597708A81880F880FD3
S1131770880F890F8093F5008981880F880F880F5F
S113178044EF50E0FA018083EFEEF0E09081D8015D
S113179016968C911697892B808381E01E968C93E4
S11317A0DA018C9184608C9380EF90E0DC012C91C1
S11317B024602C9380818F7D8083DA018C918160F9
S11317C08C9380818F73808380818068808380E0A4
S11317D01FC180E02AEF30E0F801A781B085A80F8F
S11317E0B11D9C91D9019C938F5F96818917A0F3B9
S11317F08FEF9FEFDC0189839A83AB83BC839B814A
S11318009295969597708C81880F880F880F890F11
S11318108093F7009A819295969597708B81880FA3
S1131820880F880F890F8093F60099819295969579
S113183097708A81880F880F880F890F8093F5002D
S11318408981880F880F880F44EF50E0FA01808364
S1131850EFEEF0E09081D80116968C911697892BC3
S1131860808381E01E968C93DA018C9184608C9342
S113187080EF90E0DC012C9124602C9380818062C5
S11318808083DA018C918E7F8C9380818F73808327
S113189080818068808380E0BBC0F80187858823CD
S11318A069F194819295969597708581880F880F38
S11318B0880F890F8093F300938192959695977082
S11318C08481880F880F880F890F8093F20092819A
S11318D09295969597708381880F880F880F890F4A
S11318E08093F1008281880F880F880F8093F00025
S11318F0EFEEF0E080818061808316C0928196953E
S11319009695969583818295880F807E890F809322
S1131910F30082818295880F807E8093F200EFEE3F
S1131920F0E080818F7E8083F8018681882379F0BE
S113193080E02AEF30E0F801A781B085A80FB11D3F
S11319409C91D9019C938F5F96818917A0F3C8015C
S11319500E94FE06DC01CB0189839A83AB83BC839E
S11319609B819295969597708C81880F880F880F2C
S1131970890F8093F7009A819295969597708B8141
S1131980880F880F880F890F8093F60099819295AC
S1131990969597708A81880F880F880F890F809396
S11319A0F5008981880F880F880F44EF50E0FA0111
S11319B08083EFEEF0E09081D80116968C91169713
S11319C0892B808381E01E968C93DA018C9184604C
S11319D08C9380EF90E0DC012C9124602C93808127
S11319E080628083DA018C9181608C9380818F7313
S11319F0808380818068808380E00AC0F80111863A
S1131A0080E006C08FE1D80119968C9319978FEF67
S1131A100F900F900F900F90DF91CF911F910F9126
S1131A200895EF92FF921F93CF93DF93EC01898582
S1131A30882309F496C08F3109F495C08F3F09F4C7
S1131A4094C088818295807F8093ED000E94A504D4
S1131A50182F803261F0813220F4882309F487C082
S1131A6076C0803409F468C0803A09F070C00F2E43
S1131A70FFEEEF2EFF24F02DF70180818F708E830F
S1131A808F8198850E94B8048091F00090E0847062
S1131A90907095958795959587958E87F7018081A8
S1131AA084FF2DC081E08F87E3EFF0E0808186958D
S1131AB0869586958D83A2EFB0E08C919081929566
S1131AC0990F907E869586958695890F8C83E1EF94
S1131AD0F0E080819C919295990F907E86958695F1
S1131AE08695890F8B838091F00090819295990F50
S1131AF0907E869586958695890F8A8313C01F8666
S1131B00E3EFF0E080818295869587708B838091E6
S1131B10F2009081990F990F990F8295869587709D
S1131B20890F8A831987EFEEF0E080818F738083B9
S1131B301092EE0080E01CC080E48987EFEEF0E0B4
S1131B4080818F7380831092EE0080E011C019872A
S1131B50EFEEF0E080818F7380831092EE0082E0DC
S1131B6007C082E005C082E003C082E001C081E0DA
S1131B70DF91CF911F91FF90EF900895FC01362FD4
S1131B80862F64E60E94B218482F405D2AE0832F16
S1131B90622F0E94B2180E94B218905D403331F453
S1131BA0903311F040E202C090E240E220E2208350
S1131BB021832283238324832583268327834087C9
S1131BC09187832F6AE00E94B218905D928785E224
S1131BD083872487258726872787208B218B228B41
S1131BE0238B0895CF93FC01362FC4E6862F6C2FE8
S1131BF00E94B2188E5C8083BEE2B1835AE0832FC8
S1131C00652F0E94B218392F0E94B218905D9283FA
S1131C10305D3383A6E5A48330E235833683842F95
S1131C206C2F0E94B2188E5C8783B087842F652F37
S1131C300E94B218492F0E94B218905D9187405DAE
S1131C404287A387348735873687822F6C2F0E947B
S1131C50B2188E5C8787B08B822F652F0E94B218D2
S1131C60292F0E94B218905D918B205D228BA38B4B
S1131C70CF9108951F93CF93DF93CDB7DEB76497C9
S1131C800FB6F894DEBF0FBECDBF582F192F462FC5
S1131C90CE010196E0E0F1E024E10190DC010D9237
S1131CA0CD012150D1F7842F6AE00E94B218B82FD9
S1131CB06BE00E94B218292F30E01216130644F08C
S1131CC020E030E0FE01E20FF31F35968AE20FC0F8
S1131CD0FE013596BF01690F711DCB0166E1619369
S1131CE0E817F907E1F72A30310564F306C0819358
S1131CF02F5F3F4F2A303105D4F34456443630F435
S1131D00FE01E20FF31F81E3868305C0FE01E20FAB
S1131D10F31F80E28683FE01E20FF31F8B2F6AE03C
S1131D200E94B218905D9783FE01E20FF31F80E3D7
S1131D30808785E28187E52FF12FDE01119684E10A
S1131D400D9001928150E1F764960FB6F894DEBFCE
S1131D500FBECDBFDF91CF911F910895CF93FC01AA
S1131D60362FC4E6862F6C2F0E94B218805D8083C4
S1131D705AE0832F652F0E94B218392F0E94B2189F
S1131D80905D9183305D3283B0EBB383A3E4A4838D
S1131D9030E235833683842F6C2F0E94B218805D25
S1131DA08783842F652F0E94B218492F0E94B2188E
S1131DB0905D9087405D4187B287A38734873587DC
S1131DC03687822F6C2F0E94B218805D8787822FFE
S1131DD0652F0E94B218292F0E94B218905D908B33
S1131DE0205D218BB28BA38BCF910895FC01462FEC
S1131DF020E2208321832283238324832583268353
S1131E00862F64E60E94B218805D87833AE0842FAF
S1131E10632F0E94B218492F0E94B218905D9087D8
S1131E208EE28187405D428786E583872487258704
S1131E3026872787208B218B228B238B0895CF9392
S1131E40DF93EC01362FE62FF0E0EC3CF10508F0CF
S1131E50E0C0E65BFF4FEE0FFF1F0590F491E02D0D
S1131E600994FC01A8EDB5E084E10D900192815044
S1131E70E1F731C1FC01A4ECB5E084E10D900192DD
S1131E808150E1F728C1FC01ACE9B5E084E10D9093
S1131E9001928150E1F71FC1FC01A8E8B5E084E19B
S1131EA00D9001928150E1F716C1FC01A4E7B5E061
S1131EB084E10D9001928150E1F70DC1FC01A0E68F
S1131EC0B5E084E10D9001928150E1F704C1FC0179
S1131ED0ACE4B5E084E10D9001928150E1F7FBC0E0
S1131EE0FC01A8E3B5E084E10D9001928150E1F793
S1131EF0F2C0FC01A4E2B5E084E10D9001928150AE
S1131F00E1F7E9C0FC01A0ECB4E084E10D9001929A
S1131F108150E1F7E0C0FC01ACEAB4E084E10D904B
S1131F2001928150E1F7D7C0FC01A8E9B4E084E153
S1131F300D9001928150E1F7CEC0FC01A4E8B4E019
S1131F4084E10D9001928150E1F7C5C0FC01A0E746
S1131F50B4E084E10D9001928150E1F7BCC0FC0132
S1131F60ACE5B4E084E10D9001928150E1F7B3C097
S1131F70FC01A8E4B4E084E10D9001928150E1F702
S1131F80AAC0FC01A4E3B4E084E10D900192815065
S1131F90E1F7A1C0FC01A0E2B4E084E10D9001925C
S1131FA08150E1F798C0FC01A8EFB3E084E10D9003
S1131FB001928150E1F78FC0FC01A8EFB3E084E106
S1131FC00D9001928150E1F786C0FC01A0EDB3E0D1
S1131FD084E10D9001928150E1F77DC0FC01ACEBEE
S1131FE0B3E084E10D9001928150E1F774C0FC01EB
S1131FF0A8EAB3E084E10D9001928150E1F76BC04F
S1132000FC01A0E8B3E084E10D9001928150E1F776
S113201062C0FE01A0EBB5E084E10D900192815015
S1132020E1F7832F6AE00E94B218282F482F50E06E
S1132030CA01880F991FAC01440F551F440F551F47
S1132040840F951F8E319105B9F08F31910524F4D9
S11320508431910559F507C088329105B1F0823376
S1132060910521F51BC0DE01ECEFF4E084E1019061
S11320700D928150E1F71AC0DE01E8EEF4E084E14C
S113208001900D928150E1F711C0DE01E4EDF4E01E
S113209084E101900D928150E1F708C0DE01E4ED86
S11320A0F4E084E101900D928150E1F7832F64E61E
S11320B00E94B218805D89834AE0822F642F0E94B7
S11320C0B218905D9A83832F0E94B218905D9B830F
S11320D0DF91CF910895832F6AE00E94B218282FD0
S11320E0E5CFFC01E60FF11D405D40830895CF93D9
S11320F0DF93CDB7DEB764970FB6F894DEBF0FBE9B
S1132100CDBFDE011196E4E1F1E024E101900D92EE
S11321102150E1F7E82FF92FDE01119684E10D90AB
S113212001928150E1F764960FB6F894DEBF0FBEBA
S1132130CDBFDF91CF910895CF92DF92EF92FF92BE
S11321400F931F93CF93DF93CDB7DEB764970FB68A
S1132150F894DEBF0FBECDBFF82EE92E9B016A01B5
S113216004E610E0CB01B8010E94BE18462F405D82
S1132170EAE0F0E0C901BF010E94BE18CB01BF0133
S11321800E94BE18382F305DC601B8010E94BE18E7
S1132190605D403321F4303321F080E204C0842FA9
S11321A002C030E280E2603309F460E220E2298375
S11321B08A833B834C8340EB4D8333E43E832F83FC
S11321C0288729872A872B872C872D872E876F8737
S11321D0688BC6016AE070E00E94BE18805D898B3E
S11321E04A8B3B8B2C8BEF2DFE2DDE01119684E167
S11321F00D9001928150E1F764960FB6F894DEBF1A
S11322000FBECDBFDF91CF911F910F91FF90EF9043
S1132210DF90CF900895CF93C82F28988AEF0E941B
S1132220A0168C2F0E94A016289ACF910895CF93C0
S1132230C82F289888EF0E94A0168C2F0E94A01601
S1132240289ACF910895EF92FF920F931F93CF9303
S1132250DF93D82FC92FF62EE72E82E00E941711A4
S11322600D2F1C2FC0E0D0E0F80181918F010E9456
S11322700B112196C431D105B9F7C4E1D0E084E152
S11322800E9417112197D9F70F2D1E2DC0E0D0E021
S1132290F80181918F010E940B112196C431D1055F
S11322A0B9F7DF91CF911F910F91FF90EF900895AF
S11322B0E82FF92FA8E4B6E084E10D900192815053
S11322C0E1F7089580918A068C3051F49091470685
S11322D09F3F31F090938A068FEF8093470603C0A7
S11322E08F5F80938A0680918A066DE00E94B218FF
S11322F090938A06992319F481E080938A060895BD
S113230080918A06823020F48CE080938A060895B6
S11323108C3051F4909147069F3F31F090938A0698
S11323208FEF809347060895815080938A0608951D
S1132330CF93DF93682FC4E0D2E0CE010E94BE0D9C
S11323408CED91E0BE010E942311DF91CF9108959D
S11323506230710551F16330710544F46115710502
S113236081F06130710509F047C015C06430710512
S113237081F1643071051CF16530710509F03CC0D0
S113238032C0E82FF92FA0EAB1E084E10D90019268
S11323908150E1F70895E82FF92FACE8B1E084E12A
S11323A00D9001928150E1F70895E82FF92FA4EBE5
S11323B0B1E084E10D9001928150E1F70895E82F96
S11323C0F92FA4E6B1E084E10D9001928150E1F788
S11323D00895E82FF92FA0E5B1E084E10D90019272
S11323E08150E1F70895E82FF92FA8E7B1E084E1DF
S11323F00D9001928150E1F70895CF920F931F93AE
S1132400CF93DF93C62F873009F4CDC0883098F47A
S1132410833009F488C0843038F4813009F469C009
S1132420823008F072C01EC0853009F4A3C0863023
S113243008F093C086C08B30B1F18C3038F4893009
S113244009F4BDC08A3008F0C6C0A1C08D3009F4BB
S1132450E5C08D3090F08E3009F4C9C08F3009F09A
S1132460E8C0D1C0C4E0D2E0CE010E9477108CE66F
S113247093E0BE010E942311DCC084E092E06C2D45
S113248070E00E941F0FC83C38F084E493E064E0DD
S113249072E00E942311CDC088E593E064E072E00D
S11324A00E942311C6C0623061F06330B9F061301C
S11324B009F0BFC088E692E064E572E00E9423114F
S11324C0B8C0C4E0D2E0CE0162E070E00E943A0EEF
S11324D080E492E0BE010E942311ABC0C4E0D2E0CC
S11324E0CE010E9477108CE292E0BE010E9423117B
S11324F0A0C004E012E0C80170E00E94BE0D80E3B9
S113250093E0B8010E94231194C004E012E0C801D2
S113251070E050E030E00E94F20D8CE193E0B801ED
S11325200E94231186C004E012E0C80170E050E06C
S113253030E00E94AE0E88E093E0B8010E942311BF
S113254078C004E012E0C80170E00E94F60E84EF47
S113255092E0B8010E9423116CC004E012E0C801AB
S113256070E050E00E949C1084EA92E0B8010E945E
S113257023115FC004E012E0C80170E050E00E9443
S11325809C1088EB92E0B8010E94231152C004E031
S113259012E0C80170E00E943A0E8CEC92E0B8019F
S11325A00E94231146C004E012E0C80170E00E94BA
S11325B03A0E80EE92E0B8010E9423113AC004E082
S11325C012E0C80170E00E943A0E80E992E0B8017E
S11325D00E9423112EC004E012E0C80170E00E94A2
S11325E03A0E8CE792E0B8010E94231122C004E065
S11325F012E0C80170E00E94711088E192E0B80115
S11326000E94231116C0C4E0D2E0CE010E947710CC
S113261080EF91E0BE010E9423110BC004E012E0A0
S1132620C80170E00E94A81188EC91E0B8010E94F2
S11326302311DF91CF911F910F91CF900895CF92E5
S1132640EF920F938EE10E948A168CB58F778CBD22
S11326508CB580618CBD10928A06209A289A8CE0F1
S11326600E94171188E30E94171180E060E040E0A7
S113267020E000E0EE24CC240E94FD118FEF809333
S113268047060F91EF90CF9008959093F1058093B2
S1132690F0050E94A8180895E091F005F091F10565
S11326A09081892B80830895E091F005F091F105E4
S11326B01082089510920A0710920B070895CF9381
S11326C0DF93E82FC0910A07D0E0CE01019660E1C4
S11326D070E00E94BE1840910B0750E084179507E4
S11326E031F0C650D94FE88380930A0703C088E0CD
S11326F00E944C13DF91CF91089580910B07909124
S11327000A07981731F0EAEFF6E0E80FF11D80812F
S113271008958AE00895CF92EF920F93CF93DF93B9
S113272080910B07EAEFF6E0E80FF11D8081863017
S113273009F44CC0873040F4813081F1813070F06D
S1132740843009F006C122C0883009F46DC0883095
S113275008F467C0893009F0FCC069C082EF95E0D5
S113276062E076E042E055E028E00E948603CAE099
S1132770D6E0CE016AE176E041E055E021E00E9436
S113278086037894CE010E949703E3C080912E06BD
S1132790882309F0DEC00E94B916DBC080912E06A2
S11327A0813009F0D6C00E948B0280918A06809302
S11327B002068091ED05809303068091EC058093D9
S11327C0040682EF95E00E94EA03C3C080912E06BE
S11327D0813009F0BEC08091EE058823F9F0809124
S11327E0EF05833040F40E941C038091EF05815073
S11327F08093EF0503C081508093EF058091EF052E
S1132800882309F0A6C084E08093EF050E941A0390
S11328108091EE0581508093EE059BC00E941C03BD
S113282098C00E943A0495C00E941B0492C08091F3
S11328302E06813009F08DC08AE096E00E94A5033F
S1132840D0911C06EAE1F6E0C081C180C0FF04C05B
S113285080E00E94D01403C080E00E9408158C2FF1
S1132860869580FF04C08AE00E94D01403C08AE0E9
S11328700E9408158C2F8695869580FF04C082E0FF
S11328800E94D01403C082E00E9408158C2F869504
S11328908695869580FF04C083E00E94D01403C00F
S11328A083E00E9408158C2F82958F7080FF04C0EE
S11328B084E00E94D01403C084E00E9408158C2F89
S11328C082958695877080FF02C00E941E03C29580
S11328D0C695C695C370C0FF04C081E00E94D014A1
S11328E003C081E00E94081581E09091B1069C1517
S11328F009F480E08823E1F081E0CC2009F480E051
S11329008823B1F0C092B10680918A06809347066D
S11329108CE080938A0660911D0640911E062091EA
S11329201F0600912006E09021060E94FD1111C0AF
S113293080918A06D81769F48D2F60911D06409105
S11329401E0620911F0600912006E09021060E9499
S1132950FD11DF91CF910F91EF90CF900895909159
S11329600A0780910B07981761F00E948B138091DE
S11329700B0790E0019660E170E00E94BE1880931E
S11329800B070895579A099A0B9A0C9A9A9A3C9AAB
S1132990389A999A989A399A0A9A0E9440150895F1
S11329A08C30A8F5853091F1863070F4823031F1A5
S11329B0833028F4882341F1813049F513C08330F2
S11329C009F1843021F51CC0883091F0893028F455
S11329D0863051F08730D9F409C0893059F08A30F3
S11329E0B1F40AC05F9A0895119A0895139A08954C
S11329F0149A0895A29A0895449A0895409A0895BD
S1132A00A19A0895A09A0895419A0895129A089552
S1132A108C30A8F5853091F1863070F4823031F134
S1132A20833028F4882341F1813049F513C0833081
S1132A3009F1843021F51CC0883091F0893028F4E4
S1132A40863051F08730D9F409C0893059F08A3082
S1132A50B1F40AC05F9808951198089513980895E1
S1132A6014980895A2980895449808954098089554
S1132A70A1980895A09808954198089512980895EA
S1132A80CF93C0E08C2F0E940815CF5FCC30D1F7D4
S1132A90CF9108958C3008F079C0853059F1863093
S1132AA098F4823009F44FC0833038F4882309F451
S1132AB05DC0813009F069C018C0833009F450C08A
S1132AC0843009F062C045C0883069F1893038F437
S1132AD0863009F452C0873009F057C013C08930DA
S1132AE0D1F08A3009F051C026C081E05F994EC010
S1132AF080E0089592B1969581E0913009F446C042
S1132B0080E0089592B196959695969581E09130DE
S1132B10E9F180E0089592B192959F7081E091303F
S1132B20A9F180E0089594B39695969581E091304B
S1132B3069F180E0089598B192959F7081E0913099
S1132B4029F180E0089598B181E09130F9F080E0B6
S1132B50089594B3969581E09130C1F080E0089592
S1132B6094B381E0913091F080E0089598B1969506
S1132B7081E0913059F080E0089592B19695969550
S1132B8081E0913019F080E0089508950895CF937D
S1132B90C82F0E944A15882321F08C2F0E94081503
S1132BA003C08C2F0E94D014CF910895EF92FF920E
S1132BB00F931F93CF93DF937C01C0E0D0E001E03B
S1132BC010E08C2F98010C2E02C0220F331F0A94A0
S1132BD0E2F72E213F212115310511F00E94D01476
S1132BE02196CB30D10569F7DF91CF911F910F91D9
S1132BF0FF90EF9008950F931F93CF93DF93C0E05E
S1132C00D0E08C2F0E944A1590E00C2E02C0880F51
S1132C10991F0A94E2F7082B192B2196CB30D10582
S1132C2081F7802F912FDF91CF911F910F910895FC
S1132C30CF93C82F833110F40E944015C43130F073
S1132C4082E00E94D01489E00E94D014C83230F08F
S1132C508AE00E94D01488E00E94D014CC3330F073
S1132C6081E00E94D01487E00E94D014C03530F077
S1132C7083E00E94D01486E00E94D014C43630F061
S1132C8084E00E94D01485E00E94D014CF9108956E
S1132C90089511B814B887B1807687B98FEF8AB9CF
S1132CA01DB810BA93B3907E93BB82B985B988B925
S1132CB09BB19F699BB98EB981BB84B38F6184BB7F
S1132CC0089510922E060E9449160E946B0382E01A
S1132CD060E00E94321883E060E00E9437180E948E
S1132CE03C180E946C180E9417030E948C180E94C2
S1132CF0C2140E946A020E941F130E949C1880E062
S1132D000E945F130895529A5A9808955A9A089502
S1132D105A980895209A209A94B1966094B99CB5D3
S1132D20907C9CBD9CB58F73892B8CBD8DB58DBD5E
S1132D308CB580648CBD81E008958DB5807808954C
S1132D408EBD0DB407FEFDCF08950DB407FEFDCF73
S1132D508EB508950DB407FEFDCF8EBD08951F9264
S1132D600F920FB60F9211240F900FBE0F901F9069
S1132D701895CF92EF920F93CF93209122062F5F55
S1132D8020932206822F66E00E94B2189923E9F468
S1132D90C6E0822F0E94B218880F982F990F990FBE
S1132DA0890F0E949811809122066C2F0E94B218FC
S1132DB0282F30E0220F331FC901880F991F880F75
S1132DC0991F820F931F0E941816809122068C333C
S1132DD070F081E080932E0610928A0680E060E015
S1132DE040E020E000E0EE24CC240E94FD11CF91CD
S1132DF00F91EF90CF9008951F920F920FB60F92FC
S1132E0011240F900FBE0F901F9018951F920F92D0
S1132E100FB60F9211240F900FBE0F901F901895AC
S1132E201F920F920FB60F9211242F933F934F933B
S1132E305F936F937F938F939F93AF93BF93EF931E
S1132E40FF93E8E8F0E080819181805D9A48918366
S1132E50808381E00E945F13FF91EF91BF91AF9156
S1132E609F918F917F916F915F914F913F912F919E
S1132E700F900FBE0F901F9018951F920F920FB6D0
S1132E800F9211242F933F934F935F936F937F93EC
S1132E908F939F93AF93BF93EF93FF93EAE8F0E090
S1132EA080819181805A95419183808382E00E9440
S1132EB05F13FF91EF91BF91AF919F918F917F919C
S1132EC06F915F914F913F912F910F900FBE0F9093
S1132ED01F9018951F920F920FB60F9211242F93E3
S1132EE03F934F935F936F937F938F939F93AF938E
S1132EF0BF93EF93FF93ECE8F0E0808191818856D3
S1132F00954C9183808383E00E945F13FF91EF913E
S1132F10BF91AF919F918F917F916F915F914F91ED
S1132F203F912F910F900FBE0F901F9018951F92F5
S1132F300F920FB60F9211242F933F934F935F93E9
S1132F406F937F938F939F93AF93BF93EF93FF936D
S1132F50E8E9F0E0808191818059964B91838083E8
S1132F6084E00E945F13FF91EF91BF91AF919F9115
S1132F708F917F916F915F914F913F912F910F901E
S1132F800FBE0F901F9018951F920F920FB60F92BD
S1132F9011242F933F934F935F936F937F938F935A
S1132FA09F93AF93BF93EF93FF93EAE9F0E080819F
S1132FB0918180529D469183808385E00E945F13B6
S1132FC0FF91EF91BF91AF919F918F917F916F91FD
S1132FD05F914F913F912F910F900FBE0F901F90D3
S1132FE018951F920F920FB60F9211242F933F93AF
S1132FF04F935F936F937F938F939F93AF93BF93FD
S1133000EF93FF93ECE9F0E08081918180599C4E2D
S11330109183808386E00E945F13FF91EF91BF91BB
S1133020AF919F918F917F916F915F914F913F915C
S11330302F910F900FBE0F901F9018951F920F9213
S11330400FB60F9211240F900FBE0F901F9018957A
S11330501F920F920FB60F9211240F900FBE0F9074
S11330601F9018958093810060936F00089580935A
S1133070910060937100089580918400909185007F
S1133080805D9A489093890080938800EFE6F0E091
S1133090808182608083089580918400909185006E
S11330A0805A954190938B0080938A00EFE6F0E07C
S11330B0808184608083089580918400909185004C
S11330C08856954C90938D0080938C00EFE6F0E049
S11330D08081886080830895809194009091950008
S11330E08059964B9093990080939800E1E7F0E023
S11330F080818260808308958091940090919500EE
S113310080529D4690939B0080939A00E1E7F0E003
S113311080818460808308958091940090919500CB
S113312080599C4E90939D0080939C00E1E7F0E0D1
S113313080818860808308952BE088E190E00FB659
S1133140F894A895809360000FBE209360000895C2
S113315004B603FE06C084B7877F84BF80E10E9463
S11331604C130895991B79E004C0991F961708F031
S1133170961B881F7A95C9F78095089597FB092EA9
S113318007260AD077FD04D00CD006D000201AF40C
S1133190709561957F4F0895F6F7909581959F4FAF
S11331A00895AA1BBB1B51E107C0AA1FBB1FA6178A
S11331B0B70710F0A61BB70B881F991F5A95A9F7DC
S11131C080959095BC01CD010895F894FFCF41
S11331CE202020204142434445464748494A202076
S11331DE20202020202020202020202020202020DD
S11331EE2020202020202020303132333435363731
S11331FE38394142434445464748494A0000000095
S113320E00000000000000000000000000000000AC
S113321E202020203E5052494E43455353205045C2
S113322E41434820202020203E444F4E4B45592DEB
S113323E4B4F4E4720202020202020203E424F5727
S113324E53455220202020202020202020202020E2
S113325E3E4C554947492020202020202020202064
S113326E202020203E4D4152494F20202020202056
S113327E20202020202020203E594F534849202032
S113328E20202020202020202053454C454354202C
S113329E594F555220504C41594552203C3C202008
S11332AE205354415254494E4720555020203E3EFF
S11332BE20202052454144592020544F2044524945
S11332CE5645202020202020202020202020202091
S11332DE20202020202020202020425554544F4EC0
S11332EE20505245535345442020202020203C3C5E
S11332FE474F2120474F2120474F213E3E2020207B
S113330E20414343454C45524154494F4E2052456A
S113331E4144592020204E4F524D414C2044524995
S113332E56452020202020202020414343454C4553
S113333E524154494F4E204D4F4445202020544F66
S113334E525155452020564543544F52494E47201D
S113335E20205452414354494F4E20434F4E545211
S113336E4F4C202020204D4F544F522054454D5049
S113337E2E2052454152202020204D4F544F522092
S113338E54454D502E2046524F4E542020204D4F22
S113339E544F5220504F57455220524541522020EF
S11333AE20204D4F544F5220504F574552204652D5
S11333BE4F4E5420202020204C5620564F4C544122
S11333CE4745202020202020204D494E20204345D3
S11333DE4C4C54454D5020204D4158204D494E20C3
S11333EE2043454C4C564F4C54414745204D415873
S11333FE20205354415445204F46204348415247C0
S113340E45202020202020202020204D45535341AC
S113341E4745202020202000202020202020204549
S113342E52524F5220202020202000002020202005
S113343E20414D5A206772696D73656C20202020DF
S113344E235858582020204D43204641494C2020D3
S113345E2020202023585858202020505245204305
S113346E485247204641494C235858582020204D55
S113347E53204F50454E20202020202023585858AA
S113348E202020454E5245204641494C20202020E4
S113349E2358585820202052454144592032204464
S11334AE52495645235858582020205052454348D7
S11334BE415247454420202023585858202020505C
S11334CE52454348415247454420202023585858DA
S11334DE2020205052454348415247494E47202010
S11334EE23585858202020434845434B204D532001
S11334FE2020202023585858202020535441525421
S113350E494E47205453202023585858204D495390
S113351E53494E47205348554E542000235858586B
S113352E204D495353494E47204D432D52202000E0
S113353E23585858204D495353494E47204D432D37
S113354E4C20200023585858204D495353494E4778
S113355E204D434D4142200023585858204D495385
S113356E53494E47204D434D4C564200235858580C
S113357E204D495353494E47204D434D462020007C
S113358E23585858204D495353494E47204D434DC7
S113359E5220200023585858204D434D2045525256
S11335AE4F5220202020200023585858204D4320CD
S11335BE4552524F52202020202020002358585884
S11335CE20424D53204552524F522020202020009D
S11335DE235858582042414452455155455354207E
S11335EE4944200023585858204252414B452050FC
S11335FE2E442E20202020002358585820494D4474
S113360E46202020202020202020200023585858F7
S113361E20494D442020202020202020202020003E
S113362E23585858204856444920494E544552551B
S113363E505420002358585820424F5453202020D1
S113364E2020202020202000235858582050524556
S113365E20424F5453202020202020002358585815
S113366E2050524520454E52452020202020200037
S113367E2358585820554E4B4E4F574E20455252B4
S113368E4F5220002358585820534320444F574E2E
S113369E2020202020202000235858582020204E5F
S10F36AE4F4E452020202020202020200A
S9030000FC
