:100000000C944A000C9467000C9467000C946700F1
:100010000C9467000C9467000C9467000C946700C4
:100020000C9467000C9467000C9467000C946700B4
:100030000C94FD130C942A140C9457140C940B1567
:100040000C94E9130C94F3130C944B020C9467007A
:100050000C9467000C9467000C9467000C94670084
:100060000C9467000C9467000C9467000C94670074
:100070000C9484140C94B1140C94DE140C94151587
:100080000C9467000C9467000C9467000C94670054
:100090000C94670011241FBECFEFD8E0DEBFCDBFA8
:1000A00013E0A0E0B1E0E8EAFBE202C005900D92A7
:1000B000A835B107D9F714E0A8E5B3E001C01D9257
:1000C000A437B107E1F70E9469000C94D2150C9493
:1000D00000000E949313A8950E942712FCCF9CB1A8
:1000E00092959F7090FD0BC0E82FF0E0EE0FFF1F80
:1000F000EE0FFF1FE951FC4F91E0908309C0E82FFC
:10010000F0E0EE0FFF1FEE0FFF1FE951FC4F1082D2
:100110009CB192959695977090FD0BC0E82FF0E0FA
:10012000EE0FFF1FEE0FFF1FE951FC4F91E091838F
:1001300009C0E82FF0E0EE0FFF1FEE0FFF1FE9519F
:10014000FC4F118296B1929596959695937090FD7D
:100150000BC0E82FF0E0EE0FFF1FEE0FFF1FE9517D
:10016000FC4F91E0928309C0E82FF0E0EE0FFF1FF3
:10017000EE0FFF1FE951FC4F128296B196959695AE
:10018000969590FD0BC0E82FF0E0EE0FFF1FEE0FED
:10019000FF1FE951FC4F81E083830895E82FF0E0D1
:1001A000EE0FFF1FEE0FFF1FE951FC4F1382089562
:1001B0006E98769A08956F98779A089524982C9A55
:1001C000089576986E9A089577986F9A08952C9866
:1001D000249A089580910804882321F0109208043D
:1001E0000E94C11080910904882321F01092090413
:1001F0000E94D6108091ED03882321F086E00E94B2
:100200003A1203C086E00E946B128091E9038823B2
:1002100021F080E00E943A1203C080E00E946B123D
:100220008091F103882321F085E00E943A1203C0F7
:1002300085E00E946B128091EA03882321F087E019
:100240000E943A1203C087E00E946B128091EE0375
:10025000882321F088E00E943A1203C088E00E94BF
:100260006B128091F203882321F089E00E943A12F8
:1002700003C089E00E946B12109259038091E90338
:10028000882319F081E0809359038091F10388233A
:1002900029F0809159038260809359038091ED0386
:1002A000882329F0809159038460809359038091B9
:1002B000EA03882329F080915903886080935903C9
:1002C0008091EE03882329F0809159038061809307
:1002D00059038091F203882329F0809159038062A9
:1002E00080935903109258038091EB03882319F0EF
:1002F00082E0809358038091EC03882329F0809159
:1003000058038160809358038091E703882329F084
:1003100080915803846080935803089585B78F7E39
:1003200085BF8DB18F6B8DB9769A8DB18F678DB981
:10033000779A84B18F6E84B92C9A6C98749A6D9860
:10034000759A3E98469A3B98439AEEE0F4E0CF01C6
:100350000C9621E02193E817F907E1F70895CF9271
:10036000DF92EF92FF920F931F93CF93DF93C8ED2D
:10037000D0E0FE0109950BED10E0F80109950F2E74
:10038000FEEDEF2EF0E0FF2EF02DF7010995F801BC
:100390000995F70109950E94E1000F2EFFE6CF2E87
:1003A000F0E0DF2EF02D80E090E0F6010995FE01EF
:1003B0000995F70109950E94E40081E090E0F601BB
:1003C0000995FE010995F80109950E94E70082E070
:1003D00090E0F6010995FE010995F8010995F701EC
:1003E0000995E4EFF3E0A7EEB3E00EE014E080E05F
:1003F00094E0AF01445F5F4F71E09F01608166232D
:1004000059F46C91613041F4E8016881613081F404
:10041000EC017883E8011882E9012881213041F458
:100420002C91222329F4E8012881222309F47883DE
:10043000319611960F5F1F4F0196E417F507E9F605
:100440000E94EA00A4EFB3E0E7EEF3E08CE0019055
:100450000D928150E1F7DF91CF911F910F91FF90A5
:10046000EF90DF90CF90089527EE33E0280F311DF5
:10047000F90180810895089A10980895109A0895B6
:10048000109808950E943E0283E080935A0384E00E
:1004900080935B0308951F920F920FB60F92112461
:1004A0002F933F934F935F936F937F938F939F937C
:1004B000AF93BF93CF93EF93FF93C091EE00C0FF34
:1004C00008C087E00E941011EEEEF0E080818E7F80
:1004D0008083C6FF08C088E00E941011EEEEF0E0B5
:1004E00080818F7B8083C5FF08C089E00E94101146
:1004F000EBEDF0E080818F778083FF91EF91CF91DA
:10050000BF91AF919F918F917F916F915F914F912B
:100510003F912F910F900FBE0F901F90189585E07F
:100520000E9446061092EE00EBEDF0E08081886BB1
:1005300080838FE78093DF008FEF8093DE0010923F
:10054000240410922604109225041092280410927C
:1005500027040895FC0170876783178616865383E6
:10056000428326838FEF97E0A0E0B0E082879387F5
:10057000A487B5870895909328048093270425E0E5
:10058000FC01218380912704909128040E945B063E
:1005900008950E94350CEBEDF0E080818068808347
:1005A00008959091240480912604981741F1E091D8
:1005B0002704F0912804309741F08CE081838091EA
:1005C0002704909128040E945B06E0912604F0E045
:1005D000EE0FFF1FE65EFB4FA081B18182E0119616
:1005E0008C93808191810E945B06882321F081E0B9
:1005F0000E94FD10089581E0809325040895E09104
:100600002704F0912804309741F085E081838091A0
:100610002704909128040E945B060895CF93DF93EE
:10062000EC01E0912404F0E0CF01019665E070E078
:100630000E94AB152091260430E08217930749F001
:10064000EE0FFF1FE65EFB4FD183C083809324042F
:1006500003C084E00E94FD1080912504882311F4DA
:100660000E94D102DF91CF910895E0912604F0E03D
:10067000EE0FFF1FE65EFB4F808191810895E091B0
:100680002604F0E0EE0FFF1FE65EFB4FA081B18174
:100690008CE011968C93808191810E945B06109270
:1006A00025048091260490E0019665E070E00E94A8
:1006B000AB15809326040E94D102089580912504F1
:1006C0008130F9F4E0912604F0E0EE0FFF1FE65EC2
:1006D000FB4FA081B1818CE011968C938081918138
:1006E0000E945B0682E00E94FD101092250480911A
:1006F000260490E0019665E070E00E94AB158093BF
:1007000026040895CF93DF93EC018CE08983CE011A
:100710000E945B06CE010E94350C8130D9F385E042
:100720008983CE010E945B06DF91CF91089520E07E
:10073000ADEEB0E08EEE90E0322F3295307F3C93FC
:10074000FC011192E83FF105E1F72F5F2F30A1F78F
:100750000895EDEEF0E0208110828091EF00807C22
:1007600069F081E0ADEEB0E0EFEEF0E0982F929509
:10077000907F9C939081907C29F401C080E020932D
:10078000ED0008958F5F8F3089F72093ED008FEF94
:1007900008958091EF00807C69F09091EE00892FA0
:1007A000807E803241F0803431F0803A21F0892F10
:1007B0008F7108958FEF0895CF93DF93AC018091EF
:1007C000EF0090E08F70907018161906A4F460E0A6
:1007D000EAEFF0E0CFEED0E08081DA01A60FB11DA4
:1007E0008C936F5F8881262F30E090E08F7090703F
:1007F000281739078CF3DF91CF9108952F923F92FC
:100800004F925F926F927F928F929F92AF92BF9220
:10081000CF92DF92EF92FF920F931F93CF93DF93CC
:1008200000D000D000D0CDB7DEB7882309F47CC05B
:100830008091E20090E08E77907095958795019673
:10084000823091055CF08091E20090E08E779070AC
:1008500095958795282F2F5F298302C081E0898392
:100860008091E30090E08E70907095958795019649
:100870008230910554F08091E30090E08E7090708A
:1008800095958795382E339402C033243394809104
:10089000E40090E08E709070959587950196833076
:1008A000910554F08091E40090E08E7090709595E1
:1008B0008795782E739403C07724689471F880919B
:1008C000E40090E080779070959587959595879551
:1008D000959587959595879501968330910584F038
:1008E0008091E40090E0807790709595879595953C
:1008F00087959595879595958795682E639403C000
:100900006624689461F8872D90E0830D911D860D13
:10091000911D01968830910514F488E090E08A8357
:1009200040E02224239410C041E0222466246894ED
:1009300061F87724689471F898E09A830F2EF3E0B9
:100940003F2EF02DA1E0A98320E0ADEEB0E08EEEC9
:1009500090E0322F3295307F3C93FC011192E83FBA
:10096000F105E1F72F5F2F30A1F7A42E622DDD24D2
:100970008824992470E00F2EF8EDEF2EFF24F02D3F
:1009800051E0E9EDF0E00AED10E020E0C52EB22ED6
:10099000B2E0BB8388E08E8391E0A91609F057C0CE
:1009A000D7015C930894811C911C89818150880F28
:1009B000A2EEB0E08C93862D869590E001972C01F5
:1009C000440C551C440C551C440C551C440C551C23
:1009D000440C551C832D90E00197880F991F8429A2
:1009E000A3EEB0E08C93862D90E001972C01440C8F
:1009F000551C440C551C440C551C440C551C872D8F
:100A000090E00197880F991F84298160A4EEB0E0DF
:100A10008C93C4019695879596958795969587951D
:100A2000A5EEB0E08C93ADEEB0E01C92AEEEB0E07F
:100A30001C9280E8AFEEB0E08C938AE0D7018C93F3
:100A4000808182FFFDCF8FEFD8018C93722F4130D0
:100A5000B1F5AEEEB0E08C9190E085FF0EC0AFEE48
:100A6000B0E08C918F738C93D7011C92808182FDB2
:100A7000FDCFD52E622F322FBEC08F7190700097A0
:100A800011F06C2D4B2DD8014C90552445FE0DC016
:100A9000772329F48C9180628C937C2D06C0D80139
:100AA0008C9180628C936C2D4B2DC2018F70907055
:100AB000009709F09DC0413061F2352F01C0352FFC
:100AC000613009F078C0832F372D7A2CAD2CD72ECA
:100AD000782F21103F5F393078F1B7E0B61560F517
:100AE0008A81893131F08F5F8A832B2C6B80362D80
:100AF00059C09981903441F09F5F99832B2C6B8072
:100B0000362DAE81AA834EC0A72C7D2DAFEEB0E06E
:100B10008C918F738C93D7011C92808182FDFDCFC5
:100B2000D22E322F222E6624689461F8772468949E
:100B300071F8B8E0BA8369C0363058F0432E5524B6
:100B4000862D90E001968415950524F46394362D46
:100B500001C0632E362C330E30948A81380E832DDB
:100B600081508830E0F4462C5524832D90E0DC0140
:100B70001196A30FB11DBD83AC83C201880F991FCD
:100B8000880F991F8A179B0764F0C201880F991F6D
:100B9000840D951DA817B90784F52C2C03C02C2CA7
:100BA00001C02C2C613009F494CF872F7D2DDA2CD5
:100BB000A72C732E382F313009F4EECE8D2D2696CA
:100BC0000FB6F894DEBF0FBECDBFDF91CF911F915E
:100BD0000F91FF90EF90DF90CF90BF90AF909F90DC
:100BE0008F907F906F905F904F903F902F900895DF
:100BF000A52E652F352F422F63CF872F7D2DDA2C21
:100C0000A72C732E382F452F252E622FD4CF8093FB
:100C1000E2006093E3004093E40081E0089591E0F6
:100C20009093D800853031F482E068E045E20E947C
:100C3000070606C01092E2001092E3001092E40052
:100C400081E008950F931F93FC018785882391F419
:100C500002851385248535850F2EF2E1000F111FC3
:100C6000221F331FFA95D1F7F02D0F6F1F6F2360EE
:100C7000306E05C00285138524853585306E602F62
:100C8000712F822F932F1F910F9108950E940F06AD
:100C9000882349F00E949703E8EDF0E080818260AC
:100CA000808381E0089580E00895E8EDF0E08081A0
:100CB0008D7F808308950F931F93CF93DF9300D090
:100CC00000D0CDB7DEB78C01DC0111968C91119765
:100CD0008C30B1F419968C911997803669F48C9107
:100CE0008295807F8093ED00EFEEF0E080818F733E
:100CF00080831092EE001C92F801118680E0ACC552
:100D00000E94A9038F3F09F4A1C590E6D801199666
:100D10009C9319978C938295807F8093ED00EEEEE3
:100D2000F0E01192E83FF105E1F7F80181818630AA
:100D300009F456C2873090F4833009F412C184302C
:100D400030F4813011F1823009F07CC598C08430D4
:100D500009F467C1853009F075C5AAC1893009F465
:100D6000BEC38A3038F4873009F48FC2883009F066
:100D700069C51BC38A3021F08B3009F063C5B1C44B
:100D80008681882309F049C457C4F80187858823E0
:100D900069F194819295969597708581880F880F57
:100DA000880F890F8093F3009381929596959770A1
:100DB0008481880F880F880F890F8093F2009281B9
:100DC0009295969597708381880F880F880F890F69
:100DD0008093F1008281880F880F880F8093F00044
:100DE000EFEEF0E080818061808316C0928196955D
:100DF0009695969583818295880F807E890F809342
:100E0000F30082818295880F807E8093F200EFEE5E
:100E1000F0E080818F7E8083F8018681882379F0DD
:100E200080E02AEF30E0F801A781B085A80FB11D5E
:100E30009C91D9019C938F5F96818917A0F3F8014B
:100E40008685882331F0E0EFF0E080818460808344
:100E500005C0E0EFF0E080818B7F8083EFEEF0E073
:100E60009081D80116968C911697892B808380816A
:100E70008F73808380818064808380E0EDC4F8017B
:100E80008785882369F194819295969597708581DD
:100E9000880F880F880F890F8093F30093819295B4
:100EA000969597708481880F880F880F890F80939B
:100EB000F20092819295969597708381880F880FA2
:100EC000880F890F8093F1008281880F880F880F27
:100ED0008093F000EFEEF0E080818061808316C0A7
:100EE000928196959695969583818295880F807EBE
:100EF000890F8093F30082818295880F807E809392
:100F0000F200EFEEF0E080818F7E8083F801868131
:100F1000882379F080E02AEF30E0F801A781B085DE
:100F2000A80FB11D9C91D9019C938F5F9681891761
:100F3000A0F3F8011686E0EFF0E080818B7F8083DC
:100F4000EFEEF0E09081D80116968C911697892BE0
:100F5000808380818F73808380818064808380E040
:100F60007BC4F8018785882369F1948192959695D1
:100F700097708581880F880F880F890F8093F30001
:100F800093819295969597708481880F880F880F2A
:100F9000890F8093F2009281929596959770838144
:100FA000880F880F880F890F8093F1008281880F46
:100FB000880F880F8093F000EFEEF0E08081806171
:100FC000808316C092819695969596958381829599
:100FD000880F807E890F8093F30082818295880F2D
:100FE000807E8093F200EFEEF0E080818F7E808340
:100FF00081E0F8018687E0EFF0E080818460808303
:10100000EFEEF0E09081D80116968C911697892B1F
:10101000808380818F73808380818064808380E07F
:101020001BC48FEF9FEFDC0189839A83AB83BC8362
:101030009B819295969597708C81880F880F880F69
:10104000890F8093F7009A819295969597708B817E
:10105000880F880F880F890F8093F60099819295E9
:10106000969597708A81880F880F880F890F8093D3
:10107000F5008981880F880F880F24EF30E0F9018F
:101080008083EFEEF0E09081D80116968C91892B49
:101090008083D9018C918B7F8C938C918E7F8C93E4
:1010A00080818F73808380818068808380E0D4C357
:1010B000F8018785882369F19481929596959770B8
:1010C0008581880F880F880F890F8093F3009381A3
:1010D0009295969597708481880F880F880F890F55
:1010E0008093F20092819295969597708381880FF4
:1010F000880F880F890F8093F1008281880F880FF5
:10110000880F8093F000EFEEF0E0808180618083B3
:1011100016C0928196959695969583818295880FB3
:10112000807E890F8093F30082818295880F807E74
:101130008093F200EFEEF0E080818F7E80838FEF6E
:101140009FEFDC0189839A83AB83BC839B8192955B
:10115000969597708C81880F880F880F890F8093E0
:10116000F7009A819295969597708B81880F880FDA
:10117000880F890F8093F6009981929596959770C4
:101180008A81880F880F880F890F8093F5008981E5
:10119000880F880F880F44EF50E0FA018083EFEE4C
:1011A000F0E09081D80116968C911697892B808358
:1011B0001E961C92DA018C9184608C9380EF90E0F3
:1011C000DC012C912B7F2C93DA018C9181608C9324
:1011D00080818F73808380818068808380E03CC3BE
:1011E0008FEF9FEFDC0189839A83AB83BC839B8164
:1011F0009295969597708C81880F880F880F890F2C
:101200008093F7009A819295969597708B81880FBD
:10121000880F880F890F8093F60099819295969593
:1012200097708A81880F880F880F890F8093F50047
:101230008981880F880F880F44EF50E0FA0180837E
:10124000EFEEF0E09081D80116968C911697892BDD
:10125000808381E01E968C93DA018C9184608C935C
:1012600080EF90E0DC012C9124602C9380818F7DB5
:101270008083DA018C918E7F8C9380818F73808341
:1012800080818068808380E0E7C2F80187858823B9
:1012900069F194819295969597708581880F880F52
:1012A000880F890F8093F30093819295969597709C
:1012B0008481880F880F880F890F8093F2009281B4
:1012C0009295969597708381880F880F880F890F64
:1012D0008093F1008281880F880F880F8093F0003F
:1012E000EFEEF0E080818061808316C09281969558
:1012F0009695969583818295880F807E890F80933D
:10130000F30082818295880F807E8093F200EFEE59
:10131000F0E080818F7E8083C8010E942206DC017C
:10132000CB0189839A83AB83BC839B8192959695ED
:1013300097708C81880F880F880F890F8093F70032
:101340009A819295969597708B81880F880F880F58
:10135000890F8093F60099819295969597708A816E
:10136000880F880F880F890F8093F5008981880F77
:10137000880F880F24EF30E0F9018083EFEEF0E072
:101380009081D80116968C91892B8083D9018C91FC
:101390008B7F8C938C9181608C9380818F73808301
:1013A00080818068808380E057C2F8018785882328
:1013B00069F194819295969597708581880F880F31
:1013C000880F890F8093F30093819295969597707B
:1013D0008481880F880F880F890F8093F200928193
:1013E0009295969597708381880F880F880F890F43
:1013F0008093F1008281880F880F880F8093F0001E
:10140000EFEEF0E080818061808316C09281969536
:101410009695969583818295880F807E890F80931B
:10142000F30082818295880F807E8093F200EFEE38
:10143000F0E080818F7E8083C8010E942206DC015B
:10144000CB0189839A83AB83BC839B8192959695CC
:1014500097708C81880F880F880F890F8093F70011
:101460009A819295969597708B81880F880F880F37
:10147000890F8093F60099819295969597708A814D
:10148000880F880F880F890F8093F5008981880F56
:10149000880F880F44EF50E0FA018083EFEEF0E010
:1014A0009081D80116968C911697892B80831E9671
:1014B0001C92DA018C9184608C9380EF90E0DC01C7
:1014C0002C912B7F2C93DA018C9181608C938081FD
:1014D0008F73808380818068808380E0BDC1F80144
:1014E0008785882369F19481929596959770858177
:1014F000880F880F880F890F8093F300938192954E
:10150000969597708481880F880F880F890F809334
:10151000F20092819295969597708381880F880F3B
:10152000880F890F8093F1008281880F880F880FC0
:101530008093F000EFEEF0E080818061808316C040
:10154000928196959695969583818295880F807E57
:10155000890F8093F30082818295880F807E80932B
:10156000F200EFEEF0E080818F7E8083C8010E9460
:101570002206DC01CB0189839A83AB83BC839B81E8
:101580009295969597708C81880F880F880F890F98
:101590008093F7009A819295969597708B81880F2A
:1015A000880F880F890F8093F60099819295969500
:1015B00097708A81880F880F880F890F8093F500B4
:1015C0008981880F880F880F44EF50E0FA018083EB
:1015D000EFEEF0E09081D80116968C911697892B4A
:1015E000808381E01E968C93DA018C9184608C93C9
:1015F00080EF90E0DC012C9124602C9380818F7D22
:101600008083DA018C9181608C9380818F738083D9
:1016100080818068808380E01FC180E02AEF30E015
:10162000F801A781B085A80FB11D9C91D9019C93A9
:101630008F5F96818917A0F38FEF9FEFDC0189837D
:101640009A83AB83BC839B819295969597708C818E
:10165000880F880F880F890F8093F7009A819295E1
:10166000969597708B81880F880F880F890F8093CC
:10167000F60099819295969597708A81880F880FC8
:10168000880F890F8093F5008981880F880F880F54
:1016900044EF50E0FA018083EFEEF0E09081D80152
:1016A00016968C911697892B808381E01E968C93D9
:1016B000DA018C9184608C9380EF90E0DC012C91B6
:1016C00024602C93808180628083DA018C918E7FEC
:1016D0008C9380818F73808380818068808380E099
:1016E000BBC0F8018785882369F19481929596950E
:1016F00097708581880F880F880F890F8093F3007A
:1017000093819295969597708481880F880F880FA2
:10171000890F8093F20092819295969597708381BC
:10172000880F880F880F890F8093F1008281880FBE
:10173000880F880F8093F000EFEEF0E080818061E9
:10174000808316C092819695969596958381829511
:10175000880F807E890F8093F30082818295880FA5
:10176000807E8093F200EFEEF0E080818F7E8083B8
:10177000F8018681882379F080E02AEF30E0F801D3
:10178000A781B085A80FB11D9C91D9019C938F5F53
:1017900096818917A0F3C8010E942206DC01CB01C3
:1017A00089839A83AB83BC839B819295969597702E
:1017B0008C81880F880F880F890F8093F7009A819A
:1017C0009295969597708B81880F880F880F890F57
:1017D0008093F60099819295969597708A81880FEB
:1017E000880F880F890F8093F5008981880F880FF3
:1017F000880F44EF50E0FA018083EFEEF0E0908133
:10180000D80116968C911697892B808381E01E96BD
:101810008C93DA018C9184608C9380EF90E0DC01F2
:101820002C9124602C93808180628083DA018C91DA
:1018300081608C9380818F738083808180688083B6
:1018400080E00AC0F801118680E006C08FE1D8016F
:1018500019968C9319978FEF0F900F900F900F9010
:10186000DF91CF911F910F910895EF92FF921F93F7
:10187000CF93DF93EC018985882309F496C08F31DB
:1018800009F495C08F3F09F494C088818295807FC8
:101890008093ED000E94C903182F803261F08132DD
:1018A00020F4882309F487C076C0803409F468C026
:1018B000803A09F070C00F2EFFEEEF2EFF24F02DBE
:1018C000F70180818F708E838F8198850E94DC0361
:1018D0008091F00090E08470907095958795959533
:1018E00087958E87F701808184FF2DC081E08F87E7
:1018F000E3EFF0E080818695869586958D83A2EF53
:10190000B0E08C9190819295990F907E8695869506
:101910008695890F8C83E1EFF0E080819C91929510
:10192000990F907E869586958695890F8B838091F9
:10193000F00090819295990F907E86958695869578
:10194000890F8A8313C01F86E3EFF0E080818295C0
:10195000869587708B838091F2009081990F990F03
:10196000990F829586958770890F8A831987EFEE84
:10197000F0E080818F7380831092EE0080E01CC0C5
:1019800080E48987EFEEF0E080818F73808310928E
:10199000EE0080E011C01987EFEEF0E080818F73D8
:1019A00080831092EE0082E007C082E005C082E0F2
:1019B00003C082E001C081E0DF91CF911F91FF90D1
:1019C000EF900895FC01362F862F64E60E949F1544
:1019D000482F405D2AE0832F622F0E949F150E94AE
:1019E0009F15905D403331F4903311F040E202C016
:1019F00090E240E220E22083218322832383248318
:101A000025832683278340879187832F6AE00E945E
:101A10009F15905D928785E2838724872587268797
:101A20002787208B218B228B238B0895CF93FC015A
:101A3000362FC4E6862F6C2F0E949F158E5C808304
:101A4000BEE2B1835AE0832F652F0E949F15392F84
:101A50000E949F15905D9283305D3383A6E5A48339
:101A600030E235833683842F6C2F0E949F158E5C65
:101A70008783B087842F652F0E949F15492F0E946E
:101A80009F15905D9187405D4287A3873487358796
:101A90003687822F6C2F0E949F158E5C8787B08BB4
:101AA000822F652F0E949F15292F0E949F15905D00
:101AB000918B205D228BA38BCF9108951F93CF93A1
:101AC000DF93CDB7DEB764970FB6F894DEBF0FBED5
:101AD000CDBF582F192F462FCE010196E0E0F1E03F
:101AE00024E10190DC010D92CD012150D1F7842F2A
:101AF0006AE00E949F15B82F6BE00E949F15292F66
:101B000030E01216130644F020E030E0FE01E20F50
:101B1000F31F35968AE20FC0FE013596BF01690FAB
:101B2000711DCB0166E16193E817F907E1F72A30EF
:101B3000310564F306C081932F5F3F4F2A30310592
:101B4000D4F34456443630F4FE01E20FF31F81E330
:101B5000868305C0FE01E20FF31F80E28683FE014B
:101B6000E20FF31F8B2F6AE00E949F15905D978311
:101B7000FE01E20FF31F80E3808785E28187E52F76
:101B8000F12FDE01119684E10D9001928150E1F771
:101B900064960FB6F894DEBF0FBECDBFDF91CF9134
:101BA0001F910895CF93FC01362FC4E6862F6C2F2A
:101BB0000E949F15805D80835AE0832F652F0E94CD
:101BC0009F15392F0E949F15905D9183305D328360
:101BD000B0EBB383A3E4A48330E235833683842F50
:101BE0006C2F0E949F15805D8783842F652F0E9434
:101BF0009F15492F0E949F15905D9087405D4187FA
:101C0000B287A387348735873687822F6C2F0E944F
:101C10009F15805D8787822F652F0E949F15292F32
:101C20000E949F15905D908B205D218BB28BA38BC2
:101C3000CF910895FC01462F20E220832183228347
:101C40002383248325832683862F64E60E949F15A1
:101C5000805D87833AE0842F632F0E949F15492F70
:101C60000E949F15905D90878EE28187405D42873C
:101C700086E583872487258726872787208B218BE6
:101C8000228B238B0895CF93DF93FC01262F6430A2
:101C900009F440C0653050F4613009F16130B0F0B2
:101CA000623031F1633009F061C02BC0673009F454
:101CB00043C0683020F4653009F058C034C06B3040
:101CC00009F443C06C3009F051C048C0DC01C4E4E1
:101CD000D3E084E109900D928150E1F74FC0DC011F
:101CE000C0E3D3E084E109900D928150E1F746C052
:101CF000DC01C8E0D3E084E109900D928150E1F766
:101D00003DC0DC01CCE1D3E084E109900D9281502B
:101D1000E1F734C0DC01C0EED2E084E109900D921D
:101D20008150E1F72BC0DC01CCECD2E084E10990DA
:101D30000D928150E1F722C0DC01C8EBD2E084E1D2
:101D400009900D928150E1F719C0DC01C4EAD2E09C
:101D500084E109900D928150E1F710C0DC01C0E9E7
:101D6000D2E084E109900D928150E1F7DF01CCE1EE
:101D7000D3E084E109900D928150E1F7822F64E66F
:101D80000E949F15805D81833AE0822F632F0E941D
:101D90009F15292F0E949F15905D9283205D2383BC
:101DA000DF91CF910895FC01E60FF11D405D408366
:101DB0000895CF93DF93CDB7DEB764970FB6F8944D
:101DC000DEBF0FBECDBFDE011196E4E1F1E024E1FC
:101DD00001900D922150E1F7E82FF92FDE011196C5
:101DE00084E10D9001928150E1F764960FB6F8946A
:101DF000DEBF0FBECDBFDF91CF910895CF92DF92AE
:101E0000EF92FF920F931F93CF93DF93CDB7DEB77F
:101E100064970FB6F894DEBF0FBECDBFF82EE92E43
:101E20009B016A0104E610E0CB01B8010E94AB15EA
:101E3000462F405DEAE0F0E0C901BF010E94AB150A
:101E4000CB01BF010E94AB15382F305DC601B80130
:101E50000E94AB15605D403321F4303321F080E205
:101E600004C0842F02C030E280E2603309F460E2F3
:101E700020E229838A833B834C8340EB4D8333E408
:101E80003E832F83288729872A872B872C872D87B6
:101E90002E876F87688BC6016AE070E00E94AB15E1
:101EA000805D898B4A8B3B8B2C8BEF2DFE2DDE01C9
:101EB000119684E10D9001928150E1F764960FB67E
:101EC000F894DEBF0FBECDBFDF91CF911F910F9170
:101ED000FF90EF90DF90CF900895CF93C82F289870
:101EE0008AEF0E94D0138C2F0E94D013289ACF9192
:101EF0000895CF93C82F289888EF0E94D0138C2F75
:101F00000E94D013289ACF910895EF92FF920F93D9
:101F10001F93CF93DF93D82FC92FF62EE72E82E0A1
:101F20000E94790F0D2F1C2FC0E0D0E0F8018191A5
:101F30008F010E946D0F2196C431D105B9F7C4E11C
:101F4000D0E084E10E94790F2197D9F70F2D1E2D43
:101F5000C0E0D0E0F80181918F010E946D0F2196C1
:101F6000C431D105B9F7DF91CF911F910F91FF9047
:101F7000EF900895CF93DF93863009F475C08730D2
:101F800090F4823009F448C0833030F4882309F19A
:101F9000813009F0C9C034C0843009F459C085309B
:101FA00008F06FC047C08A3009F49CC08B3038F409
:101FB000883009F473C0893008F088C07BC08D3048
:101FC00009F49CC08E3009F4A5C08C3009F0ACC077
:101FD0000BC0C4E6D1E0CE010E94D90E8CE792E09E
:101FE000BE010E94850FA0C0C4E6D1E0CE0170E022
:101FF0000E94430E88E692E0BE010E94850F94C0C5
:10200000C4E6D1E0CE0170E00E94E20C84E592E0EB
:10201000BE010E94850F88C0C4E6D1E0CE0170E009
:1020200050E030E00E94160D80E492E0BE010E9474
:10203000850F7AC0C4E6D1E0CE0170E050E030E018
:102040000E94D20D8CE292E0BE010E94850F6CC00E
:10205000C4E6D1E0CE0170E00E941A0E88E192E061
:10206000BE010E94850F60C0C4E6D1E0CE0170E0E1
:1020700050E00E94FE0E88EC91E0BE010E94850FA8
:1020800053C0C4E6D1E0CE0170E050E00E94FE0EE5
:102090008CED91E0BE010E94850F46C0C4E6D1E000
:1020A000CE0170E00E945E0D80EF91E0BE010E94C3
:1020B000850F3AC0C4E6D1E0CE0170E00E945E0D0B
:1020C00084E092E0BE010E94850F2EC0C4E6D1E0FC
:1020D000CE0170E00E945E0D84EB91E0BE010E9493
:1020E000850F22C0C4E6D1E0CE0170E00E945E0DF3
:1020F00080EA91E0BE010E94850F16C0C4E6D1E0DF
:10210000CE0170E00E94D30E88E791E0BE010E94EC
:10211000850F0AC0C4E6D1E0CE010E94D90E80E549
:1021200091E0BE010E94850FDF91CF910895EF925B
:102130000F938EE10E94BA138CB58F778CBD8CB54E
:1021400080618CBD1092F303209A289A8CE00E9443
:10215000790F88E30E94790F80E060E040E020E0A2
:1021600000E0EE240E94BA0F0F91EF900895E82F3F
:10217000F92FA1EBB3E084E10D9001928150E1F7DA
:102180000895EF920F938091F3038F5F6BE00E94AD
:102190009F15892F9093F30360E040E020E000E07A
:1021A000EE240E94BA0F0F91EF900895EF920F93D3
:1021B0008091F30381508093F303982F91509B30CB
:1021C00058F060E040E020E000E0EE240E94BA0F0A
:1021D0008BE08093F30307C060E040E020E000E084
:1021E000EE240E94BA0F0F91EF90089590935D0333
:1021F00080935C030E9495150895E0915C03F09133
:102200005D039081892B80830895E0915C03F091B8
:102210005D03108208951092720410927304089561
:10222000CF93DF93E82FC0917204D0E0CE010196E6
:1022300060E170E00E94AB154091730450E0841798
:10224000950731F0CE59DB4FE8838093720403C0C9
:1022500088E00E94FD10DF91CF9108958091730472
:1022600090917204981731F0E2E6F4E0E80FF11D66
:10227000808108958AE00895EF920F93CF93DF93C2
:1022800080917304E2E6F4E0E80FF11D808186306E
:10229000E9F1873030F4882371F0813009F0D2C041
:1022A00022C0883009F45BC0883008F455C08930FA
:1022B00009F0C8C057C08EE593E06EE673E042E0D7
:1022C00055E028E00E94AA02C6E7D3E0CE0166E806
:1022D00073E041E055E021E00E94AA027894CE012B
:1022E0000E94BB02AFC00E94AF018091F3038093B4
:1022F0006E038091590380936F03809158038093FC
:1023000070038EE593E00E940E039CC080915A03F7
:102310008823F9F080915B03833040F40E944002EF
:1023200080915B03815080935B0303C08150809355
:102330005B0380915B03882309F084C084E0809371
:102340005B030E943E0280915A03815080935A039E
:1023500079C00E94400276C00E945E0373C00E9452
:102360003F0370C086E793E00E94C902D0918803C2
:10237000DF3F59F40E9442028EE060E040E020E03E
:1023800000E0EE240E94BA0F5DC0C0918603C0FF3A
:1023900004C080E00E943A1203C080E00E946B12E9
:1023A0008C2F869580FF04C081E00E943A1203C002
:1023B00081E00E943A128C2F8695869580FF04C09A
:1023C00082E00E943A1203C082E00E946B128C2FBE
:1023D00086958695869580FF04C083E00E943A1218
:1023E00003C083E00E946B128C2F82958F7080FF58
:1023F00004C084E00E943A1203C084E00E946B1281
:102400008C2F82958695877080FF02C00E944202C1
:10241000C295C695C695C370C0FF04C08AE00E94ED
:102420003A1203C08AE00E946B128D2F60918903DB
:1024300040918A0320918B0300918C03E0908D03DF
:102440000E94BA0FDF91CF910F91EF900895909174
:10245000720480917304981761F00E943C1180917E
:10246000730490E0019660E170E00E94AB158093E8
:10247000730408958C3070F5843039F1853048F458
:102480008130F9F0813098F08230E9F0833011F535
:102490001EC0883091F0893028F4853051F08730A3
:1024A000C9F409C0893059F08A30A1F412C0479AA2
:1024B0000895119A0895139A0895149A0895129AF6
:1024C0000895A49A0895409A0895A19A0895A09A0B
:1024D0000895599A08958C3090F5843049F18530EB
:1024E00048F48130F9F0813098F08230F9F083308F
:1024F00031F522C0883091F0893028F4853051F0D0
:102500008730E9F409C0893059F08A30C1F416C027
:102510004798089511980895139808951498089568
:102520001298089584B3807E84BB089540980895DE
:1025300084B38C7F84BB0895A0980895599808951A
:102540008C3008F068C0843009F450C0853058F4ED
:102550008130F1F18130B8F0823009F441C083302C
:1025600009F058C04AC0883019F1893030F48530FC
:1025700079F0873009F04EC012C0893009F18A30F5
:1025800009F048C040C081E0479945C080E0089507
:1025900092B1969581E09130F1F180E0089592B189
:1025A00096959695969581E09130A9F180E00895F1
:1025B00092B192959F7081E0913069F180E0089529
:1025C00092B19695969581E0913029F180E0089539
:1025D00094B392959F7081E09130E9F080E0089586
:1025E00098B181E09130B9F080E0089594B3969568
:1025F00081E0913081F080E0089594B381E09130E2
:1026000051F080E008959BB1969581E0913019F0EA
:1026100080E0089508950895CF93C82F0E94A012D6
:10262000882321F08C2F0E946B1203C08C2F0E94F4
:102630003A12CF910895EF92FF920F931F93CF9389
:10264000DF937C01C0E0D0E001E010E08C2F980126
:102650000C2E02C0220F331F0A94E2F72E213F21D5
:102660002115310511F00E943A122196CB30D10587
:1026700069F7DF91CF911F910F91FF90EF9008952F
:10268000579A099A0B9A0C9A0A9A3C9A389A999AEC
:10269000989A399A5F9A119A139A149A129A449AAC
:1026A000409AA19AA09A419A8FEF9FEF90939A0334
:1026B000809399030E941B1308950F931F93CF9348
:1026C000DF93C0E0D0E08C2F0E94A01290E00C2E8F
:1026D00002C0880F991F0A94E2F7082B192B219644
:1026E000CB30D10581F7802F912FDF91CF911F91B2
:1026F0000F910895089511B814B887B1807687B9FD
:102700008FEF8AB91DB810BA93B3907E93BB82B98C
:1027100085B988B99BB19F699BB98EB981BB84B3D8
:102720008F6184BB08950E947B130E948F0282E018
:1027300060E00E941F1583E060E00E9424150E9463
:1027400029150E9459150E943B020E9479150E948A
:1027500040130E948E010E9497100E94891580E00C
:102760000E9410110895529A5A9808955A9A0895FD
:102770005A980895209A209A94B1966094B99CB57D
:10278000907C9CBD9CB58F73892B8CBD8DB58DBD08
:102790008CB580648CBD81E008958DB580780895F6
:1027A0008EBD0DB407FEFDCF08950DB407FEFDCF1D
:1027B0008EB508950DB407FEFDCF8EBD08951F920E
:1027C0000F920FB60F9211240F900FBE0F901F9013
:1027D00018951F920F920FB60F9211240F900FBEF3
:1027E0000F901F9018951F920F920FB60F92112401
:1027F0000F900FBE0F901F9018951F920F920FB65B
:102800000F9211242F933F934F935F936F937F9376
:102810008F939F93AF93BF93EF93FF93E8E8F0E01C
:1028200080819181805D9A489183808381E00E94BC
:102830001011FF91EF91BF91AF919F918F917F9177
:102840006F915F914F913F912F910F900FBE0F901D
:102850001F9018951F920F920FB60F9211242F936D
:102860003F934F935F936F937F938F939F93AF9318
:10287000BF93EF93FF93EAE8F0E080819181805A63
:1028800095419183808382E00E941011FF91EF9126
:10289000BF91AF919F918F917F916F915F914F9178
:1028A0003F912F910F900FBE0F901F9018951F9280
:1028B0000F920FB60F9211242F933F934F935F9374
:1028C0006F937F938F939F93AF93BF93EF93FF93F8
:1028D000ECE8F0E0808191818856954C918380836B
:1028E00083E00E941011FF91EF91BF91AF919F91F2
:1028F0008F917F916F915F914F913F912F910F90A9
:102900000FBE0F901F9018951F920F920FB60F9247
:1029100011242F933F934F935F936F937F938F93E4
:102920009F93AF93BF93EF93FF93E8E9F0E080812B
:1029300091818059964B9183808384E00E9410118D
:10294000FF91EF91BF91AF919F918F917F916F9187
:102950005F914F913F912F910F900FBE0F901F905D
:1029600018951F920F920FB60F9211242F933F9339
:102970004F935F936F937F938F939F93AF93BF9387
:10298000EF93FF93EAE9F0E08081918180529D46C8
:102990009183808385E00E941011FF91EF91BF9198
:1029A000AF919F918F917F916F915F914F913F91E7
:1029B0002F910F900FBE0F901F9018951F920F929E
:1029C0000FB60F9211242F933F934F935F936F9302
:1029D0007F938F939F93AF93BF93EF93FF93ECE914
:1029E000F0E08081918180599C4E9183808386E0C4
:1029F0000E941011FF91EF91BF91AF919F918F9124
:102A00007F916F915F914F913F912F910F900FBEEA
:102A10000F901F9018951F920F920FB60F921124CE
:102A20000F900FBE0F901F9018951F920F920FB628
:102A30000F9211240F900FBE0F901F901895809346
:102A4000810060936F0008958093910060937100FE
:102A500008958091840090918500805D9A489093BC
:102A6000890080938800EFE6F0E0808182608083B7
:102A700008958091840090918500805A95419093AB
:102A80008B0080938A00EFE6F0E080818460808391
:102A9000089580918400909185008856954C90937C
:102AA0008D0080938C00EFE6F0E080818860808369
:102AB000089580919400909195008059964B909341
:102AC000990080939800E1E7F0E080818260808344
:102AD0000895809194009091950080529D46909326
:102AE0009B0080939A00E1E7F0E08081846080831E
:102AF0000895809194009091950080599C4E9093F8
:102B00009D0080939C00E1E7F0E0808188608083F5
:102B100008952BE088E190E00FB6F894A895809393
:102B200060000FBE20936000089504B603FE06C047
:102B300084B7877F84BF80E10E94FD100895991BB0
:102B400079E004C0991F961708F0961B881F7A95A4
:102B5000C9F78095089597FB092E07260AD077FDBF
:102B600004D00CD006D000201AF4709561957F4FE8
:102B70000895F6F7909581959F4F0895AA1BBB1B6A
:102B800051E107C0AA1FBB1FA617B70710F0A61B6D
:102B9000B70B881F991F5A95A9F780959095BC018E
:082BA000CD010895F894FFCF68
:102BA800202020204142434445464748494A2020A6
:102BB800202020202020202020202020202020200D
:102BC8002020202020202020303132333435363761
:102BD80038394142434445464748494A00000000C5
:102BE80000000000000000000000000000000000DD
:102BF80020202052454144592020544F2044524916
:102C08005645202020202020202020202020202061
:102C180020202020202020202020425554544F4E90
:102C28002050524553534544202020202020414322
:102C380043454C45524154494F4E204D4F44452041
:102C48002020544F525155452020564543544F5249
:102C5800494E472020205452414354494F4E204367
:102C68004F4E54524F4C202020204D4F544F52204D
:102C780054454D502E2052454152202020204D4F82
:102C8800544F522054454D502E2046524F4E5420FA
:102C980020204D4F544F5220504F574552205245F7
:102CA8004152202020204D4F544F5220504F57451D
:102CB800522046524F4E5420202020204C56205659
:102CC8004F4C54414745202020202020204D494E7C
:102CD800202043454C4C54454D5020204D41582010
:102CE8004D494E202043454C4C564F4C5441474586
:102CF800204D415820205354415445204F462043ED
:102D080048415247452020202020202020202045CF
:102D180052524F5220202020202000002020202026
:102D280020414D5A206772696D73656C2020202000
:102D38002358585820424144524551554553542030
:102D48004944200023585858204252414B452050AE
:102D58002E442E20202020002358585820494D4426
:102D680046202020202020202020200023585858AA
:102D780020494D44202020202020202020202000F1
:102D880023585858204856444920494E54455255CE
:102D980050542000235858582050524520424F5430
:102DA80053202020202020002358585820505245D6
:102DB800204D415354455220202020002358585874
:102DC80020554E4B4E4F574E204552524F522000E1
:102DD8002358585820534320444F574E2020202032
:102DE80020202000235858582020204E4F4E4520A0
:082DF8002020202020202020D3
:00000001FF
