:100000000C944A000C9467000C9467000C946700F1
:100010000C9467000C9467000C9467000C946700C4
:100020000C9467000C9467000C9467000C946700B4
:100030000C945E120C948B120C94B8120C946C13EA
:100040000C944A120C9454120C9465010C946700A1
:100050000C9467000C9467000C9467000C94670084
:100060000C9467000C9467000C9467000C94670074
:100070000C94E5120C9412130C943F130C94761309
:100080000C9467000C9467000C9467000C94670054
:100090000C94670011241FBECFEFD8E0DEBFCDBFA8
:1000A00013E0A0E0B1E0EAE6F8E202C005900D92AC
:1000B000A033B107D9F714E0A0E3B3E001C01D926B
:1000C000AC30B107E1F70E9469000C9433140C9432
:1000D00000000E94F611A8950E948810FCCF9CB1E8
:1000E000682F70E0660F771F660F771F92959F70DD
:1000F0009170892F90E0062E02C0880F991F0A94F4
:10010000E2F72091870330918803822B932B909301
:100110008803809387034CB14295469547704170A0
:1001200050E09B012F5F3F4FFA0102C0EE0FFF1F0F
:100130002A95E2F78E2B9F2B909388038093870359
:1001400026B12295269526952370217030E06E5FAA
:100150007F4F02C0220F331F6A95E2F7822B932B49
:10016000909388038093870308958DB18F6B8DB929
:10017000769A08958DB18F678DB9779A089584B175
:100180008F6E84B92C9A089576986E9A0895779810
:100190006F9A08952C98249A0895109286031092CD
:1001A000850385B78F7E85BF8DB18F6B8DB9769AAC
:1001B0008DB18F678DB9779A84B18F6E84B92C9A7F
:1001C0006C98749A6D98759A3E98469A3B98439AA3
:1001D0000895CF92DF92EF92FF920F931F93CF93E8
:1001E000DF93C5EBD0E0FE0109950AEB10E0F801C2
:1001F00009950F2EFFEBEF2EF0E0FF2EF02DF7010B
:100200000995F8010995F70109950E94C4000F2E80
:10021000FFE6CF2EF0E0DF2EF02D80E090E0F6013B
:100220000995FE010995F70109950E94C70081E033
:1002300090E0F6010995FE010995F80109950E94E3
:10024000CA0082E090E0F6010995FE010995F801E7
:100250000995F7010995DF91CF911F910F91FF90BB
:10026000EF90DF90CF90089520918703309188031D
:10027000A90102C0569547958A95E2F7CA01817097
:100280000895089A10980895109A0895109808955E
:10029000CF93C82F0E9444018C2F90E044E650E099
:1002A000849F9001859F300D949F300D112412166C
:1002B000130634F480E090E0019682179307E1F78B
:1002C0000E944601CF91089508951F920F920FB694
:1002D0000F9211242F933F934F935F936F937F93CC
:1002E0008F939F93AF93BF93CF93EF93FF93C0915F
:1002F000EE00C0FF08C087E00E94DD0FEEEEF0E0E8
:1003000080818E7F8083C6FF08C088E00E94DD0F59
:10031000EEEEF0E080818F7B8083C5FF08C089E02E
:100320000E94DD0FEBEDF0E080818F778083FF91FD
:10033000EF91CF91BF91AF919F918F917F916F91ED
:100340005F914F913F912F910F900FBE0F901F9093
:10035000189585E00E9460051092EE00EBEDF0E04C
:100360008081886B80838FE78093DF008FEF80939D
:10037000DE00109293031092950310929403109252
:100380009703109296030895FC0170876783178680
:1003900016865383428326838FEF97E0A0E0B0E078
:1003A00082879387A487B587089590939703809356
:1003B000960325E0FC012183809196039091970399
:1003C0000E94750508950E944F0BEBEDF0E08081CF
:1003D0008068808308959091930380919503981786
:1003E00041F1E0919603F0919703309741F08CE052
:1003F000818380919603909197030E947505E09107
:100400009503F0E0EE0FFF1FE757FC4FA081B1818D
:1004100082E011968C93808191810E9475058823DA
:1004200021F081E00E94CA0F089581E08093940337
:100430000895E0919603F0919703309741F085E09D
:10044000818380919603909197030E94750508958A
:10045000CF93DF93EC01E0919303F0E0CF0101969D
:1004600065E070E00E940C142091950330E0821743
:10047000930749F0EE0FFF1FE757FC4FD183C0836E
:100480008093930303C084E00E94CA0F8091940379
:10049000882311F40E94EB01DF91CF910895E09140
:1004A0009503F0E0EE0FFF1FE757FC4F808191812D
:1004B0000895E0919503F0E0EE0FFF1FE757FC4F22
:1004C000A081B1818CE011968C93808191810E94F2
:1004D0007505109294038091950390E0019665E074
:1004E00070E00E940C14809395030E94EB01089524
:1004F000809194038130F9F4E0919503F0E0EE0FE0
:10050000FF1FE757FC4FA081B1818CE011968C93BF
:10051000808191810E94750582E00E94CA0F10922D
:1005200094038091950390E0019665E070E00E944D
:100530000C14809395030895CF93DF93EC018CE026
:100540008983CE010E947505CE010E944F0B813038
:10055000D9F385E08983CE010E947505DF91CF91A3
:10056000089520E0ADEEB0E08EEE90E0322F3295AF
:10057000307F3C93FC011192E83FF105E1F72F5FDA
:100580002F30A1F70895EDEEF0E0208110828091E8
:10059000EF00807C69F081E0ADEEB0E0EFEEF0E0DE
:1005A000982F9295907F9C939081907C29F401C024
:1005B00080E02093ED0008958F5F8F3089F72093BE
:1005C000ED008FEF08958091EF00807C69F09091AD
:1005D000EE00892F807E803241F0803431F0803A05
:1005E00021F0892F8F7108958FEF0895CF93DF93B6
:1005F000AC018091EF0090E08F7090701816190692
:10060000A4F460E0EAEFF0E0CFEED0E08081DA0120
:10061000A60FB11D8C936F5F8881262F30E090E08C
:100620008F709070281739078CF3DF91CF91089560
:100630002F923F924F925F926F927F928F929F92F2
:10064000AF92BF92CF92DF92EF92FF920F931F93E0
:10065000CF93DF9300D000D000D0CDB7DEB7882392
:1006600009F47CC08091E20090E08E7790709595BF
:1006700087950196823091055CF08091E20090E0D0
:100680008E77907095958795282F2F5F298302C0CC
:1006900081E089838091E30090E08E709070959561
:1006A000879501968230910554F08091E30090E0A7
:1006B0008E70907095958795382E339402C03324B0
:1006C00033948091E40090E08E70907095958795BA
:1006D00001968330910554F08091E40090E08E7093
:1006E000907095958795782E739403C077246894BD
:1006F00071F88091E40090E08077907095958795EF
:1007000095958795959587959595879501968330CD
:10071000910584F08091E40090E080779070959549
:100720008795959587959595879595958795682E45
:10073000639403C06624689461F8872D90E0830D6C
:10074000911D860D911D01968830910514F488E065
:1007500090E08A8340E02224239410C041E02224C8
:100760006624689461F87724689471F898E09A8315
:100770000F2EF3E03F2EF02DA1E0A98320E0ADEE97
:10078000B0E08EEE90E0322F3295307F3C93FC014A
:100790001192E83FF105E1F72F5F2F30A1F7A42E6A
:1007A000622DDD248824992470E00F2EF8EDEF2EC1
:1007B000FF24F02D51E0E9EDF0E00AED10E020E03B
:1007C000C52EB22EB2E0BB8388E08E8391E0A916DD
:1007D00009F057C0D7015C930894811C911C898152
:1007E0008150880FA2EEB0E08C93862D869590E024
:1007F00001972C01440C551C440C551C440C551CF1
:10080000440C551C440C551C832D90E00197880F17
:10081000991F8429A3EEB0E08C93862D90E0019778
:100820002C01440C551C440C551C440C551C440C08
:10083000551C872D90E00197880F991F84298160AE
:10084000A4EEB0E08C93C401969587959695879514
:1008500096958795A5EEB0E08C93ADEEB0E01C9236
:10086000AEEEB0E01C9280E8AFEEB0E08C938AE090
:10087000D7018C93808182FFFDCF8FEFD8018C93BD
:10088000722F4130B1F5AEEEB0E08C9190E085FF73
:100890000EC0AFEEB0E08C918F738C93D7011C9299
:1008A000808182FDFDCFD52E622F322FBEC08F7189
:1008B0009070009711F06C2D4B2DD8014C90552461
:1008C00045FE0DC0772329F48C9180628C937C2D9A
:1008D00006C0D8018C9180628C936C2D4B2DC20187
:1008E0008F709070009709F09DC0413061F2352FF4
:1008F00001C0352F613009F078C0832F372D7A2C55
:10090000AD2CD72E782F21103F5F393078F1B7E02A
:10091000B61560F58A81893131F08F5F8A832B2C7F
:100920006B80362D59C09981903441F09F5F998337
:100930002B2C6B80362DAE81AA834EC0A72C7D2D2B
:10094000AFEEB0E08C918F738C93D7011C928081B5
:1009500082FDFDCFD22E322F222E6624689461F8BC
:100960007724689471F8B8E0BA8369C0363058F0DB
:10097000432E5524862D90E001968415950524F488
:100980006394362D01C0632E362C330E30948A8149
:10099000380E832D81508830E0F4462C5524832D69
:1009A00090E0DC011196A30FB11DBD83AC83C201A1
:1009B000880F991F880F991F8A179B0764F0C2013F
:1009C000880F991F840D951DA817B90784F52C2C45
:1009D00003C02C2C01C02C2C613009F494CF872F3C
:1009E0007D2DDA2CA72C732E382F313009F4EECE62
:1009F0008D2D26960FB6F894DEBF0FBECDBFDF91CA
:100A0000CF911F910F91FF90EF90DF90CF90BF900B
:100A1000AF909F908F907F906F905F904F903F909E
:100A20002F900895A52E652F352F422F63CF872F46
:100A30007D2DDA2CA72C732E382F452F252E622FD3
:100A4000D4CF8093E2006093E3004093E40081E020
:100A5000089591E09093D800853031F482E068E009
:100A600045E20E94210506C01092E2001092E300C8
:100A70001092E40081E008950F931F93FC01878595
:100A8000882391F402851385248535850F2EF2E1A4
:100A9000000F111F221F331FFA95D1F7F02D0F6F92
:100AA0001F6F2360306E05C0028513852485358550
:100AB000306E602F712F822F932F1F910F91089509
:100AC0000E942905882349F00E94B102E8EDF0E078
:100AD00080818260808381E0089580E00895E8ED60
:100AE000F0E080818D7F808308950F931F93CF93D3
:100AF000DF9300D000D0CDB7DEB78C01DC011196BA
:100B00008C9111978C30B1F419968C91199780368D
:100B100069F48C918295807F8093ED00EFEEF0E098
:100B200080818F7380831092EE001C92F8011186F1
:100B300080E0ACC50E94C3028F3F09F4A1C590E6D6
:100B4000D80119969C9319978C938295807F8093F6
:100B5000ED00EEEEF0E01192E83FF105E1F7F8016B
:100B60008181863009F456C2873090F4833009F4CD
:100B700012C1843030F4813011F1823009F07CC52B
:100B800098C0843009F467C1853009F075C5AAC1E1
:100B9000893009F4BEC38A3038F4873009F48FC233
:100BA000883009F069C51BC38A3021F08B3009F009
:100BB00063C5B1C48681882309F049C457C4F801CC
:100BC0008785882369F194819295969597708581A0
:100BD000880F880F880F890F8093F3009381929577
:100BE000969597708481880F880F880F890F80935E
:100BF000F20092819295969597708381880F880F65
:100C0000880F890F8093F1008281880F880F880FE9
:100C10008093F000EFEEF0E080818061808316C069
:100C2000928196959695969583818295880F807E80
:100C3000890F8093F30082818295880F807E809354
:100C4000F200EFEEF0E080818F7E8083F8018681F4
:100C5000882379F080E02AEF30E0F801A781B085A1
:100C6000A80FB11D9C91D9019C938F5F9681891724
:100C7000A0F3F8018685882331F0E0EFF0E0808171
:100C80008460808305C0E0EFF0E080818B7F80830B
:100C9000EFEEF0E09081D80116968C911697892B93
:100CA000808380818F73808380818064808380E0F3
:100CB000EDC4F8018785882369F194819295969512
:100CC00097708581880F880F880F890F8093F300B4
:100CD00093819295969597708481880F880F880FDD
:100CE000890F8093F20092819295969597708381F7
:100CF000880F880F880F890F8093F1008281880FF9
:100D0000880F880F8093F000EFEEF0E08081806123
:100D1000808316C09281969596959695838182954B
:100D2000880F807E890F8093F30082818295880FDF
:100D3000807E8093F200EFEEF0E080818F7E8083F2
:100D4000F8018681882379F080E02AEF30E0F8010D
:100D5000A781B085A80FB11D9C91D9019C938F5F8D
:100D600096818917A0F3F8011686E0EFF0E0808104
:100D70008B7F8083EFEEF0E09081D80116968C9106
:100D80001697892B808380818F7380838081806414
:100D9000808380E07BC4F8018785882369F1948192
:100DA0009295969597708581880F880F880F890F87
:100DB0008093F30093819295969597708481880F24
:100DC000880F880F890F8093F200928192959695F3
:100DD00097708381880F880F880F890F8093F100A7
:100DE0008281880F880F880F8093F000EFEEF0E08B
:100DF00080818061808316C09281969596959695A4
:100E000083818295880F807E890F8093F300828191
:100E10008295880F807E8093F200EFEEF0E0808173
:100E20008F7E808381E0F8018687E0EFF0E08081AB
:100E300084608083EFEEF0E09081D80116968C916B
:100E40001697892B808380818F7380838081806453
:100E5000808380E01BC48FEF9FEFDC0189839A833E
:100E6000AB83BC839B819295969597708C81880FFC
:100E7000880F880F890F8093F7009A819295969535
:100E800097708B81880F880F880F890F8093F600E9
:100E900099819295969597708A81880F880F880F0F
:100EA000890F8093F5008981880F880F880F24EFC0
:100EB00030E0F9018083EFEEF0E09081D8011696E2
:100EC0008C91892B8083D9018C918B7F8C938C9111
:100ED0008E7F8C9380818F738083808180688083F4
:100EE00080E0D4C3F8018785882369F194819295C5
:100EF000969597708581880F880F880F890F80934A
:100F0000F30093819295969597708481880F880F4E
:100F1000880F890F8093F200928192959695977031
:100F20008381880F880F880F890F8093F100828159
:100F3000880F880F880F8093F000EFEEF0E080813B
:100F40008061808316C0928196959695969583814F
:100F50008295880F807E890F8093F300828182952D
:100F6000880F807E8093F200EFEEF0E080818F7E2C
:100F700080838FEF9FEFDC0189839A83AB83BC83EF
:100F80009B819295969597708C81880F880F880F1A
:100F9000890F8093F7009A819295969597708B812F
:100FA000880F880F880F890F8093F600998192959A
:100FB000969597708A81880F880F880F890F809384
:100FC000F5008981880F880F880F44EF50E0FA01FF
:100FD0008083EFEEF0E09081D80116968C91169701
:100FE000892B80831E961C92DA018C9184608C93ED
:100FF00080EF90E0DC012C912B7F2C93DA018C9117
:1010000081608C9380818F738083808180688083EE
:1010100080E03CC38FEF9FEFDC0189839A83AB8331
:10102000BC839B819295969597708C81880F880FD1
:10103000880F890F8093F7009A8192959695977003
:101040008B81880F880F880F890F8093F600998114
:101050009295969597708A81880F880F880F890FCF
:101060008093F5008981880F880F880F44EF50E046
:10107000FA018083EFEEF0E09081D80116968C9112
:101080001697892B808381E01E968C93DA018C91D0
:1010900084608C9380EF90E0DC012C9124602C9391
:1010A00080818F7D8083DA018C918E7F8C9380810B
:1010B0008F73808380818068808380E0E7C2F8013D
:1010C0008785882369F1948192959695977085819B
:1010D000880F880F880F890F8093F3009381929572
:1010E000969597708481880F880F880F890F809359
:1010F000F20092819295969597708381880F880F60
:10110000880F890F8093F1008281880F880F880FE4
:101110008093F000EFEEF0E080818061808316C064
:10112000928196959695969583818295880F807E7B
:10113000890F8093F30082818295880F807E80934F
:10114000F200EFEEF0E080818F7E8083C8010E9484
:101150003C05DC01CB0189839A83AB83BC839B81F3
:101160009295969597708C81880F880F880F890FBC
:101170008093F7009A819295969597708B81880F4E
:10118000880F880F890F8093F60099819295969524
:1011900097708A81880F880F880F890F8093F500D8
:1011A0008981880F880F880F24EF30E0F901808350
:1011B000EFEEF0E09081D80116968C91892B808318
:1011C000D9018C918B7F8C938C9181608C938081E1
:1011D0008F73808380818068808380E057C2F801AC
:1011E0008785882369F1948192959695977085817A
:1011F000880F880F880F890F8093F3009381929551
:10120000969597708481880F880F880F890F809337
:10121000F20092819295969597708381880F880F3E
:10122000880F890F8093F1008281880F880F880FC3
:101230008093F000EFEEF0E080818061808316C043
:10124000928196959695969583818295880F807E5A
:10125000890F8093F30082818295880F807E80932E
:10126000F200EFEEF0E080818F7E8083C8010E9463
:101270003C05DC01CB0189839A83AB83BC839B81D2
:101280009295969597708C81880F880F880F890F9B
:101290008093F7009A819295969597708B81880F2D
:1012A000880F880F890F8093F60099819295969503
:1012B00097708A81880F880F880F890F8093F500B7
:1012C0008981880F880F880F44EF50E0FA018083EE
:1012D000EFEEF0E09081D80116968C911697892B4D
:1012E00080831E961C92DA018C9184608C9380EF2F
:1012F00090E0DC012C912B7F2C93DA018C918160A2
:101300008C9380818F73808380818068808380E06C
:10131000BDC1F8018785882369F1948192959695DE
:1013200097708581880F880F880F890F8093F3004D
:1013300093819295969597708481880F880F880F76
:10134000890F8093F2009281929596959770838190
:10135000880F880F880F890F8093F1008281880F92
:10136000880F880F8093F000EFEEF0E080818061BD
:10137000808316C0928196959695969583818295E5
:10138000880F807E890F8093F30082818295880F79
:10139000807E8093F200EFEEF0E080818F7E80838C
:1013A000C8010E943C05DC01CB0189839A83AB8391
:1013B000BC839B819295969597708C81880F880F3E
:1013C000880F890F8093F7009A8192959695977070
:1013D0008B81880F880F880F890F8093F600998181
:1013E0009295969597708A81880F880F880F890F3C
:1013F0008093F5008981880F880F880F44EF50E0B3
:10140000FA018083EFEEF0E09081D80116968C917E
:101410001697892B808381E01E968C93DA018C913C
:1014200084608C9380EF90E0DC012C9124602C93FD
:1014300080818F7D8083DA018C9181608C938081A3
:101440008F73808380818068808380E01FC180E00B
:101450002AEF30E0F801A781B085A80FB11D9C915B
:10146000D9019C938F5F96818917A0F38FEF9FEF2F
:10147000DC0189839A83AB83BC839B81929596958B
:1014800097708C81880F880F880F890F8093F700E1
:101490009A819295969597708B81880F880F880F07
:1014A000890F8093F60099819295969597708A811D
:1014B000880F880F880F890F8093F5008981880F26
:1014C000880F880F44EF50E0FA018083EFEEF0E0E0
:1014D0009081D80116968C911697892B808381E094
:1014E0001E968C93DA018C9184608C9380EF90E04F
:1014F000DC012C9124602C93808180628083DA014E
:101500008C918E7F8C9380818F73808380818068A3
:10151000808380E0BBC0F8018785882369F19481CE
:101520009295969597708581880F880F880F890FFF
:101530008093F30093819295969597708481880F9C
:10154000880F880F890F8093F2009281929596956B
:1015500097708381880F880F880F890F8093F1001F
:101560008281880F880F880F8093F000EFEEF0E003
:1015700080818061808316C092819695969596951C
:1015800083818295880F807E890F8093F30082810A
:101590008295880F807E8093F200EFEEF0E08081EC
:1015A0008F7E8083F8018681882379F080E02AEF9E
:1015B00030E0F801A781B085A80FB11D9C91D90139
:1015C0009C938F5F96818917A0F3C8010E943C0508
:1015D000DC01CB0189839A83AB83BC839B81929589
:1015E000969597708C81880F880F880F890F80934C
:1015F000F7009A819295969597708B81880F880F46
:10160000880F890F8093F60099819295969597702F
:101610008A81880F880F880F890F8093F500898150
:10162000880F880F880F44EF50E0FA018083EFEEB7
:10163000F0E09081D80116968C911697892B8083C3
:1016400081E01E968C93DA018C9184608C9380EFFC
:1016500090E0DC012C9124602C9380818062808357
:10166000DA018C9181608C9380818F73808380817B
:101670008068808380E00AC0F801118680E006C09F
:101680008FE1D80119968C9319978FEF0F900F90D7
:101690000F900F90DF91CF911F910F910895EF92CE
:1016A000FF921F93CF93DF93EC018985882309F480
:1016B00096C08F3109F495C08F3F09F494C088819A
:1016C0008295807F8093ED000E94E302182F803284
:1016D00061F0813220F4882309F487C076C0803419
:1016E00009F468C0803A09F070C00F2EFFEEEF2EAB
:1016F000FF24F02DF70180818F708E838F81988574
:101700000E94F6028091F00090E0847090709595B0
:101710008795959587958E87F701808184FF2DC0E9
:1017200081E08F87E3EFF0E080818695869586954E
:101730008D83A2EFB0E08C9190819295990F907E6D
:10174000869586958695890F8C83E1EFF0E0808100
:101750009C919295990F907E869586958695890F96
:101760008B838091F00090819295990F907E869561
:1017700086958695890F8A8313C01F86E3EFF0E074
:1017800080818295869587708B838091F20090810D
:10179000990F990F990F829586958770890F8A8383
:1017A0001987EFEEF0E080818F7380831092EE0056
:1017B00080E01CC080E48987EFEEF0E080818F73C9
:1017C00080831092EE0080E011C01987EFEEF0E008
:1017D00080818F7380831092EE0082E007C082E0E8
:1017E00005C082E003C082E001C081E0DF91CF91BB
:1017F0001F91FF90EF900895FC01362F862F64E62D
:101800000E940014482F405D2AE0832F622F0E941F
:1018100000140E940014905D403331F4903311F0B5
:1018200040E202C090E240E220E220832183228352
:101830002383248325832683278340879187832FCF
:101840006AE00E940014905D928785E28387248776
:10185000258726872787208B218B228B238B089532
:10186000CF93FC01362FC4E6862F6C2F0E94001404
:101870008E5C8083BEE2B1835AE0832F652F0E9485
:101880000014392F0E940014905D9283305D3383E1
:10189000A6E5A48330E235833683842F6C2F0E9423
:1018A00000148E5C8783B087842F652F0E940014FC
:1018B000492F0E940014905D9187405D4287A38765
:1018C000348735873687822F6C2F0E9400148E5CF8
:1018D0008787B08B822F652F0E940014292F0E94CA
:1018E0000014905D918B205D228BA38BCF91089586
:1018F0001F93CF93DF93CDB7DEB764970FB6F894FD
:10190000DEBF0FBECDBF582F192F462FCE01019637
:10191000E0E0F1E024E10190DC010D92CD012150E5
:10192000D1F7842F6AE00E940014B82F6BE00E9468
:101930000014292F30E01216130644F020E030E0A6
:10194000FE01E20FF31F35968AE20FC0FE013596C5
:10195000BF01690F711DCB0166E16193E817F907BB
:10196000E1F72A30310564F306C081932F5F3F4FC2
:101970002A303105D4F34456443630F4FE01E20FE8
:10198000F31F81E3868305C0FE01E20FF31F80E2AF
:101990008683FE01E20FF31F8B2F6AE00E94001482
:1019A000905D9783FE01E20FF31F80E3808785E25D
:1019B0008187E52FF12FDE01119684E10D900192D0
:1019C0008150E1F764960FB6F894DEBF0FBECDBF2D
:1019D000DF91CF911F910895CF93FC01362FC4E67C
:1019E000862F6C2F0E940014805D80835AE0832F25
:1019F000652F0E940014392F0E940014905D91837E
:101A0000305D3283B0EBB383A3E4A48330E235834B
:101A10003683842F6C2F0E940014805D8783842F6F
:101A2000652F0E940014492F0E940014905D90873A
:101A3000405D4187B287A387348735873687822FF9
:101A40006C2F0E940014805D8787822F652F0E9473
:101A50000014292F0E940014905D908B205D218B33
:101A6000B28BA38BCF910895FC01462F20E22083F7
:101A7000218322832383248325832683862F64E680
:101A80000E940014805D87833AE0842F632F0E94B8
:101A90000014492F0E940014905D90878EE2818788
:101AA000405D428786E583872487258726872787A9
:101AB000208B218B228B238B0895CF93DF93FC0106
:101AC000262F643009F440C0653050F4613009F1CC
:101AD0006130B0F0623031F1633009F061C02BC089
:101AE000673009F443C0683020F4653009F058C00D
:101AF00034C06B3009F443C06C3009F051C048C0A9
:101B0000DC01CCE1D3E084E109900D928150E1F752
:101B10004FC0DC01C8E0D3E084E109900D92815010
:101B2000E1F746C0DC01C0EED2E084E109900D92FD
:101B30008150E1F73DC0DC01C4EFD2E084E10990BF
:101B40000D928150E1F734C0DC01C8EBD2E084E1B2
:101B500009900D928150E1F72BC0DC01C4EAD2E07C
:101B600084E109900D928150E1F722C0DC01C0E9C7
:101B7000D2E084E109900D928150E1F719C0DC01B7
:101B8000CCE7D2E084E109900D928150E1F710C0DA
:101B9000DC01C8E6D2E084E109900D928150E1F7C2
:101BA000DF01C4EFD2E084E109900D928150E1F7AA
:101BB000822F64E60E940014805D81833AE0822FC8
:101BC000632F0E940014292F0E940014905D9283BD
:101BD000205D2383DF91CF910895FC01942F80E055
:101BE000860F911D807080E28083818320E32283B1
:101BF00038E73383392F32953F70305D3483905D01
:101C0000958390E396832783808781878287838764
:101C10008487858786878787808B818B828B838B60
:101C20000895CF92DF92EF92FF920F931F93CF937D
:101C3000DF93CDB7DEB764970FB6F894DEBF0FBE63
:101C4000CDBFF82EE92E9B016A0104E610E0CB011E
:101C5000B8010E940C14462F405DEAE0F0E0C90193
:101C6000BF010E940C14CB01BF010E940C14382F3D
:101C7000305DC601B8010E940C14605D403321F450
:101C8000303321F080E204C0842F02C030E280E2D1
:101C9000603309F460E220E229838A833B834C832A
:101CA00040EB4D8333E43E832F83288729872A879F
:101CB0002B872C872D872E876F87688BC6016AE05C
:101CC00070E00E940C14805D898B4A8B3B8B2C8BBF
:101CD000EF2DFE2DDE01119684E10D9001928150D1
:101CE000E1F764960FB6F894DEBF0FBECDBFDF916B
:101CF000CF911F910F91FF90EF90DF90CF900895BB
:101D0000CF93C82F28988AEF0E9431128C2F0E94FF
:101D10003112289ACF910895CF93C82F289888EF31
:101D20000E9431128C2F0E943112289ACF9108956F
:101D3000EF92FF920F931F93CF93DF93D82FC92F6A
:101D4000F62EE72E82E00E948C0E0D2F1C2FC0E095
:101D5000D0E0F80181918F010E94800E2196C4315C
:101D6000D105B9F7C4E1D0E084E10E948C0E21973F
:101D7000D9F70F2D1E2DC0E0D0E0F80181918F0121
:101D80000E94800E2196C431D105B9F7DF91CF9121
:101D90001F910F91FF90EF900895CF93DF938630BE
:101DA00009F470C0873090F4823009F443C0833066
:101DB00030F4882301F1813009F0B8C02FC084309D
:101DC00009F454C0853008F069C042C0893009F474
:101DD0008AC08A3038F4873009F479C0883009F035
:101DE000A5C069C08C3071F08D3009F494C08A3080
:101DF00009F09CC084C084E592E06CE371E00E942D
:101E0000980E94C0CCE3D1E0CE0170E00E945D0D4D
:101E100080E492E0BE010E94980E88C0CCE3D1E03D
:101E2000CE0170E00E94FC0B8CE292E0BE010E94A9
:101E3000980E7CC0CCE3D1E0CE0170E050E030E001
:101E40000E94300C88E192E0BE010E94980E6EC0A4
:101E5000CCE3D1E0CE0170E050E030E00E94EC0C29
:101E600084E092E0BE010E94980E60C0CCE3D1E015
:101E7000CE0170E00E94340D80EF91E0BE010E941F
:101E8000980E54C0CCE3D1E0CE0170E00E94780CF3
:101E900080EA91E0BE010E94980E48C0CCE3D1E0F8
:101EA000CE0170E050E00E94110E84EB91E0BE0183
:101EB0000E94980E3BC0CCE3D1E0CE0170E00E94BE
:101EC000780C88EC91E0BE010E94980E2FC0CCE304
:101ED000D1E0CE0170E00E94780C8CED91E0BE0163
:101EE0000E94980E23C0CCE3D1E0CE0170E00E94A6
:101EF000780C8CE891E0BE010E94980E17C0CCE3EC
:101F0000D1E0CE0170E00E94780C88E791E0BE013C
:101F10000E94980E0BC0CCE3D1E0CE0170E00E948D
:101F2000ED0D80E591E0BE010E94980EDF91CF910A
:101F30000895EF920F938EE10E941B128CB58F775C
:101F40008CBD8CB580618CBD1092F903209A289AC3
:101F50008CE00E948C0E88E30E948C0E80E060E092
:101F600040E020E000E0EE240E94CD0E0F91EF90C3
:101F70000895E82FF92FA0EDB3E084E10D900192D0
:101F80008150E1F7089590933103809330030E94CC
:101F9000F6130895E0913003F09131039081892B7D
:101FA00080830895E0913003F09131031082089509
:101FB00010920A0410920B040895CF93DF93E82F38
:101FC000C0910A04D0E0CE01019660E170E00E9469
:101FD0000C1440910B0450E08417950731F0C65063
:101FE000DC4FE88380930A0403C088E00E94CA0F94
:101FF000DF91CF91089580910B0490910A04981776
:1020000031F0EAEFF3E0E80FF11D808108958AE0F6
:102010000895EF920F93CF93DF9380910B04EAEF33
:10202000F3E0E80FF11D8081843051F1853030F408
:10203000882371F0813009F066C04AC0883009F405
:102040004DC0893009F44DC0873009F05CC043C0F1
:1020500082E393E062E473E042E055E028E00E940E
:10206000C401CAE4D3E0CE016AE573E041E055E083
:1020700021E00E94C4017894CE010E94D50143C0A2
:102080008BB186958695869580FF02C05B9801C0CE
:102090005B9A8FEF809342039091F90390934303EF
:1020A000809344038093450382E393E00E942802D7
:1020B00080916D0390916E030E947E116091870361
:1020C0008DE040E020E000E0EE240E94CD0E1BC039
:1020D0000E94E90018C00E94780215C00E945902AF
:1020E00012C08AE493E00E94E30180915C03609156
:1020F0005D0340915E0320915F0300916003E090D7
:1021000061030E94CD0EDF91CF910F91EF90089562
:1021100090910A0480910B04981761F00E940910B5
:1021200080910B0490E0019660E170E00E940C1435
:1021300080930B0408958C3070F5843039F185302C
:1021400048F48130F9F0813098F08230E9F0833042
:1021500011F51EC0883091F0893028F4853051F097
:102160008730C9F409C0893059F08A30A1F412C00F
:10217000419A0895119A0895139A0895149A08950A
:10218000129A0895A49A0895409A0895A19A0895DC
:10219000A09A08955F9A08958C3090F5843049F1A3
:1021A000853048F48130F9F0813098F08230F9F0D0
:1021B000833031F522C0883091F0893028F48530A1
:1021C00051F08730E9F409C0893059F08A30C1F400
:1021D00016C0419808951198089513980895149879
:1021E00008951298089584B3807E84BB0895409822
:1021F000089584B38C7F84BB0895A09808955F9858
:1022000008958C3008F06AC0843009F454C08530D9
:1022100060F4813009F441C08130B8F0823009F4B3
:1022200044C0833009F059C04DC0883031F1893045
:1022300030F4853091F0873009F04FC015C08930F7
:1022400021F18A3009F049C043C098B1969581E0E8
:10225000913009F443C080E0089592B1969581E0F1
:102260009130E1F180E0089592B19695969596951A
:1022700081E0913099F180E0089592B192959F703C
:1022800081E0913059F180E0089592B1969596954C
:1022900081E0913019F180E0089594B392959F7098
:1022A00081E09130D9F080E0089598B181E09130DB
:1022B000A9F080E0089594B3969581E0913071F093
:1022C00080E0089594B381E0913041F080E008957A
:1022D00081E05F9903C080E0089508950895CF9349
:1022E000C82F0E940111882321F08C2F0E94CC104E
:1022F00003C08C2F0E949B10CF910895EF92FF9204
:102300000F931F93CF93DF937C01C0E0D0E001E0F7
:1023100010E08C2F98010C2E02C0220F331F0A945C
:10232000E2F72E213F212115310511F00E949B106B
:102330002196CB30D10569F7DF91CF911F910F9195
:10234000FF90EF900895399A099A0B9A0C9A0A9A7D
:102350009C9A389A999A989A579A419A119A139AEC
:10236000149A129AA49A409AA19AA09A5F9A8FEF0F
:102370009FEF90936E0380936D030E947E110895EA
:102380000F931F93CF93DF93C0E0D0E08C2F0E9478
:10239000011190E00C2E02C0880F991F0A94E2F7F9
:1023A000082B192B2196CB30D10581F7802F912F47
:1023B000DF91CF911F910F910895089511B814B82E
:1023C00087B1807687B98FEF8AB91DB810BA93B3F9
:1023D000907E93BB82B985B988B99BB19F699BB93F
:1023E0008EB981BB84B38F6184BB08950E94DE11D6
:1023F0000E94A90182E060E00E94801383E060E017
:102400000E9485130E948A130E94BA130E94410100
:102410000E94A3110E94CD000E94990F0E94EA130E
:1024200080E00E94DD0F0895529A5A9808955A9AB2
:1024300008955A980895209A209A94B1966094B974
:102440009CB5907C9CBD9CB58F73892B8CBD8DB544
:102450008DBD8CB580648CBD81E008958DB580788C
:1024600008958EBD0DB407FEFDCF08950DB407FE8F
:10247000FDCF8EB508950DB407FEFDCF8EBD089536
:102480001F920F920FB60F9211240F900FBE0F9054
:102490001F9018951F920F920FB60F9211240F9054
:1024A0000FBE0F901F9018951F920F920FB60F92AC
:1024B00011240F900FBE0F901F9018951F920F922E
:1024C0000FB60F9211242F933F934F935F936F9307
:1024D0007F938F939F93AF93BF93EF93FF93E8E81E
:1024E000F0E080819181805D9A489183808381E0D2
:1024F0000E94DD0FFF91EF91BF91AF919F918F915E
:102500007F916F915F914F913F912F910F900FBEEF
:102510000F901F9018951F920F920FB60F921124D3
:102520002F933F934F935F936F937F938F939F93DB
:10253000AF93BF93EF93FF93EAE8F0E0808191813E
:10254000805A95419183808382E00E94DD0FFF9144
:10255000EF91BF91AF919F918F917F916F915F911B
:102560004F913F912F910F900FBE0F901F90189594
:102570001F920F920FB60F9211242F933F934F93F8
:102580005F936F937F938F939F93AF93BF93EF93DB
:10259000FF93ECE8F0E0808191818856954C91831F
:1025A000808383E00E94DD0FFF91EF91BF91AF9197
:1025B0009F918F917F916F915F914F913F912F915B
:1025C0000F900FBE0F901F9018951F920F920FB68D
:1025D0000F9211242F933F934F935F936F937F93A9
:1025E0008F939F93AF93BF93EF93FF93E8E9F0E04E
:1025F000808191818059964B9183808384E00E94F1
:10260000DD0FFF91EF91BF91AF919F918F917F91DE
:102610006F915F914F913F912F910F900FBE0F904F
:102620001F9018951F920F920FB60F9211242F939F
:102630003F934F935F936F937F938F939F93AF934A
:10264000BF93EF93FF93EAE9F0E08081918180529C
:102650009D469183808385E00E94DD0FFF91EF917D
:10266000BF91AF919F918F917F916F915F914F91AA
:102670003F912F910F900FBE0F901F9018951F92B2
:102680000F920FB60F9211242F933F934F935F93A6
:102690006F937F938F939F93AF93BF93EF93FF932A
:1026A000ECE9F0E0808191818856984491838083A1
:1026B00086E00E94DD0FFF91EF91BF91AF919F9156
:1026C0008F917F916F915F914F913F912F910F90DB
:1026D0000FBE0F901F9018951F920F920FB60F927A
:1026E00011240F900FBE0F901F9018951F920F92FC
:1026F0000FB60F9211240F900FBE0F901F901895D8
:102700008093810060936F0008958093910060939F
:10271000710008958091840090918500805D9A48B1
:102720009093890080938800EFE6F0E080818260DA
:10273000808308958091840090918500805A95410E
:1027400090938B0080938A00EFE6F0E080818460B4
:102750008083089580918400909185008856954CDF
:1027600090938D0080938C00EFE6F0E0808188608C
:102770008083089580919400909195008059964BA4
:102780009093990080939800E1E7F0E08081826067
:1027900080830895809194009091950080529D4689
:1027A00090939B0080939A00E1E7F0E08081846041
:1027B0008083089580919400909195008856984464
:1027C00090939D0080939C00E1E7F0E08081886019
:1027D000808308952BE088E190E00FB6F894A895E7
:1027E000809360000FBE20936000089504B603FE3E
:1027F00006C084B7877F84BF80E10E94CA0F089516
:10280000991B79E004C0991F961708F0961B881F42
:102810007A95C9F78095089597FB092E07260AD067
:1028200077FD04D00CD006D000201AF47095619585
:102830007F4F0895F6F7909581959F4F0895AA1BB5
:10284000BB1B51E107C0AA1FBB1FA617B70710F09B
:10285000A61BB70B881F991F5A95A9F780959095CD
:0A286000BC01CD010895F894FFCFEC
:10286A00202020204142434445464748494A2020E7
:10287A00202020203031323334353637383941423E
:10288A00434445464748494A00000000000000000A
:10289A0000000000000000000000000020202020AE
:1028AA00202020202020202020202020202020201E
:1028BA002020425554544F4E2050524553534544BC
:1028CA00202020202020414343454C455241544971
:1028DA004F4E204D4F4445202020544F52515545CC
:1028EA002020564543544F52494E472020205452E7
:1028FA00414354494F4E20434F4E54524F4C20208F
:10290A0020204D4F544F522054454D502E205245B1
:10291A0041522020204C2020204D4F544F525445E4
:10292A004D502E202020522020204D4F544F52200F
:10293A00504F5745522052454152202020204D4F9A
:10294A00544F5220504F5745522046524F4E542012
:10295A00202020204C5620564F4C544147452020D9
:10296A0020202020204D494E202043454C4C5445E0
:10297A004D5020204D4158204D494E202043454C72
:10298A004C564F4C54414745204D415820205354F2
:10299A00415445204F462043484152474520202074
:1029AA00202020202020204552524F522020202033
:1029BA00202000002020202020414D5A20677269E3
:1029CA006D73656C202020202358585820424144BA
:1029DA0052455155455354204944200023585858CC
:1029EA00204252414B4520502E442E2020202000C8
:1029FA002358585820494D44462020202020202082
:102A0A00202020002358585820494D4420202020B7
:102A1A00202020202020200023585858204856449F
:102A2A004920494E5445525550542000235858586D
:102A3A002050524520424F5453202020202020006D
:102A4A002358585820505245204D4153544552203E
:102A5A00202020002358585820554E4B4E4F574E91
:102A6A00204552524F522000235858582053432091
:102A7A00444F574E20202020202020002358585809
:102A8A002020204E4F4E452020202020202020208C
:00000001FF
