S011000044617368626F6172642E737265638B
S11300000C944A000C946A000C946A000C946A00E4
S11300100C946A000C946A000C946A000C946A00B4
S11300200C946A000C946A000C946A000C946A00A4
S11300300C94B40E0C94E50E0C94160F0C94DA0F79
S11300400C94810E0C948B0E0C94ED010C946A00AC
S11300500C946A000C946A000C946A000C946A0074
S11300600C946A000C946A000C946A000C946A0064
S11300700C94470F0C94780F0C94A90F0C94E40F74
S11300800C946A000C946A000C946A000C946A0044
S11300900C946A0011241FBECFEFD0E1DEBFCDBFA8
S11300A011E0A0E0B1E0E0EBF1E200E00BBF02C040
S11300B007900D92AC31B107D9F71BBE11E0ACE14A
S11300C0B1E001C01D92A13FB107E1F70E946C00AD
S11300D00C94D6100C9400000E94570EA8950E9410
S11300E0D00CFCCFE0918D01F0918E019081913084
S11300F0B1F4282F220F220F41E050E0BA0102C0D0
S1130100660F771F2A95E2F79B0140919501509164
S11301109601242B352B30939601209395019181E0
S11301209130C9F4482F50E0440F551F440F551F18
S11301304F5F5F4F21E030E002C0220F331F4A952A
S1130140E2F74091950150919601242B352B309381
S113015096012093950192819130C9F4482F50E083
S1130160440F551F440F551F4E5F5F4F21E030E091
S113017002C0220F331F4A95E2F740919501509136
S11301809601242B352B309396012093950193816E
S11301909130B9F490E0880F991F880F991F039646
S11301A021E030E002C0220F331F8A95E2F78091EC
S11301B0950190919601822B932B909396018093B5
S11301C095010895CF93DF93CDB7DEB765970FB64A
S11301D0F894DEBF0FBECDBF8EB189838EB18A8302
S11301E088B18B8388B18C838EB18D838EB18E83DD
S11301F085B18F83DE011896E0E0F1E087E001909D
S11302000D928150E1F78DB18F878DB1888B87B1C5
S1130210898B87B18A8B8DB18B8B8DB18C8B84B19B
S1130220CE0101969093940180939301CE01089698
S113023090938E0180938D01CE010F96909390013F
S113024080938F01109292011092910165960FB6DE
S1130250F894DEBF0FBECDBFDF91CF9108950F9309
S11302601F93CF93DF93E0919301F0919401A091B8
S11302708D01B0918E01C1E0D0E0CE0114960C90B6
S113028002C0880F991F0A94E2F78095948189230C
S1130290848302E710E080E090E0F8010995E091A2
S11302A09301F0919401A0918D01B0918E01CE0142
S11302B014960C90149702C0880F991F0A94E2F7C1
S11302C09481892B8483CE0115960C9002C0880FEB
S11302D0991F0A94E2F7809595818923858381E0AB
S11302E090E0F8010995E0919301F0919401A091B7
S11302F08D01B0918E01CE0115960C90159702C018
S1130300880F991F0A94E2F79581892B8583CE0182
S113031016960C9002C0880F991F0A94E2F78095F4
S113032096818923868382E090E0F8010995E09123
S11303309301F0919401A0918D01B0918E011696D4
S11303400C90169702C0CC0FDD1F0A94E2F7868149
S1130350C82BC683809195019091960120919101BB
S11303603091920182239323909396018093950177
S1130370DF91CF911F910F910895209195013091B4
S11303809601A90102C0569547958A95E2F7CA01DC
S113039081700895089A0895109A08951098089500
S11303A0CF93C82F0E94CC018C2F90E044E650E0FC
S11303B0849F9001859F300D949F300D1124121657
S11303C0130634F480E090E0019682179307E1F776
S11303D00E94CE01CF91089508951F920F920FB6F7
S11303E00F920BB60F9211242F933F934F935F9369
S11303F06F937F938F939F93AF93BF93CF93EF9319
S1130400FF93C091EE00C0FF08C089E00E94A40CD5
S1130410EEEEF0E080818E7F8083C6FF08C08AE024
S11304200E94A40CEEEEF0E080818F7B8083C5FFF8
S113043008C08BE00E94A40CEBEDF0E080818F7784
S11304408083FF91EF91CF91BF91AF919F918F9155
S11304507F916F915F914F913F912F910F900BBEC0
S11304600F900FBE0F901F90189585E00E94EC0529
S11304701092EE00EBEDF0E08081886B80838FE7D3
S11304808093DF008FEF8093DE001092A101109221
S1130490A3011092A2011092A5011092A401089543
S11304A0FC017087678317861686538342832683ED
S11304B08FEF97E0A0E0B0E082879387A487B587A9
S11304C008959093A5018093A40125E0FC01218364
S11304D08091A4019091A5010E94010608950E94B3
S11304E0DB0BEBEDF0E080818068808308959091D0
S11304F0A1018091A301981741F1E091A401F09129
S1130500A501309741F08CE081838091A401909102
S1130510A5010E940106E091A301F0E0EE0FFF1F88
S1130520E956FE4FA081B18182E011968C938081BF
S113053091810E940106882321F081E00E94910CA0
S1130540089581E08093A2010895E091A401F091BF
S1130550A501309741F085E081838091A4019091B9
S1130560A5010E9401060895CF93DF93EC01E09169
S1130570A101F0E0CF01019665E070E00E94AF10A8
S11305802091A30130E08217930749F0EE0FFF1F7B
S1130590E956FE4FD183C0838093A10103C084E058
S11305A00E94910C8091A201882311F40E94770289
S11305B0DF91CF910895E091A301F0E0EE0FFF1FCA
S11305C0E956FE4F808191810895E091A301F0E006
S11305D0EE0FFF1FE956FE4FA081B1818CE011960A
S11305E08C93808191810E9401061092A2018091D6
S11305F0A30190E0019665E070E00E94AF10809343
S1130600A3010E94770208958091A2018130F9F438
S1130610E091A301F0E0EE0FFF1FE956FE4FA08129
S1130620B1818CE011968C93808191810E940106A6
S113063082E00E94910C1092A2018091A30190E0AB
S1130640019665E070E00E94AF108093A3010895C5
S1130650CF93DF93EC018CE08983CE010E940106E5
S1130660CE010E94DB0B8130D9F385E08983CE0172
S11306700E940106DF91CF91089520E0ADEEB0E035
S11306808EEE90E0322F3295307F3C93FC01119234
S1130690E83FF105E1F72F5F2F30A1F70895EDEE64
S11306A0F0E0208110828091EF00807C69F081E08D
S11306B0ADEEB0E0EFEEF0E0982F9295907F9C9332
S11306C09081907C29F401C080E02093ED0008958E
S11306D08F5F8F3089F72093ED008FEF089580911D
S11306E0EF00807C69F09091EE00892F807E80324B
S11306F041F0803431F0803A21F0892F8F710895D0
S11307008FEF0895CF93DF93AC018091EF0090E0D9
S11307108F70907018161906A4F460E0EAEFF0E008
S1130720CFEED0E08081DA01A60FB11D8C936F5F0C
S11307308881262F30E090E08F7090702817390759
S11307408CF3DF91CF9108952F923F924F925F9255
S11307506F927F928F929F92AF92BF92CF92DF92CD
S1130760EF92FF920F931F93CF93DF9300D000D0AB
S113077000D0CDB7DEB7882309F47CC08091E200B5
S113078090E08E77907095958795019682309105CB
S11307905CF08091E20090E08E779070959587955B
S11307A0282F2F5F298302C081E089838091E30091
S11307B090E08E70907095958795019682309105A2
S11307C054F08091E30090E08E7090709595879539
S11307D0382E339402C0332433948091E40090E0A3
S11307E08E7090709595879501968330910554F09D
S11307F08091E40090E08E70907095958795782EA6
S1130800739403C07724689471F88091E40090E0B5
S1130810807790709595879595958795959587950B
S11308209595879501968330910584F08091E40035
S113083090E0807790709595879595958795959597
S1130840879595958795682E639403C0662468946C
S113085061F8872D90E0830D911D860D911D019601
S11308608830910514F488E090E08A8340E02224E3
S1130870239410C041E022246624689461F877240C
S1130880689471F898E09A830F2EF3E03F2EF02DD0
S1130890A1E0A98320E0ADEEB0E08EEE90E0322F2F
S11308A03295307F3C93FC011192E83FF105E1F76A
S11308B02F5F2F30A1F7A42E622DDD2488249924E4
S11308C070E00F2EF8EDEF2EFF24F02D51E0E9ED4E
S11308D0F0E00AED10E020E0C52EB22EB2E0BB83BA
S11308E088E08E8391E0A91609F057C0D7015C9384
S11308F00894811C911C89818150880FA2EEB0E07C
S11309008C93862D869590E001972C01440C551C00
S1130910440C551C440C551C440C551C440C551CCF
S1130920832D90E00197880F991F8429A3EEB0E0EE
S11309308C93862D90E001972C01440C551C440C9B
S1130940551C440C551C440C551C872D90E00197F4
S1130950880F991F84298160A4EEB0E08C93C401B0
S1130960969587959695879596958795A5EEB0E08B
S11309708C93ADEEB0E01C92AEEEB0E01C9280E839
S1130980AFEEB0E08C938AE0D7018C93808182FF34
S1130990FDCF8FEFD8018C93722F4130B1F5AEEEBD
S11309A0B0E08C9190E085FF0EC0AFEEB0E08C918A
S11309B08F738C93D7011C92808182FDFDCFD52E3D
S11309C0622F322FBEC08F719070009711F06C2D82
S11309D04B2DD8014C90552445FE0DC0772329F4A6
S11309E08C9180628C937C2D06C0D8018C9180629E
S11309F08C936C2D4B2DC2018F709070009709F071
S1130A009DC0413061F2352F01C0352F613009F0AE
S1130A1078C0832F372D7A2CAD2CD72E782F211028
S1130A203F5F393078F1B7E0B61560F58A818931D6
S1130A3031F08F5F8A832B2C6B80362D59C09981BE
S1130A40903441F09F5F99832B2C6B80362DAE81BF
S1130A50AA834EC0A72C7D2DAFEEB0E08C918F738E
S1130A608C93D7011C92808182FDFDCFD22E322F30
S1130A70222E6624689461F87724689471F8B8E0AB
S1130A80BA8369C0363058F0432E5524862D90E041
S1130A9001968415950524F46394362D01C0632EC4
S1130AA0362C330E30948A81380E832D8150883051
S1130AB0E0F4462C5524832D90E0DC011196A30F1D
S1130AC0B11DBD83AC83C201880F991F880F991F84
S1130AD08A179B0764F0C201880F991F840D951D26
S1130AE0A817B90784F52C2C03C02C2C01C02C2C7E
S1130AF0613009F494CF872F7D2DDA2CA72C732E27
S1130B00382F313009F4EECE8D2D26960FB6F89499
S1130B10DEBF0FBECDBFDF91CF911F910F91FF902C
S1130B20EF90DF90CF90BF90AF909F908F907F9089
S1130B306F905F904F903F902F900895A52E652F52
S1130B40352F422F63CF872F7D2DDA2CA72C732EC0
S1130B50382F452F252E622FD4CF8093E200609347
S1130B60E3004093E40081E0089591E09093D8007D
S1130B70853031F482E068E045E20E94AD0506C0AC
S1130B801092E2001092E3001092E40081E00895D4
S1130B900F931F93FC018785882391F402851385A5
S1130BA0248535850F2EF2E1000F111F221F331FFC
S1130BB0FA95D1F7F02D0F6F1F6F2360306E05C0CB
S1130BC00285138524853585306E602F712F822F21
S1130BD0932F1F910F9108950E94B505882349F022
S1130BE00E943D03E8EDF0E080818260808381E033
S1130BF0089580E00895E8EDF0E080818D7F8083A2
S1130C0008950F931F93CF93DF9300D000D0CDB7F7
S1130C10DEB78C01DC0111968C9111978C30B1F404
S1130C2019968C911997803669F48C918295807FFE
S1130C308093ED00EFEEF0E080818F73808310925B
S1130C40EE001C92F801118680E0ACC50E944F03AF
S1130C508F3F09F4A1C590E6D80119969C93199782
S1130C608C938295807F8093ED00EEEEF0E01192FC
S1130C70E83FF105E1F7F8018181863009F456C2B5
S1130C80873090F4833009F412C1843030F4813019
S1130C9011F1823009F07CC598C0843009F467C131
S1130CA0853009F075C5AAC1893009F4BEC38A30FC
S1130CB038F4873009F48FC2883009F069C51BC342
S1130CC08A3021F08B3009F063C5B1C48681882352
S1130CD009F049C457C4F8018785882369F19481D0
S1130CE09295969597708581880F880F880F890F44
S1130CF08093F30093819295969597708481880FE1
S1130D00880F880F890F8093F200928192959695AF
S1130D1097708381880F880F880F890F8093F10063
S1130D208281880F880F880F8093F000EFEEF0E047
S1130D3080818061808316C0928196959695969560
S1130D4083818295880F807E890F8093F30082814E
S1130D508295880F807E8093F200EFEEF0E0808130
S1130D608F7E8083F8018681882379F080E02AEFE2
S1130D7030E0F801A781B085A80FB11D9C91D9017D
S1130D809C938F5F96818917A0F3F8018685882349
S1130D9031F0E0EFF0E080818460808305C0E0EF13
S1130DA0F0E080818B7F8083EFEEF0E09081D801CA
S1130DB016968C911697892B808380818F738083FC
S1130DC080818064808380E0EDC4F8018785882376
S1130DD069F194819295969597708581880F880F13
S1130DE0880F890F8093F30093819295969597705D
S1130DF08481880F880F880F890F8093F200928175
S1130E009295969597708381880F880F880F890F24
S1130E108093F1008281880F880F880F8093F000FF
S1130E20EFEEF0E080818061808316C09281969518
S1130E309695969583818295880F807E890F8093FD
S1130E40F30082818295880F807E8093F200EFEE1A
S1130E50F0E080818F7E8083F8018681882379F099
S1130E6080E02AEF30E0F801A781B085A80FB11D1A
S1130E709C91D9019C938F5F96818917A0F3F80107
S1130E801686E0EFF0E080818B7F8083EFEEF0E068
S1130E909081D80116968C911697892B8083808136
S1130EA08F73808380818064808380E07BC4F801B9
S1130EB08785882369F194819295969597708581A9
S1130EC0880F880F880F890F8093F3009381929580
S1130ED0969597708481880F880F880F890F809367
S1130EE0F20092819295969597708381880F880F6E
S1130EF0880F890F8093F1008281880F880F880FF3
S1130F008093F000EFEEF0E080818061808316C072
S1130F10928196959695969583818295880F807E89
S1130F20890F8093F30082818295880F807E80935D
S1130F30F200EFEEF0E080818F7E808381E0F801A3
S1130F408687E0EFF0E0808184608083EFEEF0E05C
S1130F509081D80116968C911697892B8083808175
S1130F608F73808380818064808380E01BC48FEFD3
S1130F709FEFDC0189839A83AB83BC839B81929529
S1130F80969597708C81880F880F880F890F8093AE
S1130F90F7009A819295969597708B81880F880FA8
S1130FA0880F890F8093F600998192959695977092
S1130FB08A81880F880F880F890F8093F5008981B3
S1130FC0880F880F880F24EF30E0F9018083EFEE5B
S1130FD0F0E09081D80116968C91892B8083D901F9
S1130FE08C918B7F8C938C918E7F8C9380818F736B
S1130FF0808380818068808380E0D4C3F801878502
S1131000882369F194819295969597708581880FCC
S1131010880F880F890F8093F3009381929596959A
S113102097708481880F880F880F890F8093F2004E
S113103092819295969597708381880F880F880F77
S1131040890F8093F1008281880F880F880F809325
S1131050F000EFEEF0E080818061808316C0928121
S113106096959695969583818295880F807E890FB3
S11310708093F30082818295880F807E8093F200B2
S1131080EFEEF0E080818F7E80838FEF9FEFDC01B5
S113109089839A83AB83BC839B8192959695977041
S11310A08C81880F880F880F890F8093F7009A81AD
S11310B09295969597708B81880F880F880F890F6A
S11310C08093F60099819295969597708A81880FFE
S11310D0880F880F890F8093F5008981880F880F06
S11310E0880F44EF50E0FA018083EFEEF0E0908146
S11310F0D80116968C911697892B80831E961C9284
S1131100DA018C9184608C9380EF90E0DC012C9167
S11311102B7F2C93DA018C9181608C9380818F7367
S1131120808380818068808380E03CC38FEF9FEF61
S1131130DC0189839A83AB83BC839B8192959695CA
S113114097708C81880F880F880F890F8093F70020
S11311509A819295969597708B81880F880F880F46
S1131160890F8093F60099819295969597708A815C
S1131170880F880F880F890F8093F5008981880F65
S1131180880F880F44EF50E0FA018083EFEEF0E01F
S11311909081D80116968C911697892B808381E0D3
S11311A01E968C93DA018C9184608C9380EF90E08E
S11311B0DC012C9124602C9380818F7D8083DA0163
S11311C08C918E7F8C9380818F73808380818068E3
S11311D0808380E0E7C2F8018785882369F19481E0
S11311E09295969597708581880F880F880F890F3F
S11311F08093F30093819295969597708481880FDC
S1131200880F880F890F8093F200928192959695AA
S113121097708381880F880F880F890F8093F1005E
S11312208281880F880F880F8093F000EFEEF0E042
S113123080818061808316C092819695969596955B
S113124083818295880F807E890F8093F300828149
S11312508295880F807E8093F200EFEEF0E080812B
S11312608F7E8083C8010E94C805DC01CB0189837D
S11312709A83AB83BC839B819295969597708C815E
S1131280880F880F880F890F8093F7009A819295B1
S1131290969597708B81880F880F880F890F80939C
S11312A0F60099819295969597708A81880F880F98
S11312B0880F890F8093F5008981880F880F880F24
S11312C024EF30E0F9018083EFEEF0E09081D80163
S11312D016968C91892B8083D9018C918B7F8C936A
S11312E08C9181608C9380818F73808380818068EE
S11312F0808380E057C2F8018785882369F194814F
S11313009295969597708581880F880F880F890F1D
S11313108093F30093819295969597708481880FBA
S1131320880F880F890F8093F20092819295969589
S113133097708381880F880F880F890F8093F1003D
S11313408281880F880F880F8093F000EFEEF0E021
S113135080818061808316C092819695969596953A
S113136083818295880F807E890F8093F300828128
S11313708295880F807E8093F200EFEEF0E080810A
S11313808F7E8083C8010E94C805DC01CB0189835C
S11313909A83AB83BC839B819295969597708C813D
S11313A0880F880F880F890F8093F7009A81929590
S11313B0969597708B81880F880F880F890F80937B
S11313C0F60099819295969597708A81880F880F77
S11313D0880F890F8093F5008981880F880F880F03
S11313E044EF50E0FA018083EFEEF0E09081D80101
S11313F016968C911697892B80831E961C92DA017F
S11314008C9184608C9380EF90E0DC012C912B7F95
S11314102C93DA018C9181608C9380818F7380830B
S113142080818068808380E0BDC1F801878588233E
S113143069F194819295969597708581880F880FAC
S1131440880F890F8093F3009381929596959770F6
S11314508481880F880F880F890F8093F20092810E
S11314609295969597708381880F880F880F890FBE
S11314708093F1008281880F880F880F8093F00099
S1131480EFEEF0E080818061808316C092819695B2
S11314909695969583818295880F807E890F809397
S11314A0F30082818295880F807E8093F200EFEEB4
S11314B0F0E080818F7E8083C8010E94C805DC0132
S11314C0CB0189839A83AB83BC839B819295969548
S11314D097708C81880F880F880F890F8093F7008D
S11314E09A819295969597708B81880F880F880FB3
S11314F0890F8093F60099819295969597708A81C9
S1131500880F880F880F890F8093F5008981880FD1
S1131510880F880F44EF50E0FA018083EFEEF0E08B
S11315209081D80116968C911697892B808381E03F
S11315301E968C93DA018C9184608C9380EF90E0FA
S1131540DC012C9124602C9380818F7D8083DA01CF
S11315508C9181608C9380818F738083808180687B
S1131560808380E01FC180E02AEF30E0F801A7818A
S1131570B085A80FB11D9C91D9019C938F5F968172
S11315808917A0F38FEF9FEFDC0189839A83AB83E4
S1131590BC839B819295969597708C81880F880F58
S11315A0880F890F8093F7009A819295969597708A
S11315B08B81880F880F880F890F8093F60099819B
S11315C09295969597708A81880F880F880F890F56
S11315D08093F5008981880F880F880F44EF50E0CD
S11315E0FA018083EFEEF0E09081D80116968C9199
S11315F01697892B808381E01E968C93DA018C9157
S113160084608C9380EF90E0DC012C9124602C9317
S1131610808180628083DA018C918E7F8C938081BB
S11316208F73808380818068808380E0BBC0F801F1
S11316308785882369F19481929596959770858121
S1131640880F880F880F890F8093F30093819295F8
S1131650969597708481880F880F880F890F8093DF
S1131660F20092819295969597708381880F880FE6
S1131670880F890F8093F1008281880F880F880F6B
S11316808093F000EFEEF0E080818061808316C0EB
S1131690928196959695969583818295880F807E02
S11316A0890F8093F30082818295880F807E8093D6
S11316B0F200EFEEF0E080818F7E8083F801868176
S11316C0882379F080E02AEF30E0F801A781B08523
S11316D0A80FB11D9C91D9019C938F5F96818917A6
S11316E0A0F3C8010E94C805DC01CB0189839A8359
S11316F0AB83BC839B819295969597708C81880F60
S1131700880F880F890F8093F7009A819295969598
S113171097708B81880F880F880F890F8093F6004C
S113172099819295969597708A81880F880F880F72
S1131730890F8093F5008981880F880F880F44EF03
S113174050E0FA018083EFEEF0E09081D801169624
S11317508C911697892B808381E01E968C93DA01F5
S11317608C9184608C9380EF90E0DC012C91246058
S11317702C93808180628083DA018C9181608C93C8
S113178080818F73808380818068808380E00AC039
S1131790F801118680E006C08FE1D80119968C9378
S11317A019978FEF0F900F900F900F90DF91CF91BB
S11317B01F910F910895EF92FF921F93CF93DF93A0
S11317C0EC018985882309F496C08F3109F495C00A
S11317D08F3F09F494C088818295807F8093ED00C7
S11317E00E946F03182F803261F0813220F4882325
S11317F009F487C076C0803409F468C0803A09F0DF
S113180070C00F2EFFEEEF2EFF24F02DF701808124
S11318108F708E838F8198850E9482038091F0005F
S113182090E08470907095958795959587958E87AF
S1131830F701808184FF2DC081E08F87E3EFF0E022
S113184080818695869586958D83A2EFB0E08C91F4
S113185090819295990F907E869586958695890FAD
S11318608C83E1EFF0E080819C919295990F907EBA
S1131870869586958695890F8B838091F00090815B
S11318809295990F907E869586958695890F8A8381
S113189013C01F86E3EFF0E0808182958695877000
S11318A08B838091F2009081990F990F990F829503
S11318B086958770890F8A831987EFEEF0E080811F
S11318C08F7380831092EE0080E01CC080E48987CF
S11318D0EFEEF0E080818F7380831092EE0080E061
S11318E011C01987EFEEF0E080818F73808310922E
S11318F0EE0082E007C082E005C082E003C082E01F
S113190001C081E0DF91CF911F91FF90EF90089586
S11319100895089590931D0180931C010E94A510C1
S11319200895E0911C01F0911D019081892B808321
S11319300895E0911C01F0911D0110820895109208
S1131940EF011092F0010895CF93DF93E82FC09137
S1131950EF01D0E0CE01019660E170E00E94AF108B
S11319604091F00150E08417950731F0C152DE4FE9
S1131970E8838093EF0103C088E00E94910CDF911B
S1131980CF9108958091F0019091EF01981731F073
S1131990EFEDF1E0E80FF11D808108958CE00895EA
S11319A0CF93DF938091F0019091EF01981709F4A0
S11319B07FC0EFEDF1E0E80FF11D8081893009F47B
S11319C05BC08A3040F4813089F1813070F083301B
S11319D009F064C030C08B3009F45CC08B3008F46B
S11319E04EC08D3009F05AC047C08EE191E06EE2DE
S11319F071E043E055E022E00E94500286E391E06A
S1131A0066E471E044E055E022E00E945002CEE436
S1131A10D1E0CE016EE571E041E055E021E00E94A5
S1131A2050027894CE010E94610238C086E391E0AE
S1131A300E94B40233C0C1E0D0E0CE010090710135
S1131A4002C0880F991F0A94E2F790917E01892BB6
S1131A5080937E018EE191E00E94B40200907101B6
S1131A6002C0CC0FDD1F0A94E2F7C09580917E017D
S1131A70C823C0937E0112C00E9404030FC00E94B9
S1131A80DB0221E08633920711F40E94990C0E9434
S1131A90E50204C08EE491E00E946F028091F0019F
S1131AA090E0019660E170E00E94AF108093F00135
S1131AB0DF91CF9108958C3090F490E0FC01E958C7
S1131AC0FE4FDC01A659BE4F81E090E00C9002C0AD
S1131AD0880F991F0A94E2F79081892B80830895D7
S1131AE090E0FC01E958FE4FDC01A659BE4F81E0AD
S1131AF090E00C9002C0880F991F0A94E2F7809539
S1131B009081892380830895EF92FF920F931F930E
S1131B10CF93DF937C01C0E0D0E001E010E08C2F94
S1131B2098010C2E02C0220F331F0A94E2F72E21D3
S1131B303F212115310511F00E945B0D2196CB3018
S1131B40D10569F7DF91CF911F910F91FF90EF902D
S1131B500895CF93DF932AE631E041E040936A0190
S1131B6040936F0192E09093700163E06093710180
S1131B7084E0809372019093730180936B011092BF
S1131B806C0110926E0110926D0157E05093740134
S1131B904093820140938701909388016093890167
S1131BA080938A0190938B01809383011092840126
S1131BB0109286011092850150938C014093770115
S1131BC040937C0190937D0160937E0180937F011B
S1131BD090938001809378011092790110927B0197
S1131BE010927A0150938101F901A2E8B1E0C7E7AC
S1131BF0D1E0255F3F4F41E050E0CA01019002C0AF
S1131C00880F991F0A94E2F79C91982B9D939881D1
S1131C10892B8993E217F30781F78FEF9FEF909356
S1131C207601809375010E94840DDF91CF91089510
S1131C30282F30E0F901E659FE4F81E090E0008062
S1131C4002C0880F991F0A94E2F729583E4FF90100
S1131C509081892308950F931F93CF93DF93C0E05E
S1131C60D0E08C2F0E94180E90E00C2E02C0880F3A
S1131C70991F0A94E2F7082B192B2196CB30D10532
S1131C8081F7802F912FDF91CF911F910F910895AC
S1131C90CF93C82F0E94180E882321F08C2F0E9406
S1131CA0700D03C08C2F0E945B0DCF91089511B865
S1131CB014B887B1807687B98FEF8AB91DB810BA86
S1131CC093B3907E93BB82B985B988B99BB19F6960
S1131CD09BB98EB981BB84B38F6184BB0E943502EA
S1131CE082E060E00E94EE0F0E94F80F0E9418103C
S1131CF00E94CA010E94991080E00E94A40C0895D9
S1131D0008951F920F920FB60F9211240F900FBED9
S1131D100F901F9018951F920F920FB60F920BB64B
S1131D200F9211242F933F934F935F936F937F935D
S1131D308F939F93AF93BF93EF93FF9387E00E949A
S1131D40A40CFF91EF91BF91AF919F918F917F91DF
S1131D506F915F914F913F912F910F900BBE0F9018
S1131D600FBE0F901F9018951F920F920FB60F92EF
S1131D700BB60F9211242F933F934F935F936F935E
S1131D807F938F939F93AF93BF93EF93FF93E8E871
S1131D90F0E080819181845B924E9183808381E025
S1131DA00E94A40CFF91EF91BF91AF919F918F91ED
S1131DB07F916F915F914F913F912F910F900BBE47
S1131DC00F900FBE0F901F9018951F920F920FB691
S1131DD00F920BB60F9211242F933F934F935F935F
S1131DE06F937F938F939F93AF93BF93EF93FF93DF
S1131DF0EAE8F0E0808191818856954C9183808354
S1131E0082E00E94A40CFF91EF91BF91AF919F914A
S1131E108F917F916F915F914F913F912F910F908F
S1131E200BBE0F900FBE0F901F9018951F920F922C
S1131E300FB60F920BB60F9211242F933F934F932B
S1131E405F936F937F938F939F93AF93BF93EF931E
S1131E50FF93ECE8F0E080819181805D9A48918362
S1131E60808383E00E94A40CFF91EF91BF91AF9116
S1131E709F918F917F916F915F914F913F912F919E
S1131E800F900BBE0F900FBE0F901F9018951F92CE
S1131E900F920FB60F920BB60F9211242F933F930C
S1131EA04F935F936F937F938F939F93AF93BF935E
S1131EB0EF93FF93E8E9F0E080819181825C964B97
S1131EC09183808384E00E94A40CFF91EF91BF91E1
S1131ED0AF919F918F917F916F915F914F913F91BE
S1131EE02F910F900BBE0F900FBE0F901F9018955F
S1131EF01F920F920FB60F920BB60F9211242F93CD
S1131F003F934F935F936F937F938F939F93AF937D
S1131F10BF93EF93FF93EAE9F0E0808191818458C5
S1131F209D469183808385E00E94A40CFF91EF91EC
S1131F30BF91AF919F918F917F916F915F914F91DD
S1131F403F912F910F900BBE0F900FBE0F901F90DB
S1131F5018951F920F920FB60F920BB60F92112481
S1131F602F933F934F935F936F937F938F939F939D
S1131F70AF93BF93EF93FF93ECE9F0E080819181FD
S1131F80805E98449183808386E00E94A40CFF9134
S1131F90EF91BF91AF919F918F917F916F915F91DD
S1131FA04F913F912F910F900BBE0F900FBE0F904A
S1131FB01F9018951F920F920FB60F9211240F9035
S1131FC00FBE0F901F9018951F920F920FB60F928D
S1131FD011240F900FBE0F901F90189580938100CD
S1131FE060936F0008958093910060937100089549
S1131FF08091840090918500845B924E9093890037
S113200080938800EFE6F0E0808182608083089509
S113201080918400909185008856954C90938B0014
S113202080938A00EFE6F0E08081846080830895E5
S11320308091840090918500805D9A4890938D00F2
S113204080938C00EFE6F0E08081886080830895BF
S11320508091940090919500825C964B90939900A6
S113206080939800E1E7F0E08081826080830895A6
S1132070809194009091950084589D4690939B0084
S113208080939A00E1E7F0E0808184608083089582
S11320908091940090919500805E984490939D0067
S11320A080939C00E1E7F0E080818860808308955C
S11320B08FEF90E090936701809366018FEF87BD67
S11320C08AE784BDEEE6F0E0808181608083089534
S11320D0682F70E04091660150916701CB01841B29
S11320E0950B9C0112F42D5F3F4F3595279535953F
S11320F02795240F351F30936701209366019C01B7
S1132100992314F42F5F3F4F35952795620F731F62
S113211070936901609368016F3F710521F01CF0B1
S11321208FEF87BD0895772314F417BC089567BD16
S113213008952BE088E190E00FB6F894A895809379
S113214060000FBE20936000089504B603FE06C02D
S113215084B7877F84BF80E10E94910C089597FB28
S1132160092E07260AD077FD04D00CD006D0002013
S11321701AF4709561957F4F0895F6F790958195BF
S11321809F4F0895AA1BBB1B51E107C0AA1FBB1F89
S1132190A617B70710F0A61BB70B881F991F5A95EF
S11321A0A9F780959095BC01CD010895F894FFCFCF
S11321B00405060306070030313233343536373828
S10F21C0394142434445464748494A001F
S9030000FC
